:1000000000000320D101000041310000F930000060
:10001000F9300000F9300000F9300000F93000003C
:10002000F9300000F9300000F930000041310000E3
:1000300041310000F9300000CD360000D13700001A
:1000400041310000413100004131000041310000E8
:1000500041310000413100004131000041310000D8
:1000600041310000413100004131000041310000C8
:1000700041310000413100004131000041310000B8
:1000800041310000413100004131000041310000A8
:100090004131000041310000413100004131000098
:1000A0004131000041310000413100004131000088
:1000B0004131000041310000413100000D320000AB
:1000C00041310000F52E0000413100000D350000E7
:1000D0004131000021300000413100004131000079
:1000E0004131000041310000413100004131000048
:1000F0004131000041310000413100004131000038
:100100004131000041310000413100004131000027
:10011000413100002D22000041310000413100003A
:100120004131000041310000413100004131000007
:1001300041310000413100004131000041310000F7
:100140004131000041310000FD2D0000413100002F
:1001500041310000413100004131000041310000D7
:1001600041310000413100004131000041310000C7
:1001700041310000413100004131000041310000B7
:1001800041310000413100004131000041310000A7
:10019000413100004131000039330000413100009D
:1001A0004131000041310000413100004131000087
:1001B0004131000041310000413100004131000077
:1001C0004131000041310000413100004131000067
:1001D0005C4B4CF2205210B51A804DF628121A8052
:1001E00000BF00BF02F0B0FF574B4FF030621A6003
:1001F000564A9A60564ADA60564B4FF470021A60BB
:10020000554B564A1A60564A136813F4807304D14A
:1002100054490B604FF4A8531360534B1A781107DD
:1002200003D51A7842F008021A70504B5049AA229E
:100230001A70504A504B8B4204D252F8040F43F8C4
:10024000040BF8E74D4B4E4900228B4202D243F893
:10025000042BFAE74B494C4A002352F8230041F89B
:1002600023000133742BF8D1484B494A802103F80D
:10027000011B9342FBD1474B424A1A60464B8A22EC
:100280001A70A3F5805324225A70A0221A709A790A
:100290009207FCD59A79D406FCD4404A937903F0AE
:1002A0000C03082BFAD13E4B60221A7002331A78E5
:1002B000802AFCD1394B01221A715D225A719A7938
:1002C0009006FCD59979354A4906FBD5354B364918
:1002D00019600021596020231370937903F00C03F7
:1002E0000C2BFAD1314B324A1A60324B324A1A6027
:1002F00000225A60072243F8042C304AC3F80C2D20
:1003000062B601F007FB174B1B68DA0705D52C48CE
:1003100001F082FA2B4B2C4A1A602C4B1B785B069F
:1003200009D5284C284B22689A4204D1244801F070
:1003300073FA0023236003F059FA02F00BFF02F076
:1003400043FDFEE70E20054030800440823F04005C
:100350000100002B88ED00E0002008E0030000858C
:1003600010D0034014D0034002D0074000E0074003
:10037000AC15FF1FA8440000400CFF1FB015FF1F65
:10038000F01DFF1F0002FF1F0000000000E400E05E
:1003900064E400E008ED00E0005006400040064044
:1003A00001E007404480044000000602048004404D
:1003B000C010070014E000E01FBF02000000202072
:1003C000310000001CE00340A5C3945A00F0074030
:1003D000FFFFFFFFFFFFFFFFFFFFFFFFFFFFFFFF2D
:1003E000FFFFFFFFFFFFFFFFFFFFFFFFFFFFFFFF1D
:1003F000FFFFFFFFFFFFFFFFFFFFFFFFFFFFFFFF0D
:10040000FFFFFFFFFFFFFFFFFFFFFFFFDEF9FFFF23
:1004100010B5054C237833B9044B13B10448AFF33E
:1004200000800123237010BDB015FF1F00000000E5
:10043000AC440000084B10B51BB108490848AFF3A5
:1004400000800848036803B910BD074B002BFBD0A0
:10045000BDE81040184700BF00000000B415FF1FA2
:10046000AC440000AC15FF1F0000000038B5044686
:100470000023192580E80600C8B22374E560012135
:1004800001F0F0F92078217901F0D8F9204638BD43
:10049000704700BF2DE9F041002092B001F078FBD9
:1004A000002840F0C881A34CA34D95F8200001F02E
:1004B000CBF9AA68E86090420346014600F0D1817A
:1004C00022681192119A6A612068109010988242F5
:1004D00008D06A68984E934200F0D1817360002B77
:1004E00000F0D181954EA96096F8200001F0ACF99A
:1004F000B268F06090420346014600F0B081226885
:100500000F920F9A726120680E900E98824208D066
:1005100072688A4D934200F0AE816B60002B00F050
:10052000CA81874DB16095F8200001F08DF9AA6865
:10053000E86090420346014600F0958122680D92E2
:100540000D9A6A6120680C900C98904208D06A68F5
:100550007B4E934200F095817360002B00F0C381C5
:10056000784EA96096F8200001F06EF9B268F0604C
:1005700090420346014600F07A8122680B920B9A62
:10058000726120680A900A98904208D072686D4D96
:10059000934200F06E816B60002B00F0BC816A4DCD
:1005A000B16095F8200001F04FF9AA68E860904228
:1005B0000346014600F0598122680992099A6A614E
:1005C00020680890089890421DD06A685E4E934259
:1005D00000F053817360B3B9327C002A40F06E831F
:1005E000B36993E80300B1FA81F149095960C0B2D7
:1005F00001F024F93368F269F168013B13441A7E73
:1006000082F001021A76514EA960337C43B123680F
:100610000793079BB168F2685B1A934200F2FE8071
:100620004B4D2B7C43B123680693069BA968EA686F
:100630005B1A934200F2E580464D2B7C43B1236860
:100640000593059BA968EA685B1A934200F2CC8087
:10065000414D2B7C43B123680493049BA968EA684D
:100660005B1A934200F2B3803C4D2B7C43B123686C
:100670000393039BA968EA685B1A934200F29A808D
:10068000374C207800F0E8FFA3686060984205D0FE
:10069000C31A002BB8BF5B420A2B7BDC314C20789D
:1006A00000F0DAFFA3686060984205D0C31A002BFF
:1006B000B8BF5B420A2B5DDC2B4C207800F0CCFFEE
:1006C000A3686060984205D0C31A002BB8BF5B4294
:1006D0000A2B1FDC254C207800F0BEFFA368606069
:1006E000984214D0C31A002BB8BF5B420A2B0EDD10
:1006F0001F4B1B78002B00F04881022B00F0128367
:10070000012B00F04383032B00F02D82A06012B078
:10071000BDE8F081164B1B78002B00F04681022BC0
:1007200000F0E482012B00F04D83032B00F04D829A
:10073000A060CFE7F817FF1F9016FF1FB816FF1F26
:10074000E016FF1FB817FF1F7817FF1F1C16FF1FAB
:10075000CC15FF1FE015FF1FF415FF1F0816FF1F24
:100760007816FF1F3016FF1F4C16FF1FA017FF1F24
:100770004816FF1FB54B1B78002B00F0F580022BAD
:1007800000F0C282012B00F0E982032B00F0D2813D
:10079000A06091E7AD4B1B78002B00F0D480022BBA
:1007A00000F0CE82012B00F0FF82032B00F0F481D9
:1007B000A06073E72C78204601F046F8B0FA80F18B
:1007C0004909204601F03AF800232B7458E72E78A7
:1007D000304601F039F8B0FA80F14909304601F0AD
:1007E0002DF800232B743FE72E78304601F02CF8CB
:1007F000B0FA80F14909304601F020F800232B744B
:1008000026E72E78304601F01FF8B0FA80F149094A
:10081000304601F013F800232B740DE73578284695
:1008200001F012F8B0FA80F14909284601F006F803
:1008300000233374F4E6864B1B78FA2B00F0D68045
:10084000FC2B00F0C280F82B00F00C8123218148A2
:10085000814C00F0EBFC814802F0A2FA24E67269B8
:1008600051E66A6930E66A696CE66A69A8E6726907
:1008700087E6194693E6194653E61946C3E6194634
:1008800030E619466CE6327C002A40F0E781B36915
:1008900093E80300B1FA81F149095960C0B200F050
:1008A000CDFF3368F269F168013B13441A7E82F090
:1008B00001021A7616E62A7C002A40F0E781AB692D
:1008C00093E80300B1FA81F149095960C0B200F020
:1008D000B5FF2B68EA69E968013B13441A7E82F090
:1008E00001021A761DE6327C002A40F08781B36946
:1008F00093E80300B1FA81F149095960C0B200F0F0
:100900009DFF3368F269F168013B13441A7E82F05F
:1009100001021A7624E62A7C002A40F08781AB691E
:1009200093E80300B1FA81F149095960C0B200F0BF
:1009300085FF2B68EA69E968013B13441A7E82F05F
:1009400001021A762BE6237D002B7FF431AFB0F540
:10095000C87F226980F2B880516B0625052995630E
:100960007FF726AF536323E7237D002B7FF410AF7F
:10097000B0F5C87F226980F2B480516B0625052945
:1009800095637FF705AF536302E7237D002B7FF468
:10099000BDAEB0F5C87F22697CDA516B062505290A
:1009A00095637FF7B3AE5363B0E6237D002B7FF4EE
:1009B000BFAEB0F5C87F226979DA516B06250529EB
:1009C00095637FF7B5AE5363B2E6254B224C5A6967
:1009D00000255D631D6292E80300B1FA81F14909C7
:1009E0001D77C0B2516000F029FF5DE51C4D1A4C27
:1009F0002B6A55F8236096F80080002301274046B3
:100A00006B632F7700F020FFB0FA80F14909404670
:100A100000F014FF2B6A22680292EA180299127EF3
:100A20003774B160002A40F0DB810133032BC8BF6B
:100A300000232B626B6993E80300B1FA81F1490945
:100A40005960C0B200F0FAFE2EE500BF4816FF1F45
:100A5000B41CFF1F70410000F817FF1F600CFF1F40
:100A60000817FF1FC44D2A6A6B6B1832013355F803
:100A700022206B63934280F2CE81AA6BBE4E9A42D3
:100A80007FF411AD337F002B40F0F681BB4C002387
:100A90006B6309E5A0F5C871B1F5C87F43D3A0F534
:100AA0004873DF2B3FF632AE0C2393632EE6A0F59E
:100AB000C871B1F5C87F2FD3A0F54873DF2B3FF67F
:100AC00037AE0C23936333E6A0F5C871B1F5C87F48
:100AD0001BD3A0F54873DF2B3FF66AAE0C2393635C
:100AE00066E6A0F5C871B1F5C87F07D3A0F54873D5
:100AF000DF2B3FF64DAE0C23936349E6516B08257F
:100B0000072995637FF744AE3DE7516B0825072918
:100B100095637FF74DAE25E7516B0825072995634F
:100B20007FF706AE4FE7516B0825072995637FF7DE
:100B3000EDAD38E72569E168AA6B40F2FE36C2F1F7
:100B40000103B34200F38281C2F1020300FB03F30D
:100B5000002BB8BF03F2FF3302EBA32201F118030D
:100B600045F8232014E62569E168AA6B40F2FE36B9
:100B7000C2F10103B34200F35381C2F1020300FB4F
:100B800003F3002BB8BF03F2FF3302EBA32201F102
:100B9000180345F82320B9E52569E168AA6B40F2FE
:100BA000FE36C2F10103B34200F34581C2F10203F4
:100BB00000FB03F3002BB8BF03F2FF3302EBA322C9
:100BC00001F1180345F82320F2E52569E168AA6BD5
:100BD00040F2FE36C2F10103B34200F34281C2F19A
:100BE000020300FB03F3002BB8BF03F2FF3302EB59
:100BF000A32201F1180345F8232099E5604F3A78C4
:100C0000002A00F06481012A00F09481022A00F099
:100C1000A581032A7FF4A4AC5A4806213B7000F05A
:100C200005FB594802F0BCF8F16899E4544F3A7852
:100C3000002A00F04481012A00F07481022A00F0A9
:100C40008181032A7FF4ABAC4E4806213B7000F053
:100C5000EDFA4D4802F0A4F8E968A0E4484F3A786C
:100C6000002A00F02881012A00F05881022A00F0B1
:100C70006581032A7FF436AC424806213B7000F0C0
:100C8000D5FA414802F08CF8F1682BE43C4F3A78F1
:100C9000002A00F02081012A00F03C81022A00F0A5
:100CA0005581032A7FF43DAC364806213B7000F0A5
:100CB000BDFA354802F074F8E96832E4304F3A780A
:100CC000002A00F00081012A00F03081022A00F0A1
:100CD0004181032A7FF497AC2A4806213B7000F03B
:100CE000A5FA294802F05CF8F1688CE4E368216910
:100CF00003F11402B0EB801348BF03F2FF339B12E1
:100D00007F3341F8223013E5E368216903F11402CF
:100D1000B0EB801348BF03F2FF339B127F3341F8DF
:100D2000223035E5E368216903F11402B0EB80134A
:100D300048BF03F2FF339B127F3341F82230E5E4D2
:100D4000E368216903F11402B0EB801348BF03F29A
:100D5000FF339B127F3341F8223029E5A0EB80035B
:100D6000E26821699B0048BF03F2FF3310329B12F7
:100D7000333341F822300BE50817FF1FF817FF1F28
:100D80004816FF1FB4410000600CFF1FA0EB80035A
:100D9000E26821699B0048BF03F2FF3310329B12C7
:100DA000333341F82230B1E4A0EB8003E2682169DB
:100DB0009B0048BF03F2FF3310329B12333341F8DC
:100DC0002230F5E4A0EB8003E26821699B0048BF74
:100DD00003F2FF3310329B12333341F82230A7E481
:100DE00003F11006143355F8262055F82330120469
:100DF000180600F0FE4302F4FE00184340F41F40C2
:100E000040F0090000F060FE00F0ACFE55F826202E
:100E10002B6AEA6309E6534800F056FE6B6B2CE63A
:100E2000514E03FB00F386FB03761E44DB17C3EB36
:100E300066231A44ABE64C4E03FB00F386FB0376B5
:100E40001E44DB17C3EB66231A44B9E6464E03FB88
:100E500000F386FB03761E44DB17C3EB66231A44BC
:100E60007CE6414E03FB00F386FB03761E44DB1752
:100E7000C3EB66231A44BCE6336A3C4C56F8237035
:100E800097F80080404600F0DFFCB0FA80F1490995
:100E9000404600F0D3FC336A22680192F218012028
:100EA000127E01993874B960CAB90133032BC8BFE7
:100EB00000232B62EBE5012305212D48DEE601230B
:100EC00005212B48C2E601230521294806E7012315
:100ED00005212748A2E6012305212548E6E603F17E
:100EE0001007143356F8272056F8233010041B0639
:100EF00003F0FE4300F4FE00184340F41F4040F0AE
:100F0000090000F0E1FD00F02DFE56F82720336ABD
:100F1000F263CAE7022308211648C7E60223082124
:100F20001448ABE60223082112488FE60223082169
:100F30001048D3E6022308210E486FE603230A2156
:100F40000D489BE603230A210B487FE603230A2171
:100F50000948ABE603230A210748BFE603230A2119
:100F600005485BE60BBF7B7F03082080F817FF1F57
:100F7000944100009C410000A84100002DE9F04789
:100F8000002203216348644D644C654EDFF8CC9128
:100F9000644FFFF76BFA002205216348FFF766FAFA
:100FA000002207216148FFF761FA00220921604809
:100FB000FFF75CFA00220B215E48FFF757FA002288
:100FC0000D215D48FFF752FA95E80F0005F1100E6C
:100FD00004F1400C8CE80F009EE80F00203504F16E
:100FE000500E8EE80F0095E80F0078254FF0180C92
:100FF00004F1600E4FF0000865620025C4F838C0A7
:10100000C4E90A8925766576A576E5762563656364
:10101000E5638EE80F00301D07C84FF00208E2605C
:101020003269336860604FF00109A160404629468B
:1010300022617269BB613D7487F824504FF0040A45
:101040002577256262612360FC61C7F80090C7F8CC
:10105000208000F007FC394B72689A61294650469F
:101060001D7483F82450DC61C3F80080C3F820A00D
:1010700000F0F8FB324BB2689A610622294603273A
:1010800010461D7483F824501A62DC611F6000F062
:10109000E9FB2C4AF36815744FF0080E7046294698
:1010A000C2F820E082F824509361C2F800A0D46115
:1010B00000F0D8FB244B32699A610A221046294677
:1010C000052683F824501E601A62DC6183F81090B4
:1010D00000F0C8FB1D481E491E4A1F4B05754FF006
:1010E0000E0EC56004610F26102580F800E0112067
:1010F0000E70157018700C6181F81490C1F80C9086
:10110000146182F81480C2F80C801C611F75DF60C6
:10111000BDE8F0871C16FF1F404100000817FF1FA5
:10112000400CFF1F9016FF1FCC15FF1FE015FF1F7F
:10113000F415FF1F0816FF1F6416FF1FB816FF1FC8
:10114000E016FF1FB817FF1F7817FF1F7816FF1F45
:101150003016FF1F4C16FF1FA017FF1F00407F40D7
:1011600038B50F4D286878B143880288C11801331B
:1011700093420C7A02D24380204638BD00F046FFED
:10118000002320462B6038BD064B1B782BB1022074
:1011900000F062FF28600028E6D14FF0FF3038BD34
:1011A000EC17FF1F4C19FF1F10B5094C206818B130
:1011B00043881844007A10BD064B1B782BB10220DF
:1011C00000F04AFF20600028F2D14FF0FF3010BD40
:1011D000EC17FF1F4C19FF1F044B054A1B68508872
:1011E0001BB11A885B88D31A18447047EC17FF1F8D
:1011F000E01DFF1F0B4B1B789BB110B50A4C2068FC
:1012000048B100F003FF00230220236000F024FF18
:1012100030B100F0FBFE022000F01EFF0028F8D1E4
:1012200010BD70474C19FF1FEC17FF1F2DE9F04F41
:10123000DFF8F89083B0012289F80020019169B3AA
:10124000DFF8EC80354F019E8346D8F80000B0B33C
:10125000334D4488C4F14001B14228BF314604EB0C
:10126000010E00221FFA8EFE2A70761AA0F802E004
:1012700000F1080251B1013C224459441BF8014BD2
:1012800002F8014F8B45F9D1B0F802E0BEF13F0FF3
:101290000BD8244A05211170002ED6D101980023C5
:1012A00089F8003003B0BDE8F08F4022028001468B
:1012B000032000F079FF0022C8F80020E9E73A781F
:1012C00022B3194C164D4FF0010A07E0013C16D02D
:1012D0002A78A2B901F0EAFC3A78BAB1032000F00A
:1012E000D9FE0728F2D889F800A000F06FFEC8F8F0
:1012F00000000028ADD10D4B013C1870E8D101234E
:101300004FF0FF302B7003B0BDE8F08F00234FF09B
:10131000FF3089F8003003B0BDE8F08F4C19FF1F93
:10132000E817FF1FE017FF1F21480100E117FF1F0B
:10133000E417FF1F00B583B002AB012103F8010DD4
:101340001846FFF773FF03B05DF804FB38B50E4D88
:101350000E4C28680123237028B140880023237095
:10136000C0F1400038BD0A4B1B7813B90020207033
:1013700038BD032000F08EFE0728F7D800F026FEC7
:1013800028600028E9D1F1E7E417FF1FE117FF1FEC
:101390004C19FF1FF8B5114B1B788BB1104E114D36
:1013A000346801272F7064B10F4A638800271770D3
:1013B00021462380032000F0F7FE376000232B70C6
:1013C000F8BD00F003FE084B28B1014603201C7055
:1013D00000F0EAFEF2E71F70F0E700BF4C19FF1FB4
:1013E000E417FF1FE117FF1FE017FF1F38B50E4B73
:1013F0001B7873B90D4C216861B103F0FF054B8870
:101400000B80032000F0D0FE256038BD084B012280
:101410001A7038BD00F0DAFD0028F7D00146BDE8AB
:101420003840032000F0C0BEE117FF1FE417FF1F84
:10143000E017FF1F374A384913681B06FCD40B68B6
:1014400013F08003F8D172B634490A78002A5FD0CD
:10145000334A3448F0B4344C176806682568D468B9
:101460000C303E44143200681268304F35442C442E
:1014700020440244C2F34E022D4E2E482E4D2F4CD6
:1014800042F400423A60376806682D682C4A2468A6
:101490000C303E44006812682A4F35442C442044E6
:1014A0000244C2F34E02284E2848294D294C42F4EA
:1014B00000423A60376806682D68274A24680C3075
:1014C0003E4400681268254F35442C4420440244B1
:1014D000C2F34E02224E2348234D244C42F40042D4
:1014E0003A60376806682D68214A24680C303E440B
:1014F0000068126835442C4420440244C2F34E0272
:101500001C4842F4004202600B7062B6F0BC7047A7
:1015100062B6704724B0034024B00B40F217FF1F9F
:1015200038B003403CB0034040B003402CB003400F
:1015300058B003405CB0034060B0034064B0034067
:101540006CB0034030B0034038B00B403CB00B40AF
:1015500040B00B4044B00B404CB00B402CB00B40A3
:1015600058B00B405CB00B4060B00B4064B00B4017
:101570006CB00B4030B00B4030B42948294A2A4B9C
:101580002A4D6024E121047011701B78284C082B2F
:1015900030D00A2B2748284937D00C2B0CBF3522D6
:1015A0005D2212232A60236002600B60234B2449D2
:1015B0001B78244ABBB101230B601360224B2349E3
:1015C0001B78234A012B26D9042B0FD9082B1ED9AF
:1015D000102B94BF862387230B6013601D4B0122C1
:1015E0001A7030BC70470B601360E7E784230B6010
:1015F0001360F3E700F58E200F49083021221323F2
:101600002A60236002600B60D0E73922F7E7852368
:101610000B601360E2E780230B601360DEE700BF1E
:101620000040074001400740580CFF1F08B003402E
:101630000CB0034008B00B400CB00B40F517FF1F77
:1016400020B0034020B00B40590CFF1F24B00340D2
:1016500024B00B40F217FF1F47282FD8334B2DE93A
:10166000F0411E5CFF2E2BD0314B1B78002B2AD172
:1016700032062CD472B62F4D2F4C2F4601232660F4
:101680002B7062B672B623681B060CD43B781BB96C
:10169000F4E72B78002BF1D062B601F007FB72B6AD
:1016A00023681806F5D5254B1B6800222A7062B600
:1016B000234A107843FA00F0BDE8F081002070471B
:1016C0000020BDE8F081FFF7B5FE3206D2D572B634
:1016D0001C4DDFF87C801C4C06F04007FFB206F082
:1016E0003F06D8F80030DFB123F01003C8F800300F
:1016F00001232660134A2B7062B672B6236819065E
:101700000CD413781BB9ECE72B78002BE9D062B628
:1017100001F0CCFA72B623681B06F5D50B4BC3E774
:1017200043F01003C8F80030E2E700BFBC410000FE
:10173000F217FF1FF417FF1F00B0034010B0034063
:10174000F117FF1FF317FF1F00B00B4010B00B4045
:101750000CB00B4010B4114B53F8302092F880427B
:1017600034B1012379B182F880305DF8044B7047C1
:1017700003EBC0035B681A6851B922F002021A60D9
:101780005DF8044B704782F800315DF8044B7047F8
:1017900042F003021A605DF8044B704704420000F7
:1017A0001C4A02EBC00301295B6811D004291BD03D
:1017B00052F83000002280F8802229B1022920D07E
:1017C000032922D01A6070474FF480721A60704764
:1017D00052F830004FF4A27280F880121A601A6832
:1017E00022F020021A60704752F830104FF4A272B3
:1017F000012081F880021A601A6842F020021A6003
:10180000704740F203121A6070474FF481721A60F9
:10181000704700BF0442000030B4054B054D064C34
:10182000002210211A602A602060196030BC7047C5
:1018300014D0034004D0034000D003403F2801D817
:10184000FFF788BF704700BF3F2806D8044B53F806
:10185000303093F80002C0B270470020704700BFDC
:10186000044200003F2801D8FFF79ABF704700BF2D
:101870002DE9F843054672B6224F234B234A1B68D5
:101880003C68126862B6520102D5322B88BF01341F
:10189000B5B3C3F52F3303F21F331D4EDFF8689045
:1018A000DFF868809B084FF47A72A6FB031302FBF3
:1018B00004F404EB930472B6D9F800103A68D8F82F
:1018C00000E062B6C1F52F3303F21F339B08A6FB7D
:1018D00003031EF0806FC4EB93034FF47A7002D0C1
:1018E000322988BF013200FB0233B3F57A7F04D37B
:1018F000013D05D004F57A74DDE701F0D7F9DAE7A8
:10190000BDE8F883F817FF1F18E000E004ED00E0E1
:10191000176CC116F8B54E4B4E48DFF85CC14E4C03
:101920004E49DFF858E14E4E4E4D4F4F4FF000629A
:101930001A604FF080521A604FF000521A604FF058
:1019400080421A604FF000421A6000220260282391
:101950004EF6FF70CCF80000CEF8003023600EF594
:10196000012E0B6033602B6006F500263B6005F509
:101970000025A36207F500278B6204F5012401F519
:10198000012106F6E87605F6E87507F57F67103160
:101990000EF1100E203433602B60CEF800303B6027
:1019A0000B602360314CBB618B6109212160A7F57D
:1019B000002704F58054203F08343A602060BB6063
:1019C000E36047F8041C04F5FD2407F5FE270437FF
:1019D00004F2FC7422603860A360FB6044F8041CCD
:1019E000083404F6FC74C7F8FC2F2060A4F5E12449
:1019F000A4F2DC7433602B60C7F8F81F21681C4820
:101A000041F40071216001681A4C0EF57F4E0EF111
:101A1000E80E07F5883706F5803605F5803541F084
:101A200000710160CEF8002047F6FF71082239608E
:101A300033602B602260FFF79FFD1920FFF718FF2E
:101A400001F0CCF840F21310BDE8F840FFF710BFEA
:101A500004E100E004800340148003401C80034044
:101A6000248003402C8003403480034000800340E6
:101A70000480044000900C40088003400C80034028
:101A800038B50E4B0E4C1B68218805468BB1B1F55D
:101A9000917F05D20B4A4B1C55549BB2238038BD15
:101AA0000022084898470021064A55540123238004
:101AB00038BDB1F5917FEDD338BD00BF2018FF1FB1
:101AC000B61CFF1FBC1CFF1F2DE9F843214E224FFF
:101AD0003168012380463B70B1B1204D4B8801EB4A
:101AE0008302013300240F2BC2F808802C7004D825
:101AF0004B8000233B70BDE8F88340230B8004201B
:101B000000F052FB3460F4E7DFF8549099F80030AD
:101B1000002BF0D0114D4BF6813408E0013C12D07F
:101B20002B7883B901F0C2F899F800307BB104201A
:101B300000F0B0FA0528F1D800F048FA014630600C
:101B40000028EBD0CAE701232B70BDE8F883BDE87D
:101B5000F88300BF3C18FF1F1018FF1F4018FF1F1D
:101B60004C19FF1F38B5084B1C7824B9074D29685C
:101B700009B14B8803B938BD9B000B80042000F0ED
:101B800013FB2C6038BD00BF1018FF1F3C18FF1F4F
:101B90002DE9F041AD4E33680746002B00F09280EE
:101BA0001D885A88910803EB81010432AA428C688F
:101BB00042D25A8004F00F064FEA1428A449A6F135
:101BC000080208F00F00C4F30313062A00F1010510
:101BD0000B701AD9B31E012B5FFA88F04ED9052E6F
:101BE00048D0042E00F0A481731F022B7FD90F2E42
:101BF0000ED1F72842D8F02802D0964B1B883BB173
:101C0000FFF73EFF0020BDE8F08127B1BD4202D0C2
:101C10000020BDE8F081082EC4F3033300F0878074
:101C2000092E11D00A2E40F094800A2BF0D18A4B55
:101C30008A4A1B68A02181E0184600F0E7F90520D8
:101C400000F00AFA3060B5E7092BE1D1270E00F069
:101C50007B81834B814A1B689021C4F30746117036
:101C6000EDB2FCB2002B00F09D80224631462846A2
:101C7000984797E0F02843D9F72841D0F1380E284B
:101C8000C6D801A353F820F03F1E0000231E000019
:101C9000111E0000111C0000111C0000031E00009A
:101CA000111C0000E31E0000111C0000AD1E00000E
:101CB000C71E0000EB1D0000111C0000D31D00001A
:101CC000B71D0000674B1B78002BA1D0052000F04A
:101CD000C3F90346306000289AD00588002D7FF4B0
:101CE00060AF00F093F935602846BDE8F081FFF75A
:101CF000C7FEC4F30740FFF7C3FE072E02D1200E34
:101D0000FFF7BEFE534B584A198858481468584D7F
:101D1000524A017000270E0AF0201F802E701070AA
:101D20000CB301225348A0470120BDE8F081082BE5
:101D30007FF46EAF504B494A1B688021C4F30746BD
:101D40001170EDB2240E6BB32846224631469847F7
:101D500028E00B2E11D10B2B7FF45AAF474B3F4A93
:101D60001B68B021EAE7464B1B68002B00F0FB80A4
:101D7000404898470120BDE8F0810C2E40F00081DA
:101D80000C2B7FF445AF3F4B344A1B68C0211170C8
:101D9000EDB2C4F30746002B00F0C8802846314658
:101DA000240E98473849314A314B0D7016701C701B
:101DB0000120BDE8F081354B1B68002B00F0D68078
:101DC0009847C4F30746254BEDB2240E83F80080F4
:101DD000E8E72F4B1B68002BF2D12E4B1B68A3B1F9
:101DE000FE209847C4F30746EDE72B4B1B68002BFA
:101DF000E6D1284B1B6843B1FC209847C4F3074643
:101E0000E1E7264B1B68002BDAD1C4F30746DAE77B
:101E1000234B1B68C4F30746002BD4D030469847A9
:101E2000D1E7204B1A68002AEFD0260C630C06F08D
:101E30007F0003F47E531843F6B29047C3E71A4B72
:101E40001B68C4F30746002BE8D1BCE74818FF1F06
:101E5000BA1CFF1FB61CFF1F2418FF1FB41CFF1F56
:101E60005818FF1F4C19FF1F2018FF1FB81CFF1F19
:101E7000B91CFF1FBC1CFF1F5018FF1F5418FF1F69
:101E80003818FF1F1418FF1FBB1CFF1F0018FF1F6F
:101E90000418FF1F0818FF1F4418FF1F3418FF1FE6
:101EA0004C18FF1F1C18FF1F3018FF1F3F4B1B68EB
:101EB000002B85D13E4B1B68002BA6D0FA209847FB
:101EC000C4F307467FE73B4B1B68002B7FF478AFDA
:101ED000374B1B68002B98D0FB209847C4F307466C
:101EE00071E7354B1B68002B7FF46AAF304B1B68E2
:101EF000002B8AD0F8209847C4F3074663E70E2BDF
:101F00007FF486AE2D4A2E4B1268E0211970002A0C
:101F100047D0260C610C06F07F0301F47E51194373
:101F2000EDB2A1F5005128469047F6B2240E39E7EC
:101F3000FFF7A6FDC4F30740FFF7A2FD200EFFF751
:101F40009FFD0020BDE8F0811E4B1D4A1B688021CB
:101F50001170EDB2C4F3074683B1314628463A46C4
:101F600098473C461EE70120BDE8F081104B1B68F6
:101F7000002B3FF44AAFFF20984746E71C4611E785
:101F80000D2EBCD10D2B7FF443AE0F4B0C4A1B68BA
:101F9000D0211170EDB2C4F30746002B7FF4FEAEE2
:101FA000C4E7C4F30746EDB2240EFBE62C18FF1F6E
:101FB0000818FF1F0C18FF1FFC17FF1F1818FF1F22
:101FC000B41CFF1F5018FF1F2818FF1F72B60D48C2
:101FD0000268B2FA82F31D2B10DC4FF00041D940A9
:101FE00022EA0102026062B6074803EBC303DB008A
:101FF000C2180021C15010465160704762B60020DF
:10200000704700BF5C0CFF1FD003FF1F0D4B0E4A33
:10201000C31AA2FB03231B091D2B0CD80B4A1278F1
:1020200052B972B60A484FF00041026821FA03F330
:102030001A43026062B67047064A1278002AF0D04E
:1020400000F03EB8D003FF1F398EE3384119FF1F5F
:102050005C0CFF1F4C19FF1F431E042B14D872B6D3
:102060000A4951F8230068B170B4094C058834F866
:102070001320466841F82360521B24F8132062B6EF
:1020800070BC704762B6704700207047B818FF1FD9
:10209000E01DFF1F013804280BD872B6074B53F818
:1020A000203043B100205B680130002BFBD162B6C9
:1020B0007047002070471846F9E700BF1019FF1F4E
:1020C00030B472B6334A13781B0706D5324B196AFF
:1020D000002943D0996A00294ED053781D0706D5B0
:1020E0002D4B196C00294DD0996C002946D093785E
:1020F0001C0706D5284B196E002945D0996E00297A
:102100003ED0D378190707D5234BD3F88010002988
:102110003ED0D3F8881091B113791B0708D51E4B18
:10212000D3F8A020002A31D0D3F8A82015243AB142
:1021300062B61A4B00221A7030BCFFF767BF112439
:102140001649174D0A7843F8345003EBC40308309E
:10215000013A58600A7062B630BC704704220F4CD6
:10216000104D217843F8325003EBC20308304A1E69
:102170005860227062B6EFE70524E1E70924DFE743
:102180000D24DDE70822EAE70C22E8E71422E6E75F
:102190001022E4E7304400000000FF1F4119FF1F38
:1021A000C800400088004000431E042B1DD81B4A75
:1021B000400140F0100030B4104472B6184CE25C9C
:1021C000032A1BD8DFE802F00212151703220D883C
:1021D000E25410F0080F14BFC823882343EA0543D4
:1021E00008310360416062B630BC7047083002229B
:1021F000EDE70522EBE708300422E8E7094A52F848
:10220000230038B1084A52F82300416042F82310F5
:1022100062B6E9E742F82310034AF7E70000FF1F20
:102220005019FF1F1019FF1F2419FF1F2DE9F04F30
:10223000DFF808B3DFF808A387B044E0AA4F4FEAFD
:10224000930807EBC809013ED9F8042003F00803FE
:10225000F6B2A2F1080003F0FF04002B40F0008169
:1022600057F838301B0C99B222F8081C002B00F0EC
:10227000EE809E4B22F8064C42F8044C53F8262080
:10228000002A00F035829A4D55F826305860994C56
:1022900045F8260034F81630194424F81610FFF7D4
:1022A00095FE002800F01D82934A944B19F0080F08
:1022B00000F1080018BF1346C9F8040047F8383089
:1022C00008238BF800309BF80040E4B260071CD56F
:1022D0008B4B1B78B3B18B490A7802F0FF0322B114
:1022E000013BDBB20B7003B900BE87490A7802F0EC
:1022F000FF032AB1013BDBB20B70002B00F0C7815A
:10230000FFF730FC04238BF8003004F0080303F0DF
:10231000FF02002B00F0C8809AF80030DBB21E09E3
:102320008CD19C08DFF8C09159F8342009EBC40126
:10233000C2F38302013A49680C2A00F28480DFE884
:1023400002F07878828282828282438282820700CF
:1023500008686E4D684B4A686D4F49F8343081B259
:102360006C4E6A6040F2816400222860A1424FF006
:1023700001003A60C9F81020C9F81820307000F246
:10238000E180B1F5D06F80F01383B1F5817F00F06B
:10239000E68100F2C981802900F02483822940F07F
:1023A000E481A98801F07F01052900F2DE815A4B02
:1023B0005A4C89000B44227062701A78930740F1DE
:1023C00099832070022014E2514F3A6832B3544B83
:1023D000504E5449188834780D784028864645F088
:1023E000020828BF4FF0400E002C84F00104347026
:1023F000CEEB00000CBF8824C82409EBC80680B2CD
:1024000085F0010544EA0E447260188049F83840AE
:1024100072440D70002800F0B6803A603B4B1A8879
:10242000B2F5A06F0FD100219A7859703E4B1A7007
:1024300009E0364A108842F22102904200F0A8805A
:102440002D4A49F83420394A0123137038E72A4AC3
:102450002A4B19F0080F18BF134647F838302FE7FA
:10246000FFF7D4FD324A334952F82630002B00F0F2
:10247000438158688C5D42F8260003F10802C9F8D0
:102480000420032C05D8DFE804F02C0229260222C0
:102490008A551A8819F0080F0CBF8823C82343EA0D
:1024A000024347F838300BE7E00700F1F3802106DC
:1024B00000F13081A20706D51F4A20491378022077
:1024C000DBB213700870E30602D51C4B10221A70A1
:1024D00007B0BDE8F08F04228A55DAE705228A5555
:1024E000D7E703228A55D4E70000FF1FB818FF1F63
:1024F0006018FF1FE01DFF1FC8004000880040005B
:102500004C19FF1FCD18FF1FE017FF1F3819FF1FC1
:102510005C18FF1FCC18FF1FC02007404419FF1F85
:102520007418FF1F4019FF1F982007409420074090
:102530001019FF1F5019FF1F8820074080200740F7
:102540009020074042F22104A14200F09C8049D82B
:10255000B1F5086F00F04981B1F5106F40F00581C9
:10256000B24AB34CA978117004F1A00503E0083415
:10257000A54200F08981236A1906F8D5606A0838F7
:10258000FFF744FDF3E7BEF1400F18BF002244E718
:10259000A84A0D784878157050708D78C878957075
:1025A000D07010680D79157186284D79897955712B
:1025B000917100F01681A049A04E0A78307882F01F
:1025C0000105002842F002020D700CBF8821C821CD
:1025D00049F8321009EBC20280F00100002130708E
:1025E00051602DE742F22124A14240F00882DFF839
:1025F00090C2934B9349AC78DCF800501D60019079
:102600000C70002002908046844604468A490D786A
:1026100045F0020E09EBCE030393019B002B039BB5
:102620005C600CBF8824C82448EA040385F00104D8
:1026300049F83E3032700C70DFF8F4E17F4BDFF880
:10264000F881002840F09880BCF1400F1BD144F085
:10265000020C09EBCC03029CDFF8D4E15C60002A99
:1026600040F0A080020442F088029DF804304EF849
:102670003C20044433700D702346402803D10020D1
:10268000714A3B601080714A01231370DBE6FEF74C
:10269000ADFE35E6664B6D4867491A614FF0020E94
:1026A00080F800E06A4F0A706A49196099606A4EC2
:1026B0006A4D6B4C9A610D213970FF213170DFF842
:1026C000C4E129702270674D674A8EF800109F2779
:1026D000012406F8047C5D600470DA6007B0BDE890
:1026E000F08F624A47F83800137801331370E7E53A
:1026F00043F826005E4DCAE58B5D032B6AD801A224
:1027000052F823F0C1220000C12200005927000026
:10271000532700004E49514B80220D2008701A703B
:10272000A2077FF5D0AEC7E640F20232914240F0F8
:102730005E81A98801F07F01052916D86A88A2B9AF
:10274000434C019089000C44217841F00201217032
:1027500057E701238B55B3E500238B55B0E5A988D6
:1027600001F07F01052940F24F81394A0F23137090
:10277000364A0123137066E640287FF668AF44F0BE
:1027800002040EEBC401029E4E60BAB19DF8041023
:10279000384A19703346403888F8005040334EF8B4
:1027A00034206DE79DF8043033700204029B0D70F5
:1027B00042F0C80203444EF83C205EE79DF8041046
:1027C0001970029B234A88F80050403840334EF875
:1027D000342055E719F0080F0CBF022303238B5553
:1027E0006EE5254A0F211170E5E6104A234C127858
:1027F0002270EA88824280F0E1810F490D78402AF8
:10280000944645F0020E28BF4FF0400C04EB0C0339
:1028100009EBCE000293012344604FEA0C48CCEB55
:10282000020001930022C824FEE600BF4C19FF1FDE
:102830000000FF1FA81CFF1F4019FF1FCC18FF1F1F
:10284000B01CFF1FF017FF1F7418FF1F94200740D4
:10285000C0200740880040008820074080200740B3
:10286000982007407818FF1FD018FF1F4119FF1F3D
:102870006018FF1FC8004000CD18FF1F4419FF1F3C
:10288000F817FF1F8C200740B04CB14AB149B2483D
:10289000B24D01940023B24C0294059603958046F4
:1028A0001C46049716460D46306828B14768FFF766
:1028B000ADFB3846002FF9D100233360039B286815
:1028C0001A46002342F8243028B14768FFF79EFBE0
:1028D0003846002FF9D1019B00221B782A6048F866
:1028E000042B029A4FF00001023B22F81410032B34
:1028F00007D8DFE803F058025802019B4FF00102AD
:102900001A70019B01340133052C06F1040605F110
:1029100004050193C8D1934C934D2278934B049FA7
:10292000059E002129701A7012077AD462789049A6
:10293000DFF84C820A7013074FF00001C9F830101D
:10294000C9F8381000F1C380A2788A49DFF83082D4
:102950000A7010074FF00001C9F85010C9F858105C
:1029600000F1A1808449E2780A700021C9F8701052
:10297000C9F878101107DFF808827DD422797F49E1
:102980007F4C0A7000211207C9F89010C9F89810FE
:102990005DD433780193002183F00102C9F8B010AF
:1029A000C9F8B8102DE6019B4FF000021A70A8E795
:1029B000744A5468002C3FF4D8AE6888B5F804E037
:1029C00004E00C325468002C3FF4CFAE13888342ED
:1029D000F7D153887345F4D1000A03280CBF20783F
:1029E000108906E7684C02202270627001E7B1F599
:1029F000A06F7FF4BAAE01230022019301E642F2F8
:102A000021329142F7D0B0E66A88002A7FF4ADAE59
:102A10005E4C019089000C44217821F00201217064
:102A2000EFE5FFF7D3FA002800F0B6800830584AE7
:102A3000C9F82400C9F82020FFF7C8FA00287FD081
:102A40000830544AC9F82C00C9F828206EE7FFF76F
:102A5000BDFA002856D008304D4AC4F8A400C4F886
:102A6000A020FFF7B3FA002846D00830494AC9F839
:102A7000AC00C9F8A8208CE7FFF7A8FA002800F0FE
:102A800097800830424AC8F88400C8F88020FFF7D1
:102A90009DFA002800F0868008303E4AC9F88C0074
:102AA000C9F888206AE7FFF791FA002842D0083079
:102AB000374AC8F86400C8F86020FFF787FA98B36F
:102AC0000830344AC9F86C00C9F868204AE7FFF7B3
:102AD0007DFA18B308302E4AC8F84400C8F84020E0
:102AE000FFF774FAA0B108302A4AC9F84C00C9F8B7
:102AF000482029E702207CE62A78C9F8A80001329C
:102B00002A7046E72A78C4F8A00001322A70A8E7A4
:102B10002A78C9F8480001322A7015E72A78C8F8DF
:102B2000400001322A70DBE72A78C9F868000132D8
:102B30002A7017E72A78C8F8600001322A70BCE7CB
:102B40002A78C9F8280001322A70EFE65019FF1FD1
:102B5000B818FF1F1019FF1F2419FF1F6018FF1F4F
:102B6000E01DFF1F304400004119FF1FC420074033
:102B7000C8200740CC200740D0200740D420074081
:102B80000000FF1F384400004419FF1FC020074009
:102B900088004000C80040002A78C9F820000132AF
:102BA0002A7049E72A78C9F8880001322A70E5E6D8
:102BB0002A78C8F8800001322A7068E740288446E5
:102BC00028BF4FF0400C04EB0C0302930123CCEB25
:102BD00000004FEA0C480022019317E52DE9F0416F
:102BE000274C00F01BFC002204F1A80023461A60C9
:102BF0005A60083383424FF00001F8D12148224A3D
:102C00000368DFF89CE0214E214D224FDFF894C08D
:102C1000DFF8948043F480230360136843F040732B
:102C2000136003238EF80030A023337002F5C9220D
:102C3000C4F3072300F528302B708030C4F307431A
:102C400010323B70240EFF230470134D8CF80030BB
:102C5000124888F800301370012306F8AC3C4FF49A
:102C600000140EF8441C7026102107F82C3C2E701E
:102C7000046082F8F810AEF1440EBDE8F08100BFA8
:102C80000000FF1F3480044000D80040402107406E
:102C90009C200740B020074035E400E004E100E05C
:102CA00044210740802007408820074038B52C4C3D
:102CB000237803B138BD01232370FEF78DFA002875
:102CC00042D100F093FA00283BD100F003F900282C
:102CD00034D100F00BFC70BB00F092F940BB00F067
:102CE0007DF810BB00F018FBE0B900232370EFF370
:102CF0000583002BDED1EFF3108172B6194B1868F3
:102D000028B3194C227812BB45691D60012323703A
:102D10000DB3AA6101B962B600254577836898476B
:102D20002570C7E700F058F8DFE700F021F8D9E791
:102D300000F048F8D3E700F057FCCDE700F040F88A
:102D4000C7E700F04FFCC0E700F028F8B9E700291A
:102D5000B0D162B638BD054B1D600029DCD1DAE781
:102D60005519FF1F681CFF1F6C1CFF1F641CFF1FF1
:102D7000704700BFFEF73EBAFEF716BAFEF7F0B98D
:102D8000FEF72ABAFEF706BBFEF7E0BA0846114680
:102D9000FEF74CBA0846FEF7CDBA00BF704700BF39
:102DA00000B5064A036812885B6883B001A9ADF8D4
:102DB00004200222984703B05DF804FB2C44000075
:102DC000704700BF704700BF08B5FDF761FBFDF716
:102DD00061FBFFF76BFFFAE7704700BF054A064B40
:102DE00010781B78C0B2DBB2984238BF4030C01AAE
:102DF000704700BF5C19FF1F5D19FF1F30B42B4BDC
:102E00001A7994061FD52A48DA79037829490133BB
:102E10003F2B0978C8BF00238B42D2B203D0264C87
:102E2000D9B2E2540170254A116861B1244A12787E
:102E3000D2B2934236BFC2F140029B1A9B18272B95
:102E4000C4BF01230B70194AD378DBB2180611D422
:102E50005A060DD5154B1B795B0609D5194B1A4936
:102E60001B6800220A7003B11A70104B2C22DA7012
:102E700030BC704711790906EAD5144910480C781E
:102E80000178C9B28C420DD04A1C272A84BF002188
:102E90000A460F4D054C98BFD1B2AA5CD2B2E2717E
:102EA0000170D5E76C21D170D2E700BF00A00E40C1
:102EB0005C19FF1F5D19FF1F8819FF1F5819FF1F9D
:102EC000C919FF1FCC19FF1FC819FF1FD019FF1FF9
:102ED0006019FF1F054A064B10781B78C0B2DBB2A1
:102EE000984238BF4030C01A704700BF441AFF1FD5
:102EF000D919FF1FF0B4384B1A7912F0300F2CD0CB
:102F000072B6997D01F0FF0200293DD062B6334FC1
:102F1000334938780D78334E1C46C0B2EDB2431CAD
:102F2000402BE17928BF0023AB4202F1FF32C9B246
:102F30001CBFF154184612F0FF02F0D12A4B1B6857
:102F4000C2B23A704BB1A84236BFC5F14005401B32
:102F500040192728C4BF01221A701F49CA78D2B26B
:102F6000150616D452060DD51B4B1B795B0609D5E9
:102F70001E4B1F491B6800220A7003B11A70164BC2
:102F80003C22DA70F0BC70474022D9795A7462B69C
:102F9000E3E70B791C06E5D5164B174E1C78337802
:102FA000E4B2DBB29C420ED0144D01E0A3420AD041
:102FB0000133282B28BF00230879E85CC0B2C87110
:102FC000087D0728F2D9DBB2034933700B79180664
:102FD00044BF7C23CB70C5E700B00640441AFF1FF6
:102FE000D919FF1F041AFF1FD419FF1F481AFF1F0A
:102FF000D819FF1F4C1AFF1F451AFF1FDC19FF1FAE
:10300000054A064B10781B78C0B2DBB2984238BF35
:103010004030C01A704700BF541AFF1F551AFF1FD7
:1030200030B42B4B1A7994061FD52A48DA790378E5
:10303000294901333F2B0978C8BF00238B42D2B204
:1030400003D0264CD9B2E2540170254A116861B10F
:10305000244A1278D2B2934236BFC2F140029B1A80
:103060009B18272BC4BF01230B70194AD378DBB2FE
:10307000180611D45A060DD5154B1B795B0609D5D8
:10308000194B1A491B6800220A7003B11A70104BC1
:103090002C22DA7030BC704711790906EAD5144940
:1030A00010480C780178C9B28C420DD04A1C272AEE
:1030B00084BF00210A460F4D054C98BFD1B2AA5CCF
:1030C000D2B2E2710170D5E76C21D170D2E700BFB6
:1030D00000D00640541AFF1F551AFF1F801AFF1F09
:1030E000501AFF1FC11AFF1FC41AFF1FC01AFF1F6B
:1030F000C81AFF1F581AFF1F08B5104C08E02368B4
:1031000059050DD423681A050FD42368DB0411D4A4
:1031100023685803F3D5FFF789F823685905F1D5DB
:1031200000F074F823681A05EFD5FFF7E3FE236873
:10313000DB04EDD500F0EAF9EAE700BF3480044093
:1031400008B5FFF7D9FF00BF014B10221A80704766
:1031500000200540704700BF094908B50B6830B131
:103160006A461844A2F50052904202D208601846FE
:1031700008BD00F035FB0C2303604FF0FF3008BDA5
:10318000700CFF1F084A1378802B01D00020704775
:103190000649074B07480860002119701378802BF7
:1031A000FCD00120704700BF03E00740448004408A
:1031B00001E0074000002822094A1378012B01D0C2
:1031C0000020704703F1804303F5FC236021197050
:1031D0001378802BFCD1034B034A1A6001207047FF
:1031E00003E007404480044000000602054A064B05
:1031F00010781B78C0B2DBB2984238BF4030C01A9A
:10320000704700BFD01AFF1FD11AFF1FF0B4384B10
:103210001A7912F0300F2CD072B6997D01F0FF02AE
:1032200000293DD062B6334F334938780D78334E9C
:103230001C46C0B2EDB2431C402BE17928BF0023ED
:10324000AB4202F1FF32C9B21CBFF154184612F072
:10325000FF02F0D12A4B1B68C2B23A704BB1A842B0
:1032600036BFC5F14005401B40192728C4BF0122C5
:103270001A701F49CA78D2B2150616D452060DD557
:103280001B4B1B795B0609D51E4B1F491B6800228F
:103290000A7003B11A70164B3C22DA70F0BC70470A
:1032A0004022D9795A7462B6E3E70B791C06E5D55A
:1032B000164B174E1C783378E4B2DBB29C420ED02A
:1032C000144D01E0A3420AD00133402B28BF002354
:1032D0000879E85CC0B2C871087D0728F2D9DBB272
:1032E000034933700B79180644BF7C23CB70C5E7C4
:1032F00000A00640D01AFF1FD11AFF1F141BFF1F8A
:10330000CC1AFF1F581BFF1F541BFF1F5C1BFF1F06
:10331000551BFF1FD41AFF1F054A064B10781B7858
:10332000C0B2DBB2984238BF4030C01A704700BF0D
:10333000641BFF1F651BFF1F30B42C4B5A6894029F
:103340001FD52B48DA6803782A4901333F2B0978C7
:10335000C8BF00238B4204D0274CD2B2D9B2E2546A
:103360000170264A116861B1254A1278D2B293429F
:1033700036BFC2F140029B1A9B18272BC4BF012302
:103380000B701A4A9368180202D55268110211D4C0
:103390005A020DD5154B5B685B0209D5194B1A49CA
:1033A0001B6800220A7003B11A70184B00221A60C1
:1033B00030BC7047164A124910780A78D2B290424F
:1033C0000DD00132272A84BF00200246114D074C40
:1033D00098BFD0B2AA5CD2B2E2600870D8E70E48BB
:1033E0000A4A0024012104601160D1E700400C402A
:1033F000641BFF1F651BFF1F901BFF1F601BFF1F30
:10340000D11BFF1FD41BFF1FD01BFF1F5801884378
:10341000D81BFF1F681BFF1F5C01884310B584B0D9
:1034200072B6FFF7AFFE184A184B194911607022A7
:1034300080211A701A46197013781B06FCD5154B9B
:103440001C68FFF7B9FE62B6134B9C429CBF04EBAD
:10345000840464002046114C01A90A2200F020F8DF
:1034600001A92046002311F8012B01333AB10A2BA0
:1034700020F8022FF7D11623237004B010BD5B0093
:10348000DBB2237004B010BD040002400000024013
:10349000000007410C0002407F969800540DFF1F6A
:1034A000F0B44D1E2E46002400E00134B0FBF2F3D0
:1034B00002FB1300092800F130078ABF3730F8B249
:1034C000C0B206F8010F1846002BEED10A1953704E
:1034D0004CB1107815F8016F28700133E01A83425F
:1034E00002F80169F5DB0846F0BC7047054A064B57
:1034F00010781B78C0B2DBB2984238BF4030C01A97
:10350000704700BFE01BFF1FE11BFF1F30B42B4BB8
:103510001A7994061FD52A48DA79037829490133A4
:103520003F2B0978C8BF00238B42D2B203D0264C70
:10353000D9B2E2540170254A116861B1244A127867
:10354000D2B2934236BFC2F140029B1A9B18272B7E
:10355000C4BF01230B70194AD378DBB2180611D40B
:103560005A060DD5154B1B795B0609D5194B1A491F
:103570001B6800220A7003B11A70104B2C22DA70FB
:1035800030BC704711790906EAD5144910480C7807
:103590000178C9B28C420DD04A1C272A84BF002171
:1035A0000A460F4D054C98BFD1B2AA5CD2B2E27167
:1035B0000170D5E76C21D170D2E700BF00C0064092
:1035C000E01BFF1FE11BFF1F0C1CFF1FDC1BFF1F6D
:1035D0004D1CFF1F501CFF1F4C1CFF1F541CFF1FC6
:1035E000E41BFF1F704700BF704700BF10B4EFF32C
:1035F000108272B6437F33B9017F012908D00329B5
:1036000010D00123437702B962B65DF8044B7047CE
:10361000114C2168A1B1114943610B6883610860B5
:103620005861EEE70E4C216881B10E4943610B6889
:103630008361086058610C4B4FF080511960E0E7DE
:10364000064B4161816120601860DAE7054B4161FA
:10365000816120601860EEE7681CFF1F641CFF1F7B
:10366000581CFF1F5C1CFF1F04ED00E010B4047F1A
:103670004160022CC26003D05DF8044BFFF7B6BF77
:1036800083685DF8044B184770B5EFF3108272B68B
:103690000C4C206880B10C4E00254369236073B147
:1036A0009D6102B962B6457783689847EFF310824F
:1036B00072B620680028F0D102B962B670BD3360DE
:1036C000EFE700BF581CFF1F5C1CFF1FFFF7DCBFAC
:1036D000184A30B41468002C27D0036821688B4244
:1036E0000ED2CB1A00218460C1602360E0601060BC
:1036F0000223037530BC704711688B42144608D30F
:10370000A2685B1A0360002AF6D18260C460A060E0
:10371000EEE7D268C2608460E060C568CB1A02221E
:10372000A8602360027530BC70478460C46010607C
:10373000DEE700BF601CFF1FF8B5224E34682CB3D3
:103740002368002B3AD1204F1D4604E03468ECB1C9
:103750002368002B32D1A36803B1DD602069336098
:10376000036825751B68BB4221D1037F4560022B8E
:10377000C46020D0FFF73AFF6368002BE6D02360D7
:103780002046FFF7A5FF3468002CE1D1EFF310834A
:1037900072B60E4A00211068116003B962B628B1F2
:1037A0008468FFF795FF20460028F9D1F8BD22462E
:1037B00000219847E0E783689847DDE7013B2360F5
:1037C000E4E700BF601CFF1F6D360000701CFF1F88
:1037D000024A136801331360FFF7AEBFF817FF1FEB
:1037E000014B1868704700BF9811FF1F70B50F4E4E
:1037F0000F4D761BB61018BF002405D0013455F8C4
:10380000043B9847A642F9D10A4E0B4D761B00F0B7
:103810003FFEB61018BF002406D0013455F8043B13
:103820009847A642F9D170BD70BD00BF9C4400000E
:103830009C440000A84400009C440000024B014648
:10384000186800F003B800BF9811FF1F2DE9F04F72
:1038500001F10B05162D83B0064640F29F8035F02E
:10386000070500F1BF80A94200F2BC8000F0A6FA73
:10387000B5F5FC7FC0F09C826B0A00F0BA80042B87
:1038800000F28381A80900F1390E4FEA4E03383067
:10389000C44F07EB8303A3F108015C68A14207D181
:1038A000ACE0002A80F2AC80E468A14200F0A6807F
:1038B000636823F003035A1B0F2AF2DDB9493C6900
:1038C00001F1080E744500F0B381636823F003032F
:1038D0005A1B0F2A00F39981002AC1F814E0C1F89D
:1038E00010E080F29E80B3F5007F80F06781DB08F6
:1038F00003F1010C01229B1002FA03F34A6851F80C
:103900003C80C4F8088001EBCC091A43A9F10803F4
:10391000E3604A6041F83C40C8F80C408310012441
:103920009C40944200F28A80144206D120F00300A9
:103930006400144200F10400FAD007EBC009CC4641
:103940008046DCF80C108C4507D173E1002A80F228
:103950008181C9688C4500F06D814B6823F00303B9
:103960005A1B0F2AF2DD0C46D1F80CC054F8088F10
:103970004B1945F001054D6042F00101C8F80CC03B
:103980003046CCF808807B613B61C3F80CE0C3F89B
:1039900008E059609A5000F013FA1FE0102921D86E
:1039A00000F00CFA1025062302207E4F07EB83035C
:1039B000A3F108025C68944200F045816368E16805
:1039C000A56823F00303234430465A68E96042F0B7
:1039D00001028D605A6000F0F3F90834204603B00C
:1039E000BDE8F08F00240C232046336003B0BDE80F
:1039F000F08F80234FF0400E3F2049E770465DE78F
:103A00002344E1685A68A56842F00102E960304643
:103A10008D605A6000F0D4F90834204603B0BDE848
:103A2000F08F234430465A6842F001025A6000F099
:103A3000C7F90834204603B0BDE8F08FBC6863685E
:103A400023F00308A84504D3C5EB08030F2B00F3AC
:103A50008C80554BDFF860911A68D9F8003001333B
:103A60002A4404EB080A00F0608102F580520F320C
:103A700022F47F6222F00F0211463046019200F0DC
:103A8000A1F9B0F1FF3F8346019A00F058818245C9
:103A900000F2FC80454B1968DA451144196000F0CA
:103AA0005381D9F80000DFF810E101301BBFCAEBE9
:103AB0000B0A5144CEF800B019601BF0070100F06A
:103AC0001781C1F10800C1F58051834408315A447F
:103AD000C2F30B02C2EB010949463046019300F0E4
:103AE00071F9431C019B00F03F81CBEB00024A447B
:103AF00042F001021968C7F808B04944BC42CBF84B
:103B000004201960DFF8A49016D0B8F10F0F40F22E
:103B1000FD806268A8F10C0323F00703E01802F0AF
:103B200001024FF0050E1A430F2B6260C0F804E04B
:103B3000C0F808E000F21C811D4BBC681A68914275
:103B400088BF19601B4B1A689142626888BF196070
:103B500022F003029542A2EB050301D80F2B04DCEF
:103B6000304600F02DF9002438E7621943F00103D4
:103B700045F0010565603046BA60536000F020F9F9
:103B80000834204603B0BDE8F08F142B71D9542BB4
:103B900000F2A480280B00F16F0E4FEA4E036E3046
:103BA00076E600BF9C11FF1F7C1CFF1F801CFF1FBF
:103BB000781CFF1F741CFF1FA815FF1F5A0A042A38
:103BC0005ED9142A00F2B38002F15C0149005B3235
:103BD00007EB810C57F82110DFF8DC81ACF1080C01
:103BE0008C4500F088804A6822F00302934202D29A
:103BF00089688C45F7D1D1F80CC07A68C4F80CC03C
:103C0000A160CCF80840CC6088E6631942F0010757
:103C100045F00105656030464B610B61C3F80CE06F
:103C2000C3F808E05F609A50083400F0C9F8D5E6A0
:103C30004A6873E608F1010818F0030F0CF1080C4C
:103C40007FF47FAE30E0DC68A34208BF02303FF46F
:103C500035AEB3E60B440C465A68C96854F8085FA1
:103C600042F001025A603046E9608D6000F0A8F829
:103C7000B4E603F15C0E03F15B004FEA4E0307E686
:103C80009A0902F1390149003832A1E7BC424A4B96
:103C90003FF400AF9C68626822F003025AE759F8CB
:103CA0000839994540F0828010F0030F00F1FF3091
:103CB000F5D17B6823EA04037B6064009C423FF6F5
:103CC000BDAE002C3FF4BAAE1C4240467FF435AE88
:103CD00064001C4200F10400FAD02EE6B3F5AA7F7E
:103CE00018D8E80B00F1780E4FEA4E037730CFE595
:103CF0004FF48051EBE60121D8F80430921001FA1C
:103D000002F21A43C8F80420614677E70123CBF892
:103D1000043025E740F25452934220D8A80C00F119
:103D20007D0E4FEA4E037C30B2E51032A4E6542AF1
:103D300026D81A0B02F16F0149006E3248E7BC68C1
:103D4000626822F0030205E7CAF30B0000287FF443
:103D5000A8AE4244BB6842F001025A60ECE6FE2382
:103D60004FF07F0E7E2093E501224FF00009C1E65F
:103D700004F10801304600F0A9F8D9F80010DBE69C
:103D8000B2F5AA7F05D8DA0B02F178014900773243
:103D90001EE740F254518A4205D89A0C02F17D0187
:103DA00049007C3214E7FE217E2211E77B6884E71C
:103DB000E808431C5B00F8E59C11FF1F704700BF3B
:103DC000704700BF38B5074C0023054608462360FE
:103DD000FFF7C2F9431C00D038BD2368002BFBD08D
:103DE0002B6038BDEC1DFF1F024B13B1024800F0E1
:103DF00005B8704700000000093E0000002301469E
:103E00001A46184600F04AB938B5074D074C2C1B26
:103E1000A41005D0013C55F8043D9847002CF9D179
:103E2000BDE8384000F040BB00000000000000008A
:103E3000F8B5234F0C460646FFF7C0FFBB685D6828
:103E400025F00305291B01F6EF7121F47F6121F0B4
:103E50000F01A1F58054B4F5805F07DB00213046E7
:103E6000FFF7B0FFBB682B44984204D03046FFF701
:103E7000A7FF0020F8BD61423046FFF7A3FF0130E5
:103E80000DD0104BBA6819682D1B45F0010530465E
:103E9000091B55601960FFF793FF0120F8BD002151
:103EA0003046FFF78FFFBA68831A0F2BDEDD064C12
:103EB0000449246843F00103001B53600860D5E700
:103EC0009C11FF1F801CFF1FA815FF1F002945D054
:103ED0002DE9F0410D468046FFF770FF55F8047C50
:103EE0006A4927F00103A5F10804E2188E685068BA
:103EF000B24220F0030062D0FE0750600BD455F8A8
:103F0000087CE41B01F1080EA56875453B446FD0A1
:103F1000E768EF60BD6015186D68ED0742D543F0A6
:103F200001026260E350B3F5007F18D2DB085A1C2F
:103F30004D6851F83270A76001209B1000FA03F31E
:103F400001EBC2001D430838E0604D6041F832408B
:103F5000FC604046BDE8F041FFF732BF70475A0AA7
:103F6000042A53D89A0902F139077F0002F1380573
:103F700001EB870051F827204449083890424DD082
:103F8000516821F003018B4202D292689042F7D12E
:103F9000D068E060A2608460D4604046BDE8F04133
:103FA000FFF70EBF95683A4FBD4203443FD0D0683B
:103FB000E86043F0010285606260E350B3E7FF0709
:103FC000034407D455F8082CA41A1344A068E268E7
:103FD000C26090602F4A126843F001009342606013
:103FE0008C60B6D32C4B40461968FFF721FFB0E731
:103FF00011184968C90744D49168D268CA6003445B
:1040000043F0010091606060E350A2E7142A17D8E2
:1040100002F15C077F0002F15B05A9E7AA104B687B
:10402000012505FA02F213434B600246B1E743F063
:1040300001024C610C61E560A5606260E35088E7B5
:10404000542A06D81A0B02F16F077F0002F16E05A1
:104050008EE7B2F5AA7F06D8DA0B02F178077F0067
:1040600002F1770584E740F25450824206D89A0C58
:1040700002F17D077F0002F17C0579E7FE277E25AE
:1040800076E743F001026260E35062E79C11FF1F94
:10409000A411FF1FA415FF1F7C1CFF1F2DE9F04773
:1040A000254C2568D5F848410646884692469946EB
:1040B000C4B360681F2817DC431C76B104EB80058D
:1040C0000122C5F888A0D4F8881182401143022E3D
:1040D000C4F88811C5F808911ED00230636044F816
:1040E00020800020BDE8F087144B03B34FF4C87064
:1040F000FFF7A4FB0446D0B1D5F84831002780E88B
:104100008800C5F8484138460123C4F88871C4F8CE
:104110008C71002EE1D0D1E7D4F88C110A43C4F899
:104120008C21DAE705F5A674C5F84841C1E74FF0E0
:10413000FF30BDE8F08700BF8C4400003D38000030
:1041400026000000290000002D00000033000000C0
:1041500064000000640000006400000064000000CF
:10416000010000000100000001000000010000004B
:104170004F7070732C20616E20756E6B6E6F776E52
:10418000204D494449206D657373616765207479DA
:1041900070652100504954434800000056454C4F7B
:1041A00043495459000000004E4F54454C454E477A
:1041B00054480000474C4F42414C0000050E08098E
:1041C0000D0C06070F0403938E8F050E08090D0CC6
:1041D00006070F04FFFFFFFFFFFFFF8E8F11128402
:1041E00085868791FFFFFFFFFFFFFFFFFF8A8BFFA1
:1041F000FFFFFFFFFFFFFFFFFFFFFFFF0393179787
:1042000001811A924008FE4340A004404408FE4346
:1042100044A004400018FE4300C004403000FE43A8
:10422000309004403400FE43349004401C18FE4398
:104230001CC004401018FE4310C004400818FE4380
:1042400008C004400C18FE430CC004400C10FE4390
:104250000CB004401010FE4310B004401810FE4390
:1042600018B004401C10FE431CB004401410FE4360
:1042700014B004400418FE4304C004400010FE4380
:1042800000B004400008FE4300A004400408FE43C0
:1042900004A004400C08FE430CA004400808FE43A0
:1042A00008A004401418FE4314C004401818FE432C
:1042B00018C004400410FE4304B004400810FE433C
:1042C00008B004406820FE4368D004401400FE4358
:1042D000149004403800FE43389004403C00FE43F4
:1042E0003C9004404000FE43409004404808FE4398
:1042F00048A004404C08FE434CA004402808FE435C
:1043000028A004402C08FE432CA004406020FE435B
:1043100060D004406420FE4364D004402010FE437B
:1043200020B004402410FE4324B004402810FE4373
:1043300028B004402C10FE432CB004404400FE433F
:10434000449004407000FE43709004407400FE43AB
:10435000749004406800FE43689004405008FE4397
:1043600050A004405808FE4358A004405C08FE4397
:104370005CA004405408FE4354A004402018FE43AF
:1043800020C004402418FE4324C004401008FE430B
:1043900010A004401408FE4314A004403818FE4343
:1043A00038C004403418FE4334C004403018FE4383
:1043B00030C004403C18FE433CC004402C18FE436F
:1043C0002CC004402820FE4328D004402C20FE436B
:1043D0002CD004400020FE4300D004400420FE43C3
:1043E00004D004400820FE4308D004400C20FE43C3
:1043F0000CD004401020FE4310D004401420FE4393
:1044000014D004400000000000000000952D0000C2
:104410008D2D0000892D0000852D0000812D0000CC
:104420007D2D0000792D0000752D00000D0AFFFF85
:104430001519151519FFFFFF00010000740CFF1F6F
:104440001200000000020000A00CFF1F95000000F9
:1044500000030000500DFF1F0000000001030904CD
:10446000880CFF1F0000000002030904380DFF1F25
:104470000000000003030904540DFF1F00000000AA
:10448000000000000000000000000000700DFF1F91
:10449000F8B500BFF8BC08BC9E467047E93D000077
:0844A000350400007D0F00004F
:0444A800F8B500BFA4
:1044AC001C16FF1FCC15FF1FE015FF1FF415FF1F77
:1044BC000816FF1F6416FF1F0A040000FFFFFFFF12
:1044CC000C44000000000000E803000000000000A5
:1044DC00F01DFF1F1201100100000040C0168904DE
:1044EC007702010203010000180354006500650007
:1044FC006E00730079006400750069006E006F0037
:10450C0009029500030100C032080B0002020201EF
:10451C000409040000010202010005240010010539
:10452C00240101010424020605240600010705816B
:10453C000310004009040100020A000000070502F4
:10454C00024000000705830240000009040200023B
:10455C0001030000072401000125000624020101CB
:10456C0000062402020200092403010301020100D7
:10457C0009240302040101010009050502400000A1
:10458C00000005250101010905840240000000001E
:10459C0005250101030000001803540065006500A7
:1045AC006E007300790020004D0049004400490062
:1045BC00040309040C0300000000000000000000CC
:1045CC0000000000000000000000000000000000DF
:1045DC00000000005C10FF1FC410FF1F2C11FF1FF8
:1045EC0000000000000000000000000000000000BF
:1045FC0000000000000000000000000000000000AF
:10460C00000000000000000000000000000000009E
:10461C00000000000000000000000000000000008E
:10462C00000000000000000000000000000000007E
:10463C00000000000000000000000000000000006E
:10464C00000000000000000000000000000000005E
:10465C00000000000000000000000000000000004E
:10466C00000000000000000000000000000000003E
:10467C00000000000000000001000000000000002D
:10468C000E33CDAB34126DE6ECDE05000B000000F2
:10469C00000000000000000000000000000000000E
:1046AC0000000000000000000000000000000000FE
:1046BC0000000000000000000000000000000000EE
:1046CC0000000000000000000000000000000000DE
:1049FC000000000000000000700DFF1F0000000010
:104A0C00000000009C11FF1F9C11FF1FA411FF1F31
:104A1C00A411FF1FAC11FF1FAC11FF1FB411FF1F1E
:104A2C00B411FF1FBC11FF1FBC11FF1FC411FF1FCE
:104A3C00C411FF1FCC11FF1FCC11FF1FD411FF1F7E
:104A4C00D411FF1FDC11FF1FDC11FF1FE411FF1F2E
:104A5C00E411FF1FEC11FF1FEC11FF1FF411FF1FDE
:104A6C00F411FF1FFC11FF1FFC11FF1F0412FF1F8D
:104A7C000412FF1F0C12FF1F0C12FF1F1412FF1F3A
:104A8C001412FF1F1C12FF1F1C12FF1F2412FF1FEA
:104A9C002412FF1F2C12FF1F2C12FF1F3412FF1F9A
:104AAC003412FF1F3C12FF1F3C12FF1F4412FF1F4A
:104ABC004412FF1F4C12FF1F4C12FF1F5412FF1FFA
:104ACC005412FF1F5C12FF1F5C12FF1F6412FF1FAA
:104ADC006412FF1F6C12FF1F6C12FF1F7412FF1F5A
:104AEC007412FF1F7C12FF1F7C12FF1F8412FF1F0A
:104AFC008412FF1F8C12FF1F8C12FF1F9412FF1FBA
:104B0C009412FF1F9C12FF1F9C12FF1FA412FF1F69
:104B1C00A412FF1FAC12FF1FAC12FF1FB412FF1F19
:104B2C00B412FF1FBC12FF1FBC12FF1FC412FF1FC9
:104B3C00C412FF1FCC12FF1FCC12FF1FD412FF1F79
:104B4C00D412FF1FDC12FF1FDC12FF1FE412FF1F29
:104B5C00E412FF1FEC12FF1FEC12FF1FF412FF1FD9
:104B6C00F412FF1FFC12FF1FFC12FF1F0413FF1F88
:104B7C000413FF1F0C13FF1F0C13FF1F1413FF1F35
:104B8C001413FF1F1C13FF1F1C13FF1F2413FF1FE5
:104B9C002413FF1F2C13FF1F2C13FF1F3413FF1F95
:104BAC003413FF1F3C13FF1F3C13FF1F4413FF1F45
:104BBC004413FF1F4C13FF1F4C13FF1F5413FF1FF5
:104BCC005413FF1F5C13FF1F5C13FF1F6413FF1FA5
:104BDC006413FF1F6C13FF1F6C13FF1F7413FF1F55
:104BEC007413FF1F7C13FF1F7C13FF1F8413FF1F05
:104BFC008413FF1F8C13FF1F8C13FF1F9413FF1FB5
:104C0C009413FF1F9C13FF1F9C13FF1FA413FF1F64
:104C1C00A413FF1FAC13FF1FAC13FF1FB413FF1F14
:104C2C00B413FF1FBC13FF1FBC13FF1FC413FF1FC4
:104C3C00C413FF1FCC13FF1FCC13FF1FD413FF1F74
:104C4C00D413FF1FDC13FF1FDC13FF1FE413FF1F24
:104C5C00E413FF1FEC13FF1FEC13FF1FF413FF1FD4
:104C6C00F413FF1FFC13FF1FFC13FF1F0414FF1F83
:104C7C000414FF1F0C14FF1F0C14FF1F1414FF1F30
:104C8C001414FF1F1C14FF1F1C14FF1F2414FF1FE0
:104C9C002414FF1F2C14FF1F2C14FF1F3414FF1F90
:104CAC003414FF1F3C14FF1F3C14FF1F4414FF1F40
:104CBC004414FF1F4C14FF1F4C14FF1F5414FF1FF0
:104CCC005414FF1F5C14FF1F5C14FF1F6414FF1FA0
:104CDC006414FF1F6C14FF1F6C14FF1F7414FF1F50
:104CEC007414FF1F7C14FF1F7C14FF1F8414FF1F00
:104CFC008414FF1F8C14FF1F8C14FF1F9414FF1FB0
:104D0C009414FF1F9C14FF1F9C14FF1FA414FF1F5F
:104D1C00A414FF1FAC14FF1FAC14FF1FB414FF1F0F
:104D2C00B414FF1FBC14FF1FBC14FF1FC414FF1FBF
:104D3C00C414FF1FCC14FF1FCC14FF1FD414FF1F6F
:104D4C00D414FF1FDC14FF1FDC14FF1FE414FF1F1F
:104D5C00E414FF1FEC14FF1FEC14FF1FF414FF1FCF
:104D6C00F414FF1FFC14FF1FFC14FF1F0415FF1F7E
:104D7C000415FF1F0C15FF1F0C15FF1F1415FF1F2B
:104D8C001415FF1F1C15FF1F1C15FF1F2415FF1FDB
:104D9C002415FF1F2C15FF1F2C15FF1F3415FF1F8B
:104DAC003415FF1F3C15FF1F3C15FF1F4415FF1F3B
:104DBC004415FF1F4C15FF1F4C15FF1F5415FF1FEB
:104DCC005415FF1F5C15FF1F5C15FF1F6415FF1F9B
:104DDC006415FF1F6C15FF1F6C15FF1F7415FF1F4B
:104DEC007415FF1F7C15FF1F7C15FF1F8415FF1FFB
:104DFC008415FF1F8C15FF1F8C15FF1F9415FF1FAB
:0C4E0C009415FF1F00000200FFFFFFFFD5
:00000001FF
