:1000000000000320D1010000C93A0000813A00003D
:10001000813A0000813A0000813A0000813A0000F4
:10002000813A0000813A0000813A0000C93A00009C
:10003000C93A0000813A00005540000059410000D3
:10004000C93A0000C93A0000C93A0000C93A0000A4
:10005000C93A0000C93A0000C93A0000C93A000094
:10006000C93A0000C93A0000C93A0000C93A000084
:10007000C93A0000C93A0000C93A0000C93A000074
:10008000C93A0000C93A0000C93A0000C93A000064
:10009000C93A0000C93A0000C93A0000C93A000054
:1000A000C93A0000C93A0000C93A0000C93A000044
:1000B000C93A0000C93A0000C93A0000953B000067
:1000C000C93A00007D380000C93A0000953E0000A2
:1000D000C93A0000A9390000C93A0000C93A000035
:1000E000C93A0000C93A0000C93A0000C93A000004
:1000F000C93A0000C93A0000C93A0000C93A0000F4
:10010000C93A0000C93A0000C93A0000C93A0000E3
:10011000C93A0000B52B0000C93A0000C93A0000F6
:10012000C93A0000C93A0000C93A0000C93A0000C3
:10013000C93A0000C93A0000C93A0000C93A0000B3
:10014000C93A0000C93A000085370000C93A0000EA
:10015000C93A0000C93A0000C93A0000C93A000093
:10016000C93A0000C93A0000C93A0000C93A000083
:10017000C93A0000C93A0000C93A0000C93A000073
:10018000C93A0000C93A0000C93A0000C93A000063
:10019000C93A0000C93A0000C13C0000C93A000059
:1001A000C93A0000C93A0000C93A0000C93A000043
:1001B000C93A0000C93A0000C93A0000C93A000033
:1001C000C93A0000C93A0000C93A0000C93A000023
:1001D0005C4B4CF2205210B51A804DF628121A8052
:1001E00000BF00BF03F074FC574B4FF030621A6041
:1001F000564A9A60564ADA60564B4FF470021A60BB
:10020000554B564A1A60564A136813F4807304D14A
:1002100054490B604FF4A8531360534B1A781107DD
:1002200003D51A7842F008021A70504B5049AA229E
:100230001A70504A504B8B4204D252F8040F43F8C4
:10024000040BF8E74D4B4E4900228B4202D243F893
:10025000042BFAE74B494C4A002352F8230041F89B
:1002600023000133742BF8D1484B494A802103F80D
:10027000011B9342FBD1474B424A1A60464B8A22EC
:100280001A70A3F5805324225A70A0221A709A790A
:100290009207FCD59A79D406FCD4404A937903F0AE
:1002A0000C03082BFAD13E4B60221A7002331A78E5
:1002B000802AFCD1394B01221A715D225A719A7938
:1002C0009006FCD59979354A4906FBD5354B364918
:1002D00019600021596020231370937903F00C03F7
:1002E0000C2BFAD1314B324A1A60324B324A1A6027
:1002F00000225A60072243F8042C304AC3F80C2D20
:1003000062B601F0CBFF174B1B68DA0705D52C4806
:1003100001F046FF2B4B2C4A1A602C4B1B785B06D6
:1003200009D5284C284B22689A4204D1244801F070
:1003300037FF0023236003F01DFF03F0CFFB03F022
:1003400007FAFEE70E20054030800440823F04009B
:100350000100002B88ED00E0002008E0030000858C
:1003600010D0034014D0034002D0074000E0074003
:10037000BC15FF1FF84D0000400CFF1FBC15FF1FF0
:10038000741EFF1F0002FF1F0000000000E400E0D9
:1003900064E400E008ED00E0005006400040064044
:1003A00001E007404480044000000602048004404D
:1003B000C010070014E000E01FBF02000000202072
:1003C000310000001CE00340A5C3945A00F0074030
:1003D000FFFFFFFFFFFFFFFFFFFFFFFFFFFFFFFF2D
:1003E000FFFFFFFFFFFFFFFFFFFFFFFFFFFFFFFF1D
:1003F000FFFFFFFFFFFFFFFFFFFFFFFFFFFFFFFF0D
:10040000FFFFFFFFFFFFFFFFFFFFFFFFDEF9FFFF23
:1004100010B5054C237833B9044B13B10448AFF33E
:1004200000800123237010BDBC15FF1F00000000D9
:10043000FC4D0000084B10B51BB108490848AFF34C
:1004400000800848036803B910BD074B002BFBD0A0
:10045000BDE81040184700BF00000000C015FF1F96
:10046000FC4D0000BC15FF1F0000000038B504461D
:1004700000234B2580E80600C8B22374E560012103
:1004800001F0B4FE2078217901F09CFE204638BDB1
:10049000704700BF2DE9F0470020BAB002F03CF8E9
:1004A000002840F08583A74CA74E96F8200001F065
:1004B0008FFEB368F06098420546024600F09083D4
:1004C00023682193219B7361216820912099DFF893
:1004D0007482994208D073689B4F9D4200F08C83D0
:1004E0007D60002D00F09083984DB26095F820005B
:1004F00001F06EFEAB68E86098420646024600F0E6
:10050000758323681F931F9B6B6121681E911E9941
:10051000DFF83082994208D06B688C4F9E4200F021
:1005200069837E60002E00F08B83894EAA6096F866
:10053000200001F04DFEB368F06098420546024687
:1005400000F0528323681D931D9B736121681C91E9
:100550001C99DFF8F081994208D073687C4F9D4266
:1005600000F046837D60002D00F08683794DB260F7
:1005700095F8200001F02CFEAB68E8609842064632
:10058000024600F02F8323681B931B9B6B6121683D
:100590001A911A99DFF8AC818B4208D06B686D4FC5
:1005A0009E4200F02B837E60002E00F081836A4E15
:1005B000AA6096F8200001F00BFEB368F060984244
:1005C0000546024600F0088323681993199B73615E
:1005D000216818911899DFF86C81994208D07368E6
:1005E0005D4F9D4200F00C837D60002D00F07C8308
:1005F0005A4DB26095F8200001F0EAFDAB68E86062
:1006000098420646024600F0E98223681793179B3A
:100610006B61216816911699DFF82881994221D0E3
:100620006B684E4F9E4200F0ED827E60D6B93B7CF7
:10063000002B40F097857B7C002B40F0A686BB69A1
:1006400093E80300B1FA81F149095960C0B201F0A1
:10065000B9FDFB693968FA6853F821100B7983F00A
:1006600001030B713E4EAA60337C002B00F07C82AC
:1006700023681593159BB168F268324F5B1A934259
:1006800000F26282374D2B7C002B00F03982236808
:100690001293129BA968EA682A4F5B1A934200F2F0
:1006A0001F82314D2B7C002B00F0F68123680F93C5
:1006B0000F9BA968EA68234F5B1A934200F2DC8122
:1006C0002A4D2B7C002B00F0A18123680C930C9BFE
:1006D000A968EA681B4F5B1A934200F28781244D98
:1006E0002B7C002B00F05E8123680993099BA9688D
:1006F000EA68144F5B1A934200F244811D4D2B7C33
:10070000002B00F01D8123680693069BA968EA6808
:100710000C4F5B1A934200F20381174C207801F0D2
:100720005FFCA3686060984243D0C31A002BB8BF37
:100730005B420A2B3DDD237E042B00F06D830F4BC3
:100740001B781DE07C18FF1F0C16FF1F3016FF1FC3
:100750005416FF1F7816FF1F9C16FF1FC016FF1FA1
:100760000418FF1F1C18FF1F3418FF1F4C18FF1F11
:10077000D815FF1FF015FF1F3417FF1F0018FF1FAC
:10078000012B00F02384002B00F0DD82022B0FD11F
:100790002269E1686FF0150303FB00F3002B02EB05
:1007A0008102B8BF03F2FF3352689B121833136102
:1007B000A060A84C207801F013FCA3686060984208
:1007C00024D0C31A002BB8BF5B420A2B1EDD237E48
:1007D000042B00F02F83A04B1B78012B00F0CC835F
:1007E000002B00F0FC82022B0FD12269E1686FF030
:1007F000150303FB00F3002B02EB8102B8BF03F2E9
:10080000FF3352689B1218331361A060934C207819
:1008100001F0E6FBA3686060984224D0C31A002B65
:10082000B8BF5B420A2B1EDD237E042B00F01E8323
:10083000894B1B78012B00F0AD83002B00F0C082A8
:10084000022B0FD12269E1686FF0150303FB00F35F
:10085000002B02EB8102B8BF03F2FF3352689B12F8
:1008600018331361A0607E4C207801F0B9FBA368B7
:100870006060984224D0C31A002BB8BF5B420A2B99
:100880001EDD237E042B00F0E382734B1B78012BCB
:1008900000F08E83002B00F07582022B0FD12269AD
:1008A000E1686FF0150303FB00F3002B02EB8102FC
:1008B000B8BF03F2FF3352689B1218331361A06074
:1008C000684C207801F08CFBA3686060984224D0CB
:1008D000C31A002BB8BF5B420A2B1EDD237E042BFC
:1008E00000F08C825C4B1B78012B00F07E83002B88
:1008F00000F05782022B0FD12269E1686FF01503D7
:1009000003FB00F3002B02EB8102B8BF03F2FF33BD
:1009100052689B1218331361A0603AB0BDE8F087AB
:100920002E78304601F054FCB0FA80F14909304687
:1009300001F048FC3B680593059BAB6000232B74DA
:100940006E69494D002E7FF7E8AE23680493049B3F
:10095000A968EA68454F5B1A93427FF6DEAE2C78B1
:10096000204601F035FCB0FA80F14909204601F03B
:1009700029FC3B683993023E399A6E610123AA60D3
:100980002B74CAE62E78304601F022FCB0FA80F1D2
:100990004909304601F016FC3B680893089BAB60A0
:1009A00000232B746E69324D002E7FF7A7AE2368AB
:1009B0000793079BA968EA68DFF8B0805B1A934247
:1009C0007FF69CAE2F78384601F002FCB0FA80F139
:1009D0004909384601F0F6FBD8F800303893023E5A
:1009E000389A6E610123AA602B7487E62E78304610
:1009F00001F0EEFBB0FA80F14909304601F0E2FB6C
:100A00003B680B930B9BAB6000232B746E69194DF5
:100A1000002E7FF764AE23680A930A9BA968EA68F0
:100A2000DFF848805B1A93427FF659AE2F7838463C
:100A300001F0CEFBB0FA80F14909384601F0C2FB63
:100A4000D8F800303793023E379A6E610123AA60CE
:100A50002B7444E65017FF1F0018FF1F6C17FF1F71
:100A60008817FF1FA417FF1FF015FF1F7C18FF1F1B
:100A7000D815FF1F4C18FF1F2E78304601F0A8FB39
:100A8000B0FA80F14909304601F09CFB3B680E93B7
:100A90000E9BAB6000232B746E69B24D002E7FF766
:100AA0000FAE23680D930D9BA968EA68DFF8C88232
:100AB0005B1A93427FF604AE2F78384601F088FB2C
:100AC000B0FA80F14909384601F07CFBD8F80030D3
:100AD0003693023E369A6E610123AA602B74EFE5CD
:100AE0002E78304601F074FBB0FA80F149093046A7
:100AF00001F068FB3B681193119BAB6000232B74E2
:100B00006E69994D002E7FF7CCAD23681093109B32
:100B1000A968EA68DFF860825B1A93427FF6C1AD8C
:100B20002F78384601F054FBB0FA80F14909384675
:100B300001F048FBD8F800303593023E359A6E61DB
:100B40000123AA602B74ACE53578284601F040FB00
:100B5000B0FA80F14909284601F034FB3B68149350
:100B6000149BB360002333747669804D002E7FF7A9
:100B700089AD23681393139BA968EA68DFF8F881AD
:100B80005B1A93427FF67EAD2F78384601F020FB4A
:100B9000B0FA80F14909384601F014FBD8F800306A
:100BA0003493023E349A6E610123AA602B7469E586
:100BB0006F4B1B78FA2B00F06781FC2B00F0B080A4
:100BC000F82B00F0988123216A486B4C00F0F2FF6B
:100BD0006A4802F0A9FD67E47369F9E46B6918E5F6
:100BE000736971E46B69D2E47369AFE46B698CE497
:100BF0002A46BBE4324698E42A4675E43246D6E4F7
:100C00002A46F5E432462DE53B7C002B40F06C8211
:100C10007B7C002B40F00984BB6993E80300B1FAA8
:100C200081F149095960C0B201F0CCFAFB69396819
:100C3000FA6853F821100B7983F001030B7153E428
:100C40003B7C002B40F05A837B7C002B40F0898357
:100C5000BB6993E80300B1FA81F149095960C0B258
:100C600001F0B0FAFB693968FA6853F821100B7982
:100C700083F001030B7158E43B7C002B40F0D882D9
:100C80007B7C002B40F0A983BB6993E80300B1FA99
:100C900081F149095960C0B201F094FAFB693968E1
:100CA000FA6853F821100B7983F001030B715DE4AE
:100CB0003B7C002B40F0EF827B7C002B40F0A1833B
:100CC000BB6993E80300B1FA81F149095960C0B2E8
:100CD00001F078FAFB693968FA6853F821100B794A
:100CE00083F001030B7162E43B7C002B40F06D82CA
:100CF0007B7C002B40F05D83BB6993E80300B1FA75
:100D000081F149095960C0B201F05CFAFB693968A8
:100D1000FA6853F821100B7983F001030B7167E433
:100D20001749154CC8680022836A0A708A600260FD
:100D300093E80300B1FA81F149095960C0B201F0AA
:100D400041FAFFF7B1BB2369E26803EB8202A0EB33
:100D500080039B0048BF03F2FF3352689B1233337A
:100D6000936025E53418FF1F1C18FF1F0418FF1F90
:100D7000381DFF1FC84A00007C18FF1F700CFF1FA2
:100D8000F017FF1F2369E26803EB8202A0EB8003E8
:100D90009B0048BF03F2FF3352689B1233339360CA
:100DA0008DE52369E26803EB8202A0EB80039B00E0
:100DB00048BF03F2FF3352689B1233339360ABE5B5
:100DC0002369E26803EB8202A0EB80039B0048BF2B
:100DD00003F2FF3352689B123333936042E5236979
:100DE000E26803EB8202A0EB80039B0048BF03F2A2
:100DF000FF3352689B123333936006E5B0F5C87F2A
:100E0000636980F200819A680621052A596001DD34
:100E100000229A6060687FE5B0F5C87F636980F260
:100E20002B819A680621052A596001DD00229A600B
:100E30006068BDE4B0F5C87F636980F2F2809A68AB
:100E40000621052A596001DD00229A606068DCE411
:100E5000B0F5C87F636980F201819A680621052A8E
:100E6000596001DD00229A60606828E5B0F5C87F0E
:100E7000636980F2E5809A680621052A596001DDE0
:100E800000229A606068EDE4B14DB24CEE683368C0
:100E900006EB83034FF001095F6985F8009097F82E
:100EA00000A04FF000085046C5F8088001F090F906
:100EB000B0FA80F14909504601F084F9336822689C
:100EC000039206EB83020398526887F81090117919
:100ED000C7F81480B860002940F0C08296F82D2031
:100EE000002A00F0D8805A1E002B00F0CA8232601F
:100EF000EB689B6A1CE7964DEA68AB68116802EBE9
:100F0000810201335268AB601269934280F2A18280
:100F10006A688F499A427FF4C6AACE688D4C3368BE
:100F200006EB83035F6997F80080404601F050F9B3
:100F3000B0FA80F14909404601F044F9336822686B
:100F4000029206EB83020121526839740021796113
:100F500011790298B860002940F07E8396F82D2020
:100F6000002A40F091820133032BC8BF0023336075
:100F70000023AB60FFF798BAE268236903EB8203B2
:100F80005A68B0EB801348BF03F2FF339B127F33E4
:100F9000D3603AE4E268236903EB82035A68B0EB5A
:100FA000801348BF03F2FF339B127F33D36059E4B1
:100FB000E268236903EB82035A68B0EB801348BFF1
:100FC00003F2FF339B127F33D36078E4E268236936
:100FD00003EB82035A68B0EB801348BF03F2FF3380
:100FE0009B127F33D360FFF7E3BBE268236903EB17
:100FF00082035A68B0EB801348BF03F2FF339B12A1
:101000007F33D36088E4A0F5C872B2F5C87F64D39B
:10101000A0F54872DF2A3FF67FAC0C225A60606868
:101020007AE4A0F5C872B2F5C87F4FD3A0F5487234
:10103000DF2A3FF6EAAB0C225A606068FFF7E5BB97
:10104000A0F5C872B2F5C87F39D3A0F54872DF2A7F
:101050003FF608AC0C225A60606803E4A0F5C87241
:10106000B2F5C87F24D3A0F54872DF2A3FF627AC3B
:101070000C225A60606822E4A0F5C872B2F5C87FFD
:101080000FD3A0F54872DF2A3FF692AB0C225A60CC
:101090006068FFF78DBB0133032BC8BF00233360AB
:1010A00026E79A680821072A59603FF7BFAEBFE6D6
:1010B0009A680821072A59603FF7D4AED4E69A68A7
:1010C0000821072A59603FF7DBAEDBE69A68082162
:1010D000072A59603FF7B8AEB8E69A680821072A90
:1010E00059603FF795AE95E6DFF874E0D7F81C90AD
:1010F0009EF80030002B00F0FB81012B00F0C28233
:10110000022B7FF4F1A9052113488EF8005000F05E
:1011100051FD124802F008FBD9F8249099F800A07C
:10112000504601F055F8B0FA80F14909504601F0F7
:1011300049F8D8F8003024930121249BFA68C9F8B3
:10114000145089F81010C9F80830FFF7CDB900BF66
:10115000F017FF1F7C18FF1F044B0000700CFF1FCF
:101160000018FF1FDFF884E3D7F81C909EF80030CA
:10117000002B00F0E181012B00F01883022B7FF49B
:1011800071AA0521D5488EF8006000F013FDD448FF
:1011900002F0CAFAD9F8249099F800A0504601F05C
:1011A00017F8B0FA80F14909504601F00BF8D8F869
:1011B000003033930121339BFA68C9F8146089F831
:1011C0001010C9F80830FFF74DBADFF820E3D7F860
:1011D0001C909EF80030002B00F0F681012B00F0EF
:1011E0009B82022B7FF404AA0521BC488EF8005094
:1011F00000F0E0FCBA4802F097FAD9F8249099F888
:1012000000A0504600F0E4FFB0FA80F149095046D2
:1012100000F0D8FFD8F8003030930121309BFA68F5
:10122000C9F8145089F81010C9F80830FFF7E0B970
:10123000DFF8B8E2D7F81C909EF80030002B00F0E1
:101240009F81012B00F0D782022B7FF48FA905210B
:10125000A2488EF8005000F0ADFCA14802F064FAFC
:10126000D9F8249099F800A0504600F0B1FFB0FAE8
:1012700080F14909504600F0A5FFD8F800302A93C4
:1012800001212A9BFA68C9F8145089F81010C9F88E
:101290000830FFF76BB9DFF854E2D7F81C909EF8DE
:1012A0000030002B00F0B481012B00F05A82022B99
:1012B0007FF47DA9052189488EF8006000F07AFC52
:1012C000874802F031FAD9F8249099F800A05046E6
:1012D00000F07EFFB0FA80F14909504600F072FF3D
:1012E000D8F800302D9301212D9BFA68C9F81460BD
:1012F00089F81010C9F80830FFF759B9DFF8ECE1A8
:10130000D7F81C909EF80030002B00F0C380012B12
:1013100000F0DD81022B7FF408A905216F488EF8CB
:10132000006000F047FC6E4802F0FEF9D9F8249006
:1013300099F800A0504600F04BFFB0FA80F149093F
:10134000504600F03FFFD8F8003027930121279B3B
:10135000FA68C9F8146089F81010C9F80830FFF766
:10136000E4B8BB6993E80300B1FA81F14909596017
:10137000C0B200F027FFF969FA6891F82D3083F0C8
:10138000010381F82D30FFF7D0B8BB6993E8030063
:10139000B1FA81F149095960C0B200F013FFF9694F
:1013A000FA6891F82D3083F0010381F82D30FFF7B2
:1013B00059B9BB6993E80300B1FA81F14909596051
:1013C000C0B200F0FFFEF969FA6891F82D3083F0A1
:1013D000010381F82D30FFF70BB9BB6993E80300D7
:1013E000B1FA81F149095960C0B200F0EBFEF96928
:1013F000FA6891F82D3083F0010381F82D30FFF762
:10140000B5B8BB6993E80300B1FA81F149095960A5
:10141000C0B200F0D7FEF969FA6891F82D3083F078
:10142000010381F82D30FFF7C2B8BB6993E80300D0
:10143000B1FA81F149095960C0B200F0C3FEF969FF
:10144000FA6891F82D3083F0010381F82D30FFF711
:101450004BB8244800F0FCFFAB6859E59068D368AE
:1014600000041B0603F0FE4300F4FE00184340F4A2
:101470001F4040F0090000F0EBFF01F037F833683F
:101480002CE50323336033E55A1E002B00F0F78070
:1014900032606DE508214FF0010A13488EF800A074
:1014A00000F088FB0E4802F03FF9D9F8246096F866
:1014B0000090484600F08CFEB0FA80F14909484699
:1014C00000F080FED8F800302593259BFA6886F856
:1014D00010A0C6F814A0B360FFF727B8044B0000B3
:1014E000700CFF1F0BBF7B7FEC4A00000018FF1F32
:1014F00008214FF0010AD2488EF800A000F05AFBF4
:10150000D04802F011F9D9F8245095F800904846D7
:1015100000F05EFEB0FA80F14909484600F052FE44
:10152000D8F800302293229BFA6885F810A0C5F8FD
:1015300014A0AB60FEF7D8BF08214FF0010AC048E5
:101540008EF800A000F036FBBE4802F0EDF8D9F8A6
:10155000246096F80090484600F03AFEB0FA80F118
:101560004909484600F02EFED8F800303193319BEF
:10157000FA6886F810A0C6F814A0B360FFF772B836
:1015800008214FF0010AAE488EF800A000F012FBCF
:10159000AC4802F0C9F8D9F8245095F800904846B4
:1015A00000F016FEB0FA80F14909484600F00AFE44
:1015B000D8F800302893289BFA6885F810A0C5F861
:1015C00014A0AB60FEF7D2BF08214FF0010A9C487F
:1015D0008EF800A000F0EEFA9A4802F0A5F8D9F8CB
:1015E000245095F80090484600F0F2FDB0FA80F1E2
:1015F0004909484600F0E6FDD8F800302E932E9BAE
:10160000FA6885F810A0C5F814A0AB60FEF7F0BF2B
:1016100008214FF0010A8A488EF800A000F0CAFAAB
:10162000884802F081F8D9F8246096F8009048467E
:1016300000F0CEFDB0FA80F14909484600F0C2FD45
:10164000D8F800302B932B9BFA6886F810A0C6F8C8
:1016500014A0B360FEF7ABBF9068D36800041B060C
:1016600003F0FE4300F4FE00184340F41F4040F036
:10167000090000F0EDFE00F039FF33686EE403234B
:10168000336075E40A214FF0020A6F4801938EF827
:1016900000A000F08FFA6B4802F046F8D9F8245009
:1016A00095F80090484600F093FDB0FA80F14909A2
:1016B000484600F087FDD8F8002023922399019B2B
:1016C000FA68C5F814A02B74A960FEF70DBF0A21B3
:1016D0004FF0020A5C4801938EF800A000F06AFA0D
:1016E000584802F021F8D9F8246096F8009048464E
:1016F00000F06EFDB0FA80F14909484600F062FD45
:10170000D8F8002026922699019BFA68C6F814A002
:101710003374B160FEF709BF0A214FF0020A4A484C
:1017200001938EF800A000F045FA464801F0FCFF56
:10173000D9F8245095F80090484600F049FDB0FAD9
:1017400080F14909484600F03DFDD8F800202F926D
:101750002F99019BFA68C5F814A02B74A960FEF7B5
:1017600047BF0A214FF0020A374801938EF800A0C4
:1017700000F020FA334801F0D7FFD9F8246096F83A
:101780000090484600F024FDB0FA80F1490948462F
:1017900000F018FDD8F800202C922C99019BFA68D3
:1017A000C6F814A03374B160FEF701BF0A214FF0F0
:1017B000020A254801938EF800A000F0FBF92148A9
:1017C00001F0B2FFD9F8246096F80090484600F086
:1017D000FFFCB0FA80F14909484600F0F3FCD8F864
:1017E000002032923299019BFA68C6F814A0337433
:1017F000B160FEF737BF0A214FF0020A1248019389
:101800008EF800A000F0D6F90E4801F08DFFD9F84F
:10181000245095F80090484600F0DAFCB0FA80F1C8
:101820004909484600F0CEFCD8F8002029922999B1
:10183000019BFA68C5F814A02B74A960FEF796BE48
:10184000EC4A0000700CFF1FF84A00002DE9F04F31
:10185000002283B003218A488A4E8B4DDFF87CB288
:10186000DFF87C92894FFEF701FE002205218848AF
:10187000FEF7FCFD002207218648FEF7F7FD002257
:1018800009218548FEF7F2FD00220B218348FEF76F
:10189000EDFD002218218248FEF7E8FD34688148FA
:1018A000B168F2686C6174687369AC614FF00408E8
:1018B0000024E9612A6226216422D6F810E0DFF8CC
:1018C00024C2AB62C0F800B0774B04718160C26083
:1018D000C0F810807548C5F824E0CCF800B08CF84A
:1018E0000440CCF80810CCF80C20CCF81080C9F8D3
:1018F00000B089F80440C9F80810C9F80C20C9F8EC
:101900001080C3F800B01C719960DA60C3F81080D1
:101910000368DEF804102C60B1FA81F241686B6054
:10192000DEF80030A9608168E9605209C16885F875
:101930002C4085F82D402961D8B2CEF804201146FC
:1019400000F040FCAB6A93E80300B1FA81F1490969
:101950005960C0B200F036FC554B32689A614FF0C6
:1019600002094FF0010A214618224846DD611C7425
:101970005C74BC603C707A60C3F800A0C3F820902F
:10198000FD6000F033FC4B4B72689A612146404683
:101990000622DD61C3F80090C3F820801C745C74DB
:1019A000019200F023FC444B019AB1689961104602
:1019B0004FF0030B21461A62DD611C745C74C3F89E
:1019C00000B000F013FC3D4BF16899610821084616
:1019D00019622146DD61C3F800801C745C7400F05C
:1019E00005FC374B3169996105200A21186019629D
:1019F00008462146DD6183F810A05C7400F0F6FB18
:101A0000304B019A76691A600C22104621469E617D
:101A10002D4EDD611C7483F811A01A6200F0E6FB04
:101A20002A482B492B4A2C4B3476F4604FF00F0E8A
:101A30000E2434703561776105611026476180F8A6
:101A400018A0C0F80CA0112480F800E012200D614D
:101A50004F6181F81890C1F80C900E7015615761B4
:101A600082F818B0C2F80CB014701D615F6183F881
:101A70001880C3F80C80187003B0BDE8F08F00BF69
:101A80000418FF1F500CFF1FC017FF1FF017FF1F88
:101A90001C18FF1F3418FF1F4C18FF1FD815FF1FFD
:101AA000F015FF1FE416FF1F2017FF1F400CFF1F3C
:101AB0000C16FF1F3016FF1F5416FF1F7816FF1F4E
:101AC0009C16FF1FC016FF1F3417FF1F5017FF1F64
:101AD0006C17FF1F8817FF1FA417FF1F0816FF1F93
:101AE000F816FF1F0C17FF1F38B50F4D286878B187
:101AF00043880288C118013393420C7A02D2438092
:101B0000204638BD00F046FF002320462B6038BD3C
:101B1000064B1B782BB1022000F062FF28600028E2
:101B2000E6D14FF0FF3038BD7018FF1FD019FF1FEE
:101B300010B5094C206818B143881844007A10BDCC
:101B4000064B1B782BB1022000F04AFF20600028D2
:101B5000F2D14FF0FF3010BD7018FF1FD019FF1FDA
:101B6000044B054A1B6850881BB11A885B88D31A3E
:101B7000184470477018FF1F641EFF1F0B4B1B7823
:101B80009BB110B50A4C206848B100F003FF002358
:101B90000220236000F024FF30B100F0FBFE0220A1
:101BA00000F01EFF0028F8D110BD7047D019FF1FAC
:101BB0007018FF1F2DE9F04FDFF8F89083B0012275
:101BC00089F80020019169B3DFF8EC80354F019E60
:101BD0008346D8F80000B0B3334D4488C4F14001C7
:101BE000B14228BF314604EB010E00221FFA8EFEDF
:101BF0002A70761AA0F802E000F1080251B1013C07
:101C0000224459441BF8014B02F8014F8B45F9D18E
:101C1000B0F802E0BEF13F0F0BD8244A0521117045
:101C2000002ED6D10198002389F8003003B0BDE81A
:101C3000F08F402202800146032000F079FF00224D
:101C4000C8F80020E9E73A7822B3194C164D4FF056
:101C5000010A07E0013C16D02A78A2B901F0EAFC9B
:101C60003A78BAB1032000F0D9FE0728F2D889F8F3
:101C700000A000F06FFEC8F800000028ADD10D4BA9
:101C8000013C1870E8D101234FF0FF302B7003B0F6
:101C9000BDE8F08F00234FF0FF3089F8003003B02B
:101CA000BDE8F08FD019FF1F6C18FF1F6418FF1FCD
:101CB000214801006518FF1F6818FF1F00B583B099
:101CC00002AB012103F8010D1846FFF773FF03B0C3
:101CD0005DF804FB38B50E4D0E4C286801232370C7
:101CE00028B1408800232370C0F1400038BD0A4B62
:101CF0001B7813B90020207038BD032000F08EFE41
:101D00000728F7D800F026FE28600028E9D1F1E77F
:101D10006818FF1F6518FF1FD019FF1FF8B5114B7A
:101D20001B788BB1104E114D346801272F7064B1B0
:101D30000F4A63880027177021462380032000F094
:101D4000F7FE376000232B70F8BD00F003FE084B50
:101D500028B1014603201C7000F0EAFEF2E71F7074
:101D6000F0E700BFD019FF1F6818FF1F6518FF1F9D
:101D70006418FF1F38B50E4B1B7873B90D4C2168E2
:101D800061B103F0FF054B880B80032000F0D0FE0B
:101D9000256038BD084B01221A7038BD00F0DAFD0D
:101DA0000028F7D00146BDE83840032000F0C0BE4F
:101DB0006518FF1F6818FF1F6418FF1F374A38494E
:101DC00013681B06FCD40B6813F08003F8D172B6BD
:101DD00034490A78002A5FD0334A3448F0B4344C8E
:101DE000176806682568D4680C303E4414320068D1
:101DF0001268304F35442C4420440244C2F34E0252
:101E00002D4E2E482E4D2F4C42F400423A6037683A
:101E100006682D682C4A24680C303E44006812681D
:101E20002A4F35442C4420440244C2F34E02284E2B
:101E30002848294D294C42F400423A603768066828
:101E40002D68274A24680C303E4400681268254FEC
:101E500035442C4420440244C2F34E02224E23480F
:101E6000234D244C42F400423A60376806682D68DE
:101E7000214A24680C303E440068126835442C44E2
:101E800020440244C2F34E021C4842F40042026065
:101E90000B7062B6F0BC704762B6704724B0034066
:101EA00024B00B407618FF1F38B003403CB003400D
:101EB00040B003402CB0034058B003405CB0034036
:101EC00060B0034064B003406CB0034030B00340E6
:101ED00038B00B403CB00B4040B00B4044B00B401E
:101EE0004CB00B402CB00B4058B00B405CB00B40DA
:101EF00060B00B4064B00B406CB00B4030B00B4096
:101F000030B42948294A2A4B2A4D6024E121047023
:101F100011701B78284C082B30D00A2B27482849F1
:101F200037D00C2B0CBF35225D2212232A60236090
:101F300002600B60234B24491B78244ABBB1012368
:101F40000B601360224B23491B78234A012B26D9AF
:101F5000042B0FD9082B1ED9102B94BF862387235F
:101F60000B6013601D4B01221A7030BC70470B6070
:101F70001360E7E784230B601360F3E700F58E201E
:101F80000F490830212213232A60236002600B606E
:101F9000D0E73922F7E785230B601360E2E780235F
:101FA0000B601360DEE700BF0040074001400740C0
:101FB000680CFF1F08B003400CB0034008B00B4092
:101FC0000CB00B407918FF1F20B0034020B00B402D
:101FD000690CFF1F24B0034024B00B407618FF1F8C
:101FE00047282FD8334B2DE9F0411E5CFF2E2BD014
:101FF000314B1B78002B2AD132062CD472B62F4DD0
:102000002F4C2F46012326602B7062B672B62368D0
:102010001B060CD43B781BB9F4E72B78002BF1D0CE
:1020200062B601F007FB72B623681806F5D5254B9A
:102030001B6800222A7062B6234A107843FA00F027
:10204000BDE8F081002070470020BDE8F081FFF777
:10205000B5FE3206D2D572B61C4DDFF87C801C4C22
:1020600006F04007FFB206F03F06D8F80030DFB1B7
:1020700023F01003C8F8003001232660134A2B70A8
:1020800062B672B6236819060CD413781BB9ECE754
:102090002B78002BE9D062B601F0CCFA72B6236837
:1020A0001B06F5D50B4BC3E743F01003C8F800300F
:1020B000E2E700BF0C4B00007618FF1F7818FF1FE7
:1020C00000B0034010B003407518FF1F7718FF1FC2
:1020D00000B00B4010B00B400CB00B4010B4114BD3
:1020E00053F8302092F8804234B1012379B182F85C
:1020F00080305DF8044B704703EBC0035B681A68DF
:1021000051B922F002021A605DF8044B704782F860
:1021100000315DF8044B704742F003021A605DF82D
:10212000044B7047544B00001C4A02EBC0030129CA
:102130005B6811D004291BD052F83000002280F8CF
:10214000802229B1022920D0032922D01A607047A9
:102150004FF480721A60704752F830004FF4A27248
:1021600080F880121A601A6822F020021A60704704
:1021700052F830104FF4A272012081F880021A60E8
:102180001A6842F020021A60704740F203121A6087
:1021900070474FF481721A60704700BF544B0000C3
:1021A00030B4054B054D064C002210211A602A6000
:1021B0002060196030BC704714D0034004D0034045
:1021C00000D003403F2801D8FFF788BF704700BF09
:1021D0003F2806D8044B53F8303093F80002C0B2C1
:1021E00070470020704700BF544B00003F2801D8C3
:1021F000FFF79ABF704700BF2DE9F843054672B656
:10220000224F234B234A1B683C68126862B6520176
:1022100002D5322B88BF0134B5B3C3F52F3303F297
:102220001F331D4EDFF86890DFF868809B084FF47D
:102230007A72A6FB031302FB04F404EB930472B658
:10224000D9F800103A68D8F800E062B6C1F52F332B
:1022500003F21F339B08A6FB03031EF0806FC4EB41
:1022600093034FF47A7002D0322988BF013200FB09
:102270000233B3F57A7F04D3013D05D004F57A74B7
:10228000DDE701F0D7F9DAE7BDE8F8837C18FF1F36
:1022900018E000E004ED00E0176CC116F8B54E4BF5
:1022A0004E48DFF85CC14E4C4E49DFF858E14E4EC7
:1022B0004E4D4F4F4FF000621A604FF080521A603F
:1022C0004FF000521A604FF080421A604FF0004207
:1022D0001A600022026028234EF6FF70CCF800003E
:1022E000CEF8003023600EF5012E0B6033602B60BA
:1022F00006F500263B6005F50025A36207F50027DB
:102300008B6204F5012401F5012106F6E87605F655
:10231000E87507F57F6710310EF1100E2034336039
:102320002B60CEF800303B600B602360314CBB610A
:102330008B6109212160A7F5002704F58054203F17
:1023400008343A602060BB60E36047F8041C04F581
:10235000FD2407F5FE27043704F2FC742260386080
:10236000A360FB6044F8041C083404F6FC74C7F84E
:10237000FC2F2060A4F5E124A4F2DC7433602B6010
:10238000C7F8F81F21681C4841F4007121600168FA
:102390001A4C0EF57F4E0EF1E80E07F5883706F55C
:1023A000803605F5803541F000710160CEF80020DF
:1023B00047F6FF710822396033602B602260FFF717
:1023C0009FFD1920FFF718FF01F0CCF840F2131021
:1023D000BDE8F840FFF710BF04E100E004800340CF
:1023E000148003401C800340248003402C80034061
:1023F00034800340008003400480044000900C407F
:10240000088003400C80034038B50E4B0E4C1B680F
:10241000218805468BB1B1F5917F05D20B4A4B1C43
:1024200055549BB2238038BD0022084898470021AC
:10243000064A55540123238038BDB1F5917FEDD371
:1024400038BD00BFA418FF1F3A1DFF1F401DFF1F0E
:102450002DE9F843214E224F3168012380463B701D
:10246000B1B1204D4B8801EB8302013300240F2BC7
:10247000C2F808802C7004D84B8000233B70BDE864
:10248000F88340230B80042000F052FB3460F4E713
:10249000DFF8549099F80030002BF0D0114D4BF636
:1024A000813408E0013C12D02B7883B901F0C2F8E6
:1024B00099F800307BB1042000F0B0FA0528F1D87B
:1024C00000F048FA014630600028EBD0CAE701234B
:1024D0002B70BDE8F883BDE8F88300BFC018FF1F6C
:1024E0009418FF1FC418FF1FD019FF1F38B5084BE1
:1024F0001C7824B9074D296809B14B8803B938BD48
:102500009B000B80042000F013FB2C6038BD00BF43
:102510009418FF1FC018FF1F2DE9F041AD4E33681E
:102520000746002B00F092801D885A88910803EB23
:1025300081010432AA428C6842D25A8004F00F060C
:102540004FEA1428A449A6F1080208F00F00C4F3CA
:102550000313062A00F101050B701AD9B31E012BD3
:102560005FFA88F04ED9052E48D0042E00F0A481E1
:10257000731F022B7FD90F2E0ED1F72842D8F028D7
:1025800002D0964B1B883BB1FFF73EFF0020BDE811
:10259000F08127B1BD4202D00020BDE8F081082EB5
:1025A000C4F3033300F08780092E11D00A2E40F0C7
:1025B00094800A2BF0D18A4B8A4A1B68A02181E0C3
:1025C000184600F0E7F9052000F00AFA3060B5E798
:1025D000092BE1D1270E00F07B81834B814A1B68D8
:1025E0009021C4F307461170EDB2FCB2002B00F04D
:1025F0009D80224631462846984797E0F02843D9E7
:10260000F72841D0F1380E28C6D801A353F820F09E
:10261000C7270000AB27000099270000992500007C
:10262000992500008B270000992500006B280000E9
:1026300099250000352800004F280000732700006E
:10264000992500005B2700003F270000674B1B789F
:10265000002BA1D0052000F0C3F90346306000280C
:102660009AD00588002D7FF460AF00F093F93560B3
:102670002846BDE8F081FFF7C7FEC4F30740FFF727
:10268000C3FE072E02D1200EFFF7BEFE534B584A61
:10269000198858481468584D524A017000270E0A8C
:1026A000F0201F802E7010700CB301225348A047F9
:1026B0000120BDE8F081082B7FF46EAF504B494AF2
:1026C0001B688021C4F307461170EDB2240E6BB372
:1026D000284622463146984728E00B2E11D10B2B75
:1026E0007FF45AAF474B3F4A1B68B021EAE7464B9D
:1026F0001B68002B00F0FB80404898470120BDE894
:10270000F0810C2E40F000810C2B7FF445AF3F4B45
:10271000344A1B68C0211170EDB2C4F30746002B88
:1027200000F0C88028463146240E98473849314A7F
:10273000314B0D7016701C700120BDE8F081354BD7
:102740001B68002B00F0D6809847C4F30746254B42
:10275000EDB2240E83F80080E8E72F4B1B68002BB6
:10276000F2D12E4B1B68A3B1FE209847C4F3074655
:10277000EDE72B4B1B68002BE6D1284B1B6843B1C0
:10278000FC209847C4F30746E1E7264B1B68002B63
:10279000DAD1C4F30746DAE7234B1B68C4F30746D4
:1027A000002BD4D030469847D1E7204B1A68002A36
:1027B000EFD0260C630C06F07F0003F47E53184321
:1027C000F6B29047C3E71A4B1B68C4F30746002BC9
:1027D000E8D1BCE7CC18FF1F3E1DFF1F3A1DFF1FAD
:1027E000A818FF1F381DFF1FDC18FF1FD019FF1F7F
:1027F000A418FF1F3C1DFF1F3D1DFF1F401DFF1F95
:10280000D418FF1FD818FF1FBC18FF1F9818FF1FF0
:102810003F1DFF1F8418FF1F8818FF1F8C18FF1F04
:10282000C818FF1FB818FF1FD018FF1FA018FF1FE0
:10283000B418FF1F3F4B1B68002B85D13E4B1B6814
:10284000002BA6D0FA209847C4F307467FE73B4BFE
:102850001B68002B7FF478AF374B1B68002B98D098
:10286000FB209847C4F3074671E7354B1B68002BE4
:102870007FF46AAF304B1B68002B8AD0F820984752
:10288000C4F3074663E70E2B7FF486AE2D4A2E4B2A
:102890001268E0211970002A47D0260C610C06F05E
:1028A0007F0301F47E511943EDB2A1F50051284692
:1028B0009047F6B2240E39E7FFF7A6FDC4F30740B0
:1028C000FFF7A2FD200EFFF79FFD0020BDE8F0817D
:1028D0001E4B1D4A1B6880211170EDB2C4F30746E0
:1028E00083B1314628463A4698473C461EE70120C8
:1028F000BDE8F081104B1B68002B3FF44AAFFF206E
:10290000984746E71C4611E70D2EBCD10D2B7FF4EE
:1029100043AE0F4B0C4A1B68D0211170EDB2C4F3CB
:102920000746002B7FF4FEAEC4E7C4F30746EDB2C2
:10293000240EFBE6B018FF1F8C18FF1F9018FF1F16
:102940008018FF1F9C18FF1F381DFF1FD418FF1F82
:10295000AC18FF1F72B60D480268B2FA82F31D2B45
:1029600010DC4FF00041D94022EA0102026062B659
:10297000074803EBC303DB00C2180021C150104617
:102980005160704762B60020704700BF6C0CFF1F9B
:10299000D003FF1F0D4B0E4AC31AA2FB03231B09D2
:1029A0001D2B0CD80B4A127852B972B60A484FF058
:1029B0000041026821FA03F31A43026062B67047CD
:1029C000064A1278002AF0D000F03EB8D003FF1F6C
:1029D000398EE338C519FF1F6C0CFF1FD019FF1F7C
:1029E000431E042B14D872B60A4951F8230068B16B
:1029F00070B4094C058834F81320466841F8236008
:102A0000521B24F8132062B670BC704762B6704740
:102A1000002070473C19FF1F641EFF1F0138042867
:102A20000BD872B6074B53F8203043B100205B68D7
:102A30000130002BFBD162B670470020704718466A
:102A4000F9E700BF9419FF1F30B472B6334A137808
:102A50001B0706D5324B196A002943D0996A002911
:102A60004ED053781D0706D52D4B196C00294DD03B
:102A7000996C002946D093781C0706D5284B196E0F
:102A8000002945D0996E00293ED0D378190707D583
:102A9000234BD3F8801000293ED0D3F8881091B191
:102AA00013791B0708D51E4BD3F8A020002A31D07C
:102AB000D3F8A82015243AB162B61A4B00221A7036
:102AC00030BCFFF767BF11241649174D0A7843F849
:102AD000345003EBC4030830013A58600A7062B600
:102AE00030BC704704220F4C104D217843F832500F
:102AF00003EBC20308304A1E5860227062B6EFE74B
:102B00000524E1E70924DFE70D24DDE70822EAE7F1
:102B10000C22E8E71422E6E71022E4E7804D0000EB
:102B20000000FF1FC519FF1FC800400088004000BB
:102B3000431E042B1DD81B4A400140F0100030B446
:102B4000104472B6184CE25C032A1BD8DFE802F08E
:102B50000212151703220D88E25410F0080F14BF5B
:102B6000C823882343EA054308310360416062B605
:102B700030BC704708300222EDE70522EBE7083051
:102B80000422E8E7094A52F8230038B1084A52F80B
:102B90002300416042F8231062B6E9E742F82310AF
:102BA000034AF7E70000FF1FD419FF1F9419FF1F06
:102BB000A819FF1F2DE9F04FDFF808B3DFF808A3CD
:102BC00087B044E0AA4F4FEA930807EBC809013EDB
:102BD000D9F8042003F00803F6B2A2F1080003F0CC
:102BE000FF04002B40F0008157F838301B0C99B2DD
:102BF00022F8081C002B00F0EE809E4B22F8064CB9
:102C000042F8044C53F82620002A00F035829A4DF1
:102C100055F826305860994C45F8260034F816309F
:102C2000194424F81610FFF795FE002800F01D82C5
:102C3000934A944B19F0080F00F1080018BF13468F
:102C4000C9F8040047F8383008238BF800309BF8A7
:102C50000040E4B260071CD58B4B1B78B3B18B49A5
:102C60000A7802F0FF0322B1013BDBB20B7003B91B
:102C700000BE87490A7802F0FF032AB1013BDBB2AC
:102C80000B70002B00F0C781FFF730FC04238BF89A
:102C9000003004F0080303F0FF02002B00F0C880AE
:102CA0009AF80030DBB21E098CD19C08DFF8C09185
:102CB00059F8342009EBC401C2F38302013A496890
:102CC0000C2A00F28480DFE802F078788282828227
:102CD000828243828282070008686E4D684B4A6890
:102CE0006D4F49F8343081B26C4E6A6040F28164B5
:102CF00000222860A1424FF001003A60C9F810207C
:102D0000C9F81820307000F2E180B1F5D06F80F082
:102D10001383B1F5817F00F0E68100F2C98180293B
:102D200000F02483822940F0E481A98801F07F012A
:102D3000052900F2DE815A4B5A4C89000B4422705F
:102D400062701A78930740F199832070022014E290
:102D5000514F3A6832B3544B504E54491888347826
:102D60000D784028864645F0020828BF4FF0400EF7
:102D7000002C84F001043470CEEB00000CBF8824DA
:102D8000C82409EBC80680B285F0010544EA0E4468
:102D90007260188049F8384072440D70002800F0C5
:102DA000B6803A603B4B1A88B2F5A06F0FD1002174
:102DB0009A7859703E4B1A7009E0364A108842F2F0
:102DC0002102904200F0A8802D4A49F83420394A67
:102DD0000123137038E72A4A2A4B19F0080F18BF4D
:102DE000134647F838302FE7FFF7D4FD324A33490E
:102DF00052F82630002B00F0438158688C5D42F871
:102E0000260003F10802C9F80420032C05D8DFE8E6
:102E100004F02C02292602228A551A8819F0080F7C
:102E20000CBF8823C82343EA024347F838300BE736
:102E3000E00700F1F380210600F13081A20706D5FA
:102E40001F4A204913780220DBB213700870E30692
:102E500002D51C4B10221A7007B0BDE8F08F042277
:102E60008A55DAE705228A55D7E703228A55D4E73F
:102E70000000FF1F3C19FF1FE418FF1F641EFF1F07
:102E8000C800400088004000D019FF1F5119FF1FE3
:102E90006418FF1FBC19FF1FE018FF1F5019FF1F08
:102EA000C0200740C819FF1FF818FF1FC419FF1FD3
:102EB00098200740942007409419FF1FD419FF1F42
:102EC00088200740802007409020074042F22104DC
:102ED000A14200F09C8049D8B1F5086F00F049810B
:102EE000B1F5106F40F00581B24AB34CA97811706A
:102EF00004F1A00503E00834A54200F08981236AAB
:102F00001906F8D5606A0838FFF744FDF3E7BEF10B
:102F1000400F18BF002244E7A84A0D784878157082
:102F200050708D78C8789570D07010680D791571D3
:102F300086284D7989795571917100F01681A049E3
:102F4000A04E0A78307882F00105002842F0020293
:102F50000D700CBF8821C82149F8321009EBC2025C
:102F600080F001000021307051602DE742F22124F1
:102F7000A14240F00882DFF890C2934B9349AC78AD
:102F8000DCF800501D6001900C700020029080461B
:102F9000844604468A490D7845F0020E09EBCE03BB
:102FA0000393019B002B039B5C600CBF8824C82407
:102FB00048EA040385F0010449F83E3032700C7091
:102FC000DFF8F4E17F4BDFF8F881002840F09880CB
:102FD000BCF1400F1BD144F0020C09EBCC03029C66
:102FE000DFF8D4E15C60002A40F0A080020442F0E7
:102FF00088029DF804304EF83C20044433700D7074
:103000002346402803D10020714A3B601080714A5A
:1030100001231370DBE6FEF7ADFE35E6664B6D4827
:1030200067491A614FF0020E80F800E06A4F0A709B
:103030006A49196099606A4E6A4D6B4C9A610D211C
:103040003970FF213170DFF8C4E129702270674DBB
:10305000674A8EF800109F27012406F8047C5D6003
:103060000470DA6007B0BDE8F08F624A47F83800B4
:10307000137801331370E7E543F826005E4DCAE587
:103080008B5D032B6AD801A252F823F0492C000073
:10309000492C0000E1300000DB3000004E49514B6C
:1030A00080220D2008701A70A2077FF5D0AEC7E607
:1030B00040F20232914240F05E81A98801F07F0126
:1030C000052916D86A88A2B9434C019089000C449E
:1030D000217841F00201217057E701238B55B3E5B8
:1030E00000238B55B0E5A98801F07F01052940F246
:1030F0004F81394A0F231370364A0123137066E655
:1031000040287FF668AF44F002040EEBC401029E33
:103110004E60BAB19DF80410384A197033464038F1
:1031200088F8005040334EF834206DE79DF80430A5
:1031300033700204029B0D7042F0C80203444EF843
:103140003C205EE79DF804101970029B234A88F822
:103150000050403840334EF8342055E719F0080F3E
:103160000CBF022303238B556EE5254A0F211170F6
:10317000E5E6104A234C12782270EA88824280F0F9
:10318000E1810F490D78402A944645F0020E28BF90
:103190004FF0400C04EB0C0309EBCE00029301232B
:1031A00044604FEA0C48CCEB020001930022C82493
:1031B000FEE600BFD019FF1F0000FF1F2C1DFF1FE0
:1031C000C419FF1F5019FF1F341DFF1F7418FF1F64
:1031D000F818FF1F94200740C020074088004000D7
:1031E000882007408020074098200740FC18FF1FD8
:1031F0005419FF1FC519FF1FE418FF1FC800400026
:103200005119FF1FC819FF1F7C18FF1F8C20074092
:10321000B04CB14AB149B248B24D01940023B24C0E
:1032200002940596039580461C46049716460D4663
:10323000306828B14768FFF7ADFB3846002FF9D159
:1032400000233360039B28681A46002342F8243089
:1032500028B14768FFF79EFB3846002FF9D1019B44
:1032600000221B782A6048F8042B029A4FF00001D4
:10327000023B22F81410032B07D8DFE803F05802B2
:103280005802019B4FF001021A70019B0134013377
:10329000052C06F1040605F104050193C8D1934CF1
:1032A000934D2278934B049F059E002129701A703C
:1032B00012077AD462789049DFF84C820A701307BB
:1032C0004FF00001C9F83010C9F8381000F1C38080
:1032D000A2788A49DFF830820A7010074FF00001A7
:1032E000C9F85010C9F8581000F1A1808449E2785B
:1032F0000A700021C9F87010C9F878101107DFF8BA
:1033000008827DD422797F497F4C0A700021120700
:10331000C9F89010C9F898105DD433780193002152
:1033200083F00102C9F8B010C9F8B8102DE6019B6E
:103330004FF000021A70A8E7744A5468002C3FF45A
:10334000D8AE6888B5F804E004E00C325468002C6C
:103350003FF4CFAE13888342F7D153887345F4D13D
:10336000000A03280CBF2078108906E7684C022069
:103370002270627001E7B1F5A06F7FF4BAAE01234D
:103380000022019301E642F221329142F7D0B0E6E9
:103390006A88002A7FF4ADAE5E4C019089000C442F
:1033A000217821F002012170EFE5FFF7D3FA002820
:1033B00000F0B6800830584AC9F82400C9F8202027
:1033C000FFF7C8FA00287FD00830544AC9F82C000B
:1033D000C9F828206EE7FFF7BDFA002856D008305C
:1033E0004D4AC4F8A400C4F8A020FFF7B3FA00289F
:1033F00046D00830494AC9F8AC00C9F8A8208CE783
:10340000FFF7A8FA002800F097800830424AC8F871
:103410008400C8F88020FFF79DFA002800F086801D
:1034200008303E4AC9F88C00C9F888206AE7FFF7DF
:1034300091FA002842D00830374AC8F86400C8F82A
:103440006020FFF787FA98B30830344AC9F86C0057
:10345000C9F868204AE7FFF77DFA18B308302E4A0A
:10346000C8F84400C8F84020FFF774FAA0B108304B
:103470002A4AC9F84C00C9F8482029E702207CE60E
:103480002A78C9F8A80001322A7046E72A78C4F8D9
:10349000A00001322A70A8E72A78C9F84800013252
:1034A0002A7015E72A78C8F8400001322A70DBE755
:1034B0002A78C9F8680001322A7017E72A78C8F814
:1034C000600001322A70BCE72A78C9F8280001326E
:1034D0002A70EFE6D419FF1F3C19FF1F9419FF1F34
:1034E000A819FF1FE418FF1F641EFF1F804D000076
:1034F000C519FF1FC4200740C8200740CC20074043
:10350000D0200740D42007400000FF1F884D000056
:10351000C819FF1FC020074088004000C8004000B5
:103520002A78C9F8200001322A7049E72A78C9F8B8
:10353000880001322A70E5E62A78C8F88000013256
:103540002A7068E74028844628BF4FF0400C04EBFF
:103550000C0302930123CCEB00004FEA0C4800223D
:10356000019317E52DE9F041274C00F01BFC0022E8
:1035700004F1A80023461A605A60083383424FF0D2
:103580000001F8D12148224A0368DFF89CE0214E6F
:10359000214D224FDFF894C0DFF8948043F480235C
:1035A0000360136843F04073136003238EF8003008
:1035B000A023337002F5C922C4F3072300F5283095
:1035C0002B708030C4F3074310323B70240EFF236E
:1035D0000470134D8CF80030124888F800301370D6
:1035E000012306F8AC3C4FF400140EF8441C70267E
:1035F000102107F82C3C2E70046082F8F810AEF110
:10360000440EBDE8F08100BF0000FF1F348004407D
:1036100000D80040402107409C200740B0200740D0
:1036200035E400E004E100E0442107408020074049
:103630008820074038B52C4C237803B138BD0123CE
:103640002370FEF78DFA002842D100F093FA00288B
:103650003BD100F003F9002834D100F00BFC70BB23
:1036600000F092F940BB00F07DF810BB00F018FBB1
:10367000E0B900232370EFF30583002BDED1EFF3D5
:10368000108172B6194B186828B3194C227812BBF6
:1036900045691D60012323700DB3AA6101B962B6AB
:1036A00000254577836898472570C7E700F058F8EC
:1036B000DFE700F021F8D9E700F048F8D3E700F0A1
:1036C00057FCCDE700F040F8C7E700F04FFCC0E73B
:1036D00000F028F8B9E70029B0D162B638BD054B33
:1036E0001D600029DCD1DAE7D919FF1FEC1CFF1F90
:1036F000F01CFF1FE81CFF1F704700BFFEF73EBA1B
:10370000FEF716BAFEF7F0B9FEF72ABAFEF706BBC7
:10371000FEF7E0BA08461146FEF74CBA0846FEF737
:10372000CDBA00BF704700BF00B5064A03681288D3
:103730005B6883B001A9ADF804200222984703B06A
:103740005DF804FB7C4D0000704700BF704700BF70
:1037500008B5FCF79DFEFCF79DFEFFF76BFFFAE74F
:10376000704700BF054A064B10781B78C0B2DBB229
:10377000984238BF4030C01A704700BFE019FF1FA1
:10378000E119FF1F30B42B4B1A7994061FD52A4834
:10379000DA790378294901333F2B0978C8BF002320
:1037A0008B42D2B203D0264CD9B2E2540170254AE2
:1037B000116861B1244A1278D2B2934236BFC2F185
:1037C00040029B1A9B18272BC4BF01230B70194A78
:1037D000D378DBB2180611D45A060DD5154B1B79D8
:1037E0005B0609D5194B1A491B6800220A7003B100
:1037F0001A70104B2C22DA7030BC70471179090610
:10380000EAD5144910480C780178C9B28C420DD021
:103810004A1C272A84BF00210A460F4D054C98BF39
:10382000D1B2AA5CD2B2E2710170D5E76C21D1703D
:10383000D2E700BF00A00E40E019FF1FE119FF1FF3
:103840000C1AFF1FDC19FF1F4D1AFF1F501AFF1F14
:103850004C1AFF1F541AFF1FE419FF1F054A064B9D
:1038600010781B78C0B2DBB2984238BF4030C01A23
:10387000704700BFC81AFF1F5D1AFF1FF0B4384B16
:103880001A7912F0300F2CD072B6997D01F0FF0238
:1038900000293DD062B6334F334938780D78334E26
:1038A0001C46C0B2EDB2431C402BE17928BF002377
:1038B000AB4202F1FF32C9B21CBFF154184612F0FC
:1038C000FF02F0D12A4B1B68C2B23A704BB1A8423A
:1038D00036BFC5F14005401B40192728C4BF01224F
:1038E0001A701F49CA78D2B2150616D452060DD5E1
:1038F0001B4B1B795B0609D51E4B1F491B68002219
:103900000A7003B11A70164B3C22DA70F0BC704793
:103910004022D9795A7462B6E3E70B791C06E5D5E3
:10392000164B174E1C783378E4B2DBB29C420ED0B3
:10393000144D01E0A3420AD00133282B28BF0023F5
:103940000879E85CC0B2C871087D0728F2D9DBB2FB
:10395000034933700B79180644BF7C23CB70C5E74D
:1039600000B00640C81AFF1F5D1AFF1F881AFF1F0C
:10397000581AFF1FCC1AFF1F5C1AFF1FD01AFF1F17
:10398000C91AFF1F601AFF1F054A064B10781B78E3
:10399000C0B2DBB2984238BF4030C01A704700BF97
:1039A000D81AFF1FD91AFF1F30B42B4B1A7994066F
:1039B0001FD52A48DA790378294901333F2B097842
:1039C000C8BF00238B42D2B203D0264CD9B2E254F6
:1039D0000170254A116861B1244A1278D2B293422B
:1039E00036BFC2F140029B1A9B18272BC4BF01238C
:1039F0000B70194AD378DBB2180611D45A060DD5CC
:103A0000154B1B795B0609D5194B1A491B68002217
:103A10000A7003B11A70104B2C22DA7030BC704758
:103A200011790906EAD5144910480C780178C9B211
:103A30008C420DD04A1C272A84BF00210A460F4D14
:103A4000054C98BFD1B2AA5CD2B2E2710170D5E741
:103A50006C21D170D2E700BF00D00640D81AFF1FFA
:103A6000D91AFF1F041BFF1FD41AFF1F451BFF1F7E
:103A7000481BFF1F441BFF1F4C1BFF1FDC1AFF1FAF
:103A800008B5104C08E0236859050DD423681A05C1
:103A90000FD42368DB0411D423685803F3D5FFF750
:103AA00089F823685905F1D500F074F823681A05E0
:103AB000EFD5FFF7E3FE2368DB04EDD500F0EAF96C
:103AC000EAE700BF3480044008B5FFF7D9FF00BF24
:103AD000014B10221A80704700200540704700BF3C
:103AE000094908B50B6830B16A461844A2F500527E
:103AF000904202D20860184608BD00F035FB0C2346
:103B000003604FF0FF3008BD800CFF1F084A137898
:103B1000802B01D0002070470649074B07480860FA
:103B2000002119701378802BFCD00120704700BF52
:103B300003E007404480044001E0074000002822E1
:103B4000094A1378012B01D00020704703F180430C
:103B500003F5FC23602119701378802BFCD1034BF3
:103B6000034A1A600120704703E007404480044084
:103B700000000602054A064B10781B78C0B2DBB283
:103B8000984238BF4030C01A704700BF541BFF1F17
:103B9000551BFF1FF0B4384B1A7912F0300F2CD0A0
:103BA00072B6997D01F0FF0200293DD062B6334F15
:103BB000334938780D78334E1C46C0B2EDB2431C01
:103BC000402BE17928BF0023AB4202F1FF32C9B29A
:103BD0001CBFF154184612F0FF02F0D12A4B1B68AB
:103BE000C2B23A704BB1A84236BFC5F14005401B86
:103BF00040192728C4BF01221A701F49CA78D2B2BF
:103C0000150616D452060DD51B4B1B795B0609D53C
:103C10001E4B1F491B6800220A7003B11A70164B15
:103C20003C22DA70F0BC70474022D9795A7462B6EF
:103C3000E3E70B791C06E5D5164B174E1C78337855
:103C4000E4B2DBB29C420ED0144D01E0A3420AD094
:103C50000133402B28BF00230879E85CC0B2C8714B
:103C6000087D0728F2D9DBB2034933700B791806B7
:103C700044BF7C23CB70C5E700A00640541BFF1F48
:103C8000551BFF1F981BFF1F501BFF1FDC1BFF1F37
:103C9000D81BFF1FE01BFF1FD91BFF1F581BFF1F57
:103CA000054A064B10781B78C0B2DBB2984238BF89
:103CB0004030C01A704700BFE81BFF1FE91BFF1F01
:103CC00030B42C4B5A6894021FD52B48DA6803781D
:103CD0002A4901333F2B0978C8BF00238B4204D007
:103CE000274CD2B2D9B2E2540170264A116861B1B0
:103CF000254A1278D2B2934236BFC2F140029B1AD3
:103D00009B18272BC4BF01230B701A4A9368180213
:103D100002D55268110211D45A020DD5154B5B68B9
:103D20005B0209D5194B1A491B6800220A7003B1BE
:103D30001A70184B00221A6030BC7047164A12499C
:103D400010780A78D2B290420DD00132272A84BF6F
:103D500000200246114D074C98BFD0B2AA5CD2B2E7
:103D6000E2600870D8E70E480A4A00240121046086
:103D70001160D1E700400C40E81BFF1FE91BFF1F4B
:103D8000141CFF1FE41BFF1F551CFF1F581CFF1FA7
:103D9000541CFF1F580188435C1CFF1FEC1BFF1FB6
:103DA0005C01884310B584B072B6FFF7AFFE184AC5
:103DB000184B19491160702280211A701A46197027
:103DC00013781B06FCD5154B1C68FFF7B9FE62B6CD
:103DD000134B9C429CBF04EB840464002046114CAE
:103DE00001A90A2200F020F801A92046002311F8B9
:103DF000012B01333AB10A2B20F8022FF7D11623F9
:103E0000237004B010BD5B00DBB2237004B010BDA2
:103E10000400024000000240000007410C00024084
:103E20007F969800640DFF1FF0B44D1E2E460024AF
:103E300000E00134B0FBF2F302FB1300092800F1AB
:103E400030078ABF3730F8B2C0B206F8010F184603
:103E5000002BEED10A1953704CB1107815F8016F90
:103E600028700133E01A834202F80169F5DB084645
:103E7000F0BC7047054A064B10781B78C0B2DBB225
:103E8000984238BF4030C01A704700BF641CFF1F03
:103E9000651CFF1F30B42B4B1A7994061FD52A4896
:103EA000DA790378294901333F2B0978C8BF002309
:103EB0008B42D2B203D0264CD9B2E2540170254ACB
:103EC000116861B1244A1278D2B2934236BFC2F16E
:103ED00040029B1A9B18272BC4BF01230B70194A61
:103EE000D378DBB2180611D45A060DD5154B1B79C1
:103EF0005B0609D5194B1A491B6800220A7003B1E9
:103F00001A70104B2C22DA7030BC704711790906F8
:103F1000EAD5144910480C780178C9B28C420DD00A
:103F20004A1C272A84BF00210A460F4D054C98BF22
:103F3000D1B2AA5CD2B2E2710170D5E76C21D17026
:103F4000D2E700BF00C00640641CFF1F651CFF1FB6
:103F5000901CFF1F601CFF1FD11CFF1FD41CFF1FE4
:103F6000D01CFF1FD81CFF1F681CFF1F704700BF1D
:103F7000704700BF10B4EFF3108272B6437F33B9BD
:103F8000017F012908D0032910D00123437702B90A
:103F900062B65DF8044B7047114C2168A1B111491C
:103FA00043610B68836108605861EEE70E4C21683D
:103FB00081B10E4943610B688361086058610C4B05
:103FC0004FF080511960E0E7064B4161816120604C
:103FD0001860DAE7054B4161816120601860EEE707
:103FE000EC1CFF1FE81CFF1FDC1CFF1FE01CFF1F59
:103FF00004ED00E010B4047F4160022CC26003D0E5
:104000005DF8044BFFF7B6BF83685DF8044B1847B3
:1040100070B5EFF3108272B60C4C206880B10C4E74
:1040200000254369236073B19D6102B962B645778B
:1040300083689847EFF3108272B620680028F0D1A9
:1040400002B962B670BD3360EFE700BFDC1CFF1F32
:10405000E01CFF1FFFF7DCBF184A30B41468002CC7
:1040600027D0036821688B420ED2CB1A00218460CE
:10407000C1602360E06010600223037530BC7047AC
:1040800011688B42144608D3A2685B1A0360002AA9
:10409000F6D18260C460A060EEE7D268C26084603E
:1040A000E060C568CB1A0222A8602360027530BCAC
:1040B00070478460C4601060DEE700BFE41CFF1F2F
:1040C000F8B5224E34682CB32368002B3AD1204F28
:1040D0001D4604E03468ECB12368002B32D1A3689C
:1040E00003B1DD6020693360036825751B68BB423E
:1040F00021D1037F4560022BC46020D0FFF73AFF37
:104100006368002BE6D023602046FFF7A5FF3468E4
:10411000002CE1D1EFF3108372B60E4A0021106833
:10412000116003B962B628B18468FFF795FF204695
:104130000028F9D1F8BD224600219847E0E78368BE
:104140009847DDE7013B2360E4E700BFE41CFF1F65
:10415000F53F0000F41CFF1F024A1368013313608F
:10416000FFF7AEBF7C18FF1F014B1868704700BFF8
:10417000A811FF1F70B50F4E0F4D761BB61018BF5C
:10418000002405D0013455F8043B9847A642F9D1E4
:104190000A4E0B4D761B00F023FEB61018BF00240C
:1041A00006D0013455F8043B9847A642F9D170BDBA
:1041B00070BD00BFEC4D0000EC4D0000F84D00005C
:1041C000EC4D0000024B0146186800F003B800BF38
:1041D000A811FF1F2DE9F04F01F10B05162D83B03B
:1041E000064640F29F8035F0070500F1BF80A942E6
:1041F00000F2BC8000F0A6FAB5F5FC7FC0F09C820E
:104200006B0A00F0BA80042B00F28381A80900F148
:10421000390E4FEA4E033830C44F07EB8303A3F146
:1042200008015C68A14207D1ACE0002A80F2AC80B2
:10423000E468A14200F0A680636823F003035A1BE0
:104240000F2AF2DDB9493C6901F1080E744500F00E
:10425000B381636823F003035A1B0F2A00F399818B
:10426000002AC1F814E0C1F810E080F29E80B3F596
:10427000007F80F06781DB0803F1010C01229B10B5
:1042800002FA03F34A6851F83C80C4F8088001EB55
:10429000CC091A43A9F10803E3604A6041F83C40A5
:1042A000C8F80C40831001249C40944200F28A809C
:1042B000144206D120F003006400144200F104000F
:1042C000FAD007EBC009CC468046DCF80C108C45D0
:1042D00007D173E1002A80F28181C9688C4500F022
:1042E0006D814B6823F003035A1B0F2AF2DD0C4645
:1042F000D1F80CC054F8088F4B1945F001054D60FA
:1043000042F00101C8F80CC03046CCF808807B614F
:104310003B61C3F80CE0C3F808E059609A5000F024
:1043200013FA1FE0102921D800F00CFA10250623FB
:1043300002207E4F07EB8303A3F108025C689442DE
:1043400000F045816368E168A56823F00303234416
:1043500030465A68E96042F001028D605A6000F010
:10436000F3F90834204603B0BDE8F08F00240C2395
:104370002046336003B0BDE8F08F80234FF0400E3D
:104380003F2049E770465DE72344E1685A68A56825
:1043900042F00102E96030468D605A6000F0D4F9C5
:1043A0000834204603B0BDE8F08F234430465A68F5
:1043B00042F001025A6000F0C7F90834204603B009
:1043C000BDE8F08FBC68636823F00308A84504D3F8
:1043D000C5EB08030F2B00F38C80554BDFF8609181
:1043E0001A68D9F8003001332A4404EB080A00F0B7
:1043F000608102F580520F3222F47F6222F00F02B8
:1044000011463046019200F0A1F9B0F1FF3F83461A
:10441000019A00F05881824500F2FC80454B1968F2
:10442000DA451144196000F05381D9F80000DFF833
:1044300010E101301BBFCAEB0B0A5144CEF800B0AB
:1044400019601BF0070100F01781C1F10800C1F5E8
:104450008051834408315A44C2F30B02C2EB010974
:1044600049463046019300F071F9431C019B00F06E
:104470003F81CBEB00024A4442F001021968C7F8C1
:1044800008B04944BC42CBF804201960DFF8A4907E
:1044900016D0B8F10F0F40F2FD806268A8F10C034E
:1044A00023F00703E01802F001024FF0050E1A4353
:1044B0000F2B6260C0F804E0C0F808E000F21C8135
:1044C0001D4BBC681A68914288BF19601B4B1A6863
:1044D0009142626888BF196022F003029542A2EB04
:1044E000050301D80F2B04DC304600F02DF9002421
:1044F00038E7621943F0010345F001056560304675
:10450000BA60536000F020F90834204603B0BDE8DB
:10451000F08F142B71D9542B00F2A480280B00F1DA
:104520006F0E4FEA4E036E3076E600BFAC11FF1FF0
:10453000001DFF1F041DFF1FFC1CFF1FF81CFF1F99
:10454000B815FF1F5A0A042A5ED9142A00F2B38054
:1045500002F15C0149005B3207EB810C57F8211036
:10456000DFF8DC81ACF1080C8C4500F088804A68EB
:1045700022F00302934202D289688C45F7D1D1F828
:104580000CC07A68C4F80CC0A160CCF80840CC60BC
:1045900088E6631942F0010745F001056560304681
:1045A0004B610B61C3F80CE0C3F808E05F609A5000
:1045B000083400F0C9F8D5E64A6873E608F1010846
:1045C00018F0030F0CF1080C7FF47FAE30E0DC68CC
:1045D000A34208BF02303FF435AEB3E60B440C46AD
:1045E0005A68C96854F8085F42F001025A603046C0
:1045F000E9608D6000F0A8F8B4E603F15C0E03F109
:104600005B004FEA4E0307E69A0902F139014900BF
:104610003832A1E7BC424A4B3FF400AF9C68626865
:1046200022F003025AE759F80839994540F0828090
:1046300010F0030F00F1FF30F5D17B6823EA04038B
:104640007B6064009C423FF6BDAE002C3FF4BAAEE6
:104650001C4240467FF435AE64001C4200F1040069
:10466000FAD02EE6B3F5AA7F18D8E80B00F1780E41
:104670004FEA4E037730CFE54FF48051EBE601214E
:10468000D8F80430921001FA02F21A43C8F8042054
:10469000614677E70123CBF8043025E740F2545216
:1046A000934220D8A80C00F17D0E4FEA4E037C30D7
:1046B000B2E51032A4E6542A26D81A0B02F16F0193
:1046C00049006E3248E7BC68626822F0030205E7E1
:1046D000CAF30B0000287FF4A8AE4244BB6842F046
:1046E00001025A60ECE6FE234FF07F0E7E2093E538
:1046F00001224FF00009C1E604F10801304600F044
:10470000A9F8D9F80010DBE6B2F5AA7F05D8DA0BD4
:1047100002F17801490077321EE740F254518A4293
:1047200005D89A0C02F17D0149007C3214E7FE2184
:104730007E2211E77B6884E7E808431C5B00F8E50C
:10474000AC11FF1F704700BF704700BF38B5074C62
:104750000023054608462360FFF7C2F9431C00D03A
:1047600038BD2368002BFBD02B6038BD701EFF1FA7
:10477000024B13B1024800F005B87047000000007A
:1047800091470000002301461A46184600F04AB936
:1047900038B5074D074C2C1BA41005D0013C55F82B
:1047A000043D9847002CF9D1BDE8384000F024BB07
:1047B0000000000000000000F8B5234F0C4606463C
:1047C000FFF7C0FFBB685D6825F00305291B01F6F4
:1047D000EF7121F47F6121F00F01A1F58054B4F550
:1047E000805F07DB00213046FFF7B0FFBB682B443A
:1047F000984204D03046FFF7A7FF0020F8BD614281
:104800003046FFF7A3FF01300DD0104BBA6819688E
:104810002D1B45F001053046091B55601960FFF757
:1048200093FF0120F8BD00213046FFF78FFFBA68E3
:10483000831A0F2BDEDD064C0449246843F0010384
:10484000001B53600860D5E7AC11FF1F041DFF1F5C
:10485000B815FF1F002945D02DE9F0410D468046CF
:10486000FFF770FF55F8047C6A4927F00103A5F1B2
:104870000804E2188E685068B24220F0030062D04B
:10488000FE0750600BD455F8087CE41B01F1080EBC
:10489000A56875453B446FD0E768EF60BD601518AB
:1048A0006D68ED0742D543F001026260E350B3F555
:1048B000007F18D2DB085A1C4D6851F83270A7608F
:1048C00001209B1000FA03F301EBC2001D430838DE
:1048D000E0604D6041F83240FC604046BDE8F04188
:1048E000FFF732BF70475A0A042A53D89A0902F1D7
:1048F00039077F0002F1380501EB870051F82720C6
:104900004449083890424DD0516821F003018B4250
:1049100002D292689042F7D1D068E060A2608460D1
:10492000D4604046BDE8F041FFF70EBF95683A4FAE
:10493000BD4203443FD0D068E86043F00102856087
:104940006260E350B3E7FF07034407D455F8082C2F
:10495000A41A1344A068E268C26090602F4A1268EB
:1049600043F00100934260608C60B6D32C4B40460C
:104970001968FFF721FFB0E711184968C90744D447
:104980009168D268CA60034443F00100916060609E
:10499000E350A2E7142A17D802F15C077F0002F166
:1049A0005B05A9E7AA104B68012505FA02F213433B
:1049B0004B600246B1E743F001024C610C61E560D7
:1049C000A5606260E35088E7542A06D81A0B02F10A
:1049D0006F077F0002F16E058EE7B2F5AA7F06D859
:1049E000DA0B02F178077F0002F1770584E740F2E5
:1049F0005450824206D89A0C02F17D077F0002F1E2
:104A00007C0579E7FE277E2576E743F001026260A8
:104A1000E35062E7AC11FF1FB411FF1FB415FF1F75
:104A2000001DFF1F2DE9F047254C2568D5F84841AA
:104A30000646884692469946C4B360681F2817DC2C
:104A4000431C76B104EB80050122C5F888A0D4F898
:104A5000881182401143022EC4F88811C5F80891CC
:104A60001ED00230636044F820800020BDE8F0874B
:104A7000144B03B34FF4C870FFF7A4FB0446D0B146
:104A8000D5F84831002780E88800C5F84841384605
:104A90000123C4F88871C4F88C71002EE1D0D1E7ED
:104AA000D4F88C110A43C4F88C21DAE705F5A67412
:104AB000C5F84841C1E74FF0FF30BDE8F08700BFBF
:104AC000DC4D0000C54100004F7070732C20616EFA
:104AD00020756E6B6E6F776E204D494449206D6571
:104AE00073736167652074797065210056454C4F7A
:104AF00043495459000000004E4F54454C454E4721
:104B0000544800005049544348000000050E08096D
:104B10000D0C06070F0403938E8F050E08090D0C6C
:104B200006070F04FFFFFFFFFFFFFF8E8F111284A8
:104B300085868791FFFFFFFFFFFFFFFFFF8A8BFF47
:104B4000FFFFFFFFFFFFFFFFFFFFFFFF039317972D
:104B500001811A924008FE4340A004404408FE43ED
:104B600044A004400018FE4300C004403000FE434F
:104B7000309004403400FE43349004401C18FE433F
:104B80001CC004401018FE4310C004400818FE4327
:104B900008C004400C18FE430CC004400C10FE4337
:104BA0000CB004401010FE4310B004401810FE4337
:104BB00018B004401C10FE431CB004401410FE4307
:104BC00014B004400418FE4304C004400010FE4327
:104BD00000B004400008FE4300A004400408FE4367
:104BE00004A004400C08FE430CA004400808FE4347
:104BF00008A004401418FE4314C004401818FE43D3
:104C000018C004400410FE4304B004400810FE43E2
:104C100008B004406820FE4368D004401400FE43FE
:104C2000149004403800FE43389004403C00FE439A
:104C30003C9004404000FE43409004404808FE433E
:104C400048A004404C08FE434CA004402808FE4302
:104C500028A004402C08FE432CA004406020FE4302
:104C600060D004406420FE4364D004402010FE4322
:104C700020B004402410FE4324B004402810FE431A
:104C800028B004402C10FE432CB004404400FE43E6
:104C9000449004407000FE43709004407400FE4352
:104CA000749004406800FE43689004405008FE433E
:104CB00050A004405808FE4358A004405C08FE433E
:104CC0005CA004405408FE4354A004402018FE4356
:104CD00020C004402418FE4324C004401008FE43B2
:104CE00010A004401408FE4314A004403818FE43EA
:104CF00038C004403418FE4334C004403018FE432A
:104D000030C004403C18FE433CC004402C18FE4315
:104D10002CC004402820FE4328D004402C20FE4311
:104D20002CD004400020FE4300D004400420FE4369
:104D300004D004400820FE4308D004400C20FE4369
:104D40000CD004401020FE4310D004401420FE4339
:104D500014D0044000000000000000001D370000D7
:104D600015370000113700000D370000093700002B
:104D70000537000001370000FD3600000D0AFFFF77
:104D80001519151519FFFFFF00010000840CFF1F06
:104D90001200000000020000B00CFF1F9500000090
:104DA00000030000600DFF1F000000000103090464
:104DB000980CFF1F0000000002030904480DFF1FAC
:104DC0000000000003030904640DFF1F0000000041
:104DD000000000000000000000000000800DFF1F28
:104DE000F8B500BFF8BC08BC9E467047714700008C
:084DF000350400004D1800001D
:044DF800F8B500BF4B
:104DFC00E416FF1FF816FF1F0C17FF1F2017FF1FCD
:104E0C000418FF1F1C18FF1F3418FF1F4C18FF1F1E
:104E1C00D815FF1FF015FF1F0A040000FFFFFFFF4E
:104E2C005C4D000000000000E803000000000000E2
:104E3C00741EFF1F1201100100000040C0168904EF
:104E4C00770201020301000018035400650065009D
:104E5C006E00730079006400750069006E006F00CD
:104E6C0009029500030100C032080B000202020186
:104E7C0004090400000102020100052400100105D0
:104E8C002401010104240206052406000107058102
:104E9C000310004009040100020A0000000705028B
:104EAC0002400000070583024000000904020002D2
:104EBC000103000007240100012500062402010162
:104ECC00000624020202000924030103010201006E
:104EDC000924030204010101000905050240000038
:104EEC0000000525010101090584024000000000B5
:104EFC00052501010300000018035400650065003E
:104F0C006E007300790020004D00490044004900F8
:104F1C00040309040C030000000000000000000062
:104F2C000000000000000000000000000000000075
:104F3C00000000006C10FF1FD410FF1F3C11FF1F5E
:104F4C000000000000000000000000000000000055
:104F5C000000000000000000000000000000000045
:104F6C000000000000000000000000000000000035
:104F7C000000000000000000000000000000000025
:104F8C000000000000000000000000000000000015
:104F9C000000000000000000000000000000000005
:104FAC0000000000000000000000000000000000F5
:104FBC0000000000000000000000000000000000E5
:104FCC0000000000000000000000000000000000D5
:104FDC0000000000000000000100000000000000C4
:104FEC000E33CDAB34126DE6ECDE05000B00000089
:104FFC0000000000000000000000000000000000A5
:10500C000000000000000000000000000000000094
:10501C000000000000000000000000000000000084
:10502C000000000000000000000000000000000074
:10535C000000000000000000800DFF1F0000000096
:10536C0000000000AC11FF1FAC11FF1FB411FF1F98
:10537C00B411FF1FBC11FF1FBC11FF1FC411FF1F75
:10538C00C411FF1FCC11FF1FCC11FF1FD411FF1F25
:10539C00D411FF1FDC11FF1FDC11FF1FE411FF1FD5
:1053AC00E411FF1FEC11FF1FEC11FF1FF411FF1F85
:1053BC00F411FF1FFC11FF1FFC11FF1F0412FF1F34
:1053CC000412FF1F0C12FF1F0C12FF1F1412FF1FE1
:1053DC001412FF1F1C12FF1F1C12FF1F2412FF1F91
:1053EC002412FF1F2C12FF1F2C12FF1F3412FF1F41
:1053FC003412FF1F3C12FF1F3C12FF1F4412FF1FF1
:10540C004412FF1F4C12FF1F4C12FF1F5412FF1FA0
:10541C005412FF1F5C12FF1F5C12FF1F6412FF1F50
:10542C006412FF1F6C12FF1F6C12FF1F7412FF1F00
:10543C007412FF1F7C12FF1F7C12FF1F8412FF1FB0
:10544C008412FF1F8C12FF1F8C12FF1F9412FF1F60
:10545C009412FF1F9C12FF1F9C12FF1FA412FF1F10
:10546C00A412FF1FAC12FF1FAC12FF1FB412FF1FC0
:10547C00B412FF1FBC12FF1FBC12FF1FC412FF1F70
:10548C00C412FF1FCC12FF1FCC12FF1FD412FF1F20
:10549C00D412FF1FDC12FF1FDC12FF1FE412FF1FD0
:1054AC00E412FF1FEC12FF1FEC12FF1FF412FF1F80
:1054BC00F412FF1FFC12FF1FFC12FF1F0413FF1F2F
:1054CC000413FF1F0C13FF1F0C13FF1F1413FF1FDC
:1054DC001413FF1F1C13FF1F1C13FF1F2413FF1F8C
:1054EC002413FF1F2C13FF1F2C13FF1F3413FF1F3C
:1054FC003413FF1F3C13FF1F3C13FF1F4413FF1FEC
:10550C004413FF1F4C13FF1F4C13FF1F5413FF1F9B
:10551C005413FF1F5C13FF1F5C13FF1F6413FF1F4B
:10552C006413FF1F6C13FF1F6C13FF1F7413FF1FFB
:10553C007413FF1F7C13FF1F7C13FF1F8413FF1FAB
:10554C008413FF1F8C13FF1F8C13FF1F9413FF1F5B
:10555C009413FF1F9C13FF1F9C13FF1FA413FF1F0B
:10556C00A413FF1FAC13FF1FAC13FF1FB413FF1FBB
:10557C00B413FF1FBC13FF1FBC13FF1FC413FF1F6B
:10558C00C413FF1FCC13FF1FCC13FF1FD413FF1F1B
:10559C00D413FF1FDC13FF1FDC13FF1FE413FF1FCB
:1055AC00E413FF1FEC13FF1FEC13FF1FF413FF1F7B
:1055BC00F413FF1FFC13FF1FFC13FF1F0414FF1F2A
:1055CC000414FF1F0C14FF1F0C14FF1F1414FF1FD7
:1055DC001414FF1F1C14FF1F1C14FF1F2414FF1F87
:1055EC002414FF1F2C14FF1F2C14FF1F3414FF1F37
:1055FC003414FF1F3C14FF1F3C14FF1F4414FF1FE7
:10560C004414FF1F4C14FF1F4C14FF1F5414FF1F96
:10561C005414FF1F5C14FF1F5C14FF1F6414FF1F46
:10562C006414FF1F6C14FF1F6C14FF1F7414FF1FF6
:10563C007414FF1F7C14FF1F7C14FF1F8414FF1FA6
:10564C008414FF1F8C14FF1F8C14FF1F9414FF1F56
:10565C009414FF1F9C14FF1F9C14FF1FA414FF1F06
:10566C00A414FF1FAC14FF1FAC14FF1FB414FF1FB6
:10567C00B414FF1FBC14FF1FBC14FF1FC414FF1F66
:10568C00C414FF1FCC14FF1FCC14FF1FD414FF1F16
:10569C00D414FF1FDC14FF1FDC14FF1FE414FF1FC6
:1056AC00E414FF1FEC14FF1FEC14FF1FF414FF1F76
:1056BC00F414FF1FFC14FF1FFC14FF1F0415FF1F25
:1056CC000415FF1F0C15FF1F0C15FF1F1415FF1FD2
:1056DC001415FF1F1C15FF1F1C15FF1F2415FF1F82
:1056EC002415FF1F2C15FF1F2C15FF1F3415FF1F32
:1056FC003415FF1F3C15FF1F3C15FF1F4415FF1FE2
:10570C004415FF1F4C15FF1F4C15FF1F5415FF1F91
:10571C005415FF1F5C15FF1F5C15FF1F6415FF1F41
:10572C006415FF1F6C15FF1F6C15FF1F7415FF1FF1
:10573C007415FF1F7C15FF1F7C15FF1F8415FF1FA1
:10574C008415FF1F8C15FF1F8C15FF1F9415FF1F51
:10575C009415FF1F9C15FF1F9C15FF1FA415FF1F01
:0C576C00A415FF1F00000200FFFFFFFF5C
:00000001FF
