:1000000000000320D1010000ED330000A533000003
:10001000A5330000A5330000A5330000A533000080
:10002000A5330000A5330000A5330000ED33000028
:10003000ED330000A5330000793900007D3A00005F
:10004000ED330000ED330000ED330000ED33000030
:10005000ED330000ED330000ED330000ED33000020
:10006000ED330000ED330000ED330000ED33000010
:10007000ED330000ED330000ED330000ED33000000
:10008000ED330000ED330000ED330000ED330000F0
:10009000ED330000ED330000ED330000ED330000E0
:1000A000ED330000ED330000ED330000ED330000D0
:1000B000ED330000ED330000ED330000B9340000F3
:1000C000ED330000A1310000ED330000B93700002E
:1000D000ED330000CD320000ED330000ED330000C1
:1000E000ED330000ED330000ED330000ED33000090
:1000F000ED330000ED330000ED330000ED33000080
:10010000ED330000ED330000ED330000ED3300006F
:10011000ED330000CD230000ED330000ED3300008F
:10012000ED330000ED330000ED330000ED3300004F
:10013000ED330000ED330000ED330000ED3300003F
:10014000ED330000ED330000A9300000ED33000076
:10015000ED330000ED330000ED330000ED3300001F
:10016000ED330000ED330000ED330000ED3300000F
:10017000ED330000ED330000ED330000ED330000FF
:10018000ED330000ED330000ED330000ED330000EF
:10019000ED330000ED330000E5350000ED330000E5
:1001A000ED330000ED330000ED330000ED330000CF
:1001B000ED330000ED330000ED330000ED330000BF
:1001C000ED330000ED330000ED330000ED330000AF
:1001D0005C4B4CF2205210B51A804DF628121A8052
:1001E00000BF00BF03F006F9574B4FF030621A60B2
:1001F000564A9A60564ADA60564B4FF470021A60BB
:10020000554B564A1A60564A136813F4807304D14A
:1002100054490B604FF4A8531360534B1A781107DD
:1002200003D51A7842F008021A70504B5049AA229E
:100230001A70504A504B8B4204D252F8040F43F8C4
:10024000040BF8E74D4B4E4900228B4202D243F893
:10025000042BFAE74B494C4A002352F8230041F89B
:1002600023000133742BF8D1484B494A802103F80D
:10027000011B9342FBD1474B424A1A60464B8A22EC
:100280001A70A3F5805324225A70A0221A709A790A
:100290009207FCD59A79D406FCD4404A937903F0AE
:1002A0000C03082BFAD13E4B60221A7002331A78E5
:1002B000802AFCD1394B01221A715D225A719A7938
:1002C0009006FCD59979354A4906FBD5354B364918
:1002D00019600021596020231370937903F00C03F7
:1002E0000C2BFAD1314B324A1A60324B324A1A6027
:1002F00000225A60072243F8042C304AC3F80C2D20
:1003000062B601F0D7FB174B1B68DA0705D52C48FE
:1003100001F052FB2B4B2C4A1A602C4B1B785B06CE
:1003200009D5284C284B22689A4204D1244801F070
:1003300043FB0023236003F0AFFB03F061F802F0FE
:100340005BFEFEE70E20054030800440823F040043
:100350000100002B88ED00E0002008E0030000858C
:1003600010D0034014D0034002D0074000E0074003
:100370009415FF1FE0470000400CFF1F9415FF1F5E
:10038000C81BFF1F0002FF1F0000000000E400E088
:1003900064E400E008ED00E0005006400040064044
:1003A00001E007404480044000000602048004404D
:1003B000C010070014E000E01FBF02000000202072
:1003C000310000001CE00340A5C3945A00F0074030
:1003D000FFFFFFFFFFFFFFFFFFFFFFFFFFFFFFFF2D
:1003E000FFFFFFFFFFFFFFFFFFFFFFFFFFFFFFFF1D
:1003F000FFFFFFFFFFFFFFFFFFFFFFFFFFFFFFFF0D
:10040000FFFFFFFFFFFFFFFFFFFFFFFFDEF9FFFF23
:1004100010B5054C237833B9044B13B10448AFF33E
:1004200000800123237010BD9415FF1F0000000001
:10043000E4470000084B10B51BB108490848AFF36A
:1004400000800848036803B910BD074B002BFBD0A0
:10045000BDE81040184700BF000000009815FF1FBE
:10046000E44700009415FF1F00000000F8B50446A3
:10047000542002F007FE2146054600F075FDA560F8
:10048000102002F0FFFD2146054600F0E3FA65600A
:10049000502002F0F7FD2146054600F075FBE560AF
:1004A0003C2002F0EFFD2146054600F06DF90023E7
:1004B00065632370236304F10C0504F11C072020FD
:1004C00002F0E0FD2146064600F05EFC45F8046FB0
:1004D000BD422E61F3D12046F8BD00BF10B50446E1
:1004E000406800F045FBA068BDE8104000F014BE75
:1004F000037883F001030370704700BF38B50446EA
:10050000806800F0F5FE90B125782DB9236B01339A
:10051000032B236314DC38BD216B01394B1C216391
:10052000F9D1E06800F040FB03232363F3E7A368FD
:10053000226B03EB82030146586B00F09DF9E3E761
:100540000121E06800F030FB256338BD0023036320
:10055000704700BFF8B5044601609DF818709DF81B
:100560001C60089D43634FF496718261D0B2E162D2
:10057000277466742563002101F044FA2046F8BD13
:100580004368012B00D070470346006B1A7CC16C96
:1005900010B5CC6812B95B7C4BB910BD00F0A8FE59
:1005A0000028FAD02046BDE8104000F0D3BB00F090
:1005B0009FFE0028F1D02046BDE8104000F0B2BBFD
:1005C00010B51D4B416A1B68C26A82B00193019B42
:1005D0005B1A9A420FD9037C044673B9437CB3B1CA
:1005E000206B00F085FE18BB236BD86CFFF780FFF3
:1005F000606B00F05BF902B010BD006B00F078FE9C
:1006000088B1637C002BEBD1237C002BF3D1606B92
:1006100000F04CF9226B2368D26C033352F82300AC
:1006200000F0C0FBE7E7206B00F08CFD02B010BDCE
:10063000637C002BDFD1E7E7CC15FF1F0368012B9C
:1006400010B5044606D0022B0AD0052B1CD0062B71
:1006500011D010BD006B00F0BFFD2368022BF4D158
:10066000206B00F045FE08B92368EEE7206BBDE87B
:10067000104000F0E5BD206B00F026FE48B1206B75
:10068000BDE8104000F004BE206BBDE8104000F053
:10069000DFBD10BD0368012B10B5044613D0022B3B
:1006A00019D0052B02D0062B08D010BD006B00F02E
:1006B000E9FD206B00F010FE0028F6D0206BBDE8AD
:1006C000104000F0FBBD006B00F0A6FD206B00F0B9
:1006D0000BFE0028E9D0206BBDE8104000F0B4BD4F
:1006E00030B5044687B0007E01F07EF90128E06154
:1006F0001CD0636A234D2A680492049A2149D21AB5
:100700000A2A10D9626890420DD00128606033D067
:100710000A680592059AE16AD31A9942204625D9BA
:10072000FFF74EFFE069206207B030BD226ABAB120
:10073000012A636A134DDED12A680392039AE16AA3
:10074000D21A9142D7D22B680293029BA362206BEC
:1007500000F0CEFD2046FFF771FFE069636ACAE74B
:10076000084D2B680193019B6362C4E7FFF792FF7A
:10077000E069206207B030BD2046FFF701FFE06965
:10078000D1E700BFCC15FF1FF8B50E4D06460F464A
:100790000FCD06F114040FC40FCD0FC42B682360D6
:1007A00000233761B363341F06F10C07142002F0F5
:1007B00069FC054600F0EEF844F8045FBC42F5D150
:1007C0003046F8BD8844000038B5041F00F10C0520
:1007D00054F8040F00F028F9AC42F9D138BD00BF3D
:1007E00030B4031F00F10C0253F8044F256915B112
:1007F0009342F9D100244A6802EB420200EB8202E4
:100800001432204630BC00F0E5B800BFB1F5A57F3A
:1008100008DBB1F5257F16DA836B0121994205D1FA
:10082000816370470221836B9942F9D030B4036928
:100830001D695C699A69DB6969606160516030BCFF
:10084000596081637047B1F5806FB8BF0021EAE756
:1008500038B5044600234B2580E80600C8B223744F
:100860006361E560012101F0CDF82078217901F084
:10087000B5F8204638BD00BF70B5057882B0044693
:1008800028460E4601F0B0F8B0FA80F14909284632
:1008900001F0A4F8044B66611B680193019BA360FF
:1008A0000122227402B070BDCC15FF1F416810B543
:1008B000B1FA81F1044649090078616001F08EF8CF
:1008C000237C03B910BD61682078B1FA81F1490930
:1008D000BDE8104001F082B8002101744160007849
:1008E00001F07CB80023012103744160007801F01D
:1008F00075B800BF70B51C4D84B02B680093009A8A
:1009000040F6B7339A4214D9037C04469BB9616917
:1009100000290EDD2B680393039BA068E2681B1A75
:10092000934206D901392046FFF7A6FF6369013BD0
:10093000636104B070BD2B680293029B8168C2683A
:100940005B1A9342F5D90678304601F04DF8B0FABB
:1009500080F14909304601F041F82B680193019B71
:10096000A36000232374D2E7CC15FF1F704700BF9C
:10097000014B1868FFF7B2BDB015FF1F10B5382046
:1009800002F080FB0446FFF771FD014B1C6010BDB7
:10099000B015FF1F0022826002604260C2600261E7
:1009A000704700BF013908B509021B0601F47061E8
:1009B00003F0FE430B43120443F4104343F00903D6
:1009C00002F4FE00184301F04FF9BDE8084001F0C1
:1009D00099B900BF30B40D698B6885600125056148
:1009E00052F82320CB6843600260DBB2D2B2017BB5
:1009F00030BCFFF7D7BF00BF013908B509021B069D
:100A000001F4706103F0FE430B43120443F400430E
:100A100043F0080302F4FE00184301F025F9BDE895
:100A2000084001F06FB900BF026922B18268013A43
:100A3000002A826000DD704710B503790278017BDF
:100A40000446FFF7D9FF0023A36023606360E360DF
:100A5000236110BD10B41824002280E81200C26087
:100A600082605DF8044B7047B1F5C87F07DA836890
:100A70000622052B42600DDD002383607047A1F53F
:100A8000C873B3F5C87F06D3A1F54871DF299CBFB1
:100A90000A234360704783680822072B4260EBDC1F
:100AA000704700BF38B5836802680133044683602D
:100AB000506BFFF789FE94E806000B6BA0680833C3
:100AC00051F82350EB691344984202D090420CD065
:100AD00038BD2B7D002BF9D0642002F0CDFAAB6934
:100AE000984208DDA0686268F0E72068FFF706FD1D
:100AF0000023A36038BD23682946586BFFF770FEBA
:100B0000F0E700BF10B5012204460023C2608360F5
:100B10000068FFF7F3FC2368586BFFF755FE236866
:100B20009B68BDE81040986CFFF7C0BE10B500236D
:100B30000446C36083600068FFF708FD23689B6874
:100B4000BDE81040986CFFF7B1BE00BF074B1B78A3
:100B5000FA2B08D0FC2B04D0F82B00D07047FFF7FD
:100B6000A1BFFFF7E3BFFFF7CDBF00BF8C1AFF1F88
:100B700010B50446002001F0DBF800B910BD204696
:100B8000BDE81040FFF7E2BF38B5402204460D46ED
:100B90001030002103F068FA002325606360E360F1
:100BA000A360204638BD00BF38B5C3682BB3826848
:100BB000934201DD012928D0002A1FDD013127D011
:100BC000934220D004461521134800F0FFFB134840
:100BD00002F0B6F9A168114802F002FA0F4802F0DB
:100BE000AFF9A068236804EB001202F11400156944
:100BF00007C81D6258629962DA6238BDE0D10131DE
:100C0000E0D18360DEE70023FBE701328260D9E7B1
:100C1000013A8260D6E700BFAC440000480CFF1FD9
:100C20000268081D936852F8202003EB8101137DB0
:100C3000486B0BB1FFF756BEFFF74EBEF0B501296A
:100C400083B00E4605461DD06B6800242A6804EB6D
:100C5000830102EB840204313344106945F821001A
:100C600004EB8303043355F82330A3B11361214609
:100C700028460134FFF7D4FF042C01D06B68E5E768
:100C800003B0F0BDC268022ADEDC43689A4204BFAA
:100C90005A1CC260D9E7202002F0F4F929680746FF
:100CA00000F072F82B68986800F01EFB221D29687E
:100CB000A8B151F82230586801909868B86001983E
:100CC0007860D868019018693861019893F814E049
:100CD000F8609869DB69B86187F814E0FB616B68BC
:100CE00041F82270334404EB8303043345F8237046
:100CF000BDE700BF70B500F1100400F1500604F12B
:100D0000100554F8043B0648197D02F069F90448BF
:100D100002F016F9AC42F4D1A642F0D170BD00BF8A
:100D2000480CFF1F4368022B10B504460DDC01215F
:100D3000FFF784FF94E80C00926802EB8302013312
:100D4000906B63600321FFF797FD2046BDE81040DC
:100D5000FFF7D0BF4368002B10B504460EDD4FF0FF
:100D6000FF31FFF76BFF94E80C00926802EB8302FF
:100D7000013B106B63600321FFF77EFD2046BDE859
:100D80001040FFF7B7BF00BF30B400226424042531
:100D90000561C46084610160027542608260C26165
:100DA00030BC7047037D83F001030375704700BFBB
:100DB000054BA1EB011183FB0123C917C1EB2321D3
:100DC00010310161704700BF9F747841B1F5A57F74
:100DD0000BDBB1F5257F05DBB1F5806FB8BF0021D6
:100DE00081607047012181607047022181607047F6
:100DF000C1EB8161890148BF01F2FF3189127F3166
:100E0000C160704708B56FF0620303FB01F1002970
:100E1000B8BF01F2FF31891264318161034802F0E9
:100E2000DFF80248BDE8084002F08AB8480CFF1F0E
:100E300063290EDDC72908DDB1F5167F0DDDB1F59B
:100E4000806FB8BF0021C16170476FF00101C161BF
:100E500070476FF00201C16170474FF0FF31C1610F
:100E6000704700BF30B4002545600160C260036177
:100E700030BC7047C368042B38D0052B25D010B583
:100E80000446006900F038FA012824D0206900F0F7
:100E900033FA78B1206900F02FFA02282CD02069AB
:100EA00000F02AFA032832D0206900F025FA04283D
:100EB00038D010BD2269E368D26C61680433BDE8A4
:100EC000104052F82300FFF781BF03694168DB6CD3
:100ED0005868FFF7C9BD2269E368D26C61680433C2
:100EE000BDE8104052F82300FFF782BF0369416854
:100EF000DB6C586BFFF78ABC2269E368D26C6168CF
:100F00000433BDE8104052F82300FFF751BF2269B7
:100F1000E368D26C61680433BDE8104052F82300E6
:100F2000FFF770BF2269E368D26C61680433BDE8E3
:100F3000104052F82300FFF77BBF00BF10B50446F6
:100F4000007800F059FCA368606098420AD0C01A8B
:100F50000028B8BF40420A2804DD2046FFF78AFF78
:100F60006368A36010BD00BFF0B5002585B00446DE
:100F7000C16480F8325080F8315080F8305080F8E9
:100F80005050182002F07EF82A4606460321FFF74B
:100F90005FFC6663182002F075F82A4606460521B4
:100FA000FFF756FCA663182002F06CF82A460646A6
:100FB0000721FFF74DFCE663182002F063F82A468C
:100FC00006460921FFF744FC2664182002F05AF86F
:100FD0002A4606460B21FFF73BFC6664182002F008
:100FE00051F82A4618210646FFF732FCA664606CC9
:100FF000FFF75CFCA06CFFF759FC382002F042F8C8
:10100000636B019506460095022201210294FFF7C9
:10101000A1FA2660382002F035F8A36B0195064648
:101020000095042202210294FFF794FA66603820AA
:1010300002F028F8E36B019506460095062203218D
:101040000294FFF787FAA660382002F01BF8236CA1
:10105000019506460095082204210294FFF77AFACA
:10106000E660382002F00EF80126636C0195074611
:101070000A22052102940096FFF76CFA27613820B6
:1010800002F000F8A36C029407468DE860000C2281
:101090000621FFF75FFA6761142001F0F3FF234692
:1010A0002A4607460E21FFF7DDFEA761142001F056
:1010B000E9FF2346324605460F21FFF7D3FEE561DF
:1010C000142001F0DFFF2346054602221021FFF71E
:1010D000C9FE2562142001F0D5FF234605460322F0
:1010E0001121FFF7BFFE6562142001F0CBFF2346FC
:1010F000054604221221FFF7B5FEA562142001F077
:10110000C1FF2346052213210546FFF7ABFE20460B
:10111000E56205B0F0BD00BFF8B500F114073E462A
:10112000041F00F1300554F8040FFFF7D9FA55F801
:10113000040FFFF7DFFB56F8040FFFF7FFFEBC427A
:10114000F1D1F8BD38B590F83130044623B1012B08
:1011500026D0022B11D038BD012380F83130082170
:10116000194800F033F9194801F0EAFE606C40F2CA
:10117000E731BDE83840FFF77FBB002580F83150EC
:101180000521134800F022F9104801F0D9FE606CE7
:101190002946FFF771FB606CBDE83840FFF7A2BB42
:1011A000022380F831300A210A4800F00FF907487D
:1011B00001F0C6FE606C0021FFF75EFB606CBDE8CD
:1011C0003840FFF789BB00BFC4440000480CFF1F34
:1011D000DC440000D0440000C36CDB6801225B6883
:1011E00070B5064680F8302000F1340500249C429A
:1011F00004F1010405D02868FFF76EFBF36CDB688F
:101200005B68042C05F10405F1D106EB8306706BD5
:10121000BDE87040FFF766BB70B50546002405F8D1
:10122000304F064655F8040FFFF756FBF36C214686
:10123000D8680134FFF7F4FC042CF3D170BD00BF73
:10124000012380F850307047002380F850307047F9
:1012500090F83130DA1E012A0ED910B5062180F837
:1012600032300446054800F0B1F8054801F068FE48
:10127000032384F8313010BD704700BFE444000000
:10128000480CFF1F90F8323080F83130704700BFB3
:1012900090F83130042B10B5044606D005210548DE
:1012A00000F094F8044801F04BFE042384F8313038
:1012B00010BD00BFEC440000480CFF1F90F8323016
:1012C00080F83130704700BF90F83100A0F1030082
:1012D000B0FA80F04009704790F83100A0F10400A6
:1012E000B0FA80F04009704790F85000704700BF96
:1012F00090F83000704700BF90F83100704700BF91
:1013000038B50F4D286878B143880288C118013379
:1013100093420C7A02D24380204638BD00F046FF4B
:10132000002320462B6038BD064B1B782BB10220D2
:1013300000F062FF28600028E6D14FF0FF3038BD92
:10134000C015FF1F2017FF1F10B5094C206818B1EA
:1013500043881844007A10BD064B1B782BB102203D
:1013600000F04AFF20600028F2D14FF0FF3010BD9E
:10137000C015FF1F2017FF1F044B054A1B6850882C
:101380001BB11A885B88D31A18447047C015FF1F19
:10139000B81BFF1F0B4B1B789BB110B50A4C206884
:1013A00048B100F003FF00230220236000F024FF77
:1013B00030B100F0FBFE022000F01EFF0028F8D143
:1013C00010BD70472017FF1FC015FF1F2DE9F04FFC
:1013D000DFF8F89083B0012289F80020019169B309
:1013E000DFF8EC80354F019E8346D8F80000B0B39B
:1013F000334D4488C4F14001B14228BF314604EB6B
:10140000010E00221FFA8EFE2A70761AA0F802E062
:1014100000F1080251B1013C224459441BF8014B30
:1014200002F8014F8B45F9D1B0F802E0BEF13F0F51
:101430000BD8244A05211170002ED6D10198002323
:1014400089F8003003B0BDE8F08F402202800146E9
:10145000032000F079FF0022C8F80020E9E73A787D
:1014600022B3194C164D4FF0010A07E0013C16D08B
:101470002A78A2B901F0EAFC3A78BAB1032000F068
:10148000D9FE0728F2D889F800A000F06FFEC8F84E
:1014900000000028ADD10D4B013C1870E8D10123AC
:1014A0004FF0FF302B7003B0BDE8F08F00234FF0FA
:1014B000FF3089F8003003B0BDE8F08F2017FF1F20
:1014C000BC15FF1FB415FF1F21480100B515FF1FF4
:1014D000B815FF1F00B583B002AB012103F8010D61
:1014E0001846FFF773FF03B05DF804FB38B50E4DE7
:1014F0000E4C28680123237028B1408800232370F4
:10150000C0F1400038BD0A4B1B7813B90020207091
:1015100038BD032000F08EFE0728F7D800F026FE25
:1015200028600028E9D1F1E7B815FF1FB515FF1FA6
:101530002017FF1FF8B5114B1B788BB1104E114DC2
:10154000346801272F7064B10F4A63880027177031
:1015500021462380032000F0F7FE376000232B7024
:10156000F8BD00F003FE084B28B1014603201C70B3
:1015700000F0EAFEF2E71F70F0E700BF2017FF1F40
:10158000B815FF1FB515FF1FB415FF1F38B50E4B5B
:101590001B7873B90D4C216861B103F0FF054B88CE
:1015A0000B80032000F0D0FE256038BD084B0122DF
:1015B0001A7038BD00F0DAFD0028F7D00146BDE80A
:1015C0003840032000F0C0BEB515FF1FB815FF1F3F
:1015D000B415FF1F374A384913681B06FCD40B6843
:1015E00013F08003F8D172B634490A78002A5FD02C
:1015F000334A3448F0B4344C176806682568D46818
:101600000C303E44143200681268304F35442C448C
:1016100020440244C2F34E022D4E2E482E4D2F4C34
:1016200042F400423A60376806682D682C4A246804
:101630000C303E44006812682A4F35442C44204444
:101640000244C2F34E02284E2848294D294C42F448
:1016500000423A60376806682D68274A24680C30D3
:101660003E4400681268254F35442C44204402440F
:10167000C2F34E02224E2348234D244C42F4004232
:101680003A60376806682D68214A24680C303E4469
:101690000068126835442C4420440244C2F34E02D0
:1016A0001C4842F4004202600B7062B6F0BC704706
:1016B00062B6704724B0034024B00B40C615FF1F2C
:1016C00038B003403CB0034040B003402CB003406E
:1016D00058B003405CB0034060B0034064B00340C6
:1016E0006CB0034030B0034038B00B403CB00B400E
:1016F00040B00B4044B00B404CB00B402CB00B4002
:1017000058B00B405CB00B4060B00B4064B00B4075
:101710006CB00B4030B00B4030B42948294A2A4BFA
:101720002A4D6024E121047011701B78284C082B8D
:1017300030D00A2B2748284937D00C2B0CBF352234
:101740005D2212232A60236002600B60234B244930
:101750001B78244ABBB101230B601360224B234941
:101760001B78234A012B26D9042B0FD9082B1ED90D
:10177000102B94BF862387230B6013601D4B01221F
:101780001A7030BC70470B601360E7E784230B606E
:101790001360F3E700F58E200F4908302122132350
:1017A0002A60236002600B60D0E73922F7E78523C7
:1017B0000B601360E2E780230B601360DEE700BF7D
:1017C0000040074001400740400CFF1F08B00340A5
:1017D0000CB0034008B00B400CB00B40C915FF1F04
:1017E00020B0034020B00B40410CFF1F24B0034049
:1017F00024B00B40C615FF1F47282FD8334B2DE9C7
:10180000F0411E5CFF2E2BD0314B1B78002B2AD1D0
:1018100032062CD472B62F4D2F4C2F460123266052
:101820002B7062B672B623681B060CD43B781BB9CA
:10183000F4E72B78002BF1D062B601F007FB72B60B
:1018400023681806F5D5254B1B6800222A7062B65E
:10185000234A107843FA00F0BDE8F0810020704779
:101860000020BDE8F081FFF7B5FE3206D2D572B692
:101870001C4DDFF87C801C4C06F04007FFB206F0E0
:101880003F06D8F80030DFB123F01003C8F800306D
:1018900001232660134A2B7062B672B623681906BC
:1018A0000CD413781BB9ECE72B78002BE9D062B687
:1018B00001F0CCFA72B623681B06F5D50B4BC3E7D3
:1018C00043F01003C8F80030E2E700BFF444000022
:1018D000C615FF1FC815FF1F00B0034010B003401E
:1018E000C515FF1FC715FF1F00B00B4010B00B4000
:1018F0000CB00B4010B4114B53F8302092F88042DA
:1019000034B1012379B182F880305DF8044B70471F
:1019100003EBC0035B681A6851B922F002021A6037
:101920005DF8044B704782F800315DF8044B704756
:1019300042F003021A605DF8044B70473C4500001A
:101940001C4A02EBC00301295B6811D004291BD09B
:1019500052F83000002280F8802229B1022920D0DC
:10196000032922D01A6070474FF480721A607047C2
:1019700052F830004FF4A27280F880121A601A6890
:1019800022F020021A60704752F830104FF4A27211
:10199000012081F880021A601A6842F020021A6061
:1019A000704740F203121A6070474FF481721A6058
:1019B000704700BF3C45000030B4054B054D064C58
:1019C000002210211A602A602060196030BC704724
:1019D00014D0034004D0034000D003403F2801D876
:1019E000FFF788BF704700BF3F2806D8044B53F865
:1019F000303093F80002C0B270470020704700BF3B
:101A00003C4500003F2801D8FFF79ABF704700BF50
:101A10002DE9F843054672B6224F234B234A1B6833
:101A20003C68126862B6520102D5322B88BF01347D
:101A3000B5B3C3F52F3303F21F331D4EDFF86890A3
:101A4000DFF868809B084FF47A72A6FB031302FB51
:101A500004F404EB930472B6D9F800103A68D8F88D
:101A600000E062B6C1F52F3303F21F339B08A6FBDB
:101A700003031EF0806FC4EB93034FF47A7002D01F
:101A8000322988BF013200FB0233B3F57A7F04D3D9
:101A9000013D05D004F57A74DDE701F0D7F9DAE706
:101AA000BDE8F883CC15FF1F18E000E004ED00E06E
:101AB000176CC116F8B54E4B4E48DFF85CC14E4C62
:101AC0004E49DFF858E14E4E4E4D4F4F4FF00062F9
:101AD0001A604FF080521A604FF000521A604FF0B7
:101AE00080421A604FF000421A60002202602823F0
:101AF0004EF6FF70CCF80000CEF8003023600EF5F3
:101B0000012E0B6033602B6006F500263B6005F567
:101B10000025A36207F500278B6204F5012401F577
:101B2000012106F6E87605F6E87507F57F671031BE
:101B30000EF1100E203433602B60CEF800303B6085
:101B40000B602360314CBB618B6109212160A7F5DB
:101B5000002704F58054203F08343A602060BB60C1
:101B6000E36047F8041C04F5FD2407F5FE2704375D
:101B700004F2FC7422603860A360FB6044F8041C2B
:101B8000083404F6FC74C7F8FC2F2060A4F5E124A7
:101B9000A4F2DC7433602B60C7F8F81F21681C487E
:101BA00041F40071216001681A4C0EF57F4E0EF170
:101BB000E80E07F5883706F5803605F5803541F0E3
:101BC00000710160CEF8002047F6FF7108223960ED
:101BD00033602B602260FFF79FFD1920FFF718FF8D
:101BE00001F0CCF840F21310BDE8F840FFF710BF49
:101BF00004E100E004800340148003401C800340A3
:101C0000248003402C800340348003400080034044
:101C10000480044000900C40088003400C80034086
:101C200038B50E4B0E4C1B68218805468BB1B1F5BB
:101C3000917F05D20B4A4B1C55549BB2238038BD73
:101C40000022084898470021064A55540123238062
:101C500038BDB1F5917FEDD338BD00BFF415FF1F3E
:101C60008E1AFF1F941AFF1F2DE9F843214E224FB1
:101C70003168012380463B70B1B1204D4B8801EBA8
:101C80008302013300240F2BC2F808802C7004D883
:101C90004B8000233B70BDE8F88340230B80042079
:101CA00000F052FB3460F4E7DFF8549099F800300C
:101CB000002BF0D0114D4BF6813408E0013C12D0DE
:101CC0002B7883B901F0C2F899F800307BB1042079
:101CD00000F0B0FA0528F1D800F048FA014630606B
:101CE0000028EBD0CAE701232B70BDE8F883BDE8DC
:101CF000F88300BF1016FF1FE415FF1F1416FF1F07
:101D00002017FF1F38B5084B1C7824B9074D2968E8
:101D100009B14B8803B938BD9B000B80042000F04B
:101D200013FB2C6038BD00BFE415FF1F1016FF1F0A
:101D30002DE9F041AD4E33680746002B00F092804C
:101D40001D885A88910803EB81010432AA428C68ED
:101D500042D25A8004F00F064FEA1428A449A6F193
:101D6000080208F00F00C4F30313062A00F101056E
:101D70000B701AD9B31E012B5FFA88F04ED9052ECD
:101D800048D0042E00F0A481731F022B7FD90F2EA0
:101D90000ED1F72842D8F02802D0964B1B883BB1D1
:101DA000FFF73EFF0020BDE8F08127B1BD4202D021
:101DB0000020BDE8F081082EC4F3033300F08780D3
:101DC000092E11D00A2E40F094800A2BF0D18A4BB4
:101DD0008A4A1B68A02181E0184600F0E7F9052037
:101DE00000F00AFA3060B5E7092BE1D1270E00F0C8
:101DF0007B81834B814A1B689021C4F30746117095
:101E0000EDB2FCB2002B00F09D8022463146284600
:101E1000984797E0F02843D9F72841D0F1380E28A9
:101E2000C6D801A353F820F0DF1F0000C31F000035
:101E3000B11F0000B11D0000B11D0000A31F000074
:101E4000B11D000083200000B11D00004D200000E6
:101E5000672000008B1F0000B11D0000731F0000F1
:101E6000571F0000674B1B78002BA1D0052000F006
:101E7000C3F90346306000289AD00588002D7FF40E
:101E800060AF00F093F935602846BDE8F081FFF7B8
:101E9000C7FEC4F30740FFF7C3FE072E02D1200E92
:101EA000FFF7BEFE534B584A198858481468584DDE
:101EB000524A017000270E0AF0201F802E70107009
:101EC0000CB301225348A0470120BDE8F081082B44
:101ED0007FF46EAF504B494A1B688021C4F307461C
:101EE0001170EDB2240E6BB3284622463146984756
:101EF00028E00B2E11D10B2B7FF45AAF474B3F4AF2
:101F00001B68B021EAE7464B1B68002B00F0FB8002
:101F1000404898470120BDE8F0810C2E40F0008138
:101F20000C2B7FF445AF3F4B344A1B68C021117026
:101F3000EDB2C4F30746002B00F0C88028463146B6
:101F4000240E98473849314A314B0D7016701C7079
:101F50000120BDE8F081354B1B68002B00F0D680D6
:101F60009847C4F30746254BEDB2240E83F8008052
:101F7000E8E72F4B1B68002BF2D12E4B1B68A3B157
:101F8000FE209847C4F30746EDE72B4B1B68002B58
:101F9000E6D1284B1B6843B1FC209847C4F30746A1
:101FA000E1E7264B1B68002BDAD1C4F30746DAE7DA
:101FB000234B1B68C4F30746002BD4D03046984708
:101FC000D1E7204B1A68002AEFD0260C630C06F0EC
:101FD0007F0003F47E531843F6B29047C3E71A4BD1
:101FE0001B68C4F30746002BE8D1BCE71C16FF1F93
:101FF000921AFF1F8E1AFF1FF815FF1F8C1AFF1F62
:102000002C16FF1F2017FF1FF415FF1F901AFF1F2C
:10201000911AFF1F941AFF1F2416FF1F2816FF1F77
:102020000C16FF1FE815FF1F931AFF1FD415FF1F83
:10203000D815FF1FDC15FF1F1816FF1F0816FF1FFE
:102040002016FF1FF015FF1F0416FF1F3F4B1B68D4
:10205000002B85D13E4B1B68002BA6D0FA20984759
:10206000C4F307467FE73B4B1B68002B7FF478AF38
:10207000374B1B68002B98D0FB209847C4F30746CA
:1020800071E7354B1B68002B7FF46AAF304B1B6840
:10209000002B8AD0F8209847C4F3074663E70E2B3D
:1020A0007FF486AE2D4A2E4B1268E0211970002A6B
:1020B00047D0260C610C06F07F0301F47E511943D2
:1020C000EDB2A1F5005128469047F6B2240E39E74B
:1020D000FFF7A6FDC4F30740FFF7A2FD200EFFF7B0
:1020E0009FFD0020BDE8F0811E4B1D4A1B6880212A
:1020F0001170EDB2C4F3074683B1314628463A4623
:1021000098473C461EE70120BDE8F081104B1B6854
:10211000002B3FF44AAFFF20984746E71C4611E7E3
:102120000D2EBCD10D2B7FF443AE0F4B0C4A1B6818
:10213000D0211170EDB2C4F30746002B7FF4FEAE40
:10214000C4E7C4F30746EDB2240EFBE60016FF1FFA
:10215000DC15FF1FE015FF1FD015FF1FEC15FF1F3B
:102160008C1AFF1F2416FF1FFC15FF1F72B60D48A7
:102170000268B2FA82F31D2B10DC4FF00041D94007
:1021800022EA0102026062B6074803EBC303DB00E8
:10219000C2180021C15010465160704762B600203D
:1021A000704700BF440CFF1FD003FF1F0D4B0E4AAA
:1021B000C31AA2FB03231B091D2B0CD80B4A127850
:1021C00052B972B60A484FF00041026821FA03F38F
:1021D0001A43026062B67047064A1278002AF0D0AD
:1021E00000F03EB8D003FF1F398EE3381517FF1FEC
:1021F000440CFF1F2017FF1F431E042B14D872B678
:102200000A4951F8230068B170B4094C058834F8C4
:102210001320466841F82360521B24F8132062B64D
:1022200070BC704762B67047002070478C16FF1F65
:10223000B81BFF1F013804280BD872B6074B53F8A0
:10224000203043B100205B680130002BFBD162B627
:102250007047002070471846F9E700BFE416FF1FDB
:1022600030B472B6334A13781B0706D5324B196A5D
:10227000002943D0996A00294ED053781D0706D50E
:102280002D4B196C00294DD0996C002946D09378BC
:102290001C0706D5284B196E002945D0996E0029D8
:1022A0003ED0D378190707D5234BD3F880100029E7
:1022B0003ED0D3F8881091B113791B0708D51E4B77
:1022C000D3F8A020002A31D0D3F8A82015243AB1A1
:1022D00062B61A4B00221A7030BCFFF767BF112498
:1022E0001649174D0A7843F8345003EBC4030830FD
:1022F000013A58600A7062B630BC704704220F4C35
:10230000104D217843F8325003EBC20308304A1EC7
:102310005860227062B6EFE70524E1E70924DFE7A1
:102320000D24DDE70822EAE70C22E8E71422E6E7BD
:102330001022E4E7684700000000FF1F1517FF1F89
:10234000C800400088004000431E042B1DD81B4AD3
:10235000400140F0100030B4104472B6184CE25CFA
:10236000032A1BD8DFE802F00212151703220D889A
:10237000E25410F0080F14BFC823882343EA054332
:1023800008310360416062B630BC704708300222F9
:10239000EDE70522EBE708300422E8E7094A52F8A6
:1023A000230038B1084A52F82300416042F8231054
:1023B00062B6E9E742F82310034AF7E70000FF1F7F
:1023C0002417FF1FE416FF1FF816FF1F2DE9F04F1B
:1023D000DFF808B3DFF808A387B044E0AA4F4FEA5C
:1023E000930807EBC809013ED9F8042003F008035D
:1023F000F6B2A2F1080003F0FF04002B40F00081C8
:1024000057F838301B0C99B222F8081C002B00F04A
:10241000EE809E4B22F8064C42F8044C53F82620DE
:10242000002A00F035829A4D55F826305860994CB4
:1024300045F8260034F81630194424F81610FFF732
:1024400095FE002800F01D82934A944B19F0080F66
:1024500000F1080018BF1346C9F8040047F83830E7
:1024600008238BF800309BF80040E4B260071CD5CD
:102470008B4B1B78B3B18B490A7802F0FF0322B172
:10248000013BDBB20B7003B900BE87490A7802F04A
:10249000FF032AB1013BDBB20B70002B00F0C781B8
:1024A000FFF730FC04238BF8003004F0080303F03E
:1024B000FF02002B00F0C8809AF80030DBB21E0942
:1024C0008CD19C08DFF8C09159F8342009EBC40185
:1024D000C2F38302013A49680C2A00F28480DFE8E3
:1024E00002F078788282828282824382828207002E
:1024F00008686E4D684B4A686D4F49F8343081B2B8
:102500006C4E6A6040F2816400222860A1424FF064
:1025100001003A60C9F81020C9F81820307000F2A4
:10252000E180B1F5D06F80F01383B1F5817F00F0C9
:10253000E68100F2C981802900F02483822940F0DD
:10254000E481A98801F07F01052900F2DE815A4B60
:102550005A4C89000B44227062701A78930740F13C
:1025600099832070022014E2514F3A6832B3544BE1
:10257000504E5449188834780D784028864645F0E6
:10258000020828BF4FF0400E002C84F00104347084
:10259000CEEB00000CBF8824C82409EBC80680B22B
:1025A00085F0010544EA0E447260188049F838400D
:1025B00072440D70002800F0B6803A603B4B1A88D8
:1025C000B2F5A06F0FD100219A7859703E4B1A7066
:1025D00009E0364A108842F22102904200F0A880B9
:1025E0002D4A49F83420394A0123137038E72A4A22
:1025F0002A4B19F0080F18BF134647F838302FE759
:10260000FFF7D4FD324A334952F82630002B00F050
:10261000438158688C5D42F8260003F10802C9F82E
:102620000420032C05D8DFE804F02C02292602221E
:102630008A551A8819F0080F0CBF8823C82343EA6B
:10264000024347F838300BE7E00700F1F38021063A
:1026500000F13081A20706D51F4A204913780220D5
:10266000DBB213700870E30602D51C4B10221A70FF
:1026700007B0BDE8F08F04228A55DAE705228A55B3
:10268000D7E703228A55D4E70000FF1F8C16FF1FEF
:102690003416FF1FB81BFF1FC80040008800400011
:1026A0002017FF1FA116FF1FB415FF1F0C17FF1FD8
:1026B0003016FF1FA016FF1FC02007401817FF1F6E
:1026C0004816FF1F1417FF1F98200740942007404B
:1026D000E416FF1F2417FF1F8820074080200740B3
:1026E0009020074042F22104A14200F09C8049D88A
:1026F000B1F5086F00F04981B1F5106F40F0058128
:10270000B24AB34CA978117004F1A00503E0083473
:10271000A54200F08981236A1906F8D5606A083855
:10272000FFF744FDF3E7BEF1400F18BF002244E776
:10273000A84A0D784878157050708D78C8789570D3
:10274000D07010680D79157186284D798979557189
:10275000917100F01681A049A04E0A78307882F07D
:102760000105002842F002020D700CBF8821C8212B
:1027700049F8321009EBC20280F0010000213070EC
:1027800051602DE742F22124A14240F00882DFF897
:1027900090C2934B9349AC78DCF800501D600190D7
:1027A0000C70002002908046844604468A490D78C9
:1027B00045F0020E09EBCE030393019B002B039B14
:1027C0005C600CBF8824C82448EA040385F0010437
:1027D00049F83E3032700C70DFF8F4E17F4BDFF8DF
:1027E000F881002840F09880BCF1400F1BD144F0E4
:1027F000020C09EBCC03029CDFF8D4E15C60002AF8
:1028000040F0A080020442F088029DF804304EF8A7
:102810003C20044433700D702346402803D100202F
:10282000714A3B601080714A01231370DBE6FEF7AA
:10283000ADFE35E6664B6D4867491A614FF0020EF2
:1028400080F800E06A4F0A706A49196099606A4E20
:102850006A4D6B4C9A610D213970FF213170DFF8A0
:10286000C4E129702270674D674A8EF800109F27D7
:10287000012406F8047C5D600470DA6007B0BDE8EE
:10288000F08F624A47F83800137801331370E7E598
:1028900043F826005E4DCAE58B5D032B6AD801A282
:1028A00052F823F06124000061240000F9280000A0
:1028B000F32800004E49514B80220D2008701A70F9
:1028C000A2077FF5D0AEC7E640F20232914240F057
:1028D0005E81A98801F07F01052916D86A88A2B90E
:1028E000434C019089000C44217841F00201217091
:1028F00057E701238B55B3E500238B55B0E5A98835
:1029000001F07F01052940F24F81394A0F231370EE
:10291000364A0123137066E640287FF668AF44F01C
:1029200002040EEBC401029E4E60BAB19DF8041081
:10293000384A19703346403888F8005040334EF812
:1029400034206DE79DF8043033700204029B0D7053
:1029500042F0C80203444EF83C205EE79DF80410A4
:102960001970029B234A88F80050403840334EF8D3
:10297000342055E719F0080F0CBF022303238B55B1
:102980006EE5254A0F211170E5E6104A234C1278B6
:102990002270EA88824280F0E1810F490D78402A56
:1029A000944645F0020E28BF4FF0400C04EB0C0398
:1029B00009EBCE000293012344604FEA0C48CCEBB4
:1029C000020001930022C824FEE600BF2017FF1F6B
:1029D0000000FF1F801AFF1F1417FF1FA016FF1F04
:1029E000881AFF1FC415FF1F4816FF1F94200740B9
:1029F000C020074088004000882007408020074012
:102A0000982007404C16FF1FA416FF1F1517FF1F25
:102A10003416FF1FC8004000A116FF1F1817FF1F24
:102A2000CC15FF1F8C200740B04CB14AB149B248C9
:102A3000B24D01940023B24C029405960395804652
:102A40001C46049716460D46306828B14768FFF7C4
:102A5000ADFB3846002FF9D100233360039B286873
:102A60001A46002342F8243028B14768FFF79EFB3E
:102A70003846002FF9D1019B00221B782A6048F8C4
:102A8000042B029A4FF00001023B22F81410032B92
:102A900007D8DFE803F058025802019B4FF001020B
:102AA0001A70019B01340133052C06F1040605F16F
:102AB00004050193C8D1934C934D2278934B049F06
:102AC000059E002129701A7012077AD46278904905
:102AD000DFF84C820A7013074FF00001C9F830107C
:102AE000C9F8381000F1C380A2788A49DFF8308233
:102AF0000A7010074FF00001C9F85010C9F85810BB
:102B000000F1A1808449E2780A700021C9F87010B0
:102B1000C9F878101107DFF808827DD422797F493F
:102B20007F4C0A7000211207C9F89010C9F898105C
:102B30005DD433780193002183F00102C9F8B0100D
:102B4000C9F8B8102DE6019B4FF000021A70A8E7F3
:102B5000744A5468002C3FF4D8AE6888B5F804E095
:102B600004E00C325468002C3FF4CFAE138883424B
:102B7000F7D153887345F4D1000A03280CBF20789D
:102B8000108906E7684C02202270627001E7B1F5F7
:102B9000A06F7FF4BAAE01230022019301E642F256
:102BA00021329142F7D0B0E66A88002A7FF4ADAEB8
:102BB0005E4C019089000C44217821F002012170C3
:102BC000EFE5FFF7D3FA002800F0B6800830584A46
:102BD000C9F82400C9F82020FFF7C8FA00287FD0E0
:102BE0000830544AC9F82C00C9F828206EE7FFF7CE
:102BF000BDFA002856D008304D4AC4F8A400C4F8E5
:102C0000A020FFF7B3FA002846D00830494AC9F897
:102C1000AC00C9F8A8208CE7FFF7A8FA002800F05C
:102C200097800830424AC8F88400C8F88020FFF72F
:102C30009DFA002800F0868008303E4AC9F88C00D2
:102C4000C9F888206AE7FFF791FA002842D00830D7
:102C5000374AC8F86400C8F86020FFF787FA98B3CD
:102C60000830344AC9F86C00C9F868204AE7FFF711
:102C70007DFA18B308302E4AC8F84400C8F840203E
:102C8000FFF774FAA0B108302A4AC9F84C00C9F815
:102C9000482029E702207CE62A78C9F8A8000132FA
:102CA0002A7046E72A78C4F8A00001322A70A8E703
:102CB0002A78C9F8480001322A7015E72A78C8F83E
:102CC000400001322A70DBE72A78C9F86800013237
:102CD0002A7017E72A78C8F8600001322A70BCE72A
:102CE0002A78C9F8280001322A70EFE62417FF1F5E
:102CF0008C16FF1FE416FF1FF816FF1F3416FF1F68
:102D0000B81BFF1F684700001517FF1FC4200740AE
:102D1000C8200740CC200740D0200740D4200740DF
:102D20000000FF1F704700001817FF1FC02007405A
:102D300088004000C80040002A78C9F8200001320D
:102D40002A7049E72A78C9F8880001322A70E5E636
:102D50002A78C8F8800001322A7068E74028844643
:102D600028BF4FF0400C04EB0C0302930123CCEB83
:102D700000004FEA0C480022019317E52DE9F041CD
:102D8000274C00F0A1FC002204F1A80023461A60A1
:102D90005A60083383424FF00001F8D12148224A9B
:102DA0000368DFF89CE0214E214D224FDFF894C0EC
:102DB000DFF8948043F480230360136843F040738A
:102DC000136003238EF80030A023337002F5C9226C
:102DD000C4F3072300F528302B708030C4F3074379
:102DE00010323B70240EFF230470134D8CF800301A
:102DF000124888F800301370012306F8AC3C4FF4F9
:102E000000140EF8441C7026102107F82C3C2E707C
:102E1000046082F8F810AEF1440EBDE8F08100BF06
:102E20000000FF1F3480044000D8004040210740CC
:102E30009C200740B020074035E400E004E100E0BA
:102E400044210740802007408820074038B52C4C9B
:102E5000237803B138BD01232370FEF78DFA0028D3
:102E600042D100F019FB00283BD100F089F900287D
:102E700034D100F091FC70BB00F018FA40BB00F0B8
:102E800003F910BB00F09EFBE0B900232370EFF3C1
:102E90000583002BDED1EFF3108172B6194B186851
:102EA00028B3194C227812BB45691D600123237099
:102EB0000DB3AA6101B962B60025457783689847CA
:102EC0002570C7E700F0DCF8DFE700F021F8D9E76C
:102ED00000F090F8D3E700F0DDFCCDE700F088F8D3
:102EE000C7E700F0D5FCC0E700F028F8B9E70029F3
:102EF000B0D162B638BD054B1D600029DCD1DAE7E0
:102F00002917FF1F401AFF1F441AFF1F3C1AFF1FFB
:102F1000704700BFFEF73EBAFEF716BAFEF7F0B9EB
:102F2000FEF72ABAFEF706BBFEF7E0BA08461146DE
:102F3000FEF74CBA0846FEF7CDBA00BF704700BF97
:102F400000B5064A036812885B6883B001A9ADF832
:102F500004200222984703B05DF804FB6447000098
:102F6000F0B507468BB0002A33D0012A08BF0A22E9
:102F700051B3212400E0F4B2B1FBF2F502FB1511CC
:102F8000C8B2092900F1300198BFC8B20AA988BFA8
:102F90003730214488BFC0B201F8240C661E294690
:102FA000002DE8D133B1013CE4B20AAB23442D2219
:102FB00003F8242C3B6801AA11195B683846C4F158
:102FC000220298470BB0F0BD30228DF82520212435
:102FD000E8E70368C9B21B6898470BB0F0BD00BFB3
:102FE0000029BABF49422D2300230A22FFF7B8BFA8
:102FF000704700BF704700BF08B5FDF7B7FCFDF78D
:10300000B7FCFFF723FFFAE7F0B5164D2A680AB3BD
:103010001549164BDFF85CE082FB016781FB021467
:10302000D617D1191444C6EB2141C6EB244403FB47
:1030300004F40EFB112244F2A71303FB0243002BFE
:1030400002DA03F10043013BB3FBF0F22B6000FB1B
:103050001230F0BD064B2B60B3FBF0F200FB1230D8
:10306000F0BD00BF2C17FF1F5F0B4E83ECF4FFFF7A
:1030700042CE0C1F1DF3010008B1FFF7C5BF70471A
:10308000704700BF00F030BD054A064B10781B7832
:10309000C0B2DBB2984238BF4030C01A704700BFA0
:1030A0003417FF1F3517FF1F30B42B4B1A799406C6
:1030B0001FD52A48DA790378294901333F2B09784B
:1030C000C8BF00238B42D2B203D0264CD9B2E254FF
:1030D0000170254A116861B1244A1278D2B2934234
:1030E00036BFC2F140029B1A9B18272BC4BF012395
:1030F0000B70194AD378DBB2180611D45A060DD5D5
:10310000154B1B795B0609D5194B1A491B68002220
:103110000A7003B11A70104B2C22DA7030BC704761
:1031200011790906EAD5144910480C780178C9B21A
:103130008C420DD04A1C272A84BF00210A460F4D1D
:10314000054C98BFD1B2AA5CD2B2E2710170D5E74A
:103150006C21D170D2E700BF00A00E403417FF1FD2
:103160003517FF1F6017FF1F3017FF1FA117FF1F25
:10317000A417FF1FA017FF1FA817FF1F3817FF1F57
:10318000054A064B10781B78C0B2DBB2984238BFB4
:103190004030C01A704700BF1C18FF1FB117FF1F37
:1031A000F0B4384B1A7912F0300F2CD072B6997DEA
:1031B00001F0FF0200293DD062B6334F3349387821
:1031C0000D78334E1C46C0B2EDB2431C402BE17962
:1031D00028BF0023AB4202F1FF32C9B21CBFF15439
:1031E000184612F0FF02F0D12A4B1B68C2B23A70A7
:1031F0004BB1A84236BFC5F14005401B40192728F6
:10320000C4BF01221A701F49CA78D2B2150616D45B
:1032100052060DD51B4B1B795B0609D51E4B1F496A
:103220001B6800220A7003B11A70164B3C22DA7038
:10323000F0BC70474022D9795A7462B6E3E70B7943
:103240001C06E5D5164B174E1C783378E4B2DBB27A
:103250009C420ED0144D01E0A3420AD00133282B2A
:1032600028BF00230879E85CC0B2C871087D072830
:10327000F2D9DBB2034933700B79180644BF7C23C3
:10328000CB70C5E700B006401C18FF1FB117FF1F29
:10329000DC17FF1FAC17FF1F2018FF1FB017FF1F01
:1032A0002418FF1F1D18FF1FB417FF1F054A064BE8
:1032B00010781B78C0B2DBB2984238BF4030C01AD9
:1032C000704700BF2C18FF1F2D18FF1F30B42B4B69
:1032D0001A7994061FD52A48DA79037829490133E7
:1032E0003F2B0978C8BF00238B42D2B203D0264CB3
:1032F000D9B2E2540170254A116861B1244A1278AA
:10330000D2B2934236BFC2F140029B1A9B18272BC0
:10331000C4BF01230B70194AD378DBB2180611D44D
:103320005A060DD5154B1B795B0609D5194B1A4961
:103330001B6800220A7003B11A70104B2C22DA703D
:1033400030BC704711790906EAD5144910480C7849
:103350000178C9B28C420DD04A1C272A84BF0021B3
:103360000A460F4D054C98BFD1B2AA5CD2B2E271A9
:103370000170D5E76C21D170D2E700BF00D00640C4
:103380002C18FF1F2D18FF1F5818FF1F2818FF1F8C
:103390009918FF1F9C18FF1F9818FF1FA018FF1FE8
:1033A0003018FF1F08B5104C08E0236859050DD4EC
:1033B00023681A050FD42368DB0411D4236858034B
:1033C000F3D5FFF703F823685905F1D500F074F839
:1033D00023681A05EFD5FFF7E3FE2368DB04EDD57C
:1033E00000F0EAF9EAE700BF3480044008B5FFF7CF
:1033F000D9FF00BF014B10221A8070470020054002
:10340000704700BF094908B50B6830B16A461844D7
:10341000A2F50052904202D20860184608BD00F0A2
:1034200035FB0C2303604FF0FF3008BD580CFF1F25
:10343000084A1378802B01D0002070470649074BBB
:1034400007480860002119701378802BFCD00120F8
:10345000704700BF03E007404480044001E007409C
:1034600000002822094A1378012B01D00020704760
:1034700003F1804303F5FC23602119701378802B3E
:10348000FCD1034B034A1A600120704703E0074058
:103490004480044000000602054A064B10781B7861
:1034A000C0B2DBB2984238BF4030C01A704700BF8C
:1034B000A818FF1FA918FF1FF0B4384B1A7912F093
:1034C000300F2CD072B6997D01F0FF0200293DD05B
:1034D00062B6334F334938780D78334E1C46C0B24C
:1034E000EDB2431C402BE17928BF0023AB4202F12F
:1034F000FF32C9B21CBFF154184612F0FF02F0D1DE
:103500002A4B1B68C2B23A704BB1A84236BFC5F114
:103510004005401B40192728C4BF01221A701F49CB
:10352000CA78D2B2150616D452060DD51B4B1B799C
:103530005B0609D51E4B1F491B6800220A7003B1A8
:103540001A70164B3C22DA70F0BC70474022D979D1
:103550005A7462B6E3E70B791C06E5D5164B174E95
:103560001C783378E4B2DBB29C420ED0144D01E0FB
:10357000A3420AD00133402B28BF00230879E85C1E
:10358000C0B2C871087D0728F2D9DBB20349337095
:103590000B79180644BF7C23CB70C5E700A006401A
:1035A000A818FF1FA918FF1FEC18FF1FA418FF1F62
:1035B0003019FF1F2C19FF1F3419FF1F2D19FF1F72
:1035C000AC18FF1F054A064B10781B78C0B2DBB25F
:1035D000984238BF4030C01A704700BF3C19FF1FE7
:1035E0003D19FF1F30B42C4B5A6894021FD52B484D
:1035F000DA6803782A4901333F2B0978C8BF0023D2
:103600008B4204D0274CD2B2D9B2E2540170264A80
:10361000116861B1254A1278D2B2934236BFC2F125
:1036200040029B1A9B18272BC4BF01230B701A4A18
:103630009368180202D55268110211D45A020DD5AE
:10364000154B5B685B0209D5194B1A491B680022B0
:103650000A7003B11A70184B00221A6030BC704710
:10366000164A124910780A78D2B290420DD001322F
:10367000272A84BF00200246114D074C98BFD0B2C4
:10368000AA5CD2B2E2600870D8E70E480A4A002469
:10369000012104601160D1E700400C403C19FF1F7C
:1036A0003D19FF1F6819FF1F3819FF1FA919FF1FB8
:1036B000AC19FF1FA819FF1F58018843B019FF1F3D
:1036C0004019FF1F5C01884310B584B072B6FFF744
:1036D000AFFE184A184B19491160702280211A70E8
:1036E0001A46197013781B06FCD5154B1C68FFF79A
:1036F000B9FE62B6134B9C429CBF04EB8404640089
:103700002046114C01A90A2200F020F801A9204608
:10371000002311F8012B01333AB10A2B20F8022FB4
:10372000F7D11623237004B010BD5B00DBB2237009
:1037300004B010BD04000240000002400000074138
:103740000C0002407F9698003C0DFF1FF0B44D1E08
:103750002E46002400E00134B0FBF2F302FB13001C
:10376000092800F130078ABF3730F8B2C0B206F836
:10377000010F1846002BEED10A1953704CB1107886
:1037800015F8016F28700133E01A834202F80169CD
:10379000F5DB0846F0BC7047054A064B10781B78ED
:1037A000C0B2DBB2984238BF4030C01A704700BF89
:1037B000B819FF1FB919FF1F30B42B4B1A799406A3
:1037C0001FD52A48DA790378294901333F2B097834
:1037D000C8BF00238B42D2B203D0264CD9B2E254E8
:1037E0000170254A116861B1244A1278D2B293421D
:1037F00036BFC2F140029B1A9B18272BC4BF01237E
:103800000B70194AD378DBB2180611D45A060DD5BD
:10381000154B1B795B0609D5194B1A491B68002209
:103820000A7003B11A70104B2C22DA7030BC70474A
:1038300011790906EAD5144910480C780178C9B203
:103840008C420DD04A1C272A84BF00210A460F4D06
:10385000054C98BFD1B2AA5CD2B2E2710170D5E733
:103860006C21D170D2E700BF00C00640B819FF1F1D
:10387000B919FF1FE419FF1FB419FF1F251AFF1FF5
:10388000281AFF1F241AFF1F2C1AFF1FBC19FF1F25
:10389000704700BF704700BF10B4EFF3108272B6DC
:1038A000437F33B9017F012908D0032910D00123B8
:1038B000437702B962B65DF8044B7047114C21683A
:1038C000A1B1114943610B68836108605861EEE75B
:1038D0000E4C216881B10E4943610B688361086019
:1038E00058610C4B4FF080511960E0E7064B416185
:1038F000816120601860DAE7054B416181612060D9
:103900001860EEE7401AFF1F3C1AFF1F301AFF1F16
:10391000341AFF1F04ED00E010B4047F4160022C54
:10392000C26003D05DF8044BFFF7B6BF83685DF853
:10393000044B184770B5EFF3108272B60C4C206838
:1039400080B10C4E00254369236073B19D6102B9BB
:1039500062B6457783689847EFF3108272B62068A5
:103960000028F0D102B962B670BD3360EFE700BF46
:10397000301AFF1F341AFF1FFFF7DCBF184A30B49C
:103980001468002C27D0036821688B420ED2CB1A12
:1039900000218460C1602360E06010600223037531
:1039A00030BC704711688B42144608D3A2685B1A7A
:1039B0000360002AF6D18260C460A060EEE7D2689E
:1039C000C2608460E060C568CB1A0222A8602360F0
:1039D000027530BC70478460C4601060DEE700BFD1
:1039E000381AFF1FF8B5224E34682CB32368002B19
:1039F0003AD1204F1D4604E03468ECB12368002B17
:103A000032D1A36803B1DD60206933600368257596
:103A10001B68BB4221D1037F4560022BC46020D0CC
:103A2000FFF73AFF6368002BE6D023602046FFF7DC
:103A3000A5FF3468002CE1D1EFF3108372B60E4A73
:103A400000211068116003B962B628B18468FFF7DD
:103A500095FF20460028F9D1F8BD2246002198475D
:103A6000E0E783689847DDE7013B2360E4E700BFB8
:103A7000381AFF1F19390000481AFF1F024A13683D
:103A800001331360FFF7AEBFCC15FF1F014B186861
:103A9000704700BF8011FF1F70B50F4E0F4D761B92
:103AA000B61018BF002405D0013455F8043B9847E0
:103AB000A642F9D10A4E0B4D761B00F085FEB610DA
:103AC00018BF002406D0013455F8043B9847A6429D
:103AD000F9D170BD70BD00BFD4470000D4470000CD
:103AE000E0470000D4470000024B0146186800F090
:103AF00003B800BF8011FF1F2DE9F04F01F10B0546
:103B0000162D83B0064640F29F8035F0070500F180
:103B1000BF80A94200F2BC8000F0F4FAB5F5FC7F4A
:103B2000C0F09C826B0A00F0BA80042B00F2838103
:103B3000A80900F1390E4FEA4E033830C44F07EBA5
:103B40008303A3F108015C68A14207D1ACE0002A1D
:103B500080F2AC80E468A14200F0A680636823F0A4
:103B600003035A1B0F2AF2DDB9493C6901F1080E23
:103B7000744500F0B381636823F003035A1B0F2AD6
:103B800000F39981002AC1F814E0C1F810E080F236
:103B90009E80B3F5007F80F06781DB0803F1010CA4
:103BA00001229B1002FA03F34A6851F83C80C4F8E2
:103BB000088001EBCC091A43A9F10803E3604A60CD
:103BC00041F83C40C8F80C40831001249C409442CA
:103BD00000F28A80144206D120F0030064001442EF
:103BE00000F10400FAD007EBC009CC468046DCF8AF
:103BF0000C108C4507D173E1002A80F28181C968DD
:103C00008C4500F06D814B6823F003035A1B0F2A8B
:103C1000F2DD0C46D1F80CC054F8088F4B1945F072
:103C200001054D6042F00101C8F80CC03046CCF8E7
:103C300008807B613B61C3F80CE0C3F808E0596081
:103C40009A5000F061FA1FE0102921D800F05AFACA
:103C50001025062302207E4F07EB8303A3F1080201
:103C60005C68944200F045816368E168A56823F0D0
:103C70000303234430465A68E96042F001028D6034
:103C80005A6000F041FA0834204603B0BDE8F08FD6
:103C900000240C232046336003B0BDE8F08F80235E
:103CA0004FF0400E3F2049E770465DE72344E1684E
:103CB0005A68A56842F00102E96030468D605A609A
:103CC00000F022FA0834204603B0BDE8F08F234408
:103CD00030465A6842F001025A6000F015FA083482
:103CE000204603B0BDE8F08FBC68636823F003088A
:103CF000A84504D3C5EB08030F2B00F38C80554B6C
:103D0000DFF860911A68D9F8003001332A4404EBD7
:103D1000080A00F0608102F580520F3222F47F62BF
:103D200022F00F0211463046019200F0EFF9B0F197
:103D3000FF3F8346019A00F05881824500F2FC80E3
:103D4000454B1968DA451144196000F05381D9F8E0
:103D50000000DFF810E101301BBFCAEB0B0A514431
:103D6000CEF800B019601BF0070100F01781C1F117
:103D70000800C1F58051834408315A44C2F30B0254
:103D8000C2EB010949463046019300F0BFF9431CDC
:103D9000019B00F03F81CBEB00024A4442F001025C
:103DA0001968C7F808B04944BC42CBF80420196030
:103DB000DFF8A49016D0B8F10F0F40F2FD806268D2
:103DC000A8F10C0323F00703E01802F001024FF002
:103DD000050E1A430F2B6260C0F804E0C0F808E03B
:103DE00000F21C811D4BBC681A68914288BF1960A3
:103DF0001B4B1A689142626888BF196022F0030267
:103E00009542A2EB050301D80F2B04DC304600F0ED
:103E10007BF9002438E7621943F0010345F00105FE
:103E200065603046BA60536000F06EF90834204691
:103E300003B0BDE8F08F142B71D9542B00F2A4808D
:103E4000280B00F16F0E4FEA4E036E3076E600BF8E
:103E50008411FF1F541AFF1F581AFF1F501AFF1F0B
:103E60004C1AFF1F9015FF1F5A0A042A5ED9142A04
:103E700000F2B38002F15C0149005B3207EB810C78
:103E800057F82110DFF8DC81ACF1080C8C4500F00C
:103E900088804A6822F00302934202D289688C45E6
:103EA000F7D1D1F80CC07A68C4F80CC0A160CCF886
:103EB0000840CC6088E6631942F0010745F001052F
:103EC000656030464B610B61C3F80CE0C3F808E055
:103ED0005F609A50083400F017F9D5E64A6873E637
:103EE00008F1010818F0030F0CF1080C7FF47FAE05
:103EF00030E0DC68A34208BF02303FF435AEB3E6E1
:103F00000B440C465A68C96854F8085F42F0010235
:103F10005A603046E9608D6000F0F6F8B4E603F1CF
:103F20005C0E03F15B004FEA4E0307E69A0902F1CB
:103F3000390149003832A1E7BC424A4B3FF400AF97
:103F40009C68626822F003025AE759F808399945DB
:103F500040F0828010F0030F00F1FF30F5D17B6854
:103F600023EA04037B6064009C423FF6BDAE002C54
:103F70003FF4BAAE1C4240467FF435AE64001C42AA
:103F800000F10400FAD02EE6B3F5AA7F18D8E80BAA
:103F900000F1780E4FEA4E037730CFE54FF48051B1
:103FA000EBE60121D8F80430921001FA02F21A432C
:103FB000C8F80420614677E70123CBF8043025E7F1
:103FC00040F25452934220D8A80C00F17D0E4FEAE3
:103FD0004E037C30B2E51032A4E6542A26D81A0BE0
:103FE00002F16F0149006E3248E7BC68626822F056
:103FF000030205E7CAF30B0000287FF4A8AE424491
:10400000BB6842F001025A60ECE6FE234FF07F0EDF
:104010007E2093E501224FF00009C1E604F108017A
:10402000304600F0F7F8D9F80010DBE6B2F5AA7FC9
:1040300005D8DA0B02F17801490077321EE740F229
:1040400054518A4205D89A0C02F17D0149007C3214
:1040500014E7FE217E2211E77B6884E7E808431C11
:104060005B00F8E58411FF1F70B4840746D0541E2E
:10407000002A41D0CDB2034602E0621EE4B31446EA
:1040800003F8015B9A07F8D1032C2ED9CDB245EA8B
:1040900005250F2C45EA054519D903F110022646DE
:1040A000103E0F2E42F8105C42F80C5C42F8085C9F
:1040B00042F8045C02F11002F2D8A4F1100222F0DE
:1040C0000F0204F00F041032032C13440DD91E46C6
:1040D0002246043A032A46F8045BFAD8221F22F04B
:1040E00003020432134404F003042CB1C9B21C448B
:1040F00003F8011BA342FBD170BC70471446034672
:10410000C2E700BF704700BF704700BF38B5074C1B
:104110000023054608462360FFF774F9431C00D0CE
:1041200038BD2368002BFBD02B6038BDC41BFF1F9C
:10413000024B13B1024800F005B8704700000000C0
:1041400051410000002301461A46184600F04AB9C2
:1041500038B5074D074C2C1BA41005D0013C55F871
:10416000043D9847002CF9D1BDE8384000F038BB39
:104170000000000000000000F8B5234F0C46064682
:10418000FFF7C0FFBB685D6825F00305291B01F63A
:10419000EF7121F47F6121F00F01A1F58054B4F596
:1041A000805F07DB00213046FFF7B0FFBB682B4480
:1041B000984204D03046FFF7A7FF0020F8BD6142C7
:1041C0003046FFF7A3FF01300DD0104BBA681968D5
:1041D0002D1B45F001053046091B55601960FFF79E
:1041E00093FF0120F8BD00213046FFF78FFFBA682A
:1041F000831A0F2BDEDD064C0449246843F00103CB
:10420000001B53600860D5E78411FF1F581AFF1F79
:104210009015FF1F002945D02DE9F0410D4680463D
:10422000FFF770FF55F8047C6A4927F00103A5F1F8
:104230000804E2188E685068B24220F0030062D091
:10424000FE0750600BD455F8087CE41B01F1080E02
:10425000A56875453B446FD0E768EF60BD601518F1
:104260006D68ED0742D543F001026260E350B3F59B
:10427000007F18D2DB085A1C4D6851F83270A760D5
:1042800001209B1000FA03F301EBC2001D43083824
:10429000E0604D6041F83240FC604046BDE8F041CE
:1042A000FFF732BF70475A0A042A53D89A0902F11D
:1042B00039077F0002F1380501EB870051F827200C
:1042C0004449083890424DD0516821F003018B4297
:1042D00002D292689042F7D1D068E060A260846018
:1042E000D4604046BDE8F041FFF70EBF95683A4FF5
:1042F000BD4203443FD0D068E86043F001028560CE
:104300006260E350B3E7FF07034407D455F8082C75
:10431000A41A1344A068E268C26090602F4A126831
:1043200043F00100934260608C60B6D32C4B404652
:104330001968FFF721FFB0E711184968C90744D48D
:104340009168D268CA60034443F0010091606060E4
:10435000E350A2E7142A17D802F15C077F0002F1AC
:104360005B05A9E7AA104B68012505FA02F2134381
:104370004B600246B1E743F001024C610C61E5601D
:10438000A5606260E35088E7542A06D81A0B02F150
:104390006F077F0002F16E058EE7B2F5AA7F06D89F
:1043A000DA0B02F178077F0002F1770584E740F22B
:1043B0005450824206D89A0C02F17D077F0002F128
:1043C0007C0579E7FE277E2576E743F001026260EF
:1043D000E35062E78411FF1F8C11FF1F8C15FF1F34
:1043E000541AFF1F2DE9F047254C2568D5F84841A0
:1043F0000646884692469946C4B360681F2817DC73
:10440000431C76B104EB80050122C5F888A0D4F8DE
:10441000881182401143022EC4F88811C5F8089112
:104420001ED00230636044F820800020BDE8F08791
:10443000144B03B34FF4C870FFF756FB0446D0B1DA
:10444000D5F84831002780E88800C5F8484138464B
:104450000123C4F88871C4F88C71002EE1D0D1E733
:10446000D4F88C110A43C4F88C21DAE705F5A67458
:10447000C5F84841C1E74FF0FF30BDE8F08700BF05
:10448000C4470000E93A00002400000029000000B1
:104490002B0000002D00000032000000340000005E
:1044A000260000002D0000002F00000043757272EE
:1044B000656E7420706C61796261636B20706167F6
:1044C0006500FFFF56454C4F43495459000000001A
:1044D0004E4F54454C454E475448000050495443B4
:1044E000480000004348414E434500005357494EA1
:1044F00047000000050E08090D0C06070F04039382
:104500008E8F050E08090D0C06070F04FFFFFFFF35
:10451000FFFFFF8E8F11128485868791FFFFFFFFBB
:10452000FFFFFFFFFF8A8BFFFFFFFFFFFFFFFFFF84
:10453000FFFFFFFF0393179701811A924008FE4384
:1045400040A004404408FE4344A004400018FE4339
:1045500000C004403000FE43309004403400FE436D
:10456000349004401C18FE431CC004401018FE4345
:1045700010C004400818FE4308C004400C18FE4355
:104580000CC004400C10FE430CB004401010FE435D
:1045900010B004401810FE4318B004401C10FE4335
:1045A0001CB004401410FE4314B004400418FE4331
:1045B00004C004400010FE4300B004400008FE4365
:1045C00000A004400408FE4304A004400C08FE437D
:1045D0000CA004400808FE4308A004401418FE4341
:1045E00014C004401818FE4318C004400410FE43D1
:1045F00004B004400810FE4308B004406820FE43A5
:1046000068D004401400FE43149004403800FE4378
:10461000389004403C00FE433C9004404000FE4380
:10462000409004404808FE4348A004404C08FE4324
:104630004CA004402808FE4328A004402C08FE4358
:104640002CA004406020FE4360D004406420FE4360
:1046500064D004402010FE4320B004402410FE43E8
:1046600024B004402810FE4328B004402C10FE4320
:104670002CB004404400FE43449004407000FE43CC
:10468000709004407400FE43749004406800FE4340
:10469000689004405008FE4350A004405808FE4370
:1046A00058A004405C08FE435CA004405408FE434C
:1046B00054A004402018FE4320C004402418FE43A8
:1046C00024C004401008FE4310A004401408FE4318
:1046D00014A004403818FE4338C004403418FE4388
:1046E00034C004403018FE4330C004403C18FE4340
:1046F0003CC004402C18FE432CC004402820FE433C
:1047000028D004402C20FE432CD004400020FE433F
:1047100000D004400420FE4304D004400820FE439F
:1047200008D004400C20FE430CD004401020FE436F
:1047300010D004401420FE4314D0044000000000B8
:1047400000000000352F00002D2F0000292F000051
:10475000252F0000212F00001D2F0000192F000021
:10476000152F00000D0AFFFF1519151519FFFFFF82
:10477000000100005C0CFF1F12000000000200009E
:10478000880CFF1F9500000000030000380DFF1F7C
:104790000000000001030904700CFF1F000000006E
:1047A00002030904200DFF1F000000000303090499
:1047B0003C0DFF1F00000000000000000000000092
:1047C00000000000580DFF1FF8B500BFF8BC08BC82
:1047D0009E46704731410000350400007D0900000D
:0447E000F8B500BF69
:1047E4000A040000FFFFFFFF444700000000000030
:1047F400E803000000000000C81BFF1F12011001A5
:1048040000000040C0168904770201020301000081
:1048140018035400650065006E007300790064009D
:10482400750069006E006F0009029500030100C065
:1048340032080B0002020201040904000001020212
:1048440001000524001001052401010104240206CD
:104854000524060001070581031000400904010036
:10486400020A000000070502024000000705830257
:1048740040000009040200020103000007240100B3
:104884000125000624020101000624020202000997
:1048940024030103010201000924030204010101AC
:1048A4000009050502400000000005250101010979
:1048B40005840240000000000525010103000000FA
:1048C40018035400650065006E0073007900200031
:1048D4004D00490044004900040309040C0300008E
:1048E40000000000000000000000000000000000C4
:1048F4000000000000000000000000004410FF1F42
:10490400AC10FF1F1411FF1F000000000000000086
:104914000000000000000000000000000000000093
:104924000000000000000000000000000000000083
:104934000000000000000000000000000000000073
:104944000000000000000000000000000000000063
:104954000000000000000000000000000000000053
:104964000000000000000000000000000000000043
:104974000000000000000000000000000000000033
:104984000000000000000000000000000000000023
:104994000000000000000000000000000000000013
:1049A40001000000000000000E33CDAB34126DE6B0
:1049B400ECDE05000B000000000000000000000019
:1049C40000000000000000000000000000000000E3
:1049D40000000000000000000000000000000000D3
:1049E40000000000000000000000000000000000C3
:1049F40000000000000000000000000000000000B3
:104D2400580DFF1F00000000000000008411FF1F49
:104D34008411FF1F8C11FF1F8C11FF1F9411FF1F83
:104D44009411FF1F9C11FF1F9C11FF1FA411FF1F33
:104D5400A411FF1FAC11FF1FAC11FF1FB411FF1FE3
:104D6400B411FF1FBC11FF1FBC11FF1FC411FF1F93
:104D7400C411FF1FCC11FF1FCC11FF1FD411FF1F43
:104D8400D411FF1FDC11FF1FDC11FF1FE411FF1FF3
:104D9400E411FF1FEC11FF1FEC11FF1FF411FF1FA3
:104DA400F411FF1FFC11FF1FFC11FF1F0412FF1F52
:104DB4000412FF1F0C12FF1F0C12FF1F1412FF1FFF
:104DC4001412FF1F1C12FF1F1C12FF1F2412FF1FAF
:104DD4002412FF1F2C12FF1F2C12FF1F3412FF1F5F
:104DE4003412FF1F3C12FF1F3C12FF1F4412FF1F0F
:104DF4004412FF1F4C12FF1F4C12FF1F5412FF1FBF
:104E04005412FF1F5C12FF1F5C12FF1F6412FF1F6E
:104E14006412FF1F6C12FF1F6C12FF1F7412FF1F1E
:104E24007412FF1F7C12FF1F7C12FF1F8412FF1FCE
:104E34008412FF1F8C12FF1F8C12FF1F9412FF1F7E
:104E44009412FF1F9C12FF1F9C12FF1FA412FF1F2E
:104E5400A412FF1FAC12FF1FAC12FF1FB412FF1FDE
:104E6400B412FF1FBC12FF1FBC12FF1FC412FF1F8E
:104E7400C412FF1FCC12FF1FCC12FF1FD412FF1F3E
:104E8400D412FF1FDC12FF1FDC12FF1FE412FF1FEE
:104E9400E412FF1FEC12FF1FEC12FF1FF412FF1F9E
:104EA400F412FF1FFC12FF1FFC12FF1F0413FF1F4D
:104EB4000413FF1F0C13FF1F0C13FF1F1413FF1FFA
:104EC4001413FF1F1C13FF1F1C13FF1F2413FF1FAA
:104ED4002413FF1F2C13FF1F2C13FF1F3413FF1F5A
:104EE4003413FF1F3C13FF1F3C13FF1F4413FF1F0A
:104EF4004413FF1F4C13FF1F4C13FF1F5413FF1FBA
:104F04005413FF1F5C13FF1F5C13FF1F6413FF1F69
:104F14006413FF1F6C13FF1F6C13FF1F7413FF1F19
:104F24007413FF1F7C13FF1F7C13FF1F8413FF1FC9
:104F34008413FF1F8C13FF1F8C13FF1F9413FF1F79
:104F44009413FF1F9C13FF1F9C13FF1FA413FF1F29
:104F5400A413FF1FAC13FF1FAC13FF1FB413FF1FD9
:104F6400B413FF1FBC13FF1FBC13FF1FC413FF1F89
:104F7400C413FF1FCC13FF1FCC13FF1FD413FF1F39
:104F8400D413FF1FDC13FF1FDC13FF1FE413FF1FE9
:104F9400E413FF1FEC13FF1FEC13FF1FF413FF1F99
:104FA400F413FF1FFC13FF1FFC13FF1F0414FF1F48
:104FB4000414FF1F0C14FF1F0C14FF1F1414FF1FF5
:104FC4001414FF1F1C14FF1F1C14FF1F2414FF1FA5
:104FD4002414FF1F2C14FF1F2C14FF1F3414FF1F55
:104FE4003414FF1F3C14FF1F3C14FF1F4414FF1F05
:104FF4004414FF1F4C14FF1F4C14FF1F5414FF1FB5
:105004005414FF1F5C14FF1F5C14FF1F6414FF1F64
:105014006414FF1F6C14FF1F6C14FF1F7414FF1F14
:105024007414FF1F7C14FF1F7C14FF1F8414FF1FC4
:105034008414FF1F8C14FF1F8C14FF1F9414FF1F74
:105044009414FF1F9C14FF1F9C14FF1FA414FF1F24
:10505400A414FF1FAC14FF1FAC14FF1FB414FF1FD4
:10506400B414FF1FBC14FF1FBC14FF1FC414FF1F84
:10507400C414FF1FCC14FF1FCC14FF1FD414FF1F34
:10508400D414FF1FDC14FF1FDC14FF1FE414FF1FE4
:10509400E414FF1FEC14FF1FEC14FF1FF414FF1F94
:1050A400F414FF1FFC14FF1FFC14FF1F0415FF1F43
:1050B4000415FF1F0C15FF1F0C15FF1F1415FF1FF0
:1050C4001415FF1F1C15FF1F1C15FF1F2415FF1FA0
:1050D4002415FF1F2C15FF1F2C15FF1F3415FF1F50
:1050E4003415FF1F3C15FF1F3C15FF1F4415FF1F00
:1050F4004415FF1F4C15FF1F4C15FF1F5415FF1FB0
:105104005415FF1F5C15FF1F5C15FF1F6415FF1F5F
:105114006415FF1F6C15FF1F6C15FF1F7415FF1F0F
:105124007415FF1F7C15FF1F7C15FF1F0000020074
:04513400FFFFFFFF7B
:00000001FF
