:1000000000000320D1010000594600001146000005
:100010001146000011460000114600001146000084
:10002000114600001146000011460000594600002C
:100030005946000011460000E54B0000E94C000065
:100040005946000059460000594600005946000034
:100050005946000059460000594600005946000024
:100060005946000059460000594600005946000014
:100070005946000059460000594600005946000004
:1000800059460000594600005946000059460000F4
:1000900059460000594600005946000059460000E4
:1000A00059460000594600005946000059460000D4
:1000B00059460000594600005946000025470000F7
:1000C000594600000D44000059460000254A000032
:1000D00059460000394500005946000059460000C5
:1000E0005946000059460000594600005946000094
:1000F0005946000059460000594600005946000084
:100100005946000059460000594600005946000073
:1001100059460000B136000059460000594600001B
:100120005946000059460000594600005946000053
:100130005946000059460000594600005946000043
:10014000594600005946000015430000594600007A
:100150005946000059460000594600005946000023
:100160005946000059460000594600005946000013
:100170005946000059460000594600005946000003
:1001800059460000594600005946000059460000F3
:1001900059460000594600005148000059460000E9
:1001A00059460000594600005946000059460000D3
:1001B00059460000594600005946000059460000C3
:1001C00059460000594600005946000059460000B3
:1001D0005C4B4CF2205210B51A804DF628121A8052
:1001E00000BF00BF04F03CFA574B4FF030621A607A
:1001F000564A9A60564ADA60564B4FF470021A60BB
:10020000554B564A1A60564A136813F4807304D14A
:1002100054490B604FF4A8531360534B1A781107DD
:1002200003D51A7842F008021A70504B5049AA229E
:100230001A70504A504B8B4204D252F8040F43F8C4
:10024000040BF8E74D4B4E4900228B4202D243F893
:10025000042BFAE74B494C4A002352F8230041F89B
:1002600023000133742BF8D1484B494A802103F80D
:10027000011B9342FBD1474B424A1A60464B8A22EC
:100280001A70A3F5805324225A70A0221A709A790A
:100290009207FCD59A79D406FCD4404A937903F0AE
:1002A0000C03082BFAD13E4B60221A7002331A78E5
:1002B000802AFCD1394B01221A715D225A719A7938
:1002C0009006FCD59979354A4906FBD5354B364918
:1002D00019600021596020231370937903F00C03F7
:1002E0000C2BFAD1314B324A1A60324B324A1A6027
:1002F00000225A60072243F8042C304AC3F80C2D20
:1003000062B602F049FD174B1B68DA0705D52C4889
:1003100002F0C4FC2B4B2C4A1A602C4B1B785B065A
:1003200009D5284C284B22689A4204D1244802F06F
:10033000B5FC0023236004F0E5FC04F097F903F01A
:10034000CDFFFEE70E20054030800440823F0400D0
:100350000100002B88ED00E0002008E0030000858C
:1003600010D0034014D0034002D0074000E0074003
:10037000BC15FF1FB4590000400CFF1FBC15FF1F28
:10038000F41EFF1F0002FF1F0000000000E400E059
:1003900064E400E008ED00E0005006400040064044
:1003A00001E007404480044000000602048004404D
:1003B000C010070014E000E01FBF02000000202072
:1003C000310000001CE00340A5C3945A00F0074030
:1003D000FFFFFFFFFFFFFFFFFFFFFFFFFFFFFFFF2D
:1003E000FFFFFFFFFFFFFFFFFFFFFFFFFFFFFFFF1D
:1003F000FFFFFFFFFFFFFFFFFFFFFFFFFFFFFFFF0D
:10040000FFFFFFFFFFFFFFFFFFFFFFFFDEF9FFFF23
:1004100010B5054C237833B9044B13B10448AFF33E
:1004200000800123237010BDBC15FF1F00000000D9
:10043000B8590000084B10B51BB108490848AFF384
:1004400000800848036803B910BD074B002BFBD0A0
:10045000BDE81040184700BF00000000C015FF1F96
:10046000B8590000BC15FF1F0000000038B5044655
:1004700000234B2580E80600C8B22374E560012103
:1004800002F032FC2078217902F01AFC204638BDB7
:1004900070B5057882B0044628460E4602F016FC78
:1004A000B0FA80F14909284602F00AFC044B666163
:1004B0001B680193019BA3600122227402B070BDEE
:1004C000FC18FF1F704700BF2DE9F0470020DEB089
:1004D00002F0A0FD002840F09C85AD4CAD4E96F892
:1004E000340002F0F3FB01280746306296F82450EE
:1004F00000F08A86BD4200F0838523684193419BCA
:10050000736122684092409ADFF884829A420ED04A
:100510007368A04D9F420AD0D8F800303F933F9BAC
:10052000A96A2A6B6F605B1A9342C0F07D842FB971
:1005300096F82430974D012B00F08183964D86F874
:10054000247095F8340002F0C1FB012807462862A8
:1005500095F8246000F00B86BE4200F057852368B2
:100560003993399B6B6122683892389ADFF8208280
:100570009A420ED06B68884E9F420AD0D8F800305D
:100580003793379BB16A326B77605B1A9342C0F046
:1005900003842FB995F824307F4E012B00F064833B
:1005A0007E4E85F8247096F8340002F08FFB012807
:1005B0000746306296F8245000F04085BD4200F0B6
:1005C000198523683193319B736122683092309A88
:1005D000DFF8BC819A420ED07368704D9F420AD0FA
:1005E000D8F800302F932F9BA96A2A6B6F605B1A93
:1005F0009342C0F0F5832FB996F82430674D012B54
:1006000000F04783664D86F8247095F8340002F0B8
:100610005DFB01280746286295F8246000F09F865C
:10062000BE4200F0D48423682993299B6B61226821
:100630002892289ADFF858819A420ED06B68584E5B
:10064000BB420AD0D8F800302793279BB16A326B9F
:1006500077605B1A9342C0F00B842FB995F8243071
:100660004F4E012B00F02A834E4E85F8247096F8E9
:10067000340002F02BFB01280746306296F8245024
:1006800000F02086BD4200F0B88423682193219BAE
:10069000736122682092209ADFF8F4809A420ED08B
:1006A0007368404D9F420AD0D8F800301F931F9BBB
:1006B000A96A2A6B6F605B1A9342C0F04A832FB914
:1006C00096F82430374D012B00F08781364D86F89F
:1006D000247095F8340002F0F9FA012806462862E1
:1006E00095F8247000F0F684B74200F08C842368FB
:1006F0001993199B6B6122681892189ADFF8908001
:100700009A420ED06B68284F9E420AD0D8F800302B
:100710001793179BB96A3A6B7E605B1A9342C0F0DD
:10072000F5822EB995F824301F4F012B00F08281FD
:100730001E4F85F824603B7C002B00F096812368D7
:100740001493149BB968FA68114E5B1A9A42C0F070
:10075000CA83174D2B7C002B00F0AF8123681193C7
:10076000119BA968EA680A4F5B1A9A42C0F0178485
:10077000104D2B7C002B00F0C88123680E930E9B3C
:10078000A968EA68024F5B1A9A42C0F0F18313E04D
:10079000FC18FF1F0C16FF1F4416FF1F7C16FF1FBF
:1007A000B416FF1FEC16FF1F2417FF1F8418FF1F2E
:1007B0009C18FF1FB418FF1F924D2B7C002B00F0DC
:1007C000CC8123680B930B9BA968EA688E4F5B1A58
:1007D0009A42C0F0B6838D4D2B7C002B00F0E58152
:1007E00023680893089BA968EA68874F5B1A9A42B6
:1007F000C0F09083864D2B7C002B00F0FE81236897
:100800000593059BA968EA687F4F5B1A9A42C0F07E
:100810005383804C207802F061F9A36860609842AD
:1008200024D0C31A002BB8BF5B420A2B1EDD237EE7
:10083000042B00F0B086784B1B78012B01F0A280CE
:10084000002B00F00586022B0FD12269E1686FF0C2
:10085000150303FB00F3002B02EB8102B8BF03F288
:10086000FF3352689B1218331361A0606B4C2078E1
:1008700002F034F9A3686060984224D0C31A002BB8
:10088000B8BF5B420A2B1EDD237E042B00F092864C
:10089000614B1B78012B01F06680002B00F0F8857E
:1008A000022B0FD12269E1686FF0150303FB00F3FF
:1008B000002B02EB8102B8BF03F2FF3352689B1298
:1008C00018331361A060564C207802F007F9A36832
:1008D0006060984224D0C31A002BB8BF5B420A2B39
:1008E0001EDD237E042B00F074864B4B1B78012BFE
:1008F00001F01B80002B00F09B85022B0FD1226999
:10090000E1686FF0150303FB00F3002B02EB81029B
:10091000B8BF03F2FF3352689B1218331361A06013
:10092000404C207802F0DAF8A3686060984224D046
:10093000C31A002BB8BF5B420A2B1EDD237E042B9B
:1009400000F01A86344B1B78012B00F0FD87002B3A
:1009500000F0AE85022B0FD12269E1686FF015031C
:1009600003FB00F3002B02EB8102B8BF03F2FF335D
:1009700052689B1218331361A0602B4C207802F050
:10098000ADF8A3686060984224D0C31A002BB8BFAA
:100990005B420A2B1EDD237E042B00F029861E4BB2
:1009A0001B78012B00F0FD87002B00F06185022BE6
:1009B0000FD12269E1686FF0150303FB00F3002BF0
:1009C00002EB8102B8BF03F2FF3352689B12183367
:1009D0001361A0605EB0BDE8F08723681E931E9B84
:1009E000A96A2A6B5B1A9342FFF470AE09210F4883
:1009F00001F05EFE0E4803F015FCEB6983F82E70E3
:100A00002F6A63E6CC18FF1FFC18FF1FD815FF1FC5
:100A1000F015FF1FE417FF1F8018FF1F0018FF1FAE
:100A20001C18FF1F3818FF1F5418FF1FAC5600007A
:100A3000700CFF1F23681693169BB96A3A6B5B1AFA
:100A40009342FFF475AE0921A74801F031FEA74893
:100A500003F0E8FBFB6983F82E603E6AA44F85F83B
:100A600024603B7C002B7FF46AAE7E69A04D002E93
:100A70007FF76FAE23681393139BA968EA68DFF8CA
:100A800088825B1A9A42BFF464AE2F78384602F02F
:100A90001DF9B0FA80F14909384602F011F9D8F889
:100AA00000305893023E0123589A2B746E61AA605D
:100AB000904D2B7C002B7FF451AE6E698D4D002E36
:100AC0007FF756AE23681093109BA968EA68DFF899
:100AD00038825B1A9A42BFF44BAE2F78384602F048
:100AE000F5F8B0FA80F14909384602F0E9F8D8F88B
:100AF00000305993023E0123599A2B746E61AA600B
:100B00007D4D2B7C002B7FF438AE6E697A4D002E24
:100B10007FF752AE23680D930D9BA968EA68DFF852
:100B2000E8815B1A9A42BFF447AE2F78384602F04C
:100B3000CDF8B0FA80F14909384602F0C1F8D8F88A
:100B400000305A93023E01235A9A2B746E61AA60B8
:100B50006A4D2B7C002B7FF434AE6E69674D002EFE
:100B60007FF739AE23680A930A9BA968EA68DFF821
:100B700098815B1A9A42BFF42EAE2F78384602F065
:100B8000A5F8B0FA80F14909384602F099F8D8F88A
:100B900000305B93023E01235B9A2B746E61AA6066
:100BA000574D2B7C002B7FF41BAE6E69544D002EED
:100BB0007FF720AE23680793079BA968EA68DFF8F0
:100BC00048815B1A9A42BFF415AE2F78384602F07E
:100BD0007DF8B0FA80F14909384602F071F8D8F88A
:100BE00000305C93023E01235C9A2B746E61AA6014
:100BF000444D2B7C002B7FF402AE6E69414D002EDC
:100C00007FF707AE23680493049BA968EA683E4F08
:100C10005B1A9A42BFF4FDAD2C78204602F056F8DC
:100C2000B0FA80F14909204602F04AF83B685D932A
:100C3000023E5D9A6E610123AA602B74E9E5236888
:100C40003E933E9BA96A2A6B5B1A9342FFF476ACF3
:100C50000921254801F02CFD244803F0E3FAEB6953
:100C600083F82E702F6A69E423683693369BB16A45
:100C7000326B5B1A9342FFF493AC09211A4801F0DE
:100C800017FD1A4803F0CEFAF36983F82E70376A1D
:100C900086E423682E932E9BA96A2A6B5B1A9342E3
:100CA000FFF4B0AC0921104801F002FD0F4803F039
:100CB000B9FAEB6983F82E702F6AA3E423682693B0
:100CC000269BB16A326B5B1A9342FFF4CDAC0921CB
:100CD000054801F0EDFC054803F0A4FAF36983F838
:100CE0002E70376AC0E400BFAC560000700CFF1FC6
:100CF0008418FF1F9C18FF1FB418FF1FCC18FF1F7C
:100D0000D815FF1FF015FF1FFC18FF1FFB69B14826
:100D10005E6B072101F0CCFCAF4803F083FA7B68DF
:100D2000ABB93B7C002B00F0B184D7F81C9099F84C
:100D30002E30002B01F084807168012901DD01391A
:100D40007160A54803F0BEFAA34803F06BFA2E6A5F
:100D5000E7E4EB699F485F6B072101F0A9FC9E481F
:100D600003F060FA6B68ABB92B7C002B00F07D843C
:100D7000D5F81C9099F82E30002B01F096807968F8
:100D8000012901DD01397960934803F09BFA92480B
:100D900003F048FA376A92E4F3698E485F6B0721E3
:100DA00001F086FC8C4803F03DFA7368ABB9337CE4
:100DB000002B00F07C84D6F81C9099F82E30002B84
:100DC00001F009807968012901DD013979608248E3
:100DD00003F078FA804803F025FA2F6AFFF7D9BBB1
:100DE000EB697C485F6B072101F062FC7A4803F0F5
:100DF00019FA6B68ABB92B7C002B00F06984D5F82D
:100E00001C9099F82E30002B00F046877968012954
:100E100001DD01397960704803F054FA6E4803F03F
:100E200001FA376AFFF7E7BBEB696A485F6B072196
:100E300001F03EFC684803F0F5F96B68ABB92B7C18
:100E4000002B00F00184D5F81C9099F82E30002B6F
:100E500000F08C877968012901DD013979605E48ED
:100E600003F030FA5C4803F0DDF9376AFFF75FBB47
:100E7000F36958485F6B072101F01AFC564803F0EC
:100E8000D1F97368ABB9337C002B00F0C083D6F87E
:100E90001C9099F82E30002B00F0338779680129D7
:100EA00001DD013979604C4803F00CFA4A4803F03F
:100EB000B9F92F6AFFF7D1BB2E78304601F006FF53
:100EC000B0FA80F14909304601F0FAFE3B686E69DC
:100ED0000693069BAB60002E4FF000032B743F4D32
:100EE0003FF790AE95E43D78284601F0EFFEB0FA6A
:100EF00080F14909284601F0E3FE336815937E69C5
:100F0000159BBB60002E4FF000033B74344D3FF740
:100F1000B1AD1EE42E78304601F0D8FEB0FA80F173
:100F20004909304601F0CCFE3B686E690993099B84
:100F3000AB60002E4FF000032B742A4D3FF73AAE02
:100F400058E42E78304601F0C1FEB0FA80F149092C
:100F5000304601F0B5FE3B686E690C930C9BAB60AC
:100F6000002E4FF000032B741F4D3FF7FBAD32E412
:100F70002E78304601F0AAFEB0FA80F149093046D9
:100F800001F09EFE3B686E690F930F9BAB60002ED5
:100F90004FF000032B74154D3FF7BCAD0CE42E78D9
:100FA000304601F093FEB0FA80F14909304601F075
:100FB00087FE3B686E691293129BAB60002E4FF068
:100FC00000032B740A4D3FF77DADFFF7D1BB6B6972
:100FD000FFF72DBB84560000700CFF1FF015FF1F9C
:100FE0008418FF1FD815FF1FCC18FF1FB418FF1F50
:100FF0009C18FF1F7369FFF7E8BA7369FFF749BBD5
:101000007369FFF77EBA6B69FFF775BB6B69FFF712
:10101000AABAA44B1B78FA2B00F06B83FC2B00F0D0
:10102000EA81F82B00F0B08323219F489F4C01F008
:101030003FFB9F4803F0F6F8FFF750BA5DBB23680B
:101040003393339BB26ADFF864929B1AC82B7FF606
:10105000B8AAD6F81880D9F8003098F800A03593CF
:10106000359BB362504601F031FEB0FA80F1490978
:10107000504601F025FED9F80030C8F814504C93C2
:10108000336A4C9A88F81070C8F80820012B96F83B
:10109000245041F0FF80012D7FF490AA2368329301
:1010A000329BB16A326BDFF80C8280485B1A934244
:1010B000A0D9D8F81C300268349293F82E203499C5
:1010C000C8F82C10002A00F04982012283F82E2053
:1010D000FFF774BA5FBB23681B931B9BAA6ADFF8F8
:1010E000CC919B1AC82B7FF602ABD5F81880D9F8A3
:1010F000003098F800A01D931D9BAB62504601F094
:10110000E5FDB0FA80F14909504601F0D9FDD9F862
:101110000030C8F8147055932B6A559A88F81060FF
:10112000C8F80820012B95F8247041F0B680012FF3
:101130007FF4DAAA23681A931A9BA96A2A6BDFF84C
:1011400078815A485B1A93427FF65DAFD8F81C301D
:1011500002681C9293F82E201C99C8F82C10002AC3
:1011600000F0EE81012283F82E20FFF7BDBA5EBBAE
:1011700023683B933B9BAA6ADFF830919B1AC82BEC
:101180007FF6EDA9D5F81880D9F8003098F800A0BE
:101190003D933D9BAB62504601F098FDB0FA80F163
:1011A0004909504601F08CFDD9F80030C8F81460A8
:1011B00049932B6A499A88F81070C8F80820012BC7
:1011C00095F8246041F06080012E7FF4C5A9236862
:1011D0003A933A9BA96A2A6BDFF8E08033485B1A9E
:1011E00093427FF613AFD8F81C3002683C9293F814
:1011F0002E203C99C8F82C10002A00F0938101227F
:1012000083F82E20FFF7A8B95DBB23684393439B67
:10121000B26ADFF898909B1AC82B7FF66EA9D6F8B1
:101220001880D9F8003098F800A04593459BB36228
:10123000504601F04BFDB0FA80F14909504601F0EB
:101240003FFDD9F80030C8F814504693336A469AE7
:1012500088F81070C8F80820012B96F8245041F047
:101260001680012D7FF446A923684293429BB16A00
:10127000326BDFF84C800D485B1A93427FF6C0AEAC
:10128000D8F81C300268449293F82E204499C8F88C
:101290002C10002A00F03881012283F82E20FFF75D
:1012A00029B900BFB81DFF1F58560000FC18FF1FCA
:1012B000700CFF1F7C16FF1F2417FF1F4416FF1F13
:1012C0000C16FF1F5DBB23682393239BB26ADFF8D4
:1012D00060939B1AC82B7FF6D8A9D6F81880D9F846
:1012E000003098F800A02593259BB362504601F08A
:1012F000EDFCB0FA80F14909504601F0E1FCD9F863
:101300000030C8F814505293336A529A88F810701B
:10131000C8F80820012B96F8245040F0AF87012D23
:101320007FF4B0A923682293229BB16A326BDFF865
:101330001083BF485B1A93427FF65FAED8F81C302B
:101340000268249293F82E202499C8F82C10002AC1
:1013500000F0CC80012283F82E20FFF793B95EBB0A
:1013600023682B932B9BAA6ADFF8C4929B1AC82B85
:101370007FF659A9D5F81880D9F8003098F800A060
:101380002D932D9BAB62504601F0A0FCB0FA80F18A
:101390004909504601F094FCD9F80030C8F81460AF
:1013A0004F932B6A4F9A88F81070C8F80820012BC9
:1013B00095F8246040F06587012E7FF431A92368F9
:1013C0002A932A9BA96A2A6BDFF8788298485B1ACD
:1013D00093427FF6FCADD8F81C3002682C9293F84B
:1013E0002E202C99C8F82C10002A71D0012283F8E5
:1013F0002E20FFF715B98F4AD16800238C6A9360BD
:1014000013700B6061682078B1FA81F1490961605D
:1014100001F056FC237C002B3FF45FA86168207824
:10142000834CB1FA81F1490901F04AFCFFF756B843
:101430002369E26803EB8202A0EB80039B0048BFB4
:1014400003F2FF3352689B1233339360FFF767BA9E
:101450002369E26803EB8202A0EB80039B0048BF94
:1014600003F2FF3352689B1233339360FFF7FDB9E9
:101470002369E26803EB8202A0EB80039B0048BF74
:1014800003F2FF3352689B1233339360FFF7A1BA24
:101490002369E26803EB8202A0EB80039B0048BF54
:1014A00003F2FF3352689B1233339360FFF70ABA9B
:1014B0002369E26803EB8202A0EB80039B0048BF34
:1014C00003F2FF3352689B1233339360FFF754BA31
:1014D0000621594801F0ECF8584802F0A3FED8F86C
:1014E0001C30D8F8207098F824607FE70621524815
:1014F00001F0DEF8514802F095FED8F81C30D8F81B
:10150000207098F8245025E706214B4801F0D0F8C8
:101510004A4802F087FED8F81C30D8F8207098F8B6
:101520002450B9E60621444801F0C2F8434802F0CD
:1015300079FED8F81C30D8F8207098F824605EE660
:1015400006213D4801F0B4F83C4802F06BFED8F8A3
:101550001C30D8F8206098F8247003E6062136483D
:1015600001F0A6F8354802F05DFED8F81C30D8F836
:10157000207098F82450A8E5B0F5C87F636980F220
:1015800060829A680621052A596001DD00229A606E
:101590006068FFF7F1B9B0F5C87F636980F2338204
:1015A0009A680621052A596001DD00229A60606868
:1015B000FFF75BB9B0F5C87F636980F215829A685E
:1015C0000621052A596001DD00229A606068FFF754
:1015D00079B9B0F5C87F636980F224829A680621E0
:1015E000052A596001DD00229A606068FFF797B90B
:1015F000B0F5C87F636980F2E3819A680621052A05
:10160000596001DD00229A606068FFF7E2B9737CDF
:10161000002B00F0FA80F36993F82E30002B00F0D5
:10162000CC8279680329DCBF013179603BE400BFDB
:10163000FC18FF1F7018FF1F7C560000700CFF1F66
:10164000EC16FF1FB416FF1F6B7C002B00F00D8102
:10165000EB6993F82E30002B00F093827968032910
:10166000DCBF01317960FFF7FABB6B7C002B00F027
:101670002C81EB6993F82E30002B00F0668279689C
:101680000329DCBF01317960FFF77EBB7B7C002B37
:1016900000F00381FB6993F82E30002B00F0C58227
:1016A00071680329DCBF01317160FFF74ABB737CAD
:1016B000002B00F02281F36993F82E30002B00F00C
:1016C000988279680329DCBF01317960FFF77FBB1D
:1016D0006B7C002B00F0B180EB6993F82E30002B6F
:1016E00000F0178279680329DCBF01317960FFF7C8
:1016F00092BBBB4DBB4CEE68336806EB83034FF0E7
:1017000001095F6985F8009097F800A04FF0000884
:101710005046C5F8088001F0D9FAB0FA80F14909BD
:10172000504601F0CDFA33682168039106EB83023D
:101730000398526887F810901179C7F81480B86040
:10174000002940F0938296F82D20002A00F088812D
:101750005A1E002B00F09D823260EB689D6A69681A
:101760002878B1FA81F14909696001F0A9FA2B7C66
:10177000002B3EF4B3AE69682878B1FA81F14909CB
:1017800001F09EFAFEF7AABE954DEA68AB681168B3
:1017900002EB810201335268AB601269934280F21E
:1017A00060826A688E499A427EF497AECE688D4C0C
:1017B000336806EB83035F6997F80080404601F0C9
:1017C00085FAB0FA80F14909404601F079FA3368A8
:1017D0002068029006EB83020121526839740021CF
:1017E000796111790298B860002940F0978396F8E2
:1017F0002D20002A40F08E830133032BC8BF002325
:1018000033600023AB60FEF769BEB669716830785B
:10181000B1FA81F14909716001F052FA337C002B71
:1018200040F06F81EB692A682F6A53F82220137900
:1018300083F001031371FEF710BFAD696968287862
:10184000B1FA81F14909696001F03AFA2B7C002B69
:1018500040F04F81F3693268376A53F822201379D8
:1018600083F001031371FEF7C6BEAD69696828787D
:10187000B1FA81F14909696001F022FA2B7C002B51
:1018800040F02F81F3693268376A53F822201379C8
:1018900083F001031371FEF74ABEBE6971683078A8
:1018A000B1FA81F14909716001F00AFA337C002B29
:1018B00040F00F81EB692A682E6A53F822201379D1
:1018C00083F001031371FEF72CBFAD6969682878B6
:1018D000B1FA81F14909696001F0F2F92B7C002B22
:1018E00040F0EF80F3693268376A53F822201379A9
:1018F00083F001031371FEF7E2BEB66971683078B8
:10190000B1FA81F14909716001F0DAF9337C002BF9
:1019100040F0CF80EB692A682F6A53F822201379B0
:1019200083F001031371FEF734BEE268236903EB11
:1019300082035A68B0EB801348BF03F2FF339B1257
:101940007F33D360FEF7EBBFE268236903EB8203CA
:101950005A68B0EB801348BF03F2FF339B127F330A
:10196000D360FFF709B8E268236903EB82035A6882
:10197000B0EB801348BF03F2FF339B127F33D36079
:10198000FEF7A0BFE268236903EB82035A68B0EB5D
:10199000801348BF03F2FF339B127F33D360FEF7FF
:1019A00064BFE268236903EB82035A68B0EB8013DB
:1019B00048BF03F2FF339B127F33D360FFF709B8B0
:1019C000A0F5C872B2F5C87F6CD3A0F54872DF2AC3
:1019D0003EF6FFAF0A225A606068FEF7FABF00BF0A
:1019E0007018FF1FFC18FF1FA0F5C872B2F5C87F62
:1019F00051D3A0F54872DF2A3EF664AF0A225A603E
:101A00006068FEF75FBFA0F5C872B2F5C87F3BD330
:101A1000A0F54872DF2A3EF628AF0A225A606068B5
:101A2000FEF723BFA0F5C872B2F5C87F25D3A0F595
:101A30004872DF2A3EF673AF0A225A606068FEF7EA
:101A40006EBFA0F5C872B2F5C87F0FD3A0F548727B
:101A5000DF2A3EF691AF0A225A606068FEF78CBF1B
:101A60000133032BC8BF0023336076E69A68082150
:101A7000072A59603FF78AAD8AE59A680821072A44
:101A800059603FF7B0ADB0E59A680821072A596060
:101A90003FF78BAD8BE59A680821072A59603FF71D
:101AA00093AD93E59A680821072A59603FF7AAADDC
:101AB000AAE571683078B1FA81F1490901F000F9BD
:101AC00028E769682878B1FA81F1490901F0F8F846
:101AD00008E771683078B1FA81F1490901F0F0F84E
:101AE000E8E669682878B1FA81F1490901F0E8F877
:101AF000C8E669682878B1FA81F1490901F0E0F88F
:101B0000A8E671683078B1FA81F1490901F0D8F896
:101B100088E6AD6969682878B1FA81F14909696098
:101B200001F0CEF82B7C33B169682878B1FA81F1E5
:101B3000490901F0C5F8F269376A92F82D3083F04F
:101B4000010382F82D30FEF756BDAD69696828782B
:101B5000B1FA81F14909696001F0B2F82B7C33B127
:101B600069682878B1FA81F1490901F0A9F8F269A8
:101B7000376A92F82D3083F0010382F82D30FEF79A
:101B80009EBDAD6969682878B1FA81F1490969603B
:101B900001F096F82B7C33B169682878B1FA81F1AD
:101BA000490901F08DF8F269376A92F82D3083F017
:101BB000010382F82D30FEF7BABCB669716830783F
:101BC000B1FA81F14909716001F07AF8337C33B1DF
:101BD00071683078B1FA81F1490901F071F8EA6968
:101BE0002F6A92F82D3083F0010382F82D30FEF732
:101BF00034BDB66971683078B1FA81F14909716014
:101C000001F05EF8337C33B171683078B1FA81F15C
:101C1000490901F055F8EA692F6A92F82D3083F0EE
:101C2000010382F82D30FEF7B4BCBE6971683078CC
:101C3000B1FA81F14909716001F042F8337C33B1A6
:101C400071683078B1FA81F1490901F039F8EA692F
:101C50002E6A92F82D3083F0010382F82D30FEF7C2
:101C600060BDB94801F072F9AB689AE59068D36835
:101C700000041B0603F0FE4300F4FE00184340F48A
:101C80001F4040F0090001F061F901F0ADF933683F
:101C900059E50323336060E5AC4F3A78002A00F041
:101CA000A981012A00F0B282022A7FF4BAA8052194
:101CB000A7483B70019300F0FBFCA64802F0B2FA83
:101CC000D9F8247097F800A0504600F0FFFFB0FA52
:101CD00080F14909504600F0F3FFD8F800204E92F9
:101CE000019BD9F824204E997B610120B96038749A
:101CF000014650601374107800F0E2FF2F6AFEF77F
:101D00007ABC924F3A78002A00F09B81012A00F0B9
:101D10009982022A7FF4CDA805218D483B7001935A
:101D200000F0C6FC8B4802F07DFAD9F8247097F8D1
:101D300000A0504600F0CAFFB0FA80F149095046B1
:101D400000F0BEFFD8F800205192019BD9F8242062
:101D500051997B610120B960387401465060137459
:101D6000107800F0ADFF376AFEF777BC774F3A780E
:101D7000002A00F01881012A00F02C82022A7FF448
:101D800074A8052172483B70019300F091FC7148E2
:101D900002F048FAD9F8247097F800A0504600F0F5
:101DA00095FFB0FA80F14909504600F089FFD8F854
:101DB00000204892019BD9F8242048997B6101209A
:101DC000B9603874014650601374107800F078FFE1
:101DD0002F6AFEF7ACBB5D4F3A78002A00F05881BD
:101DE000012A00F0A381022A7EF4F7AF05215848AA
:101DF0003B70019300F05CFC564802F013FAD9F8EE
:101E0000247097F800A0504600F060FFB0FA80F10F
:101E10004909504600F054FFD8F800204B92019B2E
:101E2000D9F824204B997B610120B96038740146B0
:101E300050601374107800F043FF376AFEF7A9BBB7
:101E4000424E3278002A00F08780012A00F0A681F5
:101E5000022A7EF47CAF05213D483370019300F0E7
:101E600027FC3C4802F0DEF9D9F8246096F800A07F
:101E7000504600F02BFFB0FA80F14909504600F0BF
:101E80001FFFD8F800205792019BD9F824205799BA
:101E900073610120B1603074014650601374107892
:101EA00000F00EFF3E6AFEF73CBC284F3A78002A4D
:101EB00000F01581012A00F05581022A7EF46AAFF4
:101EC000052123483B70019300F0F2FB214802F00A
:101ED000A9F9D9F8247097F800A0504600F0F6FE52
:101EE000B0FA80F14909504600F0EAFED8F8002027
:101EF0005492019BD9F8242054997B610120B96048
:101F00003874014650601374107800F0D9FE2F6ABF
:101F1000FEF7D5BB5A1EA3B1326072E49068D36855
:101F200000041B0603F0FE4300F4FE00184340F4D7
:101F30001F4040F0090001F009F801F055F833683E
:101F400055E4032333605CE40BBF7B7F8018FF1FE5
:101F5000A4560000700CFF1F08214FF0010AD04862
:101F600086F800A000F0A4FBCE4802F05BF9D9F897
:101F7000249099F80060304600F0A8FEB0FA80F195
:101F80004909304600F09CFED8F80030569340F2E4
:101F9000E733C9F81430569B3E6A89F810A0C9F897
:101FA0000830FEF7BEBB08214FF0010ABC4887F895
:101FB00000A000F07DFBBB4802F034F9D9F8249072
:101FC00099F80070384600F081FEB0FA80F14909B6
:101FD000384600F075FED8F80030479340F2E733FA
:101FE000C9F81430479B2F6A89F810A0C9F8083047
:101FF000FEF79DBA08214FF0010AA94887F800A012
:1020000000F056FBA74802F00DF9D9F8249099F892
:102010000070384600F05AFEB0FA80F1490938469F
:1020200000F04EFED8F800304D9340F2E733C9F887
:1020300014304D9B2F6A89F810A0C9F80830FEF7BC
:10204000DABA08214FF0010A954887F800A000F09D
:102050002FFB944802F0E6F8D9F8249099F8007024
:10206000384600F033FEB0FA80F14909384600F0F6
:1020700027FED8F80030509340F2E733C9F8143007
:10208000509B376A89F810A0C9F80830FEF7E5BA06
:1020900008214FF0010A824887F800A000F008FBF1
:1020A000804802F0BFF8D9F8249099F800703846BB
:1020B00000F00CFEB0FA80F14909384600F000FE4D
:1020C000D8F800304A9340F2E733C9F814304A9BFD
:1020D000376A89F810A0C9F80830FEF75ABA082103
:1020E0004FF0010A6E4887F800A000F0E1FA6D4851
:1020F00002F098F8D9F8249099F80070384600F06A
:10210000E5FDB0FA80F14909384600F0D9FDD8F86C
:102110000030539340F2E733C9F81430539B2F6AD1
:1021200089F810A0C9F80830FEF7C9BA02220A21BE
:102130005D483A70019300F0BBFA5A4802F072F819
:10214000019BD9F824001946FEF7A2F9D9F82420FA
:10215000019B137419465360107800F0B1FD376A83
:10216000FEF717BA02220A214F483A70019300F095
:102170009FFA4C4802F056F8019BD9F82400194602
:10218000FEF786F9D9F82420019B13741946536091
:10219000107800F095FD2F6AFEF791BA02220A210D
:1021A00041483270019300F083FA3E4802F03AF859
:1021B000019BD9F824001946FEF76AF9D9F82420C2
:1021C000019B137419465360107800F079FD3E6A44
:1021D000FEF7A7BA02220A2133483A70019300F0B1
:1021E00067FA304802F01EF8019BD9F8240019461E
:1021F000FEF74EF9D9F82420019B13741946536059
:10220000107800F05DFD2F6AFEF791B902220A21D5
:1022100025483A70019300F04BFA224802F002F888
:10222000019BD9F824001946FEF732F9D9F8242089
:10223000019B137419465360107800F041FD2F6A1A
:10224000FEF7D9B902220A2117483A70019300F02B
:102250002FFA144801F0E6FF019BD9F82400194633
:10226000FEF716F9D9F82420019B13741946536020
:10227000107800F025FD376AFEF7EFB91F46FEF72C
:1022800001BA1F46FEF7CCB91F46FEF765B91F46D7
:10229000FEF730B91F46FEF791B91E46FEF724BA85
:1022A0008C560000700CFF1F985600002DE9F04F6F
:1022B000002283B00321AF48AF4CB04FFEF7D6F8F1
:1022C00000220521AE48FEF7D1F800220721AD48D3
:1022D000FEF7CCF800220921AB48FEF7C7F8002230
:1022E0000B21AA48FEF7C2F800221821A848FEF7E1
:1022F000BDF8A84AA84BDFF8E0E2C2F800E064208D
:10230000002626250421D060167195601161A34A2C
:10231000D860C3F800E01E719D601961A04BD060C9
:10232000C2F800E01671956011610122D860C3F80F
:1023300000E01E719D601961226304F1100304F135
:1023400028003A4652F8041B43F8041F9842F9D17A
:10235000944B93E82100002299686060DB68A560D7
:102360000820E1602361226084F82C2084F82D206D
:1023700001F0BEFF656A60636B680246B3FA83F3DF
:102380005B0901212878516019466B6000F098FCC8
:102390002B7C33B169682878B1FA81F1490900F0E2
:1023A0008FFCA56A69682878B1FA81F149096960EA
:1023B00000F086FC2B7C33B169682878B1FA81F192
:1023C000490900F07DFC0F217748784E00F070F944
:1023D000774801F027FF636B7548596801F072FF79
:1023E0007348002501F01EFF4FF0020A714AB560E4
:1023F00018234FF47A784FF0010B2946504673604A
:102400003B6835704FF0040982F82450D46115748C
:1024100055749361C2F800B0C2F834A0C2F830809D
:10242000F46000F061FC644A7B6882F8245029461D
:102430004846D461C2F800A015745574C2F83080C3
:102440009361C2F8349000F04FFC5C4ABB68936122
:102450004FF0030C2946062082F82450D4611574ED
:102460005574C2F83080C2F800C0CDF804C0506383
:1024700000F03AFC524AF86890614FF0080C294687
:10248000604682F82450D461C2F8009015745574E7
:10249000C2F83080C2F834C000F026FC494A3869DE
:1024A00090614FF00A0C0520294610606046C2F882
:1024B00034C082F82450D46182F810B05574C2F848
:1024C000308000F011FCDFF814E17F69CEF818705D
:1024D0000C223D4FCEF81C40062310462946CEF86C
:1024E00000308EF824508EF810508EF811B0CEF8CF
:1024F0003080CEF8342000F0F7FBDFF8E4E033481A
:102500003349344A8EF818504FF00F0C4FF00E0834
:1025100087F800C0DDF804C0CEF80C508EF80080BB
:10252000CEF81460CEF8104010254FF011084FF08F
:10253000120E7E613C6187F818B0C7F80CB0466196
:10254000046180F818A0C0F80CA005704E610C6101
:1025500081F818C0C1F80CC081F800805661146180
:1025600082F81890C2F80C9082F800E003B0BDE841
:10257000F08F00BF8418FF1F5C17FF1F500CFF1F58
:102580009C18FF1FB418FF1FCC18FF1FD815FF1F82
:10259000F015FF1F9417FF1FA817FF1FBC17FF1F81
:1025A000D017FF1F400CFF1FB85600007018FF1F08
:1025B000700CFF1F0C16FF1F4416FF1F7C16FF1F19
:1025C000B416FF1FEC16FF1F0018FF1F1C18FF1F7B
:1025D0003818FF1F5418FF1F0816FF1F2417FF1F6E
:1025E000E417FF1F38B50F4D286878B1438802887B
:1025F000C118013393420C7A02D24380204638BD81
:1026000000F046FF002320462B6038BD064B1B78A8
:102610002BB1022000F062FF28600028E6D14FF0C5
:10262000FF3038BDF018FF1F501AFF1F10B5094CBE
:10263000206818B143881844007A10BD064B1B78F7
:102640002BB1022000F04AFF20600028F2D14FF0A9
:10265000FF3010BDF018FF1F501AFF1F044B054A32
:102660001B6850881BB11A885B88D31A18447047BE
:10267000F018FF1FE41EFF1F0B4B1B789BB110B51A
:102680000A4C206848B100F003FF002302202360B9
:1026900000F024FF30B100F0FBFE022000F01EFF2E
:1026A0000028F8D110BD7047501AFF1FF018FF1F07
:1026B0002DE9F04FDFF8F89083B0012289F800206F
:1026C000019169B3DFF8EC80354F019E8346D8F85D
:1026D0000000B0B3334D4488C4F14001B14228BF7B
:1026E000314604EB010E00221FFA8EFE2A70761A84
:1026F000A0F802E000F1080251B1013C2244594423
:102700001BF8014B02F8014F8B45F9D1B0F802E0FC
:10271000BEF13F0F0BD8244A05211170002ED6D1EF
:102720000198002389F8003003B0BDE8F08F402203
:1027300002800146032000F079FF0022C8F8002043
:10274000E9E73A7822B3194C164D4FF0010A07E039
:10275000013C16D02A78A2B901F0EAFC3A78BAB165
:10276000032000F0D9FE0728F2D889F800A000F075
:102770006FFEC8F800000028ADD10D4B013C187069
:10278000E8D101234FF0FF302B7003B0BDE8F08F8C
:1027900000234FF0FF3089F8003003B0BDE8F08F20
:1027A000501AFF1FEC18FF1FE418FF1F21480100FB
:1027B000E518FF1FE818FF1F00B583B002AB012129
:1027C00003F8010D1846FFF773FF03B05DF804FB33
:1027D00038B50E4D0E4C28680123237028B140886F
:1027E00000232370C0F1400038BD0A4B1B7813B999
:1027F0000020207038BD032000F08EFE0728F7D897
:1028000000F026FE28600028E9D1F1E7E818FF1F54
:10281000E518FF1F501AFF1FF8B5114B1B788BB13D
:10282000104E114D346801272F7064B10F4A638830
:102830000027177021462380032000F0F7FE376041
:1028400000232B70F8BD00F003FE084B28B10146B1
:1028500003201C7000F0EAFEF2E71F70F0E700BFF3
:10286000501AFF1FE818FF1FE518FF1FE418FF1F8D
:1028700038B50E4B1B7873B90D4C216861B103F06C
:10288000FF054B880B80032000F0D0FE256038BD8B
:10289000084B01221A7038BD00F0DAFD0028F7D08D
:1028A0000146BDE83840032000F0C0BEE518FF1F18
:1028B000E818FF1FE418FF1F374A384913681B0642
:1028C000FCD40B6813F08003F8D172B634490A784F
:1028D000002A5FD0334A3448F0B4344C1768066895
:1028E0002568D4680C303E44143200681268304FBA
:1028F00035442C4420440244C2F34E022D4E2E484F
:102900002E4D2F4C42F400423A60376806682D681D
:102910002C4A24680C303E44006812682A4F354423
:102920002C4420440244C2F34E02284E2848294D2C
:10293000294C42F400423A60376806682D68274AFD
:1029400024680C303E4400681268254F35442C44FE
:1029500020440244C2F34E02224E2348234D244C0D
:1029600042F400423A60376806682D68214A2468BC
:102970000C303E440068126835442C442044024424
:10298000C2F34E021C4842F4004202600B7062B671
:10299000F0BC704762B6704724B0034024B00B40CF
:1029A000F618FF1F38B003403CB0034040B003406E
:1029B0002CB0034058B003405CB0034060B003400B
:1029C00064B003406CB0034030B0034038B00B40FB
:1029D0003CB00B4040B00B4044B00B404CB00B40FF
:1029E0002CB00B4058B00B405CB00B4060B00B40BB
:1029F00064B00B406CB00B4030B00B4030B4294891
:102A0000294A2A4B2A4D6024E121047011701B7859
:102A1000284C082B30D00A2B2748284937D00C2BBC
:102A20000CBF35225D2212232A60236002600B60F6
:102A3000234B24491B78244ABBB101230B6013604C
:102A4000224B23491B78234A012B26D9042B0FD96B
:102A5000082B1ED9102B94BF862387230B6013608D
:102A60001D4B01221A7030BC70470B601360E7E702
:102A700084230B601360F3E700F58E200F490830C4
:102A8000212213232A60236002600B60D0E73922E1
:102A9000F7E785230B601360E2E780230B60136088
:102AA000DEE700BF0040074001400740680CFF1F01
:102AB00008B003400CB0034008B00B400CB00B4012
:102AC000F918FF1F20B0034020B00B40690CFF1F16
:102AD00024B0034024B00B40F618FF1F47282FD81E
:102AE000334B2DE9F0411E5CFF2E2BD0314B1B7870
:102AF000002B2AD132062CD472B62F4D2F4C2F46E4
:102B0000012326602B7062B672B623681B060CD4B4
:102B10003B781BB9F4E72B78002BF1D062B601F0BB
:102B200007FB72B623681806F5D5254B1B680022F3
:102B30002A7062B6234A107843FA00F0BDE8F081AB
:102B4000002070470020BDE8F081FFF7B5FE320697
:102B5000D2D572B61C4DDFF87C801C4C06F04007C5
:102B6000FFB206F03F06D8F80030DFB123F01003C3
:102B7000C8F8003001232660134A2B7062B672B683
:102B8000236819060CD413781BB9ECE72B78002BBB
:102B9000E9D062B601F0CCFA72B623681B06F5D50F
:102BA0000B4BC3E743F01003C8F80030E2E700BF67
:102BB000C8560000F618FF1FF818FF1F00B00340AA
:102BC00010B00340F518FF1FF718FF1F00B00B40AF
:102BD00010B00B400CB00B4010B4114B53F8302028
:102BE00092F8804234B1012379B182F880305DF8E7
:102BF000044B704703EBC0035B681A6851B922F0BD
:102C000002021A605DF8044B704782F800315DF8EB
:102C1000044B704742F003021A605DF8044B7047A2
:102C2000105700001C4A02EBC00301295B6811D059
:102C300004291BD052F83000002280F8802229B1EC
:102C4000022920D0032922D01A6070474FF48072E5
:102C50001A60704752F830004FF4A27280F8801268
:102C60001A601A6822F020021A60704752F8301079
:102C70004FF4A272012081F880021A601A6842F0B3
:102C800020021A60704740F203121A6070474FF436
:102C900081721A60704700BF1057000030B4054BB6
:102CA000054D064C002210211A602A602060196030
:102CB00030BC704714D0034004D0034000D0034020
:102CC0003F2801D8FFF788BF704700BF3F2806D8CC
:102CD000044B53F8303093F80002C0B27047002024
:102CE000704700BF105700003F2801D8FFF79ABF78
:102CF000704700BF2DE9F843054672B6224F234BBB
:102D0000234A1B683C68126862B6520102D5322B16
:102D100088BF0134B5B3C3F52F3303F21F331D4E03
:102D2000DFF86890DFF868809B084FF47A72A6FBA2
:102D3000031302FB04F404EB930472B6D9F80010F9
:102D40003A68D8F800E062B6C1F52F3303F21F33BA
:102D50009B08A6FB03031EF0806FC4EB93034FF4A4
:102D60007A7002D0322988BF013200FB0233B3F5FA
:102D70007A7F04D3013D05D004F57A74DDE701F0D4
:102D8000D7F9DAE7BDE8F883FC18FF1F18E000E088
:102D900004ED00E0176CC116F8B54E4B4E48DFF855
:102DA0005CC14E4C4E49DFF858E14E4E4E4D4F4FF0
:102DB0004FF000621A604FF080521A604FF00052DC
:102DC0001A604FF080421A604FF000421A600022F1
:102DD000026028234EF6FF70CCF80000CEF80030D9
:102DE00023600EF5012E0B6033602B6006F5002684
:102DF0003B6005F50025A36207F500278B6204F50B
:102E0000012401F5012106F6E87605F6E87507F5D7
:102E10007F6710310EF1100E203433602B60CEF836
:102E200000303B600B602360314CBB618B6109213A
:102E30002160A7F5002704F58054203F08343A604C
:102E40002060BB60E36047F8041C04F5FD2407F52F
:102E5000FE27043704F2FC7422603860A360FB6034
:102E600044F8041C083404F6FC74C7F8FC2F2060F6
:102E7000A4F5E124A4F2DC7433602B60C7F8F81FDA
:102E800021681C4841F40071216001681A4C0EF55C
:102E90007F4E0EF1E80E07F5883706F5803605F50A
:102EA000803541F000710160CEF8002047F6FF71D7
:102EB0000822396033602B602260FFF79FFD1920E4
:102EC000FFF718FF01F0CCF840F21310BDE8F8400E
:102ED000FFF710BF04E100E00480034014800340CA
:102EE0001C800340248003402C8003403480034036
:102EF000008003400480044000900C4008800340A0
:102F00000C80034038B50E4B0E4C1B6821880546DB
:102F10008BB1B1F5917F05D20B4A4B1C55549BB236
:102F2000238038BD0022084898470021064A55549E
:102F30000123238038BDB1F5917FEDD338BD00BFAB
:102F40002419FF1FBA1DFF1FC01DFF1F2DE9F843E5
:102F5000214E224F3168012380463B70B1B1204D94
:102F60004B8801EB8302013300240F2BC2F8088049
:102F70002C7004D84B8000233B70BDE8F8834023BD
:102F80000B80042000F052FB3460F4E7DFF854902B
:102F900099F80030002BF0D0114D4BF6813408E049
:102FA000013C12D02B7883B901F0C2F899F80030B7
:102FB0007BB1042000F0B0FA0528F1D800F048FAFF
:102FC000014630600028EBD0CAE701232B70BDE832
:102FD000F883BDE8F88300BF4019FF1F1419FF1FD5
:102FE0004419FF1F501AFF1F38B5084B1C7824B92D
:102FF000074D296809B14B8803B938BD9B000B8088
:10300000042000F013FB2C6038BD00BF1419FF1F13
:103010004019FF1F2DE9F041AD4E33680746002BE4
:1030200000F092801D885A88910803EB81010432D8
:10303000AA428C6842D25A8004F00F064FEA142844
:10304000A449A6F1080208F00F00C4F30313062AEE
:1030500000F101050B701AD9B31E012B5FFA88F03D
:103060004ED9052E48D0042E00F0A481731F022BE8
:103070007FD90F2E0ED1F72842D8F02802D0964BD8
:103080001B883BB1FFF73EFF0020BDE8F08127B170
:10309000BD4202D00020BDE8F081082EC4F3033306
:1030A00000F08780092E11D00A2E40F094800A2B60
:1030B000F0D18A4B8A4A1B68A02181E0184600F0B3
:1030C000E7F9052000F00AFA3060B5E7092BE1D1F5
:1030D000270E00F07B81834B814A1B689021C4F34B
:1030E00007461170EDB2FCB2002B00F09D80224625
:1030F00031462846984797E0F02843D9F72841D031
:10310000F1380E28C6D801A353F820F0C3320000CE
:10311000A732000095320000953000009530000085
:1031200087320000953000006733000095300000C2
:10313000313300004B3300006F3200009530000047
:10314000573200003B320000674B1B78002BA1D0A8
:10315000052000F0C3F90346306000289AD00588A6
:10316000002D7FF460AF00F093F935602846BDE88C
:10317000F081FFF7C7FEC4F30740FFF7C3FE072E39
:1031800002D1200EFFF7BEFE534B584A198858480B
:103190001468584D524A017000270E0AF0201F8013
:1031A0002E7010700CB301225348A0470120BDE8D7
:1031B000F081082B7FF46EAF504B494A1B68802189
:1031C000C4F307461170EDB2240E6BB328462246B5
:1031D0003146984728E00B2E11D10B2B7FF45AAFC4
:1031E000474B3F4A1B68B021EAE7464B1B68002B60
:1031F00000F0FB80404898470120BDE8F0810C2E8C
:1032000040F000810C2B7FF445AF3F4B344A1B68E4
:10321000C0211170EDB2C4F30746002B00F0C88046
:1032200028463146240E98473849314A314B0D70B3
:1032300016701C700120BDE8F081354B1B68002B17
:1032400000F0D6809847C4F30746254BEDB2240E14
:1032500083F80080E8E72F4B1B68002BF2D12E4B40
:103260001B68A3B1FE209847C4F30746EDE72B4B3C
:103270001B68002BE6D1284B1B6843B1FC20984704
:10328000C4F30746E1E7264B1B68002BDAD1C4F3F1
:103290000746DAE7234B1B68C4F30746002BD4D05C
:1032A00030469847D1E7204B1A68002AEFD0260C09
:1032B000630C06F07F0003F47E531843F6B2904788
:1032C000C3E71A4B1B68C4F30746002BE8D1BCE7E1
:1032D0004C19FF1FBE1DFF1FBA1DFF1F2819FF1F1E
:1032E000B81DFF1F5C19FF1F501AFF1F2419FF1F75
:1032F000BC1DFF1FBD1DFF1FC01DFF1F5419FF1F59
:103300005819FF1F3C19FF1F1819FF1FBF1DFF1F72
:103310000419FF1F0819FF1F0C19FF1F4819FF1F71
:103320003819FF1F5019FF1F2019FF1F3419FF1FE5
:103330003F4B1B68002B85D13E4B1B68002BA6D052
:10334000FA209847C4F307467FE73B4B1B68002BE6
:103350007FF478AF374B1B68002B98D0FB20984741
:10336000C4F3074671E7354B1B68002B7FF46AAF47
:10337000304B1B68002B8AD0F8209847C4F30746CF
:1033800063E70E2B7FF486AE2D4A2E4B1268E021A8
:103390001970002A47D0260C610C06F07F0301F457
:1033A0007E511943EDB2A1F5005128469047F6B27F
:1033B000240E39E7FFF7A6FDC4F30740FFF7A2FD8F
:1033C000200EFFF79FFD0020BDE8F0811E4B1D4A37
:1033D0001B6880211170EDB2C4F3074683B13146FA
:1033E00028463A4698473C461EE70120BDE8F08152
:1033F000104B1B68002B3FF44AAFFF20984746E76D
:103400001C4611E70D2EBCD10D2B7FF443AE0F4BA4
:103410000C4A1B68D0211170EDB2C4F30746002B93
:103420007FF4FEAEC4E7C4F30746EDB2240EFBE61C
:103430003019FF1F0C19FF1F1019FF1F0019FF1F64
:103440001C19FF1FB81DFF1F5419FF1F2C19FF1F48
:1034500072B60D480268B2FA82F31D2B10DC4FF0F1
:103460000041D94022EA0102026062B6074803EB3C
:10347000C303DB00C2180021C150104651607047E1
:1034800062B60020704700BF6C0CFF1FD003FF1F07
:103490000D4B0E4AC31AA2FB03231B091D2B0CD88C
:1034A0000B4A127852B972B60A484FF000410268CE
:1034B00021FA03F31A43026062B67047064A127893
:1034C000002AF0D000F03EB8D003FF1F398EE33859
:1034D000451AFF1F6C0CFF1F501AFF1F431E042BC1
:1034E00014D872B60A4951F8230068B170B4094C77
:1034F000058834F81320466841F82360521B24F8ED
:10350000132062B670BC704762B6704700207047E7
:10351000BC19FF1FE41EFF1F013804280BD872B628
:10352000074B53F8203043B100205B680130002B7B
:10353000FBD162B67047002070471846F9E700BF1C
:10354000141AFF1F30B472B6334A13781B0706D51E
:10355000324B196A002943D0996A00294ED053781A
:103560001D0706D52D4B196C00294DD0996C0029EB
:1035700046D093781C0706D5284B196E002945D0F4
:10358000996E00293ED0D378190707D5234BD3F87D
:10359000801000293ED0D3F8881091B113791B0711
:1035A00008D51E4BD3F8A020002A31D0D3F8A8208C
:1035B00015243AB162B61A4B00221A7030BCFFF7DC
:1035C00067BF11241649174D0A7843F8345003EBAE
:1035D000C4030830013A58600A7062B630BC7047C4
:1035E00004220F4C104D217843F8325003EBC203F4
:1035F00008304A1E5860227062B6EFE70524E1E702
:103600000924DFE70D24DDE70822EAE70C22E8E7DA
:103610001422E6E71022E4E73C5900000000FF1FF7
:10362000451AFF1FC800400088004000431E042BBD
:103630001DD81B4A400140F0100030B4104472B64F
:10364000184CE25C032A1BD8DFE802F002121517BF
:1036500003220D88E25410F0080F14BFC8238823FA
:1036600043EA054308310360416062B630BC7047ED
:1036700008300222EDE70522EBE708300422E8E7F4
:10368000094A52F8230038B1084A52F82300416031
:1036900042F8231062B6E9E742F82310034AF7E73D
:1036A0000000FF1F541AFF1F141AFF1F281AFF1FC4
:1036B0002DE9F04FDFF808B3DFF808A387B044E046
:1036C000AA4F4FEA930807EBC809013ED9F8042036
:1036D00003F00803F6B2A2F1080003F0FF04002B88
:1036E00040F0008157F838301B0C99B222F8081CC2
:1036F000002B00F0EE809E4B22F8064C42F8044C62
:1037000053F82620002A00F035829A4D55F82630CD
:103710005860994C45F8260034F81630194424F8BE
:103720001610FFF795FE002800F01D82934A944B77
:1037300019F0080F00F1080018BF1346C9F804007B
:1037400047F8383008238BF800309BF80040E4B28B
:1037500060071CD58B4B1B78B3B18B490A7802F0FC
:10376000FF0322B1013BDBB20B7003B900BE8749F6
:103770000A7802F0FF032AB1013BDBB20B70002B89
:1037800000F0C781FFF730FC04238BF8003004F011
:10379000080303F0FF02002B00F0C8809AF8003005
:1037A000DBB21E098CD19C08DFF8C09159F8342097
:1037B00009EBC401C2F38302013A49680C2A00F202
:1037C0008480DFE802F0787882828282828243827B
:1037D0008282070008686E4D684B4A686D4F49F851
:1037E000343081B26C4E6A6040F2816400222860FD
:1037F000A1424FF001003A60C9F81020C9F8182022
:10380000307000F2E180B1F5D06F80F01383B1F534
:10381000817F00F0E68100F2C981802900F02483D5
:10382000822940F0E481A98801F07F01052900F296
:10383000DE815A4B5A4C89000B44227062701A7810
:10384000930740F199832070022014E2514F3A68A7
:1038500032B3544B504E5449188834780D78402870
:10386000864645F0020828BF4FF0400E002C84F039
:1038700001043470CEEB00000CBF8824C82409EB8F
:10388000C80680B285F0010544EA0E4472601880D3
:1038900049F8384072440D70002800F0B6803A6054
:1038A0003B4B1A88B2F5A06F0FD100219A7859705E
:1038B0003E4B1A7009E0364A108842F221029042CB
:1038C00000F0A8802D4A49F83420394A01231370AA
:1038D00038E72A4A2A4B19F0080F18BF134647F851
:1038E00038302FE7FFF7D4FD324A334952F82630FB
:1038F000002B00F0438158688C5D42F8260003F1EC
:103900000802C9F80420032C05D8DFE804F02C02D3
:10391000292602228A551A8819F0080F0CBF88231D
:10392000C82343EA024347F838300BE7E00700F1C9
:10393000F380210600F13081A20706D51F4A2049F5
:1039400013780220DBB213700870E30602D51C4B1B
:1039500010221A7007B0BDE8F08F04228A55DAE70A
:1039600005228A55D7E703228A55D4E70000FF1FB6
:10397000BC19FF1F6419FF1FE41EFF1FC800400091
:1039800088004000501AFF1FD119FF1FE418FF1FC5
:103990003C1AFF1F6019FF1FD019FF1FC0200740EE
:1039A000481AFF1F7819FF1F441AFF1F982007406D
:1039B00094200740141AFF1F541AFF1F8820074045
:1039C000802007409020074042F22104A14200F0ED
:1039D0009C8049D8B1F5086F00F04981B1F5106FAE
:1039E00040F00581B24AB34CA978117004F1A005EA
:1039F00003E00834A54200F08981236A1906F8D54E
:103A0000606A0838FFF744FDF3E7BEF1400F18BFC6
:103A1000002244E7A84A0D784878157050708D78D8
:103A2000C8789570D07010680D79157186284D7919
:103A300089795571917100F01681A049A04E0A78DC
:103A4000307882F00105002842F002020D700CBFB0
:103A50008821C82149F8321009EBC20280F0010028
:103A60000021307051602DE742F22124A14240F044
:103A70000882DFF890C2934B9349AC78DCF8005091
:103A80001D6001900C700020029080468446044620
:103A90008A490D7845F0020E09EBCE030393019B92
:103AA000002B039B5C600CBF8824C82448EA0403F5
:103AB00085F0010449F83E3032700C70DFF8F4E113
:103AC0007F4BDFF8F881002840F09880BCF1400F70
:103AD0001BD144F0020C09EBCC03029CDFF8D4E1CB
:103AE0005C60002A40F0A080020442F088029DF849
:103AF00004304EF83C20044433700D7023464028B7
:103B000003D10020714A3B601080714A0123137079
:103B1000DBE6FEF7ADFE35E6664B6D4867491A6198
:103B20004FF0020E80F800E06A4F0A706A4919608F
:103B300099606A4E6A4D6B4C9A610D213970FF2174
:103B40003170DFF8C4E129702270674D674A8EF842
:103B500000109F27012406F8047C5D600470DA6081
:103B600007B0BDE8F08F624A47F838001378013398
:103B70001370E7E543F826005E4DCAE58B5D032B25
:103B80006AD801A252F823F04537000045370000FB
:103B9000DD3B0000D73B00004E49514B80220D20F9
:103BA00008701A70A2077FF5D0AEC7E640F2023265
:103BB000914240F05E81A98801F07F01052916D865
:103BC0006A88A2B9434C019089000C44217841F0E5
:103BD0000201217057E701238B55B3E500238B5574
:103BE000B0E5A98801F07F01052940F24F81394AEB
:103BF0000F231370364A0123137066E640287FF6C0
:103C000068AF44F002040EEBC401029E4E60BAB1EC
:103C10009DF80410384A19703346403888F800502F
:103C200040334EF834206DE79DF8043033700204C1
:103C3000029B0D7042F0C80203444EF83C205EE740
:103C40009DF804101970029B234A88F800504038F0
:103C500040334EF8342055E719F0080F0CBF02230B
:103C600003238B556EE5254A0F211170E5E6104AB6
:103C7000234C12782270EA88824280F0E1810F4959
:103C80000D78402A944645F0020E28BF4FF0400CB4
:103C900004EB0C0309EBCE000293012344604FEACE
:103CA0000C48CCEB020001930022C824FEE600BFC2
:103CB000501AFF1F0000FF1FAC1DFF1F441AFF1FFB
:103CC000D019FF1FB41DFF1FF418FF1F7819FF1F25
:103CD00094200740C020074088004000882007400B
:103CE00080200740982007407C19FF1FD419FF1F30
:103CF000451AFF1F6419FF1FC8004000D119FF1F9C
:103D0000481AFF1FFC18FF1F8C200740B04CB14A17
:103D1000B149B248B24D01940023B24C02940596C9
:103D2000039580461C46049716460D46306828B118
:103D30004768FFF7ADFB3846002FF9D10023336009
:103D4000039B28681A46002342F8243028B14768AC
:103D5000FFF79EFB3846002FF9D1019B00221B780C
:103D60002A6048F8042B029A4FF00001023B22F827
:103D70001410032B07D8DFE803F058025802019B08
:103D80004FF001021A70019B01340133052C06F13A
:103D9000040605F104050193C8D1934C934D227894
:103DA000934B049F059E002129701A7012077AD444
:103DB00062789049DFF84C820A7013074FF00001D7
:103DC000C9F83010C9F8381000F1C380A2788A49C8
:103DD000DFF830820A7010074FF00001C9F8501068
:103DE000C9F8581000F1A1808449E2780A700021D6
:103DF000C9F87010C9F878101107DFF808827DD46F
:103E000022797F497F4C0A7000211207C9F890106F
:103E1000C9F898105DD433780193002183F0010232
:103E2000C9F8B010C9F8B8102DE6019B4FF0000298
:103E30001A70A8E7744A5468002C3FF4D8AE68881A
:103E4000B5F804E004E00C325468002C3FF4CFAE27
:103E500013888342F7D153887345F4D1000A0328AD
:103E60000CBF2078108906E7684C0220227062702F
:103E700001E7B1F5A06F7FF4BAAE012300220193F0
:103E800001E642F221329142F7D0B0E66A88002A78
:103E90007FF4ADAE5E4C019089000C44217821F096
:103EA00002012170EFE5FFF7D3FA002800F0B68099
:103EB0000830584AC9F82400C9F82020FFF7C8FA8A
:103EC00000287FD00830544AC9F82C00C9F82820AF
:103ED0006EE7FFF7BDFA002856D008304D4AC4F807
:103EE000A400C4F8A020FFF7B3FA002846D0083099
:103EF000494AC9F8AC00C9F8A8208CE7FFF7A8FA2E
:103F0000002800F097800830424AC8F88400C8F8BA
:103F10008020FFF79DFA002800F0868008303E4A96
:103F2000C9F88C00C9F888206AE7FFF791FA0028E1
:103F300042D00830374AC8F86400C8F86020FFF75C
:103F400087FA98B30830344AC9F86C00C9F8682079
:103F50004AE7FFF77DFA18B308302E4AC8F8440044
:103F6000C8F84020FFF774FAA0B108302A4AC9F80F
:103F70004C00C9F8482029E702207CE62A78C9F8D5
:103F8000A80001322A7046E72A78C4F8A00001325E
:103F90002A70A8E72A78C9F8480001322A7015E784
:103FA0002A78C8F8400001322A70DBE72A78C9F87D
:103FB000680001322A7017E72A78C8F860000132D9
:103FC0002A70BCE72A78C9F8280001322A70EFE687
:103FD000541AFF1FBC19FF1F141AFF1F281AFF1FB6
:103FE0006419FF1FE41EFF1F3C590000451AFF1F04
:103FF000C4200740C8200740CC200740D0200740FD
:10400000D42007400000FF1F44590000481AFF1F3A
:10401000C020074088004000C80040002A78C9F846
:10402000200001322A7049E72A78C9F88800013255
:104030002A70E5E62A78C8F8800001322A7068E71D
:104040004028844628BF4FF0400C04EB0C03029339
:104050000123CCEB00004FEA0C480022019317E546
:104060002DE9F041274C00F065FC002204F1A80086
:1040700023461A605A60083383424FF00001F8D19A
:104080002148224A0368DFF89CE0214E214D224F4F
:10409000DFF894C0DFF8948043F480230360136852
:1040A00043F04073136003238EF80030A023337075
:1040B00002F5C922C4F3072300F528302B708030A5
:1040C000C4F3074310323B70240EFF230470134DDA
:1040D0008CF80030124888F800301370012306F87D
:1040E000AC3C4FF400140EF8441C7026102107F865
:1040F0002C3C2E70046082F8F810AEF1440EBDE83E
:10410000F08100BF0000FF1F3480044000D8004051
:10411000402107409C200740B020074035E400E0E4
:1041200004E100E044210740802007408820074048
:1041300038B52C4C237803B138BD01232370FEF72A
:104140008DFA002842D100F0DDFA00283BD100F0C2
:104150004DF9002834D100F055FC70BB00F0DCF9BB
:1041600040BB00F0C7F810BB00F062FBE0B90023D1
:104170002370EFF30583002BDED1EFF3108172B6CD
:10418000194B186828B3194C227812BB45691D6079
:10419000012323700DB3AA6101B962B600254577EA
:1041A000836898472570C7E700F0A0F8DFE700F0C4
:1041B00021F8D9E700F090F8D3E700F0A1FCCDE7B3
:1041C00000F088F8C7E700F099FCC0E700F028F895
:1041D000B9E70029B0D162B638BD054B1D60002992
:1041E000DCD1DAE7591AFF1F6C1DFF1F701DFF1F7E
:1041F000681DFF1F704700BFFEF73EBAFEF716BAF4
:10420000FEF7F0B9FEF72ABAFEF706BBFEF7E0BAF2
:1042100008461146FEF74CBA0846FEF7CDBA00BF75
:10422000704700BF00B5064A036812885B6883B018
:1042300001A9ADF804200222984703B05DF804FB01
:1042400038590000F0B507468BB0002A33D0012A58
:1042500008BF0A2251B3212400E0F4B2B1FBF2F509
:1042600002FB1511C8B2092900F1300198BFC8B28C
:104270000AA988BF3730214488BFC0B201F8240C96
:10428000661E2946002DE8D133B1013CE4B20AABE9
:1042900023442D2203F8242C3B6801AA11195B68E2
:1042A0003846C4F1220298470BB0F0BD30228DF899
:1042B00025202124E8E70368C9B21B6898470BB0A2
:1042C000F0BD00BF0029BABF49422D2300230A22B6
:1042D000FFF7B8BF704700BF704700BF08B5FCF7D5
:1042E000F1F8FCF7F1F8FFF723FFFAE7704700BF9A
:1042F00000F030BD054A064B10781B78C0B2DBB227
:10430000984238BF4030C01A704700BF601AFF1F84
:10431000611AFF1F30B42B4B1A7994061FD52A4817
:10432000DA790378294901333F2B0978C8BF002384
:104330008B42D2B203D0264CD9B2E2540170254A46
:10434000116861B1244A1278D2B2934236BFC2F1E9
:1043500040029B1A9B18272BC4BF01230B70194ADC
:10436000D378DBB2180611D45A060DD5154B1B793C
:104370005B0609D5194B1A491B6800220A7003B164
:104380001A70104B2C22DA7030BC70471179090674
:10439000EAD5144910480C780178C9B28C420DD086
:1043A0004A1C272A84BF00210A460F4D054C98BF9E
:1043B000D1B2AA5CD2B2E2710170D5E76C21D170A2
:1043C000D2E700BF00A00E40601AFF1F611AFF1F56
:1043D0008C1AFF1F5C1AFF1FCD1AFF1FD01AFF1F78
:1043E000CC1AFF1FD41AFF1F641AFF1F054A064B81
:1043F00010781B78C0B2DBB2984238BF4030C01A88
:10440000704700BF481BFF1FDD1AFF1FF0B4384B79
:104410001A7912F0300F2CD072B6997D01F0FF029C
:1044200000293DD062B6334F334938780D78334E8A
:104430001C46C0B2EDB2431C402BE17928BF0023DB
:10444000AB4202F1FF32C9B21CBFF154184612F060
:10445000FF02F0D12A4B1B68C2B23A704BB1A8429E
:1044600036BFC5F14005401B40192728C4BF0122B3
:104470001A701F49CA78D2B2150616D452060DD545
:104480001B4B1B795B0609D51E4B1F491B6800227D
:104490000A7003B11A70164B3C22DA70F0BC7047F8
:1044A0004022D9795A7462B6E3E70B791C06E5D548
:1044B000164B174E1C783378E4B2DBB29C420ED018
:1044C000144D01E0A3420AD00133282B28BF00235A
:1044D0000879E85CC0B2C871087D0728F2D9DBB260
:1044E000034933700B79180644BF7C23CB70C5E7B2
:1044F00000B00640481BFF1FDD1AFF1F081BFF1FEF
:10450000D81AFF1F4C1BFF1FDC1AFF1F501BFF1F79
:10451000491BFF1FE01AFF1F054A064B10781B7846
:10452000C0B2DBB2984238BF4030C01A704700BFFB
:10453000581BFF1F591BFF1F30B42B4B1A799406D1
:104540001FD52A48DA790378294901333F2B0978A6
:10455000C8BF00238B42D2B203D0264CD9B2E2545A
:104560000170254A116861B1244A1278D2B293428F
:1045700036BFC2F140029B1A9B18272BC4BF0123F0
:104580000B70194AD378DBB2180611D45A060DD530
:10459000154B1B795B0609D5194B1A491B6800227C
:1045A0000A7003B11A70104B2C22DA7030BC7047BD
:1045B00011790906EAD5144910480C780178C9B276
:1045C0008C420DD04A1C272A84BF00210A460F4D79
:1045D000054C98BFD1B2AA5CD2B2E2710170D5E7A6
:1045E0006C21D170D2E700BF00D00640581BFF1FDE
:1045F000591BFF1F841BFF1F541BFF1FC51BFF1FE1
:10460000C81BFF1FC41BFF1FCC1BFF1F5C1BFF1F12
:1046100008B5104C08E0236859050DD423681A0525
:104620000FD42368DB0411D423685803F3D5FFF7B4
:104630003FF823685905F1D500F074F823681A058E
:10464000EFD5FFF7E3FE2368DB04EDD500F0EAF9D0
:10465000EAE700BF3480044008B5FFF7D9FF00BF88
:10466000014B10221A80704700200540704700BFA0
:10467000094908B50B6830B16A461844A2F50052E2
:10468000904202D20860184608BD00F035FB0C23AA
:1046900003604FF0FF3008BD800CFF1F084A1378FD
:1046A000802B01D0002070470649074B074808605F
:1046B000002119701378802BFCD00120704700BFB7
:1046C00003E007404480044001E007400000282246
:1046D000094A1378012B01D00020704703F1804371
:1046E00003F5FC23602119701378802BFCD1034B58
:1046F000034A1A600120704703E0074044800440E9
:1047000000000602054A064B10781B78C0B2DBB2E7
:10471000984238BF4030C01A704700BFD41BFF1FFB
:10472000D51BFF1FF0B4384B1A7912F0300F2CD084
:1047300072B6997D01F0FF0200293DD062B6334F79
:10474000334938780D78334E1C46C0B2EDB2431C65
:10475000402BE17928BF0023AB4202F1FF32C9B2FE
:104760001CBFF154184612F0FF02F0D12A4B1B680F
:10477000C2B23A704BB1A84236BFC5F14005401BEA
:1047800040192728C4BF01221A701F49CA78D2B223
:10479000150616D452060DD51B4B1B795B0609D5A1
:1047A0001E4B1F491B6800220A7003B11A70164B7A
:1047B0003C22DA70F0BC70474022D9795A7462B654
:1047C000E3E70B791C06E5D5164B174E1C783378BA
:1047D000E4B2DBB29C420ED0144D01E0A3420AD0F9
:1047E0000133402B28BF00230879E85CC0B2C871B0
:1047F000087D0728F2D9DBB2034933700B7918061C
:1048000044BF7C23CB70C5E700A00640D41BFF1F2C
:10481000D51BFF1F181CFF1FD01BFF1F5C1CFF1F99
:10482000581CFF1F601CFF1F591CFF1FD81BFF1FB8
:10483000054A064B10781B78C0B2DBB2984238BFED
:104840004030C01A704700BF681CFF1F691CFF1F63
:1048500030B42C4B5A6894021FD52B48DA68037881
:104860002A4901333F2B0978C8BF00238B4204D06B
:10487000274CD2B2D9B2E2540170264A116861B114
:10488000254A1278D2B2934236BFC2F140029B1A37
:104890009B18272BC4BF01230B701A4A9368180278
:1048A00002D55268110211D45A020DD5154B5B681E
:1048B0005B0209D5194B1A491B6800220A7003B123
:1048C0001A70184B00221A6030BC7047164A124901
:1048D00010780A78D2B290420DD00132272A84BFD4
:1048E00000200246114D074C98BFD0B2AA5CD2B24C
:1048F000E2600870D8E70E480A4A002401210460EB
:104900001160D1E700400C40681CFF1F691CFF1FAD
:10491000941CFF1F641CFF1FD51CFF1FD81CFF1F0A
:10492000D41CFF1F58018843DC1CFF1F6C1CFF1F99
:104930005C01884310B584B072B6FFF7AFFE184A29
:10494000184B19491160702280211A701A4619708B
:1049500013781B06FCD5154B1C68FFF7B9FE62B631
:10496000134B9C429CBF04EB840464002046114C12
:1049700001A90A2200F020F801A92046002311F81D
:10498000012B01333AB10A2B20F8022FF7D116235D
:10499000237004B010BD5B00DBB2237004B010BD07
:1049A0000400024000000240000007410C000240E9
:1049B0007F969800640DFF1FF0B44D1E2E46002414
:1049C00000E00134B0FBF2F302FB1300092800F110
:1049D00030078ABF3730F8B2C0B206F8010F184668
:1049E000002BEED10A1953704CB1107815F8016FF5
:1049F00028700133E01A834202F80169F5DB0846AA
:104A0000F0BC7047054A064B10781B78C0B2DBB289
:104A1000984238BF4030C01A704700BFE41CFF1FE7
:104A2000E51CFF1F30B42B4B1A7994061FD52A487A
:104A3000DA790378294901333F2B0978C8BF00236D
:104A40008B42D2B203D0264CD9B2E2540170254A2F
:104A5000116861B1244A1278D2B2934236BFC2F1D2
:104A600040029B1A9B18272BC4BF01230B70194AC5
:104A7000D378DBB2180611D45A060DD5154B1B7925
:104A80005B0609D5194B1A491B6800220A7003B14D
:104A90001A70104B2C22DA7030BC7047117909065D
:104AA000EAD5144910480C780178C9B28C420DD06F
:104AB0004A1C272A84BF00210A460F4D054C98BF87
:104AC000D1B2AA5CD2B2E2710170D5E76C21D1708B
:104AD000D2E700BF00C00640E41CFF1FE51CFF1F1B
:104AE000101DFF1FE01CFF1F511DFF1F541DFF1F46
:104AF000501DFF1F581DFF1FE81CFF1F704700BF00
:104B0000704700BF10B4EFF3108272B6437F33B921
:104B1000017F012908D0032910D00123437702B96E
:104B200062B65DF8044B7047114C2168A1B1114980
:104B300043610B68836108605861EEE70E4C2168A1
:104B400081B10E4943610B688361086058610C4B69
:104B50004FF080511960E0E7064B416181612060B0
:104B60001860DAE7054B4161816120601860EEE76B
:104B70006C1DFF1F681DFF1F5C1DFF1F601DFF1FB9
:104B800004ED00E010B4047F4160022CC26003D049
:104B90005DF8044BFFF7B6BF83685DF8044B184718
:104BA00070B5EFF3108272B60C4C206880B10C4ED9
:104BB00000254369236073B19D6102B962B64577F0
:104BC00083689847EFF3108272B620680028F0D10E
:104BD00002B962B670BD3360EFE700BF5C1DFF1F16
:104BE000601DFF1FFFF7DCBF184A30B41468002CAB
:104BF00027D0036821688B420ED2CB1A0021846033
:104C0000C1602360E06010600223037530BC704710
:104C100011688B42144608D3A2685B1A0360002A0D
:104C2000F6D18260C460A060EEE7D268C2608460A2
:104C3000E060C568CB1A0222A8602360027530BC10
:104C400070478460C4601060DEE700BF641DFF1F12
:104C5000F8B5224E34682CB32368002B3AD1204F8C
:104C60001D4604E03468ECB12368002B32D1A36800
:104C700003B1DD6020693360036825751B68BB42A2
:104C800021D1037F4560022BC46020D0FFF73AFF9B
:104C90006368002BE6D023602046FFF7A5FF346849
:104CA000002CE1D1EFF3108372B60E4A0021106898
:104CB000116003B962B628B18468FFF795FF2046FA
:104CC0000028F9D1F8BD224600219847E0E7836823
:104CD0009847DDE7013B2360E4E700BF641DFF1F49
:104CE000854B0000741DFF1F024A136801331360D7
:104CF000FFF7AEBFFC18FF1F014B1868704700BFDD
:104D0000A811FF1F70B50F4E0F4D761BB61018BFC0
:104D1000002405D0013455F8043B9847A642F9D148
:104D20000A4E0B4D761B00F039FEB61018BF00245A
:104D300006D0013455F8043B9847A642F9D170BD1E
:104D400070BD00BFA8590000A8590000B459000068
:104D5000A8590000024B0146186800F003B800BFD4
:104D6000A811FF1F2DE9F04F01F10B05162D83B09F
:104D7000064640F29F8035F0070500F1BF80A9424A
:104D800000F2BC8000F0A6FAB5F5FC7FC0F09C8272
:104D90006B0A00F0BA80042B00F28381A80900F1AD
:104DA000390E4FEA4E033830C44F07EB8303A3F1AB
:104DB00008015C68A14207D1ACE0002A80F2AC8017
:104DC000E468A14200F0A680636823F003035A1B45
:104DD0000F2AF2DDB9493C6901F1080E744500F073
:104DE000B381636823F003035A1B0F2A00F39981F0
:104DF000002AC1F814E0C1F810E080F29E80B3F5FB
:104E0000007F80F06781DB0803F1010C01229B1019
:104E100002FA03F34A6851F83C80C4F8088001EBB9
:104E2000CC091A43A9F10803E3604A6041F83C4009
:104E3000C8F80C40831001249C40944200F28A8000
:104E4000144206D120F003006400144200F1040073
:104E5000FAD007EBC009CC468046DCF80C108C4534
:104E600007D173E1002A80F28181C9688C4500F086
:104E70006D814B6823F003035A1B0F2AF2DD0C46A9
:104E8000D1F80CC054F8088F4B1945F001054D605E
:104E900042F00101C8F80CC03046CCF808807B61B4
:104EA0003B61C3F80CE0C3F808E059609A5000F089
:104EB00013FA1FE0102921D800F00CFA1025062360
:104EC00002207E4F07EB8303A3F108025C68944243
:104ED00000F045816368E168A56823F0030323447B
:104EE00030465A68E96042F001028D605A6000F075
:104EF000F3F90834204603B0BDE8F08F00240C23FA
:104F00002046336003B0BDE8F08F80234FF0400EA1
:104F10003F2049E770465DE72344E1685A68A56889
:104F200042F00102E96030468D605A6000F0D4F929
:104F30000834204603B0BDE8F08F234430465A6859
:104F400042F001025A6000F0C7F90834204603B06D
:104F5000BDE8F08FBC68636823F00308A84504D35C
:104F6000C5EB08030F2B00F38C80554BDFF86091E5
:104F70001A68D9F8003001332A4404EB080A00F01B
:104F8000608102F580520F3222F47F6222F00F021C
:104F900011463046019200F0A1F9B0F1FF3F83467F
:104FA000019A00F05881824500F2FC80454B196857
:104FB000DA451144196000F05381D9F80000DFF898
:104FC00010E101301BBFCAEB0B0A5144CEF800B010
:104FD00019601BF0070100F01781C1F10800C1F54D
:104FE0008051834408315A44C2F30B02C2EB0109D9
:104FF00049463046019300F071F9431C019B00F0D3
:105000003F81CBEB00024A4442F001021968C7F825
:1050100008B04944BC42CBF804201960DFF8A490E2
:1050200016D0B8F10F0F40F2FD806268A8F10C03B2
:1050300023F00703E01802F001024FF0050E1A43B7
:105040000F2B6260C0F804E0C0F808E000F21C8199
:105050001D4BBC681A68914288BF19601B4B1A68C7
:105060009142626888BF196022F003029542A2EB68
:10507000050301D80F2B04DC304600F02DF9002485
:1050800038E7621943F0010345F0010565603046D9
:10509000BA60536000F020F90834204603B0BDE840
:1050A000F08F142B71D9542B00F2A480280B00F13F
:1050B0006F0E4FEA4E036E3076E600BFAC11FF1F55
:1050C000801DFF1F841DFF1F7C1DFF1F781DFF1FFC
:1050D000B815FF1F5A0A042A5ED9142A00F2B380B9
:1050E00002F15C0149005B3207EB810C57F821109B
:1050F000DFF8DC81ACF1080C8C4500F088804A6850
:1051000022F00302934202D289688C45F7D1D1F88C
:105110000CC07A68C4F80CC0A160CCF80840CC6020
:1051200088E6631942F0010745F0010565603046E5
:105130004B610B61C3F80CE0C3F808E05F609A5064
:10514000083400F0C9F8D5E64A6873E608F10108AA
:1051500018F0030F0CF1080C7FF47FAE30E0DC6830
:10516000A34208BF02303FF435AEB3E60B440C4611
:105170005A68C96854F8085F42F001025A60304624
:10518000E9608D6000F0A8F8B4E603F15C0E03F16D
:105190005B004FEA4E0307E69A0902F13901490024
:1051A0003832A1E7BC424A4B3FF400AF9C686268CA
:1051B00022F003025AE759F80839994540F08280F5
:1051C00010F0030F00F1FF30F5D17B6823EA0403F0
:1051D0007B6064009C423FF6BDAE002C3FF4BAAE4B
:1051E0001C4240467FF435AE64001C4200F10400CE
:1051F000FAD02EE6B3F5AA7F18D8E80B00F1780EA6
:105200004FEA4E037730CFE54FF48051EBE60121B2
:10521000D8F80430921001FA02F21A43C8F80420B8
:10522000614677E70123CBF8043025E740F254527A
:10523000934220D8A80C00F17D0E4FEA4E037C303B
:10524000B2E51032A4E6542A26D81A0B02F16F01F7
:1052500049006E3248E7BC68626822F0030205E745
:10526000CAF30B0000287FF4A8AE4244BB6842F0AA
:1052700001025A60ECE6FE234FF07F0E7E2093E59C
:1052800001224FF00009C1E604F10801304600F0A8
:10529000A9F8D9F80010DBE6B2F5AA7F05D8DA0B39
:1052A00002F17801490077321EE740F254518A42F8
:1052B00005D89A0C02F17D0149007C3214E7FE21E9
:1052C0007E2211E77B6884E7E808431C5B00F8E571
:1052D000AC11FF1F704700BF704700BF38B5074CC7
:1052E0000023054608462360FFF7C2F9431C00D09F
:1052F00038BD2368002BFBD02B6038BDF01EFF1F8C
:10530000024B13B1024800F005B8704700000000DE
:1053100021530000002301461A46184600F04AB9FE
:1053200038B5074D074C2C1BA41005D0013C55F88F
:10533000043D9847002CF9D1BDE8384000F03ABB55
:105340000000000000000000F8B5234F0C460646A0
:10535000FFF7C0FFBB685D6825F00305291B01F658
:10536000EF7121F47F6121F00F01A1F58054B4F5B4
:10537000805F07DB00213046FFF7B0FFBB682B449E
:10538000984204D03046FFF7A7FF0020F8BD6142E5
:105390003046FFF7A3FF01300DD0104BBA681968F3
:1053A0002D1B45F001053046091B55601960FFF7BC
:1053B00093FF0120F8BD00213046FFF78FFFBA6848
:1053C000831A0F2BDEDD064C0449246843F00103E9
:1053D000001B53600860D5E7AC11FF1F841DFF1F41
:1053E000B815FF1F002945D02DE9F0410D46804634
:1053F000FFF770FF55F8047C6A4927F00103A5F117
:105400000804E2188E685068B24220F0030062D0AF
:10541000FE0750600BD455F8087CE41B01F1080E20
:10542000A56875453B446FD0E768EF60BD6015180F
:105430006D68ED0742D543F001026260E350B3F5B9
:10544000007F18D2DB085A1C4D6851F83270A760F3
:1054500001209B1000FA03F301EBC2001D43083842
:10546000E0604D6041F83240FC604046BDE8F041EC
:10547000FFF732BF70475A0A042A53D89A0902F13B
:1054800039077F0002F1380501EB870051F827202A
:105490004449083890424DD0516821F003018B42B5
:1054A00002D292689042F7D1D068E060A260846036
:1054B000D4604046BDE8F041FFF70EBF95683A4F13
:1054C000BD4203443FD0D068E86043F001028560EC
:1054D0006260E350B3E7FF07034407D455F8082C94
:1054E000A41A1344A068E268C26090602F4A126850
:1054F00043F00100934260608C60B6D32C4B404671
:105500001968FFF721FFB0E711184968C90744D4AB
:105510009168D268CA60034443F001009160606002
:10552000E350A2E7142A17D802F15C077F0002F1CA
:105530005B05A9E7AA104B68012505FA02F213439F
:105540004B600246B1E743F001024C610C61E5603B
:10555000A5606260E35088E7542A06D81A0B02F16E
:105560006F077F0002F16E058EE7B2F5AA7F06D8BD
:10557000DA0B02F178077F0002F1770584E740F249
:105580005450824206D89A0C02F17D077F0002F146
:105590007C0579E7FE277E2576E743F0010262600D
:1055A000E35062E7AC11FF1FB411FF1FB415FF1FDA
:1055B000801DFF1F2DE9F047254C2568D5F848418F
:1055C0000646884692469946C4B360681F2817DC91
:1055D000431C76B104EB80050122C5F888A0D4F8FD
:1055E000881182401143022EC4F88811C5F8089131
:1055F0001ED00230636044F820800020BDE8F087B0
:10560000144B03B34FF4C870FFF7A4FB0446D0B1AA
:10561000D5F84831002780E88800C5F84841384669
:105620000123C4F88871C4F88C71002EE1D0D1E751
:10563000D4F88C110A43C4F88C21DAE705F5A67476
:10564000C5F84841C1E74FF0FF30BDE8F08700BF23
:1056500098590000554D00004F7070732C20616EFA
:1056600020756E6B6E6F776E204D494449206D65D5
:105670007373616765207479706521006F6E486F80
:105680006C6400006F6E50726573730056454C4F2A
:1056900043495459000000004E4F54454C454E4775
:1056A0005448000050495443480000006F6E526552
:1056B0006C65617365000000496E69746564205310
:1056C000657175656E636500050E08090D0C0607AA
:1056D0000F0403938E8F050E08090D0C06070F04A7
:1056E000FFFFFFFFFFFFFF8E8F11128485868791DA
:1056F000FFFFFFFFFFFFFFFFFF8A8BFFFFFFFFFFA3
:10570000FFFFFFFFFFFFFFFF0393179701811A922F
:105710004008FE4340A004404408FE4344A0044027
:105720000018FE4300C004403000FE4330900440A7
:105730003400FE43349004401C18FE431CC0044057
:105740001018FE4310C004400818FE4308C004406F
:105750000C18FE430CC004400C10FE430CB0044077
:105760001010FE4310B004401810FE4318B004405F
:105770001C10FE431CB004401410FE4314B004403F
:105780000418FE4304C004400010FE4300B004406F
:105790000008FE4300A004400408FE4304A00440A7
:1057A0000C08FE430CA004400808FE4308A0044077
:1057B0001418FE4314C004401818FE4318C00440D7
:1057C0000410FE4304B004400810FE4308B0044037
:1057D0006820FE4368D004401400FE431490044047
:1057E0003800FE43389004403C00FE433C900440A7
:1057F0004000FE43409004404808FE4348A0044057
:105800004C08FE434CA004402808FE4328A0044056
:105810002C08FE432CA004406020FE4360D00440CE
:105820006420FE4364D004402010FE4320B00440B6
:105830002410FE4324B004402810FE4328B0044046
:105840002C10FE432CB004404400FE43449004401E
:105850007000FE43709004407400FE437490044056
:105860006800FE43689004405008FE4350A0044086
:105870005808FE4358A004405C08FE435CA0044066
:105880005408FE4354A004402018FE4320C00440A6
:105890002418FE4324C004401008FE4310A0044016
:1058A0001408FE4314A004403818FE4338C00440D6
:1058B0003418FE4334C004403018FE4330C0044066
:1058C0003C18FE433CC004402C18FE432CC004404E
:1058D0002820FE4328D004402C20FE432CD0044036
:1058E0000020FE4300D004400420FE4304D00440C6
:1058F0000820FE4308D004400C20FE430CD0044096
:105900001020FE4310D004401420FE4314D0044065
:1059100000000000000000001942000011420000D9
:105920000D42000009420000054200000142000053
:10593000FD410000F94100000D0AFFFF1519151582
:1059400019FFFFFF00010000840CFF1F1200000080
:1059500000020000B00CFF1F9500000000030000D3
:10596000600DFF1F0000000001030904980CFF1FD9
:105970000000000002030904480DFF1F00000000A2
:1059800003030904640DFF1F000000000000000075
:105990000000000000000000800DFF1FF8B500BFF0
:1059A000F8BC08BC9E467047015300003504000057
:0459B000AD22000024
:0459B400F8B500BF83
:1059B8009417FF1FA817FF1FBC17FF1FD017FF1F43
:1059C8008418FF1F9C18FF1FB418FF1FCC18FF1F57
:1059D800D815FF1FF015FF1F0A040000FFFFFFFF87
:1059E8001859000000000000E80300000000000053
:1059F800F41EFF1F1201100100000040C0168904A8
:105A080077020102030100001803540065006500D5
:105A18006E00730079006400750069006E006F0005
:105A280009029500030100C032080B0002020201BE
:105A38000409040000010202010005240010010508
:105A4800240101010424020605240600010705813A
:105A58000310004009040100020A000000070502C3
:105A6800024000000705830240000009040200020A
:105A7800010300000724010001250006240201019A
:105A880000062402020200092403010301020100A6
:105A98000924030204010101000905050240000070
:105AA80000000525010101090584024000000000ED
:105AB8000525010103000000180354006500650076
:105AC8006E007300790020004D0049004400490031
