:1000000000000320D101000041450000F944000038
:10001000F9440000F9440000F9440000F9440000EC
:10002000F9440000F9440000F94400004145000093
:1000300041450000F9440000CD4A0000D14B0000CA
:100040004145000041450000414500004145000098
:100050004145000041450000414500004145000088
:100060004145000041450000414500004145000078
:100070004145000041450000414500004145000068
:100080004145000041450000414500004145000058
:100090004145000041450000414500004145000048
:1000A0004145000041450000414500004145000038
:1000B0004145000041450000414500000D4600005B
:1000C00041450000F5420000414500000D49000097
:1000D0004145000021440000414500004145000029
:1000E00041450000414500004145000041450000F8
:1000F00041450000414500004145000041450000E8
:1001000041450000414500004145000041450000D7
:10011000414500009935000041450000414500007F
:1001200041450000414500004145000041450000B7
:1001300041450000414500004145000041450000A7
:100140004145000041450000FD41000041450000DF
:100150004145000041450000414500004145000087
:100160004145000041450000414500004145000077
:100170004145000041450000414500004145000067
:100180004145000041450000414500004145000057
:10019000414500004145000039470000414500004D
:1001A0004145000041450000414500004145000037
:1001B0004145000041450000414500004145000027
:1001C0004145000041450000414500004145000017
:1001D0005C4B4CF2205210B51A804DF628121A8052
:1001E00000BF00BF04F0B0F9574B4FF030621A6007
:1001F000564A9A60564ADA60564B4FF470021A60BB
:10020000554B564A1A60564A136813F4807304D14A
:1002100054490B604FF4A8531360534B1A781107DD
:1002200003D51A7842F008021A70504B5049AA229E
:100230001A70504A504B8B4204D252F8040F43F8C4
:10024000040BF8E74D4B4E4900228B4202D243F893
:10025000042BFAE74B494C4A002352F8230041F89B
:1002600023000133742BF8D1484B494A802103F80D
:10027000011B9342FBD1474B424A1A60464B8A22EC
:100280001A70A3F5805324225A70A0221A709A790A
:100290009207FCD59A79D406FCD4404A937903F0AE
:1002A0000C03082BFAD13E4B60221A7002331A78E5
:1002B000802AFCD1394B01221A715D225A719A7938
:1002C0009006FCD59979354A4906FBD5354B364918
:1002D00019600021596020231370937903F00C03F7
:1002E0000C2BFAD1314B324A1A60324B324A1A6027
:1002F00000225A60072243F8042C304AC3F80C2D20
:1003000062B602F0BDFC174B1B68DA0705D52C4816
:1003100002F038FC2B4B2C4A1A602C4B1B785B06E6
:1003200009D5284C284B22689A4204D1244802F06F
:1003300029FC0023236004F059FC04F00BF903F0BE
:1003400041FFFEE70E20054030800440823F04005C
:100350000100002B88ED00E0002008E0030000858C
:1003600010D0034014D0034002D0074000E0074003
:10037000BC15FF1FCC590000400CFF1FBC15FF1F10
:10038000241FFF1F0002FF1F0000000000E400E028
:1003900064E400E008ED00E0005006400040064044
:1003A00001E007404480044000000602048004404D
:1003B000C010070014E000E01FBF02000000202072
:1003C000310000001CE00340A5C3945A00F0074030
:1003D000FFFFFFFFFFFFFFFFFFFFFFFFFFFFFFFF2D
:1003E000FFFFFFFFFFFFFFFFFFFFFFFFFFFFFFFF1D
:1003F000FFFFFFFFFFFFFFFFFFFFFFFFFFFFFFFF0D
:10040000FFFFFFFFFFFFFFFFFFFFFFFFDEF9FFFF23
:1004100010B5054C237833B9044B13B10448AFF33E
:1004200000800123237010BDBC15FF1F00000000D9
:10043000D0590000084B10B51BB108490848AFF36C
:1004400000800848036803B910BD074B002BFBD0A0
:10045000BDE81040184700BF00000000C015FF1F96
:10046000D0590000BC15FF1F0000000038B504463D
:1004700008460D4604F0C4FE2368024629465B6820
:10048000204698470546204603F040FE284438BDE4
:1004900038B5044600234B2580E80600C8B2237413
:1004A000E560012102F094FB2078217902F07CFBC9
:1004B000204638BD70B5057882B0044628460E4601
:1004C00002F078FBB0FA80F14909284602F06CFB93
:1004D000044B66611B680193019BA3600122227497
:1004E00002B070BD2C19FF1F2DE9F043044689B0FE
:1004F00090F83C0002F05EFB01280546206294F86B
:1005000030702ED0636BA14E326804920499A04AD9
:100510009E48CB1A82FB0312D917C1EBA212AF423D
:100520006362A2621BD0016806910699616130681E
:1005300005900598884205D06168A94202D0002A3A
:10054000656061DD322B04DD1DB994F83030012B7C
:100550000FD084F83050E26209B0BDE8F0836169E1
:10056000E5E70FB3636B894E012F00F08980256AA0
:10057000CAE7002AEDDD0E21864802F00DF8A16AD7
:10058000854803F013FE1321844802F005F8616AE0
:10059000814803F00BFE804803F0B8FDE369A26ACE
:1005A00083F82E50256AD4E7784E636B3268009248
:1005B000009AD21AC82ADAD9D4F81880336898F881
:1005C00000900193019B6363484602F0F3FAB0FA8E
:1005D00080F14909484602F0E7FA33680793079B20
:1005E000C8F8083088F81050C8F8147007216C4813
:1005F00001F0D2FF684803F089FD256A94F8307055
:10060000636B012DB0D07FE7E36966485D6B112114
:1006100001F0C2FF604803F079FDE3695E4893F89A
:100620002E1003F0C3FD5C4803F070FD0C215E4802
:1006300001F0B2FF584803F069FDE36956485B6B6F
:10064000596803F0B3FD544803F060FD6368002B64
:1006500050D1237C002B51D0E76997F82E60002EF3
:1006600030D06968012901DD013969604A4803F029
:100670009DFD494803F04AFD636A256AA26A61E765
:1006800032680292029A4149D21AB2F57A7F7FF615
:100690006EAFE2690968039192F82E100398A06387
:1006A00031B10121256A82F82E1094F830702BE7C1
:1006B00006213E4801F070FF374803F027FDE2694C
:1006C000636BEEE73A4A1378002B75D0012B7FD08D
:1006D000022B0FD1374930481670FFF7C7FE31465D
:1006E000786AFFF7E7FE7B6A01211E74596018786B
:1006F00002F05AFA636A256AA26A23E7637C4BB167
:10070000E36993F82E301BB369680329DCBF01311C
:100710006960ABE7A56969682878B1FA81F1490990
:10072000696002F041FA2B7C33B169682878B1FA2C
:1007300081F1490902F038FAE2692168636A52F8E6
:100740002100256A0179A26A81F001010171F9E6AF
:10075000A56969682878B1FA81F14909696002F0F0
:1007600023FA2B7C33B169682878B1FA81F1490901
:1007700002F01AFAE069636A90F82D10256AA26AFD
:1007800081F0010180F82D10DCE600BF2C19FF1F5D
:10079000D34D621080560000700CFF1F9056000071
:1007A000A45600003C56000050560000345600008D
:1007B000B018FF1F7856000001230D490D48137033
:1007C000FFF754FE786A40F2E731FFF773FE91E7D6
:1007D0000223094907481370FFF748FE3146786A3B
:1007E000FFF768FE7B6A31461E745E607FE700BFDC
:1007F00060560000700CFF1F6C560000704700BF71
:100800002DE9F0470020C2B002F078FB002840F04C
:10081000D583AC4CAC4DAD48FFF766FE95F83C0077
:1008200002F0C8F901280746286200F0AC846B6B1F
:1008300095F83060226832923299A54ADFF884E256
:10084000A148CB1A82FB0312D917C1EBA212B742FF
:100850006B62AA6200F09484DEF800103191319945
:100860004161206830903098884207D06968964E80
:100870008F4203D0002A776040F30686322B06DDD4
:100880002FB995F83030904E012B00F0F784914E3F
:1008900085F8307096F83C00EA6202F08BF9012886
:1008A0000746306200F03084736B96F8305022684F
:1008B0002B922B99864ADFF80CE28648CB1A82FBF2
:1008C0000312D917C1EBA212BD427362B26200F0EB
:1008D0001884DEF800102A912A9941612068299035
:1008E0002998884207D071687A4DB94203D0002A0E
:1008F0006F6040F34986322B06DD2FB996F8303011
:10090000744D012B00F01185734D86F8307095F809
:100910003C00F26202F04EF901280746286200F01E
:1009200071846B6B95F83060226824922499684A30
:10093000DFF890E16848CB1A82FB0312D917C1EBAC
:10094000A212BE426B62AA6200F05984DEF8001067
:10095000239123994161206822902298884207D0F0
:1009600069685D4EB94203D0002A776040F38C86F7
:10097000322B06DD2FB995F83030574E012B00F0A1
:10098000F184564E85F8307096F83C00EA6202F029
:1009900011F901280746306200F07883736B96F8EE
:1009A000305022681D921D99494ADFF818E14B48E2
:1009B000CB1A82FB0312D917C1EBA212BD4273629C
:1009C000B26200F04C83DEF800101C911C9941616A
:1009D00020681B901B98884207D071683F4DB94230
:1009E00003D0002A6F6040F38F85322B06DD2FB9CC
:1009F00096F83030394D012B00F05D84384D86F883
:100A0000307095F83C00F26202F0D4F801280646F6
:100A1000286200F0E9826B6B95F8307022681692BC
:100A200016992B4ADFF89CE02D48CB1A82FB031263
:100A3000D917C1EBA212B7426B62AA6200F0D28250
:100A4000DEF80010159115994161206814901498F2
:100A5000884207D06968224FB14203D0002A7E60E5
:100A600040F3D285322B06DD2EB995F830301C4F7D
:100A7000012B00F03D841B4F85F830603B7CEA621F
:100A8000002B00F0778223681293129BB968FA68F2
:100A90000C4E5B1A9A42C0F05D82134D2B7C002BEA
:100AA00000F0348223680F930F9BA968EA68054F12
:100AB0005B1A9A42C0F01A820C4D2B7C002B00F07E
:100AC000F18115E02C19FF1F4C16FF1F0C16FF1F9C
:100AD000D34D62108C16FF1FCC16FF1F0C17FF1F83
:100AE0004C17FF1FB418FF1FCC18FF1FE418FF1F7F
:100AF00023680C930C9BA968EA68A44F5B1A9A427E
:100B0000C0F0C081A24D2B7C002B00F097812368A0
:100B10000993099BA968EA689C4F5B1A9A42C0F046
:100B20007D819C4D2B7C002B00F054812368069323
:100B3000069BA968EA68954F5B1A9A42C0F03A8111
:100B4000954D2B7C002B00F0FE8023680393039BC4
:100B5000A968EA688D4F5B1A9A42C0F0E4808F4C16
:100B6000207801F02FFFA3686060984224D0C31A58
:100B7000002BB8BF5B420A2B1EDD237E042B00F046
:100B8000C385874B1B78012B00F09E87002B00F05C
:100B90006B84022B0FD12269E1686FF0150303FB10
:100BA00000F3002B02EB8102B8BF03F2FF3352685F
:100BB0009B1218331361A0607A4C207801F002FF79
:100BC000A3686060984224D0C31A002BB8BF5B4270
:100BD0000A2B1EDD237E042B00F0BA85704B1B7898
:100BE000012B00F05387002B00F00284022B0FD161
:100BF0002269E1686FF0150303FB00F3002B02EBA1
:100C00008102B8BF03F2FF3352689B12183313619D
:100C1000A060654C207801F0D5FEA3686060984222
:100C200024D0C31A002BB8BF5B420A2B1EDD237EE3
:100C3000042B00F09C855A4B1B78012B00F0358764
:100C4000002B00F00284022B0FD12269E1686FF0C3
:100C5000150303FB00F3002B02EB8102B8BF03F284
:100C6000FF3352689B1218331361A0604F4C2078F9
:100C700001F0A8FEA3686060984224D0C31A002B3C
:100C8000B8BF5B420A2B1EDD237E042B00F07E855D
:100C9000434B1B78012B00F0D786002B00F0C68356
:100CA000022B0FD12269E1686FF0150303FB00F3FB
:100CB000002B02EB8102B8BF03F2FF3352689B1294
:100CC00018331361A0603A4C207801F07BFEA368D2
:100CD0006060984224D0C31A002BB8BF5B420A2B35
:100CE0001EDD237E042B00F01E852D4B1B78012B6F
:100CF00000F09B86002B00F08A83022B0FD1226923
:100D0000E1686FF0150303FB00F3002B02EB810297
:100D1000B8BF03F2FF3352689B1218331361A0600F
:100D200042B0BDE8F0872E78304601F043FFB0FABC
:100D300080F14909304601F037FF3B680493049B7A
:100D4000AB6000232B746E69134D002E7FF707AF45
:100D500023680293029BA968EA680C4F5B1A9A42C7
:100D6000BFF4FDAE2C78204601F024FFB0FA80F1EC
:100D70004909204601F018FF3B684193023E419A21
:100D80006E610123AA602B74E9E600BF2C19FF1FD6
:100D9000FC18FF1FD815FF1FF015FF1F1418FF1FA9
:100DA000B018FF1F3018FF1F4C18FF1F6818FF1FD7
:100DB0008418FF1F2E78304601F0FCFEB0FA80F157
:100DC0004909304601F0F0FE3B680793079BAB6092
:100DD00000232B746E69A34D002E7FF7B1AE2368FC
:100DE0000593059BA968EA68DFF894825B1A9A422A
:100DF000BFF4A6AE2F78384601F0DCFEB0FA80F1E1
:100E00004909384601F0D0FED8F800304093023E40
:100E1000409A6E610123AA602B7491E62E783046C9
:100E200001F0C8FEB0FA80F14909304601F0BCFE7D
:100E30003B680A930A9BAB6000232B746E698A4D52
:100E4000002E7FF76EAE23680893089BA968EA68B6
:100E5000DFF82C825B1A9A42BFF463AE2F783846D3
:100E600001F0A8FEB0FA80F14909384601F09CFE75
:100E7000D8F800303F93023E3F9A6E610123AA608A
:100E80002B744EE62E78304601F094FEB0FA80F1D5
:100E90004909304601F088FE3B680D930D9BAB601D
:100EA00000232B746E69714D002E7FF72BAE2368E3
:100EB0000B930B9BA968EA68DFF8C4815B1A9A421E
:100EC000BFF420AE2F78384601F074FEB0FA80F1FE
:100ED0004909384601F068FED8F800303E93023EDA
:100EE0003E9A6E610123AA602B740BE62E78304681
:100EF00001F060FEB0FA80F14909304601F054FE7D
:100F00003B681093109BAB6000232B746E69584DA7
:100F1000002E7FF7D1AD23680E930E9BA968EA6877
:100F2000DFF85C815B1A9A42BFF4C6AD2F78384671
:100F300001F040FEB0FA80F14909384601F034FE74
:100F4000D8F800303D93023E3D9A6E610123AA60BD
:100F50002B74B1E53D78284601F02CFEB0FA80F103
:100F60004909284601F020FE33681393139BBB60A8
:100F700000233B747E693F4D002E7FF78EAD2368C2
:100F80001193119BA968EA68DFF8F4805B1A9A4212
:100F9000BFF483AD2F78384601F00CFEB0FA80F133
:100FA0004909384601F000FED8F800303C93023E73
:100FB0003C9A6E610123AA602B746EE52E4B1B7860
:100FC000FA2B00F0F283FC2B00F0E981F82B00F003
:100FD0003784232129482A4C01F0DEFA294803F0FE
:100FE00095F817E4416930E595F830708FBB2368B8
:100FF0001A931A9A6B6BDFF888A0D21AC82A2CD9D8
:10100000D5F81880DAF8003098F800901993199BF9
:101010006B63484601F0CEFDB0FA80F149094846BD
:1010200001F0C2FDDAF800303B933B9B88F810607A
:10103000C8F808300721C8F81470134801F0ACFA5A
:10104000104803F063F82E6A012E7FF4E4AC95F8A3
:1010500030706B6B012F00F034842E6ADEE441693E
:10106000B6E400BFD815FF1FFC18FF1FE418FF1FD0
:10107000CC18FF1FB418FF1FE81DFF1FAC5600005F
:101080002C19FF1F700CFF1FA456000096F830505B
:101090008DBB23682193219A736BDFF850A3D21A7A
:1010A000C82A2CD9D6F81880DAF8003098F80090C1
:1010B0002093209B7363484601F07CFDB0FA80F1D9
:1010C0004909484601F070FDDAF800303A933A9B3E
:1010D00088F81070C8F808300721C8F81450BE48C6
:1010E00001F05AFABD4803F011F8376A012F7FF476
:1010F00055AC96F83050736B012D00F07284376A4E
:101100004FE44169FFF7EABB96F830508DBB236886
:101110002F932F9A736BDFF8D4A2D21AC82A2CD936
:10112000D6F81880DAF8003098F800902E932E9BAD
:101130007363484601F03EFDB0FA80F14909484624
:1011400001F032FDDAF800303893389B88F81070DF
:10115000C8F808300721C8F814509F4801F01CFA5D
:101160009E4802F0D3FF376A012F7FF49DAB96F8BB
:101170003050736B012D00F01084376AFFF797BB76
:101180004169FFF76EBB95F830608EBB23683693DC
:10119000369A6B6BDFF854A2D21AC82A2CD9D5F82C
:1011A0001880DAF8003098F800903593359B6B631F
:1011B000484601F0FFFCB0FA80F14909484601F0C9
:1011C000F3FCDAF800303793379B88F81070C8F8D2
:1011D00008300721C8F814607F4801F0DDF97F4826
:1011E00002F094FF2F6A012F7FF421AB95F8306055
:1011F0006B6B012E00F0AD832F6AFFF71BBB4169BB
:10120000FFF7A9BB95F830608EBB23682893289A16
:101210006B6BDFF8D8A1D21AC82A2CD9D5F8188060
:10122000DAF8003098F800902793279B6B634846C4
:1012300001F0C0FCB0FA80F14909484601F0B4FC65
:10124000DAF800303993399B88F81070C8F8083004
:101250000721C8F81460604801F09EF95F4802F069
:1012600055FF2F6A012F7FF45CAB95F830606B6BF4
:10127000012E00F04A832F6AFFF756BB002A7FF742
:1012800006AB0E21564801F087F9B16A534802F0C7
:101290008DFF1321534801F07FF9716A4F4802F026
:1012A00085FF4E4802F032FFF369B26A83F82E7070
:1012B000376AFFF7ECBA002A7FF7A0AB0E21484847
:1012C00001F06AF9A96A454802F070FF1321454808
:1012D00001F062F9696A414802F068FF3F4802F094
:1012E00015FFEB69AA6A83F82E702F6AFFF786BB99
:1012F000002A7FF7C0AB0E21394801F04DF9B96AD9
:10130000364802F053FF1321364801F045F9796A57
:10131000324802F04BFF314802F0F8FEFB69BA6A2E
:1013200083F82E603E6AFFF7A6BB002A7FF7ECAA7F
:101330000E212B4801F030F9A96A284802F036FF47
:101340001321284801F028F9696A244802F02EFF89
:10135000224802F0DBFEEB69AA6A83F82E702F6A3E
:10136000FFF7D2BA002A7FF70CAB0E211C4801F020
:1013700013F9B16A194802F019FF1321194801F055
:101380000BF9716A154802F011FF144802F0BEFE15
:10139000F369B26A83F82E70376AFFF7F2BA124A1D
:1013A000D16800238C6A936013700B6061682078A9
:1013B000B1FA81F14909616001F0F6FB237C002B51
:1013C0003FF427AA61682078084CB1FA81F14909F5
:1013D00001F0EAFBFFF71EBAA4560000700CFF1FD5
:1013E0008056000090560000A018FF1F2C19FF1F08
:1013F0002369E26803EB8202A0EB80039B0048BFF5
:1014000003F2FF3352689B123333936000E4236985
:10141000E26803EB8202A0EB80039B0048BF03F26B
:10142000FF3352689B123333936078E42369E26898
:1014300003EB8202A0EB80039B0048BF03F2FF3363
:1014400052689B12333393603CE42369E26803EBF8
:101450008202A0EB80039B0048BF03F2FF33526877
:101460009B123333936000E42369E26803EB82024A
:10147000A0EB80039B0048BF03F2FF3352689B122E
:1014800033339360FFF797BBF369AE485F6B11216D
:1014900001F082F8AC4802F039FEF369AA4893F8EB
:1014A0002E1002F083FEA84802F030FE0C21A7485F
:1014B00001F072F8A44802F029FEF369A2485B6BC0
:1014C000596802F073FEA04802F020FE7368B3B9B9
:1014D000337C002B00F0A383D6F81C9099F82E8063
:1014E000B8F1000F00F0BC847968012901DD0139F1
:1014F0007960954802F05AFE934802F007FE6B6A45
:101500002F6AAA6AFFF7BAB9EB698E485F6B11219F
:1015100001F042F88C4802F0F9FDEB698A4893F833
:101520002E1002F043FE884802F0F0FD0C2187489F
:1015300001F032F8844802F0E9FDEB6982485B6B08
:10154000596802F033FE804802F0E0FD6B68B3B9E1
:101550002B7C002B00F08183D5F81C9099F82E800D
:10156000B8F1000F00F0C4847968012901DD013968
:101570007960754802F01AFE734802F0C7FD736A7D
:10158000376AB26AFFF731BAEB696E485F6B1121B7
:1015900001F002F86C4802F0B9FDEB696A4893F873
:1015A0002E1002F003FE684802F0B0FD0C216748DF
:1015B00000F0F2FF644802F0A9FDEB6962485B6B42
:1015C000596802F0F3FD604802F0A0FD6B68B3B902
:1015D0002B7C002B00F01383D5F81C9099F82E80FB
:1015E000B8F1000F00F0A8847968012901DD013904
:1015F0007960554802F0DAFD534802F087FD736ABE
:10160000376AB26AFFF777B9FB694E485E6B112102
:1016100000F0C2FF4C4802F079FDFB694A4893F89C
:101620002E1002F0C3FD484802F070FD0C2147481F
:1016300000F0B2FF444802F069FDFB6942485B6B71
:10164000596802F0B3FD404802F060FD7B68B3B911
:101650003B7C002B00F01083D7F81C9099F82E806B
:10166000B8F1000F00F020847168012901DD013913
:101670007160354802F09AFD334802F047FD6B6A0D
:101680002E6AAA6AFFF7EEB9F3692E485F6B112143
:1016900000F082FF2C4802F039FDF3692A4893F8E4
:1016A0002E1002F083FD284802F030FD0C2127485F
:1016B00000F072FF244802F029FDF36922485B6BB9
:1016C000596802F073FD204802F020FD7368B3B939
:1016D000337C002B00F0B282D6F81C9099F82E8053
:1016E000B8F1000F00F090837968012901DD01391C
:1016F0007960154802F05AFD134802F007FD6B6A45
:101700002F6AAA6AFFF734B9B0F5C87F636980F21F
:1017100026829A680621052A596001DD00229A6016
:101720006068FFF748BAB0F5C87F636980F2088245
:101730009A680621052A596001DD00229A606068D6
:10174000FFF7EDBA3C560000700CFF1F505600002A
:10175000B0F5C87F636980F2E4819A680621052AA2
:10176000596001DD00229A606068FFF751BAB0F558
:10177000C87F636980F2C6819A680621052A59608C
:1017800001DD00229A606068FFF76FBAB0F5C87F8C
:10179000636980F2A8819A680621052A596001DDF3
:1017A00000229A606068FFF78DBAAF4DAF4CEE68CB
:1017B000336806EB83034FF001095F6985F80090F9
:1017C00097F800A04FF000085046C5F8088001F0D7
:1017D000F1F9B0FA80F14909504601F0E5F93368B2
:1017E0002168019106EB83020198526887F81090F6
:1017F0001179C7F81480B860002940F0ED8196F89F
:101800002D20002A00F0BA815A1E002B00F04482DD
:101810003260EB689D6A69682878B1FA81F14909FC
:10182000696001F0C1F92B7C002B3EF4F3AF6968CD
:101830002878B1FA81F1490901F0B6F9FEF7EABF5B
:10184000894DEA68AB68116802EB81020133526886
:10185000AB601269934280F2BA816A6882499A4207
:101860007EF4D7AFCE68814C336806EB83035F69A3
:1018700097F80080404601F09DF9B0FA80F14909DF
:10188000404601F091F933682068009006EB83022E
:101890000121526839740021796111790098B8608A
:1018A000002940F09B8296F82D20002A40F0928279
:1018B0000133032BC8BF002333600023AB60FEF766
:1018C000A9BF22681892189A6849D21AB2F57A7F8D
:1018D0007FF6C3ABEA690968179192F82E10179842
:1018E000A863634E39B1012182F82E102E6A95F853
:1018F0003070FFF793B806215E4800F04DFE5E4859
:1019000002F004FCF269736BEDE722682692269AD6
:101910005649D21AB2F57A7F7FF6ADACEA6909680A
:10192000259192F82E102598A863544E39B10121C3
:1019300082F82E102F6A95F83060FEF7F5BF062169
:101940004C4800F029FE4C4802F0E0FBF269736B52
:10195000EDE722683492349A4449D21AB2F57A7F7C
:101960007FF64AACEA690968339192F82E103398F1
:10197000A863434E39B1012182F82E102F6A95F8E1
:101980003060FEF757BF06213A4800F005FE3A489E
:1019900002F0BCFBF269736BEDE722682D922D9A81
:1019A0003249D21AB2F57A7F7FF6E7ABF26909685D
:1019B0002C9192F82E102C98B063324D39B1012140
:1019C00082F82E10376A96F83050FEF770BF062165
:1019D000284800F0E1FD284802F098FBEA696B6BAB
:1019E000EDE722681F921F9A2049D21AB2F57A7F3A
:1019F0007FF685ABF26909681E9192F82E101E9849
:101A0000B063214D39B1012182F82E10376A96F862
:101A10003050FEF7C6BF0621164800F0BDFD16483F
:101A200002F074FBEA696B6BEDE7E268236903EB94
:101A300082035A68B0EB801348BF03F2FF339B1256
:101A40007F33D360FFF76BB9E268236903EB82034E
:101A50005A68B0EB801348BF03F2FF339B127F3309
:101A6000D360FFF72FB900BFA018FF1F2C19FF1F6D
:101A70004C17FF1F34560000700CFF1FCC16FF1FC1
:101A80004C16FF1F8C16FF1F0C17FF1FE2682369FF
:101A900003EB82035A68B0EB801348BF03F2FF33B5
:101AA0009B127F33D360FFF7B3B8E268236903EB7F
:101AB00082035A68B0EB801348BF03F2FF339B12D6
:101AC0007F33D360FFF7D1B8E268236903EB820369
:101AD0005A68B0EB801348BF03F2FF339B127F3389
:101AE000D360FFF768B8A0F5C872B2F5C87F67D3B6
:101AF000A0F54872DF2A3FF6E5A80A225A6060681E
:101B0000FFF7E0B8A0F5C872B2F5C87F51D3A0F5D1
:101B10004872DF2A3FF6A9A80A225A606068FFF7D8
:101B2000A4B8A0F5C872B2F5C87F3BD3A0F548723F
:101B3000DF2A3FF66DA80A225A606068FFF768B88E
:101B4000A0F5C872B2F5C87F25D3A0F54872DF2A88
:101B50003FF6E5A80A225A606068FFF7E0B8A0F5F2
:101B6000C872B2F5C87F0FD3A0F54872DF2A3FF6DE
:101B700022A80A225A606068FFF71DB80133032BC0
:101B8000C8BF0023336044E69A680821072A5960D9
:101B90003FF7C4ADC4E59A680821072A59603FF7AA
:101BA000CCADCCE59A680821072A59603FF7DAAD39
:101BB000DAE59A680821072A59603FF7E2ADE2E5C5
:101BC0009A680821072A59603FF7EAADEAE5A0487C
:101BD00001F030F9AB6840E69068D36800041B065A
:101BE00003F0FE4300F4FE00184340F41F4040F0B1
:101BF000090001F01FF901F06BF93368FFE56B7C18
:101C0000002B00F0A980EB6993F82E30002B00F038
:101C1000D58179680329DCBF01317960E9E4737CFF
:101C2000002B3CD0F36993F82E30002B00F0A881F4
:101C300079680329DCBF013179605AE4737C002B99
:101C40004CD0F36993F82E30002B00F0F3817968C3
:101C50000329DCBF013179604BE56B7C002B5CD044
:101C6000EB6993F82E30002B00F00282796803298B
:101C7000DCBF013179607CE47B7C002B00F08B8041
:101C8000FB6993F82E30002B00F0B68171680329B0
:101C9000DCBF01317160ECE403233360B9E5B66960
:101CA00071683078B1FA81F14909716000F07CFF08
:101CB000337C33B171683078B1FA81F1490900F0B1
:101CC00073FFEA6929686B6A52F821002F6A01796B
:101CD000AA6A81F001010171FEF7D0BDB669716891
:101CE0003078B1FA81F14909716000F05DFF337C11
:101CF00033B171683078B1FA81F1490900F054FFCD
:101D0000EA6929686B6A52F821002F6A0179AA6A88
:101D100081F001010171FEF72BBEAD696968287879
:101D2000B1FA81F14909696000F03EFF2B7C33B1C3
:101D300069682878B1FA81F1490900F035FFF26944
:101D40003168736A52F82100376A0179B26A81F00A
:101D500001010171FEF749BEAD6969682878B1FAE1
:101D600081F14909696000F01FFF2B7C33B169687C
:101D70002878B1FA81F1490900F016FFF26931685B
:101D8000736A52F82100376A0179B26A81F0010161
:101D90000171FEF7B0BDBE6971683078B1FA81F1AA
:101DA0004909716000F000FF337C33B1716830780D
:101DB000B1FA81F1490900F0F7FEEA6929686B6A16
:101DC00052F821002E6A0179AA6A81F0010101719D
:101DD000FEF748BE5A1EA3B132606EE59068D36824
:101DE00000041B0603F0FE4300F4FE00184340F419
:101DF0001F4040F0090001F01DF801F069F8336858
:101E000051E50323336058E5124A1378002B00F0A4
:101E10009981012B00F0A781022B7FF470AC0E4951
:101E20000E4882F80080FEF721FB4146D9F82400D5
:101E3000FEF740FBD9F82430012183F81080596067
:101E4000187800F0B1FE736A376AB26AFEF790BD87
:101E50000BBF7B7FB018FF1F78560000700CFF1F70
:101E6000B44A1378002B00F03281012B00F0A181DD
:101E7000022B7FF444ABB049B04882F80080FEF7F3
:101E8000F5FA4146D9F82400FEF714FBD9F82430BE
:101E9000012183F810805960187800F085FE736A7C
:101EA000376AB26AFEF7EABCA24A1378002B00F048
:101EB000FD80012B00F06A81022B7FF4E0AB9E498C
:101EC0009E4882F80080FEF7D1FA4146D9F82400F6
:101ED000FEF7F0FAD9F82430012183F81080596018
:101EE000187800F061FE7B6A3E6ABA6AFEF7BABDF6
:101EF000904A1378002B00F0FB80012B00F06C81DE
:101F0000022B7FF43CAB8C498C4882F80080FEF7B2
:101F1000ADFA4146D9F82400FEF7CCFAD9F82430BE
:101F2000012183F810805960187800F03DFE6B6A3B
:101F30002F6AAA6AFEF759BD7E4A1378002B00F07B
:101F4000E880012B00F05B81022B7FF458AB7A49CB
:101F50007A4882F80080FEF789FA4146D9F82400D1
:101F6000FEF7A8FAD9F82430012183F810805960CF
:101F7000187800F019FE6B6A2F6AAA6AFEF7BBBCDC
:101F8000B66971683078B1FA81F14909716000F081
:101F90000BFE337C33B171683078B1FA81F14909B5
:101FA00000F002FEE8696B6A90F82D102F6AAA6AA9
:101FB00081F0010180F82D10FEF760BCAD69696801
:101FC0002878B1FA81F14909696000F0EDFD2B7CB8
:101FD00033B169682878B1FA81F1490900F0E4FD6C
:101FE000F069736A90F82D10376AB26A81F00101C6
:101FF00080F82D10FEF77FBCBE6971683078B1FAA9
:1020000081F14909716000F0CFFD337C33B1716813
:102010003078B1FA81F1490900F0C6FDE8696B6AD0
:1020200090F82D102E6AAA6A81F0010180F82D1017
:10203000FEF718BDB66971683078B1FA81F14909C7
:10204000716000F0B1FD337C33B171683078B1FA62
:1020500081F1490900F0A8FDE8696B6A90F82D103C
:102060002F6AAA6A81F0010180F82D10FEF780BC6A
:10207000AD6969682878B1FA81F14909696000F0B1
:1020800093FD2B7C33B169682878B1FA81F1490955
:1020900000F08AFDF069736A90F82D10376AB26A11
:1020A00081F0010180F82D10FEF79FBC0123244927
:1020B00022481370FEF7DAF9D9F8240040F2E7312C
:1020C000FEF7F8F97B6A3E6ABA6AFEF7CBBC0123D9
:1020D0001B491A481370FEF7C9F9D9F8240040F2D9
:1020E000E731FEF7E7F9736A376AB26AFEF7C6BBF3
:1020F0000123134911481370FEF7B8F9D9F82400E9
:1021000040F2E731FEF7D6F96B6A2F6AAA6AFEF74A
:102110006CBC01230A4909481370FEF7A7F9D9F8E6
:10212000240040F2E731FEF7C5F96B6A2F6AAA6A0C
:10213000FEF7E1BBB018FF1F78560000700CFF1FC0
:10214000605600000123374937481370FEF78EF9B7
:10215000D9F8240040F2E731FEF7ACF9736A376A28
:10216000B26AFEF705BC022330492F481370FEF710
:102170007DF94146D9F82400FEF79CF9D9F82430BE
:10218000414683F81080C3F8048059E602232749AA
:1021900025481370FEF76AF94146D9F82400FEF786
:1021A00089F9D9F82430414683F81080C3F80480B7
:1021B00096E602231D491C481370FEF757F9414665
:1021C000D9F82400FEF776F9D9F82430414683F88F
:1021D0001080C3F804805FE602231449124813708C
:1021E000FEF744F94146D9F82400FEF763F9D9F81F
:1021F0002430414683F81080C3F8048094E602231B
:102200000A4909481370FEF731F94146D9F824000C
:10221000FEF750F9D9F82430414683F81080C3F80E
:102220000480A5E660560000700CFF1F6C5600008D
:102230002DE9F84F002203218848894D894FFEF788
:1022400027F9002205218848FEF722F900220721FC
:102250008648FEF71DF9002209218548FEF718F986
:1022600000220B218348FEF713F90022182182482F
:10227000FEF70EF9814A824BDFF84CE2C2F800E02B
:102280006420002626240421D06016719460116118
:102290007C4AD860C3F800E01E719C6019617A4BDB
:1022A000D060C2F800E01671946011610122D8601C
:1022B000C3F800E01E719C6019612A6305F11003E8
:1022C00005F128003A4652F8041B43F8041F9842CF
:1022D000F9D16E4B6E4E0FCB002468600820EA6087
:1022E000A9602B612C6085F82C4085F82D4001F009
:1022F00073FF03464FF001080F21C3F804806548BF
:102300006B6300F049F9644801F000FF6B6B6248B1
:10231000596801F04BFF604801F0F8FE4FF0020AE7
:102320005E4AB46018232146504673603B6882F8C9
:1023300030404FF004091474547493613470D561C3
:10234000C2F80080C2F83CA0F56000F041FC544A9D
:102350007B6882F830402146484614745474936177
:10236000D561C2F800A0C2F83C9000F031FC4D4BA2
:10237000BA6883F8304021464FF0030B06201C74E6
:102380005C749A61D863DD61C3F800B000F020FC92
:10239000454BF868986108222146104683F8304082
:1023A0001C745C74DA63DD61C3F8009000F010FC0B
:1023B0003E4B386998610A22052021461860104674
:1023C00083F830405C74DA63DD6183F8108000F0DC
:1023D000FFFB374B7F699F6106221A600C22354F45
:1023E00083F83040104621461C74DA63DD6183F8BF
:1023F000118000F0EDFB30483049314A314B3C76DA
:102400004FF00E0CFC6087F800C07E613D614FF01C
:102410000F0E4FF0100C1127122480F800E081F805
:1024200000C017701C704661056180F81880C0F804
:102430000C804E610D6181F818A0C1F80CA05661A6
:10244000156182F818B0C2F80CB05E611D6183F8A6
:102450001890C3F80C90BDE8F88F00BFB418FF1FA8
:102460008C17FF1F500CFF1FCC18FF1FE418FF1F15
:10247000FC18FF1FD815FF1FF015FF1FC417FF1F03
:10248000D817FF1FEC17FF1F0018FF1F400CFF1F7E
:10249000A018FF1FD0560000700CFF1F0C16FF1F66
:1024A0004C16FF1F8C16FF1FCC16FF1F0C17FF1FAB
:1024B0004C17FF1F1418FF1F3018FF1F4C18FF1F69
:1024C0006818FF1F8418FF1F0816FF1F38B50F4D2F
:1024D000286878B143880288C118013393420C7A86
:1024E00002D24380204638BD00F046FF002320463C
:1024F0002B6038BD064B1B782BB1022000F062FF29
:1025000028600028E6D14FF0FF3038BD2019FF1FAA
:10251000801AFF1F10B5094C206818B14388184471
:10252000007A10BD064B1B782BB1022000F04AFF49
:1025300020600028F2D14FF0FF3010BD2019FF1F9E
:10254000801AFF1F044B054A1B6850881BB11A886C
:102550005B88D31A184470472019FF1F141FFF1FF0
:102560000B4B1B789BB110B50A4C206848B100F0AA
:1025700003FF00230220236000F024FF30B100F0AD
:10258000FBFE022000F01EFF0028F8D110BD7047AE
:10259000801AFF1F2019FF1F2DE9F04FDFF8F89078
:1025A00083B0012289F80020019169B3DFF8EC8043
:1025B000354F019E8346D8F80000B0B3334D4488B0
:1025C000C4F14001B14228BF314604EB010E0022A4
:1025D0001FFA8EFE2A70761AA0F802E000F10802B7
:1025E00051B1013C224459441BF8014B02F8014F00
:1025F0008B45F9D1B0F802E0BEF13F0F0BD8244A69
:1026000005211170002ED6D10198002389F80030E1
:1026100003B0BDE8F08F402202800146032000F0A5
:1026200079FF0022C8F80020E9E73A7822B3194C74
:10263000164D4FF0010A07E0013C16D02A78A2B9E6
:1026400001F0EAFC3A78BAB1032000F0D9FE07287D
:10265000F2D889F800A000F06FFEC8F8000000284A
:10266000ADD10D4B013C1870E8D101234FF0FF3084
:102670002B7003B0BDE8F08F00234FF0FF3089F8D6
:10268000003003B0BDE8F08F801AFF1F1C19FF1F38
:102690001419FF1F214801001519FF1F1819FF1FEA
:1026A00000B583B002AB012103F8010D1846FFF716
:1026B00073FF03B05DF804FB38B50E4D0E4C28686F
:1026C0000123237028B1408800232370C0F140000B
:1026D00038BD0A4B1B7813B90020207038BD032089
:1026E00000F08EFE0728F7D800F026FE28600028AC
:1026F000E9D1F1E71819FF1F1519FF1F801AFF1FF5
:10270000F8B5114B1B788BB1104E114D3468012771
:102710002F7064B10F4A6388002717702146238009
:10272000032000F0F7FE376000232B70F8BD00F0A7
:1027300003FE084B28B1014603201C7000F0EAFE9E
:10274000F2E71F70F0E700BF801AFF1F1819FF1F84
:102750001519FF1F1419FF1F38B50E4B1B7873B9DD
:102760000D4C216861B103F0FF054B880B800320FD
:1027700000F0D0FE256038BD084B01221A7038BD2C
:1027800000F0DAFD0028F7D00146BDE8384003200C
:1027900000F0C0BE1519FF1F1819FF1F1419FF1FE5
:1027A000374A384913681B06FCD40B6813F08003C2
:1027B000F8D172B634490A78002A5FD0334A3448D7
:1027C000F0B4344C176806682568D4680C303E4471
:1027D000143200681268304F35442C4420440244BF
:1027E000C2F34E022D4E2E482E4D2F4C42F4004285
:1027F0003A60376806682D682C4A24680C303E44DD
:10280000006812682A4F35442C4420440244C2F325
:102810004E02284E2848294D294C42F400423A6085
:10282000376806682D68274A24680C303E440068E3
:102830001268254F35442C4420440244C2F34E0212
:10284000224E2348234D244C42F400423A6037681C
:1028500006682D68214A24680C303E4400681268DE
:1028600035442C4420440244C2F34E021C4842F436
:10287000004202600B7062B6F0BC704762B67047EF
:1028800024B0034024B00B402619FF1F38B003408A
:102890003CB0034040B003402CB0034058B003406C
:1028A0005CB0034060B0034064B003406CB00340D0
:1028B00030B0034038B00B403CB00B4040B00B4050
:1028C00044B00B404CB00B402CB00B4058B00B4008
:1028D0005CB00B4060B00B4064B00B406CB00B4080
:1028E00030B00B4030B42948294A2A4B2A4D602485
:1028F000E121047011701B78284C082B30D00A2B72
:102900002748284937D00C2B0CBF35225D221223D3
:102910002A60236002600B60234B24491B78244A01
:10292000BBB101230B601360224B23491B78234A60
:10293000012B26D9042B0FD9082B1ED9102B94BF9D
:10294000862387230B6013601D4B01221A7030BC55
:1029500070470B601360E7E784230B601360F3E7B5
:1029600000F58E200F490830212213232A602360AE
:1029700002600B60D0E73922F7E785230B60136014
:10298000E2E780230B601360DEE700BF00400740F2
:1029900001400740680CFF1F08B003400CB0034023
:1029A00008B00B400CB00B402919FF1F20B00340AA
:1029B00020B00B40690CFF1F24B0034024B00B4033
:1029C0002619FF1F47282FD8334B2DE9F0411E5CF5
:1029D000FF2E2BD0314B1B78002B2AD132062CD462
:1029E00072B62F4D2F4C2F46012326602B7062B6F6
:1029F00072B623681B060CD43B781BB9F4E72B781E
:102A0000002BF1D062B601F007FB72B623681806FE
:102A1000F5D5254B1B6800222A7062B6234A107830
:102A200043FA00F0BDE8F081002070470020BDE8C7
:102A3000F081FFF7B5FE3206D2D572B61C4DDFF835
:102A40007C801C4C06F04007FFB206F03F06D8F829
:102A50000030DFB123F01003C8F8003001232660F6
:102A6000134A2B7062B672B6236819060CD4137819
:102A70001BB9ECE72B78002BE9D062B601F0CCFA59
:102A800072B623681B06F5D50B4BC3E743F0100362
:102A9000C8F80030E2E700BFE05600002619FF1F2B
:102AA0002819FF1F00B0034010B003402519FF1F75
:102AB0002719FF1F00B00B4010B00B400CB00B40AB
:102AC00010B4114B53F8302092F8804234B10123F6
:102AD00079B182F880305DF8044B704703EBC00396
:102AE0005B681A6851B922F002021A605DF8044B63
:102AF000704782F800315DF8044B704742F00302E2
:102B00001A605DF8044B7047285700001C4A02EB1E
:102B1000C00301295B6811D004291BD052F8300092
:102B2000002280F8802229B1022920D0032922D056
:102B30001A6070474FF480721A60704752F8300084
:102B40004FF4A27280F880121A601A6822F02002F4
:102B50001A60704752F830104FF4A272012081F8C9
:102B600080021A601A6842F020021A60704740F230
:102B700003121A6070474FF481721A60704700BFE9
:102B80002857000030B4054B054D064C002210219B
:102B90001A602A602060196030BC704714D003406E
:102BA00004D0034000D003403F2801D8FFF788BF7E
:102BB000704700BF3F2806D8044B53F8303093F8D5
:102BC0000002C0B270470020704700BF28570000C5
:102BD0003F2801D8FFF79ABF704700BF2DE9F8439F
:102BE000054672B6224F234B234A1B683C68126885
:102BF00062B6520102D5322B88BF0134B5B3C3F59A
:102C00002F3303F21F331D4EDFF86890DFF8688022
:102C10009B084FF47A72A6FB031302FB04F404EB47
:102C2000930472B6D9F800103A68D8F800E062B69A
:102C3000C1F52F3303F21F339B08A6FB03031EF0DD
:102C4000806FC4EB93034FF47A7002D0322988BFAF
:102C5000013200FB0233B3F57A7F04D3013D05D086
:102C600004F57A74DDE701F0D7F9DAE7BDE8F88317
:102C70002C19FF1F18E000E004ED00E0176CC116EE
:102C8000F8B54E4B4E48DFF85CC14E4C4E49DFF86C
:102C900058E14E4E4E4D4F4F4FF000621A604FF0CC
:102CA00080521A604FF000521A604FF080421A6052
:102CB0004FF000421A600022026028234EF6FF7097
:102CC000CCF80000CEF8003023600EF5012E0B602A
:102CD00033602B6006F500263B6005F50025A362F6
:102CE00007F500278B6204F5012401F5012106F6A2
:102CF000E87605F6E87507F57F6710310EF1100EDE
:102D0000203433602B60CEF800303B600B602360D2
:102D1000314CBB618B6109212160A7F5002704F5C7
:102D20008054203F08343A602060BB60E36047F87D
:102D3000041C04F5FD2407F5FE27043704F2FC7497
:102D400022603860A360FB6044F8041C083404F679
:102D5000FC74C7F8FC2F2060A4F5E124A4F2DC7415
:102D600033602B60C7F8F81F21681C4841F40071DC
:102D7000216001681A4C0EF57F4E0EF1E80E07F542
:102D8000883706F5803605F5803541F00071016021
:102D9000CEF8002047F6FF710822396033602B60BF
:102DA0002260FFF79FFD1920FFF718FF01F0CCF814
:102DB00040F21310BDE8F840FFF710BF04E100E057
:102DC00004800340148003401C800340248003409F
:102DD0002C80034034800340008003400480044082
:102DE00000900C40088003400C80034038B50E4B27
:102DF0000E4C1B68218805468BB1B1F5917F05D239
:102E00000B4A4B1C55549BB2238038BD0022084806
:102E100098470021064A55540123238038BDB1F557
:102E2000917FEDD338BD00BF5419FF1FEA1DFF1F6E
:102E3000F01DFF1F2DE9F843214E224F3168012379
:102E400080463B70B1B1204D4B8801EB83020133CA
:102E500000240F2BC2F808802C7004D84B8000236C
:102E60003B70BDE8F88340230B80042000F052FB48
:102E70003460F4E7DFF8549099F80030002BF0D07C
:102E8000114D4BF6813408E0013C12D02B7883B908
:102E900001F0C2F899F800307BB1042000F0B0FADC
:102EA0000528F1D800F048FA014630600028EBD040
:102EB000CAE701232B70BDE8F883BDE8F88300BFA3
:102EC0007019FF1F4419FF1F7419FF1F801AFF1F7D
:102ED00038B5084B1C7824B9074D296809B14B88CF
:102EE00003B938BD9B000B80042000F013FB2C605D
:102EF00038BD00BF4419FF1F7019FF1F2DE9F041B5
:102F0000AD4E33680746002B00F092801D885A882A
:102F1000910803EB81010432AA428C6842D25A80A4
:102F200004F00F064FEA1428A449A6F1080208F09D
:102F30000F00C4F30313062A00F101050B701AD920
:102F4000B31E012B5FFA88F04ED9052E48D0042E0F
:102F500000F0A481731F022B7FD90F2E0ED1F7280A
:102F600042D8F02802D0964B1B883BB1FFF73EFFBA
:102F70000020BDE8F08127B1BD4202D00020BDE8AD
:102F8000F081082EC4F3033300F08780092E11D09E
:102F90000A2E40F094800A2BF0D18A4B8A4A1B6893
:102FA000A02181E0184600F0E7F9052000F00AFAB8
:102FB0003060B5E7092BE1D1270E00F07B81834B10
:102FC000814A1B689021C4F307461170EDB2FCB230
:102FD000002B00F09D80224631462846984797E016
:102FE000F02843D9F72841D0F1380E28C6D801A3DC
:102FF00053F820F0AB3100008F3100007D3100002C
:103000007D2F00007D2F00006F3100007D2F00001C
:103010004F3200007D2F00001932000033320000D3
:10302000573100007D2F00003F31000023310000A8
:10303000674B1B78002BA1D0052000F0C3F9034695
:10304000306000289AD00588002D7FF460AF00F032
:1030500093F935602846BDE8F081FFF7C7FEC4F359
:103060000740FFF7C3FE072E02D1200EFFF7BEFE7A
:10307000534B584A198858481468584D524A0170A1
:1030800000270E0AF0201F802E7010700CB3012252
:103090005348A0470120BDE8F081082B7FF46EAFB4
:1030A000504B494A1B688021C4F307461170EDB2AA
:1030B000240E6BB3284622463146984728E00B2E53
:1030C00011D10B2B7FF45AAF474B3F4A1B68B021FD
:1030D000EAE7464B1B68002B00F0FB80404898470E
:1030E0000120BDE8F0810C2E40F000810C2B7FF414
:1030F00045AF3F4B344A1B68C0211170EDB2C4F399
:103100000746002B00F0C88028463146240E984719
:103110003849314A314B0D7016701C700120BDE8E2
:10312000F081354B1B68002B00F0D6809847C4F324
:103130000746254BEDB2240E83F80080E8E72F4BBD
:103140001B68002BF2D12E4B1B68A3B1FE209847C1
:10315000C4F30746EDE72B4B1B68002BE6D1284B49
:103160001B6843B1FC209847C4F30746E1E7264BB0
:103170001B68002BDAD1C4F30746DAE7234B1B6840
:10318000C4F30746002BD4D030469847D1E7204BF4
:103190001A68002AEFD0260C630C06F07F0003F4B7
:1031A0007E531843F6B29047C3E71A4B1B68C4F32B
:1031B0000746002BE8D1BCE77C19FF1FEE1DFF1F5F
:1031C000EA1DFF1F5819FF1FE81DFF1F8C19FF1F65
:1031D000801AFF1F5419FF1FEC1DFF1FED1DFF1F5D
:1031E000F01DFF1F8419FF1F8819FF1F6C19FF1F97
:1031F0004819FF1FEF1DFF1F3419FF1F3819FF1F4C
:103200003C19FF1F7819FF1F6819FF1F8019FF1F46
:103210005019FF1F6419FF1F3F4B1B68002B85D1FE
:103220003E4B1B68002BA6D0FA209847C4F30746F4
:103230007FE73B4B1B68002B7FF478AF374B1B6855
:10324000002B98D0FB209847C4F3074671E7354B15
:103250001B68002B7FF46AAF304B1B68002B8AD0B1
:10326000F8209847C4F3074663E70E2B7FF486AE39
:103270002D4A2E4B1268E0211970002A47D0260CE7
:10328000610C06F07F0301F47E511943EDB2A1F504
:10329000005128469047F6B2240E39E7FFF7A6FD05
:1032A000C4F30740FFF7A2FD200EFFF79FFD0020AB
:1032B000BDE8F0811E4B1D4A1B6880211170EDB2E4
:1032C000C4F3074683B1314628463A4698473C4600
:1032D0001EE70120BDE8F081104B1B68002B3FF476
:1032E0004AAFFF20984746E71C4611E70D2EBCD198
:1032F0000D2B7FF443AE0F4B0C4A1B68D02111708D
:10330000EDB2C4F30746002B7FF4FEAEC4E7C4F36E
:103310000746EDB2240EFBE66019FF1F3C19FF1FA4
:103320004019FF1F3019FF1F4C19FF1FE81DFF1F19
:103330008419FF1F5C19FF1F72B60D480268B2FAAC
:1033400082F31D2B10DC4FF00041D94022EA01022C
:10335000026062B6074803EBC303DB00C21800211A
:10336000C15010465160704762B60020704700BFE0
:103370006C0CFF1FD003FF1F0D4B0E4AC31AA2FB9C
:1033800003231B091D2B0CD80B4A127852B972B6B5
:103390000A484FF00041026821FA03F31A43026021
:1033A00062B67047064A1278002AF0D000F03EB8A4
:1033B000D003FF1F398EE338751AFF1F6C0CFF1FF7
:1033C000801AFF1F431E042B14D872B60A4951F805
:1033D000230068B170B4094C058834F8132046689E
:1033E00041F82360521B24F8132062B670BC70476A
:1033F00062B6704700207047EC19FF1F141FFF1FB3
:10340000013804280BD872B6074B53F8203043B16B
:1034100000205B680130002BFBD162B670470020B2
:1034200070471846F9E700BF441AFF1F30B472B660
:10343000334A13781B0706D5324B196A002943D04B
:10344000996A00294ED053781D0706D52D4B196C6B
:1034500000294DD0996C002946D093781C0706D5D9
:10346000284B196E002945D0996E00293ED0D3789B
:10347000190707D5234BD3F8801000293ED0D3F885
:10348000881091B113791B0708D51E4BD3F8A020E3
:10349000002A31D0D3F8A82015243AB162B61A4BCD
:1034A00000221A7030BCFFF767BF11241649174D70
:1034B0000A7843F8345003EBC4030830013A5860EB
:1034C0000A7062B630BC704704220F4C104D217850
:1034D00043F8325003EBC20308304A1E5860227092
:1034E00062B6EFE70524E1E70924DFE70D24DDE715
:1034F0000822EAE70C22E8E71422E6E71022E4E7D4
:10350000545900000000FF1F751AFF1FC80040003B
:1035100088004000431E042B1DD81B4A400140F088
:10352000100030B4104472B6184CE25C032A1BD869
:10353000DFE802F00212151703220D88E25410F0A2
:10354000080F14BFC823882343EA054308310360EA
:10355000416062B630BC704708300222EDE70522B8
:10356000EBE708300422E8E7094A52F8230038B1B3
:10357000084A52F82300416042F8231062B6E9E796
:1035800042F82310034AF7E70000FF1F841AFF1FC9
:10359000441AFF1F581AFF1F2DE9F04FDFF808B338
:1035A000DFF808A387B044E0AA4F4FEA930807EB7F
:1035B000C809013ED9F8042003F00803F6B2A2F1CD
:1035C000080003F0FF04002B40F0008157F838306A
:1035D0001B0C99B222F8081C002B00F0EE809E4BC9
:1035E00022F8064C42F8044C53F82620002A00F03A
:1035F00035829A4D55F826305860994C45F826008A
:1036000034F81630194424F81610FFF795FE0028F8
:1036100000F01D82934A944B19F0080F00F1080046
:1036200018BF1346C9F8040047F8383008238BF850
:1036300000309BF80040E4B260071CD58B4B1B7830
:10364000B3B18B490A7802F0FF0322B1013BDBB230
:103650000B7003B900BE87490A7802F0FF032AB154
:10366000013BDBB20B70002B00F0C781FFF730FC91
:1036700004238BF8003004F0080303F0FF02002B52
:1036800000F0C8809AF80030DBB21E098CD19C088B
:10369000DFF8C09159F8342009EBC401C2F383026A
:1036A000013A49680C2A00F28480DFE802F0787859
:1036B00082828282828243828282070008686E4D03
:1036C000684B4A686D4F49F8343081B26C4E6A607D
:1036D00040F2816400222860A1424FF001003A606C
:1036E000C9F81020C9F81820307000F2E180B1F557
:1036F000D06F80F01383B1F5817F00F0E68100F296
:10370000C981802900F02483822940F0E481A988BE
:1037100001F07F01052900F2DE815A4B5A4C8900E5
:103720000B44227062701A78930740F199832070DD
:10373000022014E2514F3A6832B3544B504E544970
:10374000188834780D784028864645F0020828BF4E
:103750004FF0400E002C84F001043470CEEB0000DA
:103760000CBF8824C82409EBC80680B285F0010587
:1037700044EA0E447260188049F8384072440D7073
:10378000002800F0B6803A603B4B1A88B2F5A06F73
:103790000FD100219A7859703E4B1A7009E0364AD1
:1037A000108842F22102904200F0A8802D4A49F888
:1037B0003420394A0123137038E72A4A2A4B19F07A
:1037C000080F18BF134647F838302FE7FFF7D4FD2E
:1037D000324A334952F82630002B00F043815868B2
:1037E0008C5D42F8260003F10802C9F80420032C7E
:1037F00005D8DFE804F02C02292602228A551A880F
:1038000019F0080F0CBF8823C82343EA024347F886
:1038100038300BE7E00700F1F380210600F130813A
:10382000A20706D51F4A204913780220DBB2137085
:103830000870E30602D51C4B10221A7007B0BDE8D1
:10384000F08F04228A55DAE705228A55D7E703224A
:103850008A55D4E70000FF1FEC19FF1F9419FF1FC2
:10386000141FFF1FC800400088004000801AFF1F7F
:10387000011AFF1F1419FF1F6C1AFF1F9019FF1F59
:10388000001AFF1FC0200740781AFF1FA819FF1F4A
:10389000741AFF1F9820074094200740441AFF1F06
:1038A000841AFF1F8820074080200740902007408F
:1038B00042F22104A14200F09C8049D8B1F5086F82
:1038C00000F04981B1F5106F40F00581B24AB34C68
:1038D000A978117004F1A00503E00834A54200F0B6
:1038E0008981236A1906F8D5606A0838FFF744FD14
:1038F000F3E7BEF1400F18BF002244E7A84A0D7855
:103900004878157050708D78C8789570D0701068B0
:103910000D79157186284D7989795571917100F06D
:103920001681A049A04E0A78307882F0010500285F
:1039300042F002020D700CBF8821C82149F83210F4
:1039400009EBC20280F001000021307051602DE7C8
:1039500042F22124A14240F00882DFF890C2934B4A
:103960009349AC78DCF800501D6001900C70002089
:1039700002908046844604468A490D7845F0020E3E
:1039800009EBCE030393019B002B039B5C600CBFF0
:103990008824C82448EA040385F0010449F83E302D
:1039A00032700C70DFF8F4E17F4BDFF8F88100280B
:1039B00040F09880BCF1400F1BD144F0020C09EBA1
:1039C000CC03029CDFF8D4E15C60002A40F0A080C8
:1039D000020442F088029DF804304EF83C20044472
:1039E00033700D702346402803D10020714A3B609C
:1039F0001080714A01231370DBE6FEF7ADFE35E659
:103A0000664B6D4867491A614FF0020E80F800E07E
:103A10006A4F0A706A49196099606A4E6A4D6B4C28
:103A20009A610D213970FF213170DFF8C4E12970EE
:103A30002270674D674A8EF800109F27012406F810
:103A4000047C5D600470DA6007B0BDE8F08F624A04
:103A500047F83800137801331370E7E543F8260080
:103A60005E4DCAE58B5D032B6AD801A252F823F0A4
:103A70002D3600002D360000C53A0000BF3A000088
:103A80004E49514B80220D2008701A70A2077FF515
:103A9000D0AEC7E640F20232914240F05E81A98882
:103AA00001F07F01052916D86A88A2B9434C01901C
:103AB00089000C44217841F00201217057E701236D
:103AC0008B55B3E500238B55B0E5A98801F07F0144
:103AD000052940F24F81394A0F231370364A0123DA
:103AE000137066E640287FF668AF44F002040EEBE0
:103AF000C401029E4E60BAB19DF80410384A197094
:103B00003346403888F8005040334EF834206DE793
:103B10009DF8043033700204029B0D7042F0C8021D
:103B200003444EF83C205EE79DF804101970029B98
:103B3000234A88F80050403840334EF8342055E787
:103B400019F0080F0CBF022303238B556EE5254A9D
:103B50000F211170E5E6104A234C12782270EA8892
:103B6000824280F0E1810F490D78402A944645F069
:103B7000020E28BF4FF0400C04EB0C0309EBCE0003
:103B80000293012344604FEA0C48CCEB02000193FE
:103B90000022C824FEE600BF801AFF1F0000FF1F9E
:103BA000DC1DFF1F741AFF1F001AFF1FE41DFF1FFB
:103BB0002419FF1FA819FF1F94200740C0200740A9
:103BC0008800400088200740802007409820074058
:103BD000AC19FF1F041AFF1F751AFF1F9419FF1F4E
:103BE000C8004000011AFF1F781AFF1F2C19FF1F81
:103BF0008C200740B04CB14AB149B248B24D019453
:103C00000023B24C02940596039580461C46049707
:103C100016460D46306828B14768FFF7ADFB3846B9
:103C2000002FF9D100233360039B28681A46002334
:103C300042F8243028B14768FFF79EFB3846002F32
:103C4000F9D1019B00221B782A6048F8042B029AC4
:103C50004FF00001023B22F81410032B07D8DFE8D5
:103C600003F058025802019B4FF001021A70019BA9
:103C700001340133052C06F1040605F10405019316
:103C8000C8D1934C934D2278934B049F059E0021FD
:103C900029701A7012077AD462789049DFF84C8242
:103CA0000A7013074FF00001C9F83010C9F8381036
:103CB00000F1C380A2788A49DFF830820A701007C9
:103CC0004FF00001C9F85010C9F8581000F1A18058
:103CD0008449E2780A700021C9F87010C9F8781098
:103CE0001107DFF808827DD422797F497F4C0A7062
:103CF00000211207C9F89010C9F898105DD43378E4
:103D00000193002183F00102C9F8B010C9F8B8107E
:103D10002DE6019B4FF000021A70A8E7744A546820
:103D2000002C3FF4D8AE6888B5F804E004E00C320B
:103D30005468002C3FF4CFAE13888342F7D15388E8
:103D40007345F4D1000A03280CBF2078108906E7D8
:103D5000684C02202270627001E7B1F5A06F7FF419
:103D6000BAAE01230022019301E642F221329142D0
:103D7000F7D0B0E66A88002A7FF4ADAE5E4C0190C1
:103D800089000C44217821F002012170EFE5FFF752
:103D9000D3FA002800F0B6800830584AC9F8240049
:103DA000C9F82020FFF7C8FA00287FD00830544A0D
:103DB000C9F82C00C9F828206EE7FFF7BDFA0028E3
:103DC00056D008304D4AC4F8A400C4F8A020FFF72C
:103DD000B3FA002846D00830494AC9F8AC00C9F8FF
:103DE000A8208CE7FFF7A8FA002800F09780083099
:103DF000424AC8F88400C8F88020FFF79DFA0028DE
:103E000000F0868008303E4AC9F88C00C9F8882046
:103E10006AE7FFF791FA002842D00830374AC8F81D
:103E20006400C8F86020FFF787FA98B30830344A76
:103E3000C9F86C00C9F868204AE7FFF77DFA18B3A3
:103E400008302E4AC8F84400C8F84020FFF774FA3A
:103E5000A0B108302A4AC9F84C00C9F8482029E71F
:103E600002207CE62A78C9F8A80001322A7046E7C9
:103E70002A78C4F8A00001322A70A8E72A78C9F885
:103E8000480001322A7015E72A78C8F8400001324C
:103E90002A70DBE72A78C9F8680001322A7017E730
:103EA0002A78C8F8600001322A70BCE72A78C9F87D
:103EB000280001322A70EFE6841AFF1FEC19FF1F59
:103EC000441AFF1F581AFF1F9419FF1F141FFF1FCA
:103ED00054590000751AFF1FC4200740C82007402E
:103EE000CC200740D0200740D42007400000FF1F0F
:103EF0005C590000781AFF1FC0200740880040006E
:103F0000C80040002A78C9F8200001322A7049E729
:103F10002A78C9F8880001322A70E5E62A78C8F8BC
:103F2000800001322A7068E74028844628BF4FF09D
:103F3000400C04EB0C0302930123CCEB00004FEA8E
:103F40000C480022019317E52DE9F041274C00F0C1
:103F500065FC002204F1A80023461A605A60083369
:103F600083424FF00001F8D12148224A0368DFF86C
:103F70009CE0214E214D224FDFF894C0DFF8948061
:103F800043F480230360136843F0407313600323FA
:103F90008EF80030A023337002F5C922C4F3072342
:103FA00000F528302B708030C4F3074310323B708B
:103FB000240EFF230470134D8CF80030124888F84B
:103FC00000301370012306F8AC3C4FF400140EF8D7
:103FD000441C7026102107F82C3C2E70046082F8D7
:103FE000F810AEF1440EBDE8F08100BF0000FF1FE5
:103FF0003480044000D80040402107409C20074006
:10400000B020074035E400E004E100E0442107402F
:10401000802007408820074038B52C4C237803B116
:1040200038BD01232370FEF78DFA002842D100F03D
:10403000DDFA00283BD100F04DF9002834D100F022
:1040400055FC70BB00F0DCF940BB00F0C7F810BBBA
:1040500000F062FBE0B900232370EFF30583002B2F
:10406000DED1EFF3108172B6194B186828B3194CE2
:10407000227812BB45691D60012323700DB3AA612C
:1040800001B962B600254577836898472570C7E770
:1040900000F0A0F8DFE700F021F8D9E700F090F891
:1040A000D3E700F0A1FCCDE700F088F8C7E700F007
:1040B00099FCC0E700F028F8B9E70029B0D162B652
:1040C00038BD054B1D600029DCD1DAE7891AFF1FD6
:1040D0009C1DFF1FA01DFF1F981DFF1F704700BFE5
:1040E000FEF73EBAFEF716BAFEF7F0B9FEF72ABAA7
:1040F000FEF706BBFEF7E0BA08461146FEF74CBADB
:104100000846FEF7CDBA00BF704700BF00B5064AAB
:10411000036812885B6883B001A9ADF8042002220D
:10412000984703B05DF804FB50590000F0B507460E
:104130008BB0002A33D0012A08BF0A2251B32124B0
:1041400000E0F4B2B1FBF2F502FB1511C8B2092987
:1041500000F1300198BFC8B20AA988BF37302144A6
:1041600088BFC0B201F8240C661E2946002DE8D194
:1041700033B1013CE4B20AAB23442D2203F8242CD2
:104180003B6801AA11195B683846C4F122029847BE
:104190000BB0F0BD30228DF825202124E8E703681C
:1041A000C9B21B6898470BB0F0BD00BF0029BABF69
:1041B00049422D2300230A22FFF7B8BF704700BFF2
:1041C000704700BF08B5FCF719FBFCF719FBFFF7B8
:1041D00023FFFAE7704700BF00F030BD054A064BE9
:1041E00010781B78C0B2DBB2984238BF4030C01A9A
:1041F000704700BF901AFF1F911AFF1F30B42B4B5E
:104200001A7994061FD52A48DA79037829490133A7
:104210003F2B0978C8BF00238B42D2B203D0264C73
:10422000D9B2E2540170254A116861B1244A12786A
:10423000D2B2934236BFC2F140029B1A9B18272B81
:10424000C4BF01230B70194AD378DBB2180611D40E
:104250005A060DD5154B1B795B0609D5194B1A4922
:104260001B6800220A7003B11A70104B2C22DA70FE
:1042700030BC704711790906EAD5144910480C780A
:104280000178C9B28C420DD04A1C272A84BF002174
:104290000A460F4D054C98BFD1B2AA5CD2B2E2716A
:1042A0000170D5E76C21D170D2E700BF00A00E40AD
:1042B000901AFF1F911AFF1FBC1AFF1F8C1AFF1FB5
:1042C000FD1AFF1F001BFF1FFC1AFF1F041BFF1F0F
:1042D000941AFF1F054A064B10781B78C0B2DBB258
:1042E000984238BF4030C01A704700BF781BFF1F8C
:1042F0000D1BFF1FF0B4384B1A7912F0300F2CD081
:1043000072B6997D01F0FF0200293DD062B6334FAD
:10431000334938780D78334E1C46C0B2EDB2431C99
:10432000402BE17928BF0023AB4202F1FF32C9B232
:104330001CBFF154184612F0FF02F0D12A4B1B6843
:10434000C2B23A704BB1A84236BFC5F14005401B1E
:1043500040192728C4BF01221A701F49CA78D2B257
:10436000150616D452060DD51B4B1B795B0609D5D5
:104370001E4B1F491B6800220A7003B11A70164BAE
:104380003C22DA70F0BC70474022D9795A7462B688
:10439000E3E70B791C06E5D5164B174E1C783378EE
:1043A000E4B2DBB29C420ED0144D01E0A3420AD02D
:1043B0000133282B28BF00230879E85CC0B2C871FC
:1043C000087D0728F2D9DBB2034933700B79180650
:1043D00044BF7C23CB70C5E700B00640781BFF1FAD
:1043E0000D1BFF1F381BFF1F081BFF1F7C1BFF1F20
:1043F0000C1BFF1F801BFF1F791BFF1F101BFF1FC4
:10440000054A064B10781B78C0B2DBB2984238BF21
:104410004030C01A704700BF881BFF1F891BFF1F59
:1044200030B42B4B1A7994061FD52A48DA790378D1
:10443000294901333F2B0978C8BF00238B42D2B2F0
:1044400003D0264CD9B2E2540170254A116861B1FB
:10445000244A1278D2B2934236BFC2F140029B1A6C
:104460009B18272BC4BF01230B70194AD378DBB2EA
:10447000180611D45A060DD5154B1B795B0609D5C4
:10448000194B1A491B6800220A7003B11A70104BAD
:104490002C22DA7030BC704711790906EAD514492C
:1044A00010480C780178C9B28C420DD04A1C272ADA
:1044B00084BF00210A460F4D054C98BFD1B2AA5CBB
:1044C000D2B2E2710170D5E76C21D170D2E700BFA2
:1044D00000D00640881BFF1F891BFF1FB41BFF1F56
:1044E000841BFF1FF51BFF1FF81BFF1FF41BFF1F83
:1044F000FC1BFF1F8C1BFF1F08B5104C08E0236836
:1045000059050DD423681A050FD42368DB0411D490
:1045100023685803F3D5FFF73FF823685905F1D511
:1045200000F074F823681A05EFD5FFF7E3FE23685F
:10453000DB04EDD500F0EAF9EAE700BF348004407F
:1045400008B5FFF7D9FF00BF014B10221A80704752
:1045500000200540704700BF094908B50B6830B11D
:104560006A461844A2F50052904202D208601846EA
:1045700008BD00F035FB0C2303604FF0FF3008BD91
:10458000800CFF1F084A1378802B01D00020704751
:104590000649074B07480860002119701378802BE3
:1045A000FCD00120704700BF03E007404480044076
:1045B00001E0074000002822094A1378012B01D0AE
:1045C0000020704703F1804303F5FC23602119703C
:1045D0001378802BFCD1034B034A1A6001207047EB
:1045E00003E007404480044000000602054A064BF1
:1045F00010781B78C0B2DBB2984238BF4030C01A86
:10460000704700BF041CFF1F051CFF1FF0B4384B90
:104610001A7912F0300F2CD072B6997D01F0FF029A
:1046200000293DD062B6334F334938780D78334E88
:104630001C46C0B2EDB2431C402BE17928BF0023D9
:10464000AB4202F1FF32C9B21CBFF154184612F05E
:10465000FF02F0D12A4B1B68C2B23A704BB1A8429C
:1046600036BFC5F14005401B40192728C4BF0122B1
:104670001A701F49CA78D2B2150616D452060DD543
:104680001B4B1B795B0609D51E4B1F491B6800227B
:104690000A7003B11A70164B3C22DA70F0BC7047F6
:1046A0004022D9795A7462B6E3E70B791C06E5D546
:1046B000164B174E1C783378E4B2DBB29C420ED016
:1046C000144D01E0A3420AD00133402B28BF002340
:1046D0000879E85CC0B2C871087D0728F2D9DBB25E
:1046E000034933700B79180644BF7C23CB70C5E7B0
:1046F00000A00640041CFF1F051CFF1F481CFF1FD5
:10470000001CFF1F8C1CFF1F881CFF1F901CFF1F1D
:10471000891CFF1F081CFF1F054A064B10781B78D9
:10472000C0B2DBB2984238BF4030C01A704700BFF9
:10473000981CFF1F991CFF1F30B42C4B5A68940221
:104740001FD52B48DA6803782A4901333F2B0978B3
:10475000C8BF00238B4204D0274CD2B2D9B2E25456
:104760000170264A116861B1254A1278D2B293428B
:1047700036BFC2F140029B1A9B18272BC4BF0123EE
:104780000B701A4A9368180202D55268110211D4AC
:104790005A020DD5154B5B685B0209D5194B1A49B6
:1047A0001B6800220A7003B11A70184B00221A60AD
:1047B00030BC7047164A124910780A78D2B290423B
:1047C0000DD00132272A84BF00200246114D074C2C
:1047D00098BFD0B2AA5CD2B2E2600870D8E70E48A7
:1047E0000A4A0024012104601160D1E700400C4016
:1047F000981CFF1F991CFF1FC41CFF1F941CFF1F48
:10480000051DFF1F081DFF1F041DFF1F58018843C2
:104810000C1DFF1F9C1CFF1F5C01884310B584B05A
:1048200072B6FFF7AFFE184A184B19491160702293
:1048300080211A701A46197013781B06FCD5154B87
:104840001C68FFF7B9FE62B6134B9C429CBF04EB99
:10485000840464002046114C01A90A2200F020F8CB
:1048600001A92046002311F8012B01333AB10A2B8C
:1048700020F8022FF7D11623237004B010BD5B007F
:10488000DBB2237004B010BD0400024000000240FF
:10489000000007410C0002407F969800640DFF1F46
:1048A000F0B44D1E2E46002400E00134B0FBF2F3BC
:1048B00002FB1300092800F130078ABF3730F8B235
:1048C000C0B206F8010F1846002BEED10A1953703A
:1048D0004CB1107815F8016F28700133E01A83424B
:1048E00002F80169F5DB0846F0BC7047054A064B43
:1048F00010781B78C0B2DBB2984238BF4030C01A83
:10490000704700BF141DFF1F151DFF1F30B42B4B38
:104910001A7994061FD52A48DA7903782949013390
:104920003F2B0978C8BF00238B42D2B203D0264C5C
:10493000D9B2E2540170254A116861B1244A127853
:10494000D2B2934236BFC2F140029B1A9B18272B6A
:10495000C4BF01230B70194AD378DBB2180611D4F7
:104960005A060DD5154B1B795B0609D5194B1A490B
:104970001B6800220A7003B11A70104B2C22DA70E7
:1049800030BC704711790906EAD5144910480C78F3
:104990000178C9B28C420DD04A1C272A84BF00215D
:1049A0000A460F4D054C98BFD1B2AA5CD2B2E27153
:1049B0000170D5E76C21D170D2E700BF00C006407E
:1049C000141DFF1F151DFF1F401DFF1F101DFF1F82
:1049D000811DFF1F841DFF1F801DFF1F881DFF1FDE
:1049E000181DFF1F704700BF704700BF10B4EFF3E2
:1049F000108272B6437F33B9017F012908D00329A1
:104A000010D00123437702B962B65DF8044B7047BA
:104A1000114C2168A1B1114943610B6883610860A1
:104A20005861EEE70E4C216881B10E4943610B6875
:104A30008361086058610C4B4FF080511960E0E7CA
:104A4000064B4161816120601860DAE7054B4161E6
:104A5000816120601860EEE79C1DFF1F981DFF1FFD
:104A60008C1DFF1F901DFF1F04ED00E010B4047F9C
:104A70004160022CC26003D05DF8044BFFF7B6BF63
:104A800083685DF8044B184770B5EFF3108272B677
:104A90000C4C206880B10C4E00254369236073B133
:104AA0009D6102B962B6457783689847EFF310823B
:104AB00072B620680028F0D102B962B670BD3360CA
:104AC000EFE700BF8C1DFF1F901DFF1FFFF7DCBF2E
:104AD000184A30B41468002C27D0036821688B4230
:104AE0000ED2CB1A00218460C1602360E0601060A8
:104AF0000223037530BC704711688B42144608D3FB
:104B0000A2685B1A0360002AF6D18260C460A060CC
:104B1000EEE7D268C2608460E060C568CB1A02220A
:104B2000A8602360027530BC70478460C460106068
:104B3000DEE700BF941DFF1FF8B5224E34682CB38A
:104B40002368002B3AD1204F1D4604E03468ECB1B5
:104B50002368002B32D1A36803B1DD602069336084
:104B6000036825751B68BB4221D1037F4560022B7A
:104B7000C46020D0FFF73AFF6368002BE6D02360C3
:104B80002046FFF7A5FF3468002CE1D1EFF3108336
:104B900072B60E4A00211068116003B962B628B1DE
:104BA0008468FFF795FF20460028F9D1F8BD22461A
:104BB00000219847E0E783689847DDE7013B2360E1
:104BC000E4E700BF941DFF1F6D4A0000A41DFF1FF6
:104BD000024A136801331360FFF7AEBF2C19FF1FA1
:104BE000014B1868704700BFA811FF1F70B50F4E2A
:104BF0000F4D761BB61018BF002405D0013455F8B0
:104C0000043B9847A642F9D10A4E0B4D761B00F0A3
:104C1000D1FEB61018BF002406D0013455F8043B6D
:104C20009847A642F9D170BD70BD00BFC0590000C1
:104C3000C0590000CC590000C0590000024B014689
:104C4000186800F003B800BFA811FF1F2DE9F04F4E
:104C500001F10B05162D83B0064640F29F8035F01A
:104C6000070500F1BF80A94200F2BC8000F0A6FA5F
:104C7000B5F5FC7FC0F09C826B0A00F0BA80042B73
:104C800000F28381A80900F1390E4FEA4E03383053
:104C9000C44F07EB8303A3F108015C68A14207D16D
:104CA000ACE0002A80F2AC80E468A14200F0A6806B
:104CB000636823F003035A1B0F2AF2DDB9493C69EC
:104CC00001F1080E744500F0B381636823F003031B
:104CD0005A1B0F2A00F39981002AC1F814E0C1F889
:104CE00010E080F29E80B3F5007F80F06781DB08E2
:104CF00003F1010C01229B1002FA03F34A6851F8F8
:104D00003C80C4F8088001EBCC091A43A9F10803E0
:104D1000E3604A6041F83C40C8F80C40831001242D
:104D20009C40944200F28A80144206D120F0030095
:104D30006400144200F10400FAD007EBC009CC462D
:104D40008046DCF80C108C4507D173E1002A80F214
:104D50008181C9688C4500F06D814B6823F00303A5
:104D60005A1B0F2AF2DD0C46D1F80CC054F8088FFC
:104D70004B1945F001054D6042F00101C8F80CC027
:104D80003046CCF808807B613B61C3F80CE0C3F887
:104D900008E059609A5000F013FA1FE0102921D85A
:104DA00000F00CFA1025062302207E4F07EB830348
:104DB000A3F108025C68944200F045816368E168F1
:104DC000A56823F00303234430465A68E96042F0A3
:104DD00001028D605A6000F0F3F90834204603B0F8
:104DE000BDE8F08F00240C232046336003B0BDE8FB
:104DF000F08F80234FF0400E3F2049E770465DE77B
:104E00002344E1685A68A56842F00102E96030462F
:104E10008D605A6000F0D4F90834204603B0BDE834
:104E2000F08F234430465A6842F001025A6000F085
:104E3000C7F90834204603B0BDE8F08FBC6863684A
:104E400023F00308A84504D3C5EB08030F2B00F398
:104E50008C80554BDFF860911A68D9F80030013327
:104E60002A4404EB080A00F0608102F580520F32F8
:104E700022F47F6222F00F0211463046019200F0C8
:104E8000A1F9B0F1FF3F8346019A00F058818245B5
:104E900000F2FC80454B1968DA451144196000F0B6
:104EA0005381D9F80000DFF810E101301BBFCAEBD5
:104EB0000B0A5144CEF800B019601BF0070100F056
:104EC0001781C1F10800C1F58051834408315A446B
:104ED000C2F30B02C2EB010949463046019300F0D0
:104EE00071F9431C019B00F03F81CBEB00024A4467
:104EF00042F001021968C7F808B04944BC42CBF837
:104F000004201960DFF8A49016D0B8F10F0F40F21A
:104F1000FD806268A8F10C0323F00703E01802F09B
:104F200001024FF0050E1A430F2B6260C0F804E037
:104F3000C0F808E000F21C811D4BBC681A68914261
:104F400088BF19601B4B1A689142626888BF19605C
:104F500022F003029542A2EB050301D80F2B04DCDB
:104F6000304600F02DF9002438E7621943F00103C0
:104F700045F0010565603046BA60536000F020F9E5
:104F80000834204603B0BDE8F08F142B71D9542BA0
:104F900000F2A480280B00F16F0E4FEA4E036E3032
:104FA00076E600BFAC11FF1FB01DFF1FB41DFF1F31
:104FB000AC1DFF1FA81DFF1FB815FF1F5A0A042AAA
:104FC0005ED9142A00F2B38002F15C0149005B3221
:104FD00007EB810C57F82110DFF8DC81ACF1080CED
:104FE0008C4500F088804A6822F00302934202D286
:104FF00089688C45F7D1D1F80CC07A68C4F80CC028
:10500000A160CCF80840CC6088E6631942F0010743
:1050100045F00105656030464B610B61C3F80CE05B
:10502000C3F808E05F609A50083400F0C9F8D5E68C
:105030004A6873E608F1010818F0030F0CF1080C38
:105040007FF47FAE30E0DC68A34208BF02303FF45B
:1050500035AEB3E60B440C465A68C96854F8085F8D
:1050600042F001025A603046E9608D6000F0A8F815
:10507000B4E603F15C0E03F15B004FEA4E0307E672
:105080009A0902F1390149003832A1E7BC424A4B82
:105090003FF400AF9C68626822F003025AE759F8B7
:1050A0000839994540F0828010F0030F00F1FF307D
:1050B000F5D17B6823EA04037B6064009C423FF6E1
:1050C000BDAE002C3FF4BAAE1C4240467FF435AE74
:1050D00064001C4200F10400FAD02EE6B3F5AA7F6A
:1050E00018D8E80B00F1780E4FEA4E037730CFE581
:1050F0004FF48051EBE60121D8F80430921001FA08
:1051000002F21A43C8F80420614677E70123CBF87E
:10511000043025E740F25452934220D8A80C00F105
:105120007D0E4FEA4E037C30B2E51032A4E6542ADD
:1051300026D81A0B02F16F0149006E3248E7BC68AD
:10514000626822F0030205E7CAF30B0000287FF42F
:10515000A8AE4244BB6842F001025A60ECE6FE236E
:105160004FF07F0E7E2093E501224FF00009C1E64B
:1051700004F10801304600F023F9D9F80010DBE60D
:10518000B2F5AA7F05D8DA0B02F17801490077322F
:105190001EE740F254518A4205D89A0C02F17D0173
:1051A00049007C3214E7FE217E2211E77B6884E708
:1051B000E808431C5B00F8E5AC11FF1F704700BF17
:1051C000704700BF38B5074C0023054608462360EA
:1051D000FFF7C2F9431C00D038BD2368002BFBD079
:1051E0002B6038BD201FFF1FFFFFFFFFFFFFFFFFEA
:1051F000FFFFFFFFFFFFFFFFFFFFFFFFFFFFFFFFBF
:1052000090F800F06DE9024520F007016FF0000C06
:1052100010F0070491F820F040F049804FF00004AE
:105220006FF00700D1E9002391F840F000F1080089
:1052300082FA4CF2A4FA8CF283FA4CF3A2FA8CF3C1
:105240004BBBD1E9022382FA4CF200F10800A4FA28
:105250008CF283FA4CF3A2FA8CF3E3B9D1E904237C
:1052600082FA4CF200F10800A4FA8CF283FA4CF3B3
:10527000A2FA8CF37BB9D1E9062301F1200182FA6D
:105280004CF200F10800A4FA8CF283FA4CF3A2FA73
:105290008CF3002BC6D0002A04BF04301A4612BA81
:1052A000B2FA82F2FDE8024500EBD2007047D1E984
:1052B000002304F00305C4F100004FEAC50514F013
:1052C000040F91F840F00CFA05F562EA05021CBFE4
:1052D00063EA050362464FF00004A9E7024B13B1ED
:1052E000024800F005B8704700000000FD520000C1
:1052F000002301461A46184600F04AB938B5074D52
:10530000074C2C1BA41005D0013C55F8043D9847D0
:10531000002CF9D1BDE8384000F058BB0000000077
:1053200000000000F8B5234F0C460646FFF746FF85
:10533000BB685D6825F00305291B01F6EF7121F4B8
:105340007F6121F00F01A1F58054B4F5805F07DB88
:1053500000213046FFF736FFBB682B44984204D04B
:105360003046FFF72DFF0020F8BD61423046FFF7C1
:1053700029FF01300DD0104BBA6819682D1B45F07C
:1053800001053046091B55601960FFF719FF012020
:10539000F8BD00213046FFF715FFBA68831A0F2BBE
:1053A000DEDD064C0449246843F00103001B536012
:1053B0000860D5E7AC11FF1FB41DFF1FB815FF1F14
:1053C000002945D02DE9F0410D468046FFF7F6FE55
:1053D00055F8047C6A4927F00103A5F10804E21896
:1053E0008E685068B24220F0030062D0FE07506021
:1053F0000BD455F8087CE41B01F1080EA56875452F
:105400003B446FD0E768EF60BD6015186D68ED072D
:1054100042D543F001026260E350B3F5007F18D239
:10542000DB085A1C4D6851F83270A76001209B10B0
:1054300000FA03F301EBC2001D430838E0604D6041
:1054400041F83240FC604046BDE8F041FFF7B8BE8D
:1054500070475A0A042A53D89A0902F139077F0083
:1054600002F1380501EB870051F82720444908383C
:1054700090424DD0516821F003018B4202D29268D4
:105480009042F7D1D068E060A2608460D46040466A
:10549000BDE8F041FFF794BE95683A4FBD42034422
:1054A0003FD0D068E86043F0010285606260E3505D
:1054B000B3E7FF07034407D455F8082CA41A134494
:1054C000A068E268C26090602F4A126843F0010051
:1054D000934260608C60B6D32C4B40461968FFF74E
:1054E00021FFB0E711184968C90744D49168D26810
:1054F000CA60034443F0010091606060E350A2E79A
:10550000142A17D802F15C077F0002F15B05A9E7B6
:10551000AA104B68012505FA02F213434B600246BC
:10552000B1E743F001024C610C61E560A560626087
:10553000E35088E7542A06D81A0B02F16F077F0060
:1055400002F16E058EE7B2F5AA7F06D8DA0B02F1FA
:1055500078077F0002F1770584E740F254508242D9
:1055600006D89A0C02F17D077F0002F17C0579E7ED
:10557000FE277E2576E743F001026260E35062E792
:10558000AC11FF1FB411FF1FB415FF1FB01DFF1F8B
:105590002DE9F047254C2568D5F848410646884650
:1055A00092469946C4B360681F2817DC431C76B145
:1055B00004EB80050122C5F888A0D4F88811824048
:1055C0001143022EC4F88811C5F808911ED002308C
:1055D000636044F820800020BDE8F087144B03B3DB
:1055E0004FF4C870FFF72AFB0446D0B1D5F8483114
:1055F000002780E88800C5F8484138460123C4F8F0
:105600008871C4F88C71002EE1D0D1E7D4F88C11E8
:105610000A43C4F88C21DAE705F5A674C5F84841B9
:10562000C1E74FF0FF30BDE8F08700BFB059000080
:105630003D4C00006F6E486F6C6400006F6E5072DE
:105640006573732073686966744D6F64650000004C
:105650006F6E5072657373207061676500000000A3
:1056600056454C4F43495459000000004E4F544595
:105670004C454E47544800005049544348000000F0
:105680005365636F6E64732068656C643A20000034
:105690004D696C6C697365636F6E64732068656CCB
:1056A000643A20006F6E5072657373004F707073B0
:1056B0002C20616E20756E6B6E6F776E204D4944A5
:1056C00049206D6573736167652074797065210089
:1056D000496E697465642053657175656E63650014
:1056E000050E08090D0C06070F0403938E8F050E97
:1056F00008090D0C06070F04FFFFFFFFFFFFFF8ED9
:105700008F11128485868791FFFFFFFFFFFFFFFF48
:10571000FF8A8BFFFFFFFFFFFFFFFFFFFFFFFFFF82
:105720000393179701811A924008FE4340A004405A
:105730004408FE4344A004400018FE4300C0044057
:105740003000FE43309004403400FE433490044067
:105750001C18FE431CC004401018FE4310C0044037
:105760000818FE4308C004400C18FE430CC0044057
:105770000C10FE430CB004401010FE4310B0044067
:105780001810FE4318B004401C10FE431CB0044027
:105790001410FE4314B004400418FE4304C0044037
:1057A0000010FE4300B004400008FE4300A0044087
:1057B0000408FE4304A004400C08FE430CA004406F
:1057C0000808FE4308A004401418FE4314C0044017
:1057D0001818FE4318C004400410FE4304B00440EF
:1057E0000810FE4308B004406820FE4368D004401F
:1057F0001400FE43149004403800FE4338900440E7
:105800003C00FE433C9004404000FE434090044076
:105810004808FE4348A004404C08FE434CA0044006
:105820002808FE4328A004402C08FE432CA0044076
:105830006020FE4360D004406420FE4364D00440F6
:105840002010FE4320B004402410FE4324B0044046
:105850002810FE4328B004402C10FE432CB0044016
:105860004400FE43449004407000FE4370900440A6
:105870007400FE43749004406800FE436890044046
:105880005008FE4350A004405808FE4358A004406E
:105890005C08FE435CA004405408FE4354A004404E
:1058A0002018FE4320C004402418FE4324C00440B6
:1058B0001008FE4310A004401408FE4314A0044046
:1058C0003818FE4338C004403418FE4334C0044046
:1058D0003018FE4330C004403C18FE433CC0044036
:1058E0002C18FE432CC004402820FE4328D004403E
:1058F0002C20FE432CD004400020FE4300D0044066
:105900000420FE4304D004400820FE4308D0044095
:105910000C20FE430CD004401020FE4310D0044065
:105920001420FE4314D004400000000000000000DA
:1059300001410000F9400000F5400000F140000086
:10594000ED400000E9400000E5400000E1400000BB
:105950000D0AFFFF1519151519FFFFFF00010000C3
:10596000840CFF1F1200000000020000B00CFF1F9B
:105970009500000000030000600DFF1F0000000004
:1059800001030904980CFF1F000000000203090432
:10599000480DFF1F0000000003030904640DFF1FF2
:1059A00000000000000000000000000000000000F7
:1059B000800DFF1FF8B500BFF8BC08BC9E467047BD
:0C59C000DD520000350400003122000020
:0459CC00F8B500BF6B
:1059D000C417FF1FD817FF1FEC17FF1F0018FF1F6A
:1059E000B418FF1FCC18FF1FE418FF1FFC18FF1F7F
:1059F000D815FF1FF015FF1F0A040000FFFFFFFF6F
:105A00003059000000000000E80300000000000022
:105A1000241FFF1F1201100100000040C01689045E
:105A200077020102030100001803540065006500BD
:105A30006E00730079006400750069006E006F00ED
:105A400009029500030100C032080B0002020201A6
:105A500004090400000102020100052400100105F0
:105A60002401010104240206052406000107058122
:105A70000310004009040100020A000000070502AB
:105A800002400000070583024000000904020002F2
:105A90000103000007240100012500062402010182
:105AA000000624020202000924030103010201008E
:105AB0000924030204010101000905050240000058
:105AC00000000525010101090584024000000000D5
:105AD000052501010300000018035400650065005E
